{
	"data": {
		"bytecode": {
			"linkReferences": {},
			"object": "6101406040523480156200001257600080fd5b506040518060400160405280600a81526020017f43686f636f204368697000000000000000000000000000000000000000000000815250806040518060400160405280600181526020017f31000000000000000000000000000000000000000000000000000000000000008152506040518060400160405280600a81526020017f43686f636f2043686970000000000000000000000000000000000000000000008152506040518060400160405280600481526020017f43484f430000000000000000000000000000000000000000000000000000000081525081600390805190602001906200010492919062000303565b5080600490805190602001906200011d92919062000303565b5050506200014062000134620001f960201b60201c565b6200020160201b60201c565b60008280519060200120905060008280519060200120905060007f8b73c3c69bb8fe3d512ecc4cf759cc79239f7b179b0ffacaa9a75d522b39400f90508260e081815250508161010081815250504660a08181525050620001a9818484620002c760201b60201c565b608081815250503073ffffffffffffffffffffffffffffffffffffffff1660c08173ffffffffffffffffffffffffffffffffffffffff1681525050806101208181525050505050505050620004f0565b600033905090565b6000600960009054906101000a900473ffffffffffffffffffffffffffffffffffffffff16905081600960006101000a81548173ffffffffffffffffffffffffffffffffffffffff021916908373ffffffffffffffffffffffffffffffffffffffff1602179055508173ffffffffffffffffffffffffffffffffffffffff168173ffffffffffffffffffffffffffffffffffffffff167f8be0079c531659141344cd1fd0a4f28419497f9722a3daafe3b4186f6b6457e060405160405180910390a35050565b60008383834630604051602001620002e49594939291906200042e565b6040516020818303038152906040528051906020012090509392505050565b8280546200031190620004ba565b90600052602060002090601f01602090048101928262000335576000855562000381565b82601f106200035057805160ff191683800117855562000381565b8280016001018555821562000381579182015b828111156200038057825182559160200191906001019062000363565b5b50905062000390919062000394565b5090565b5b80821115620003af57600081600090555060010162000395565b5090565b6000819050919050565b620003c881620003b3565b82525050565b6000819050919050565b620003e381620003ce565b82525050565b600073ffffffffffffffffffffffffffffffffffffffff82169050919050565b60006200041682620003e9565b9050919050565b620004288162000409565b82525050565b600060a082019050620004456000830188620003bd565b620004546020830187620003bd565b620004636040830186620003bd565b620004726060830185620003d8565b6200048160808301846200041d565b9695505050505050565b7f4e487b7100000000000000000000000000000000000000000000000000000000600052602260045260246000fd5b60006002820490506001821680620004d357607f821691505b60208210811415620004ea57620004e96200048b565b5b50919050565b60805160a05160c05160e0516101005161012051614de4620005406000396000611b0b01526000611b4d01526000611b2c01526000611a6101526000611ab701526000611ae00152614de46000f3fe608060405234801561001057600080fd5b50600436106102065760003560e01c8063715018a61161011a5780639ab24eb0116100ad578063d505accf1161007c578063d505accf1461065f578063d9d98ce41461067b578063dd62ed3e146106ab578063f1127ed8146106db578063f2fde38b1461070b57610206565b80639ab24eb0146105b3578063a457c2d7146105e3578063a9059cbb14610613578063c3cda5201461064357610206565b80638e539e8c116100e95780638e539e8c1461052b57806395d89b411461055b5780639711715a14610579578063981b24d01461058357610206565b8063715018a6146104b757806379cc6790146104c15780637ecebe00146104dd5780638da5cb5b1461050d57610206565b806340c10f191161019d5780635c19a95c1161016c5780635c19a95c146103db5780635cffe9de146103f7578063613255ab146104275780636fcfff451461045757806370a082311461048757610206565b806340c10f191461034357806342966c681461035f5780634ee2cd7e1461037b578063587cde1e146103ab57610206565b8063313ce567116101d9578063313ce567146102a75780633644e515146102c557806339509351146102e35780633a46b1a81461031357610206565b806306fdde031461020b578063095ea7b31461022957806318160ddd1461025957806323b872dd14610277575b600080fd5b610213610727565b6040516102209190613401565b60405180910390f35b610243600480360381019061023e91906134c1565b6107b9565b604051610250919061351c565b60405180910390f35b6102616107dc565b60405161026e9190613546565b60405180910390f35b610291600480360381019061028c9190613561565b6107e6565b60405161029e919061351c565b60405180910390f35b6102af610815565b6040516102bc91906135d0565b60405180910390f35b6102cd61081e565b6040516102da9190613604565b60405180910390f35b6102fd60048036038101906102f891906134c1565b61082d565b60405161030a919061351c565b60405180910390f35b61032d600480360381019061032891906134c1565b610864565b60405161033a9190613546565b60405180910390f35b61035d600480360381019061035891906134c1565b6108f8565b005b6103796004803603810190610374919061361f565b61090e565b005b610395600480360381019061039091906134c1565b610922565b6040516103a29190613546565b60405180910390f35b6103c560048036038101906103c0919061364c565b610992565b6040516103d29190613688565b60405180910390f35b6103f560048036038101906103f0919061364c565b6109fb565b005b610411600480360381019061040c9190613746565b610a0f565b60405161041e919061351c565b60405180910390f35b610441600480360381019061043c919061364c565b610c0b565b60405161044e9190613546565b60405180910390f35b610471600480360381019061046c919061364c565b610c82565b60405161047e91906137ed565b60405180910390f35b6104a1600480360381019061049c919061364c565b610cd6565b6040516104ae9190613546565b60405180910390f35b6104bf610d1e565b005b6104db60048036038101906104d691906134c1565b610d32565b005b6104f760048036038101906104f2919061364c565b610d52565b6040516105049190613546565b60405180910390f35b610515610da2565b6040516105229190613688565b60405180910390f35b6105456004803603810190610540919061361f565b610dcc565b6040516105529190613546565b60405180910390f35b610563610e22565b6040516105709190613401565b60405180910390f35b610581610eb4565b005b61059d6004803603810190610598919061361f565b610ec7565b6040516105aa9190613546565b60405180910390f35b6105cd60048036038101906105c8919061364c565b610ef8565b6040516105da9190613546565b60405180910390f35b6105fd60048036038101906105f891906134c1565b611009565b60405161060a919061351c565b60405180910390f35b61062d600480360381019061062891906134c1565b611080565b60405161063a919061351c565b60405180910390f35b61065d60048036038101906106589190613860565b6110a3565b005b610679600480360381019061067491906138ed565b6111a7565b005b610695600480360381019061069091906134c1565b6112e9565b6040516106a29190613546565b60405180910390f35b6106c560048036038101906106c0919061398f565b61136b565b6040516106d29190613546565b60405180910390f35b6106f560048036038101906106f091906139fb565b6113f2565b6040516107029190613ab0565b60405180910390f35b6107256004803603810190610720919061364c565b611502565b005b60606003805461073690613afa565b80601f016020809104026020016040519081016040528092919081815260200182805461076290613afa565b80156107af5780601f10610784576101008083540402835291602001916107af565b820191906000526020600020905b81548152906001019060200180831161079257829003601f168201915b5050505050905090565b6000806107c4611586565b90506107d181858561158e565b600191505092915050565b6000600254905090565b6000806107f1611586565b90506107fe858285611759565b6108098585856117e5565b60019150509392505050565b60006012905090565b6000610828611a5d565b905090565b600080610838611586565b905061085981858561084a858961136b565b6108549190613b5b565b61158e565b600191505092915050565b60004382106108a8576040517f08c379a000000000000000000000000000000000000000000000000000000000815260040161089f90613bfd565b60405180910390fd5b6108f0600d60008573ffffffffffffffffffffffffffffffffffffffff1673ffffffffffffffffffffffffffffffffffffffff16815260200190815260200160002083611b77565b905092915050565b610900611cc8565b61090a8282611d46565b5050565b61091f610919611586565b82611d54565b50565b600080600061096f84600560008873ffffffffffffffffffffffffffffffffffffffff1673ffffffffffffffffffffffffffffffffffffffff168152602001908152602001600020611d62565b91509150816109865761098185610cd6565b610988565b805b9250505092915050565b6000600c60008373ffffffffffffffffffffffffffffffffffffffff1673ffffffffffffffffffffffffffffffffffffffff16815260200190815260200160002060009054906101000a900473ffffffffffffffffffffffffffffffffffffffff169050919050565b610a0c610a06611586565b82611e58565b50565b6000610a1a85610c0b565b841115610a5c576040517f08c379a0000000000000000000000000000000000000000000000000000000008152600401610a5390613c8f565b60405180910390fd5b6000610a6886866112e9565b9050610a748786611d46565b7f439148f0bbc682ca079e46d6e2c2f0c1e3b820f1a291b069d8882abf8cf18dd98773ffffffffffffffffffffffffffffffffffffffff166323e30c8b338989868a8a6040518763ffffffff1660e01b8152600401610ad896959493929190613cfc565b602060405180830381600087803b158015610af257600080fd5b505af1158015610b06573d6000803e3d6000fd5b505050506040513d601f19601f82011682018060405250810190610b2a9190613d6d565b14610b6a576040517f08c379a0000000000000000000000000000000000000000000000000000000008152600401610b6190613e0c565b60405180910390fd5b6000610b74611f72565b9050610b8c88308489610b879190613b5b565b611759565b6000821480610bc75750600073ffffffffffffffffffffffffffffffffffffffff168173ffffffffffffffffffffffffffffffffffffffff16145b15610be657610be1888388610bdc9190613b5b565b611d54565b610bfc565b610bf08887611d54565b610bfb8882846117e5565b5b60019250505095945050505050565b60003073ffffffffffffffffffffffffffffffffffffffff168273ffffffffffffffffffffffffffffffffffffffff1614610c47576000610c7b565b610c4f6107dc565b7fffffffffffffffffffffffffffffffffffffffffffffffffffffffffffffffff610c7a9190613e2c565b5b9050919050565b6000610ccf600d60008473ffffffffffffffffffffffffffffffffffffffff1673ffffffffffffffffffffffffffffffffffffffff16815260200190815260200160002080549050611f77565b9050919050565b60008060008373ffffffffffffffffffffffffffffffffffffffff1673ffffffffffffffffffffffffffffffffffffffff168152602001908152602001600020549050919050565b610d26611cc8565b610d306000611fca565b565b610d4482610d3e611586565b83611759565b610d4e8282611d54565b5050565b6000610d9b600a60008473ffffffffffffffffffffffffffffffffffffffff1673ffffffffffffffffffffffffffffffffffffffff168152602001908152602001600020612090565b9050919050565b6000600960009054906101000a900473ffffffffffffffffffffffffffffffffffffffff16905090565b6000438210610e10576040517f08c379a0000000000000000000000000000000000000000000000000000000008152600401610e0790613bfd565b60405180910390fd5b610e1b600e83611b77565b9050919050565b606060048054610e3190613afa565b80601f0160208091040260200160405190810160405280929190818152602001828054610e5d90613afa565b8015610eaa5780601f10610e7f57610100808354040283529160200191610eaa565b820191906000526020600020905b815481529060010190602001808311610e8d57829003601f168201915b5050505050905090565b610ebc611cc8565b610ec461209e565b50565b6000806000610ed7846006611d62565b9150915081610eed57610ee86107dc565b610eef565b805b92505050919050565b600080600d60008473ffffffffffffffffffffffffffffffffffffffff1673ffffffffffffffffffffffffffffffffffffffff16815260200190815260200160002080549050905060008114610fe057600d60008473ffffffffffffffffffffffffffffffffffffffff1673ffffffffffffffffffffffffffffffffffffffff168152602001908152602001600020600182610f949190613e2c565b81548110610fa557610fa4613e60565b5b9060005260206000200160000160049054906101000a90047bffffffffffffffffffffffffffffffffffffffffffffffffffffffff16610fe3565b60005b7bffffffffffffffffffffffffffffffffffffffffffffffffffffffff16915050919050565b600080611014611586565b90506000611022828661136b565b905083811015611067576040517f08c379a000000000000000000000000000000000000000000000000000000000815260040161105e90613f01565b60405180910390fd5b611074828686840361158e565b60019250505092915050565b60008061108b611586565b90506110988185856117e5565b600191505092915050565b834211156110e6576040517f08c379a00000000000000000000000000000000000000000000000000000000081526004016110dd90613f6d565b60405180910390fd5b60006111486111407fe48329057bfd03d55e49b547132e39cffd9c1820ad7b9d4c5307691425d15adf8989896040516020016111259493929190613f8d565b604051602081830303815290604052805190602001206120f4565b85858561210e565b905061115381612139565b8614611194576040517f08c379a000000000000000000000000000000000000000000000000000000000815260040161118b9061401e565b60405180910390fd5b61119e8188611e58565b50505050505050565b834211156111ea576040517f08c379a00000000000000000000000000000000000000000000000000000000081526004016111e19061408a565b60405180910390fd5b60007f6e71edae12b1b97f4d1f60370fef10105fa2faae0126114a169c64845d6126c98888886112198c612139565b8960405160200161122f969594939291906140aa565b6040516020818303038152906040528051906020012090506000611252826120f4565b905060006112628287878761210e565b90508973ffffffffffffffffffffffffffffffffffffffff168173ffffffffffffffffffffffffffffffffffffffff16146112d2576040517f08c379a00000000000000000000000000000000000000000000000000000000081526004016112c990614157565b60405180910390fd5b6112dd8a8a8a61158e565b50505050505050505050565b60003073ffffffffffffffffffffffffffffffffffffffff168373ffffffffffffffffffffffffffffffffffffffff1614611359576040517f08c379a0000000000000000000000000000000000000000000000000000000008152600401611350906141c3565b60405180910390fd5b6113638383612197565b905092915050565b6000600160008473ffffffffffffffffffffffffffffffffffffffff1673ffffffffffffffffffffffffffffffffffffffff16815260200190815260200160002060008373ffffffffffffffffffffffffffffffffffffffff1673ffffffffffffffffffffffffffffffffffffffff16815260200190815260200160002054905092915050565b6113fa61332a565b600d60008473ffffffffffffffffffffffffffffffffffffffff1673ffffffffffffffffffffffffffffffffffffffff1681526020019081526020016000208263ffffffff168154811061145157611450613e60565b5b906000526020600020016040518060400160405290816000820160009054906101000a900463ffffffff1663ffffffff1663ffffffff1681526020016000820160049054906101000a90047bffffffffffffffffffffffffffffffffffffffffffffffffffffffff167bffffffffffffffffffffffffffffffffffffffffffffffffffffffff167bffffffffffffffffffffffffffffffffffffffffffffffffffffffff1681525050905092915050565b61150a611cc8565b600073ffffffffffffffffffffffffffffffffffffffff168173ffffffffffffffffffffffffffffffffffffffff16141561157a576040517f08c379a000000000000000000000000000000000000000000000000000000000815260040161157190614255565b60405180910390fd5b61158381611fca565b50565b600033905090565b600073ffffffffffffffffffffffffffffffffffffffff168373ffffffffffffffffffffffffffffffffffffffff1614156115fe576040517f08c379a00000000000000000000000000000000000000000000000000000000081526004016115f5906142e7565b60405180910390fd5b600073ffffffffffffffffffffffffffffffffffffffff168273ffffffffffffffffffffffffffffffffffffffff16141561166e576040517f08c379a000000000000000000000000000000000000000000000000000000000815260040161166590614379565b60405180910390fd5b80600160008573ffffffffffffffffffffffffffffffffffffffff1673ffffffffffffffffffffffffffffffffffffffff16815260200190815260200160002060008473ffffffffffffffffffffffffffffffffffffffff1673ffffffffffffffffffffffffffffffffffffffff168152602001908152602001600020819055508173ffffffffffffffffffffffffffffffffffffffff168373ffffffffffffffffffffffffffffffffffffffff167f8c5be1e5ebec7d5bd14f71427d1e84f3dd0314c0f7b2291e5b200ac8c7c3b9258360405161174c9190613546565b60405180910390a3505050565b6000611765848461136b565b90507fffffffffffffffffffffffffffffffffffffffffffffffffffffffffffffffff81146117df57818110156117d1576040517f08c379a00000000000000000000000000000000000000000000000000000000081526004016117c8906143e5565b60405180910390fd5b6117de848484840361158e565b5b50505050565b600073ffffffffffffffffffffffffffffffffffffffff168373ffffffffffffffffffffffffffffffffffffffff161415611855576040517f08c379a000000000000000000000000000000000000000000000000000000000815260040161184c90614477565b60405180910390fd5b600073ffffffffffffffffffffffffffffffffffffffff168273ffffffffffffffffffffffffffffffffffffffff1614156118c5576040517f08c379a00000000000000000000000000000000000000000000000000000000081526004016118bc90614509565b60405180910390fd5b6118d083838361219f565b60008060008573ffffffffffffffffffffffffffffffffffffffff1673ffffffffffffffffffffffffffffffffffffffff16815260200190815260200160002054905081811015611956576040517f08c379a000000000000000000000000000000000000000000000000000000000815260040161194d9061459b565b60405180910390fd5b8181036000808673ffffffffffffffffffffffffffffffffffffffff1673ffffffffffffffffffffffffffffffffffffffff16815260200190815260200160002081905550816000808573ffffffffffffffffffffffffffffffffffffffff1673ffffffffffffffffffffffffffffffffffffffff168152602001908152602001600020600082825401925050819055508273ffffffffffffffffffffffffffffffffffffffff168473ffffffffffffffffffffffffffffffffffffffff167fddf252ad1be2c89b69c2b068fc378daa952ba7f163c4a11628f55a4df523b3ef84604051611a449190613546565b60405180910390a3611a578484846121af565b50505050565b60007f000000000000000000000000000000000000000000000000000000000000000073ffffffffffffffffffffffffffffffffffffffff163073ffffffffffffffffffffffffffffffffffffffff16148015611ad957507f000000000000000000000000000000000000000000000000000000000000000046145b15611b06577f00000000000000000000000000000000000000000000000000000000000000009050611b74565b611b717f00000000000000000000000000000000000000000000000000000000000000007f00000000000000000000000000000000000000000000000000000000000000007f00000000000000000000000000000000000000000000000000000000000000006121bf565b90505b90565b600080838054905090506000808290506005831115611bed576000611b9b846121f9565b84611ba69190613e2c565b905085611bb388836122f3565b60000160009054906101000a900463ffffffff1663ffffffff161115611bdb57809150611beb565b600181611be89190613b5b565b92505b505b5b80821015611c4d576000611c028383612308565b905085611c0f88836122f3565b60000160009054906101000a900463ffffffff1663ffffffff161115611c3757809150611c47565b600181611c449190613b5b565b92505b50611bee565b60008114611c9c57611c6b86600183611c669190613e2c565b6122f3565b60000160049054906101000a90047bffffffffffffffffffffffffffffffffffffffffffffffffffffffff16611c9f565b60005b7bffffffffffffffffffffffffffffffffffffffffffffffffffffffff16935050505092915050565b611cd0611586565b73ffffffffffffffffffffffffffffffffffffffff16611cee610da2565b73ffffffffffffffffffffffffffffffffffffffff1614611d44576040517f08c379a0000000000000000000000000000000000000000000000000000000008152600401611d3b90614607565b60405180910390fd5b565b611d50828261232e565b5050565b611d5e82826123bb565b5050565b60008060008411611da8576040517f08c379a0000000000000000000000000000000000000000000000000000000008152600401611d9f90614673565b60405180910390fd5b611db06123d9565b841115611df2576040517f08c379a0000000000000000000000000000000000000000000000000000000008152600401611de9906146df565b60405180910390fd5b6000611e0a85856000016123ea90919063ffffffff16565b90508360000180549050811415611e28576000809250925050611e51565b6001846001018281548110611e4057611e3f613e60565b5b906000526020600020015492509250505b9250929050565b6000611e6383610992565b90506000611e7084610cd6565b905082600c60008673ffffffffffffffffffffffffffffffffffffffff1673ffffffffffffffffffffffffffffffffffffffff16815260200190815260200160002060006101000a81548173ffffffffffffffffffffffffffffffffffffffff021916908373ffffffffffffffffffffffffffffffffffffffff1602179055508273ffffffffffffffffffffffffffffffffffffffff168273ffffffffffffffffffffffffffffffffffffffff168573ffffffffffffffffffffffffffffffffffffffff167f3134e8a2e6d97e929a7e54011ea5485d7d196dd5f0ba4d4ef95803e8e3fc257f60405160405180910390a4611f6c8284836124a4565b50505050565b600090565b600063ffffffff8016821115611fc2576040517f08c379a0000000000000000000000000000000000000000000000000000000008152600401611fb990614771565b60405180910390fd5b819050919050565b6000600960009054906101000a900473ffffffffffffffffffffffffffffffffffffffff16905081600960006101000a81548173ffffffffffffffffffffffffffffffffffffffff021916908373ffffffffffffffffffffffffffffffffffffffff1602179055508173ffffffffffffffffffffffffffffffffffffffff168173ffffffffffffffffffffffffffffffffffffffff167f8be0079c531659141344cd1fd0a4f28419497f9722a3daafe3b4186f6b6457e060405160405180910390a35050565b600081600001549050919050565b60006120aa600861269d565b60006120b46123d9565b90507f8030e83b04d87bef53480e26263266d6ca66863aa8506aca6f2559d18aa1cb67816040516120e59190613546565b60405180910390a18091505090565b6000612107612101611a5d565b836126b3565b9050919050565b600080600061211f878787876126e6565b9150915061212c816127c9565b8192505050949350505050565b600080600a60008473ffffffffffffffffffffffffffffffffffffffff1673ffffffffffffffffffffffffffffffffffffffff168152602001908152602001600020905061218681612090565b91506121918161269d565b50919050565b600092915050565b6121aa838383612937565b505050565b6121ba8383836129f1565b505050565b600083838346306040516020016121da959493929190614791565b6040516020818303038152906040528051906020012090509392505050565b60008082141561220c57600090506122ee565b6000600161221984612a1c565b901c6001901b90506001818481612233576122326147e4565b5b048201901c9050600181848161224c5761224b6147e4565b5b048201901c90506001818481612265576122646147e4565b5b048201901c9050600181848161227e5761227d6147e4565b5b048201901c90506001818481612297576122966147e4565b5b048201901c905060018184816122b0576122af6147e4565b5b048201901c905060018184816122c9576122c86147e4565b5b048201901c90506122ea818285816122e4576122e36147e4565b5b04612afd565b9150505b919050565b60008260005281602060002001905092915050565b600060028284186123199190614813565b8284166123269190613b5b565b905092915050565b6123388282612b16565b612340612c6d565b7bffffffffffffffffffffffffffffffffffffffffffffffffffffffff166123666107dc565b11156123a7576040517f08c379a000000000000000000000000000000000000000000000000000000000815260040161239e906148b6565b60405180910390fd5b6123b5600e612c9183612ca7565b50505050565b6123c58282612f76565b6123d3600e61314483612ca7565b50505050565b60006123e56008612090565b905090565b60008083805490501415612401576000905061249e565b600080848054905090505b808210156124555760006124208383612308565b90508461242d878361315a565b60000154111561243f5780915061244f565b60018161244c9190613b5b565b92505b5061240c565b60008211801561247d575083612477866001856124729190613e2c565b61315a565b60000154145b156124985760018261248f9190613e2c565b9250505061249e565b81925050505b92915050565b8173ffffffffffffffffffffffffffffffffffffffff168373ffffffffffffffffffffffffffffffffffffffff16141580156124e05750600081115b1561269857600073ffffffffffffffffffffffffffffffffffffffff168373ffffffffffffffffffffffffffffffffffffffff16146125be57600080612567600d60008773ffffffffffffffffffffffffffffffffffffffff1673ffffffffffffffffffffffffffffffffffffffff16815260200190815260200160002061314485612ca7565b915091508473ffffffffffffffffffffffffffffffffffffffff167fdec2bacdd2f05b59de34da9b523dff8be42e5e38e818c82fdb0bae774387a72483836040516125b39291906148d6565b60405180910390a250505b600073ffffffffffffffffffffffffffffffffffffffff168273ffffffffffffffffffffffffffffffffffffffff161461269757600080612640600d60008673ffffffffffffffffffffffffffffffffffffffff1673ffffffffffffffffffffffffffffffffffffffff168152602001908152602001600020612c9185612ca7565b915091508373ffffffffffffffffffffffffffffffffffffffff167fdec2bacdd2f05b59de34da9b523dff8be42e5e38e818c82fdb0bae774387a724838360405161268c9291906148d6565b60405180910390a250505b5b505050565b6001816000016000828254019250508190555050565b600082826040516020016126c8929190614977565b60405160208183030381529060405280519060200120905092915050565b6000807f7fffffffffffffffffffffffffffffff5d576e7357a4501ddfe92f46681b20a08360001c11156127215760006003915091506127c0565b60006001878787876040516000815260200160405260405161274694939291906149ae565b6020604051602081039080840390855afa158015612768573d6000803e3d6000fd5b505050602060405103519050600073ffffffffffffffffffffffffffffffffffffffff168173ffffffffffffffffffffffffffffffffffffffff1614156127b7576000600192509250506127c0565b80600092509250505b94509492505050565b600060048111156127dd576127dc6149f3565b5b8160048111156127f0576127ef6149f3565b5b14156127fb57612934565b6001600481111561280f5761280e6149f3565b5b816004811115612822576128216149f3565b5b1415612863576040517f08c379a000000000000000000000000000000000000000000000000000000000815260040161285a90614a6e565b60405180910390fd5b60026004811115612877576128766149f3565b5b81600481111561288a576128896149f3565b5b14156128cb576040517f08c379a00000000000000000000000000000000000000000000000000000000081526004016128c290614ada565b60405180910390fd5b600360048111156128df576128de6149f3565b5b8160048111156128f2576128f16149f3565b5b1415612933576040517f08c379a000000000000000000000000000000000000000000000000000000000815260040161292a90614b6c565b60405180910390fd5b5b50565b61294283838361317c565b600073ffffffffffffffffffffffffffffffffffffffff168373ffffffffffffffffffffffffffffffffffffffff16141561298d5761298082613181565b6129886131d4565b6129ec565b600073ffffffffffffffffffffffffffffffffffffffff168273ffffffffffffffffffffffffffffffffffffffff1614156129d8576129cb83613181565b6129d36131d4565b6129eb565b6129e183613181565b6129ea82613181565b5b5b505050565b6129fc8383836131e8565b612a17612a0884610992565b612a1184610992565b836124a4565b505050565b600080600090506000608084901c1115612a3e57608083901c92506080810190505b6000604084901c1115612a5957604083901c92506040810190505b6000602084901c1115612a7457602083901c92506020810190505b6000601084901c1115612a8f57601083901c92506010810190505b6000600884901c1115612aaa57600883901c92506008810190505b6000600484901c1115612ac557600483901c92506004810190505b6000600284901c1115612ae057600283901c92506002810190505b6000600184901c1115612af4576001810190505b80915050919050565b6000818310612b0c5781612b0e565b825b905092915050565b600073ffffffffffffffffffffffffffffffffffffffff168273ffffffffffffffffffffffffffffffffffffffff161415612b86576040517f08c379a0000000000000000000000000000000000000000000000000000000008152600401612b7d90614bd8565b60405180910390fd5b612b926000838361219f565b8060026000828254612ba49190613b5b565b92505081905550806000808473ffffffffffffffffffffffffffffffffffffffff1673ffffffffffffffffffffffffffffffffffffffff168152602001908152602001600020600082825401925050819055508173ffffffffffffffffffffffffffffffffffffffff16600073ffffffffffffffffffffffffffffffffffffffff167fddf252ad1be2c89b69c2b068fc378daa952ba7f163c4a11628f55a4df523b3ef83604051612c559190613546565b60405180910390a3612c69600083836121af565b5050565b60007bffffffffffffffffffffffffffffffffffffffffffffffffffffffff905090565b60008183612c9f9190613b5b565b905092915050565b6000806000858054905090506000808214612d7657612cd287600184612ccd9190613e2c565b6122f3565b6040518060400160405290816000820160009054906101000a900463ffffffff1663ffffffff1663ffffffff1681526020016000820160049054906101000a90047bffffffffffffffffffffffffffffffffffffffffffffffffffffffff167bffffffffffffffffffffffffffffffffffffffffffffffffffffffff167bffffffffffffffffffffffffffffffffffffffffffffffffffffffff1681525050612db2565b6040518060400160405280600063ffffffff16815260200160007bffffffffffffffffffffffffffffffffffffffffffffffffffffffff168152505b905080602001517bffffffffffffffffffffffffffffffffffffffffffffffffffffffff169350612de784868863ffffffff16565b9250600082118015612e02575043816000015163ffffffff16145b15612e7c57612e10836131ed565b612e2688600185612e219190613e2c565b6122f3565b60000160046101000a8154817bffffffffffffffffffffffffffffffffffffffffffffffffffffffff02191690837bffffffffffffffffffffffffffffffffffffffffffffffffffffffff160217905550612f6c565b866040518060400160405280612e9143611f77565b63ffffffff168152602001612ea5866131ed565b7bffffffffffffffffffffffffffffffffffffffffffffffffffffffff168152509080600181540180825580915050600190039060005260206000200160009091909190915060008201518160000160006101000a81548163ffffffff021916908363ffffffff16021790555060208201518160000160046101000a8154817bffffffffffffffffffffffffffffffffffffffffffffffffffffffff02191690837bffffffffffffffffffffffffffffffffffffffffffffffffffffffff16021790555050505b5050935093915050565b600073ffffffffffffffffffffffffffffffffffffffff168273ffffffffffffffffffffffffffffffffffffffff161415612fe6576040517f08c379a0000000000000000000000000000000000000000000000000000000008152600401612fdd90614c6a565b60405180910390fd5b612ff28260008361219f565b60008060008473ffffffffffffffffffffffffffffffffffffffff1673ffffffffffffffffffffffffffffffffffffffff16815260200190815260200160002054905081811015613078576040517f08c379a000000000000000000000000000000000000000000000000000000000815260040161306f90614cfc565b60405180910390fd5b8181036000808573ffffffffffffffffffffffffffffffffffffffff1673ffffffffffffffffffffffffffffffffffffffff1681526020019081526020016000208190555081600260008282540392505081905550600073ffffffffffffffffffffffffffffffffffffffff168373ffffffffffffffffffffffffffffffffffffffff167fddf252ad1be2c89b69c2b068fc378daa952ba7f163c4a11628f55a4df523b3ef8460405161312b9190613546565b60405180910390a361313f836000846121af565b505050565b600081836131529190613e2c565b905092915050565b6000808360005282602060002001905061317381613258565b91505092915050565b505050565b6131d1600560008373ffffffffffffffffffffffffffffffffffffffff1673ffffffffffffffffffffffffffffffffffffffff1681526020019081526020016000206131cc83610cd6565b613262565b50565b6131e660066131e16107dc565b613262565b565b505050565b60007bffffffffffffffffffffffffffffffffffffffffffffffffffffffff8016821115613250576040517f08c379a000000000000000000000000000000000000000000000000000000000815260040161324790614d8e565b60405180910390fd5b819050919050565b6000819050919050565b600061326c6123d9565b90508061327b846000016132dd565b10156132d85782600001819080600181540180825580915050600190039060005260206000200160009091909190915055826001018290806001815401808255809150506001900390600052602060002001600090919091909150555b505050565b600080828054905014156132f45760009050613325565b81600183805490506133069190613e2c565b8154811061331757613316613e60565b5b906000526020600020015490505b919050565b6040518060400160405280600063ffffffff16815260200160007bffffffffffffffffffffffffffffffffffffffffffffffffffffffff1681525090565b600081519050919050565b600082825260208201905092915050565b60005b838110156133a2578082015181840152602081019050613387565b838111156133b1576000848401525b50505050565b6000601f19601f8301169050919050565b60006133d382613368565b6133dd8185613373565b93506133ed818560208601613384565b6133f6816133b7565b840191505092915050565b6000602082019050818103600083015261341b81846133c8565b905092915050565b600080fd5b600080fd5b600073ffffffffffffffffffffffffffffffffffffffff82169050919050565b60006134588261342d565b9050919050565b6134688161344d565b811461347357600080fd5b50565b6000813590506134858161345f565b92915050565b6000819050919050565b61349e8161348b565b81146134a957600080fd5b50565b6000813590506134bb81613495565b92915050565b600080604083850312156134d8576134d7613423565b5b60006134e685828601613476565b92505060206134f7858286016134ac565b9150509250929050565b60008115159050919050565b61351681613501565b82525050565b6000602082019050613531600083018461350d565b92915050565b6135408161348b565b82525050565b600060208201905061355b6000830184613537565b92915050565b60008060006060848603121561357a57613579613423565b5b600061358886828701613476565b935050602061359986828701613476565b92505060406135aa868287016134ac565b9150509250925092565b600060ff82169050919050565b6135ca816135b4565b82525050565b60006020820190506135e560008301846135c1565b92915050565b6000819050919050565b6135fe816135eb565b82525050565b600060208201905061361960008301846135f5565b92915050565b60006020828403121561363557613634613423565b5b6000613643848285016134ac565b91505092915050565b60006020828403121561366257613661613423565b5b600061367084828501613476565b91505092915050565b6136828161344d565b82525050565b600060208201905061369d6000830184613679565b92915050565b60006136ae8261344d565b9050919050565b6136be816136a3565b81146136c957600080fd5b50565b6000813590506136db816136b5565b92915050565b600080fd5b600080fd5b600080fd5b60008083601f840112613706576137056136e1565b5b8235905067ffffffffffffffff811115613723576137226136e6565b5b60208301915083600182028301111561373f5761373e6136eb565b5b9250929050565b60008060008060006080868803121561376257613761613423565b5b6000613770888289016136cc565b955050602061378188828901613476565b9450506040613792888289016134ac565b935050606086013567ffffffffffffffff8111156137b3576137b2613428565b5b6137bf888289016136f0565b92509250509295509295909350565b600063ffffffff82169050919050565b6137e7816137ce565b82525050565b600060208201905061380260008301846137de565b92915050565b613811816135b4565b811461381c57600080fd5b50565b60008135905061382e81613808565b92915050565b61383d816135eb565b811461384857600080fd5b50565b60008135905061385a81613834565b92915050565b60008060008060008060c0878903121561387d5761387c613423565b5b600061388b89828a01613476565b965050602061389c89828a016134ac565b95505060406138ad89828a016134ac565b94505060606138be89828a0161381f565b93505060806138cf89828a0161384b565b92505060a06138e089828a0161384b565b9150509295509295509295565b600080600080600080600060e0888a03121561390c5761390b613423565b5b600061391a8a828b01613476565b975050602061392b8a828b01613476565b965050604061393c8a828b016134ac565b955050606061394d8a828b016134ac565b945050608061395e8a828b0161381f565b93505060a061396f8a828b0161384b565b92505060c06139808a828b0161384b565b91505092959891949750929550565b600080604083850312156139a6576139a5613423565b5b60006139b485828601613476565b92505060206139c585828601613476565b9150509250929050565b6139d8816137ce565b81146139e357600080fd5b50565b6000813590506139f5816139cf565b92915050565b60008060408385031215613a1257613a11613423565b5b6000613a2085828601613476565b9250506020613a31858286016139e6565b9150509250929050565b613a44816137ce565b82525050565b60007bffffffffffffffffffffffffffffffffffffffffffffffffffffffff82169050919050565b613a7b81613a4a565b82525050565b604082016000820151613a976000850182613a3b565b506020820151613aaa6020850182613a72565b50505050565b6000604082019050613ac56000830184613a81565b92915050565b7f4e487b7100000000000000000000000000000000000000000000000000000000600052602260045260246000fd5b60006002820490506001821680613b1257607f821691505b60208210811415613b2657613b25613acb565b5b50919050565b7f4e487b7100000000000000000000000000000000000000000000000000000000600052601160045260246000fd5b6000613b668261348b565b9150613b718361348b565b9250827fffffffffffffffffffffffffffffffffffffffffffffffffffffffffffffffff03821115613ba657613ba5613b2c565b5b828201905092915050565b7f4552433230566f7465733a20626c6f636b206e6f7420796574206d696e656400600082015250565b6000613be7601f83613373565b9150613bf282613bb1565b602082019050919050565b60006020820190508181036000830152613c1681613bda565b9050919050565b7f4552433230466c6173684d696e743a20616d6f756e742065786365656473206d60008201527f6178466c6173684c6f616e000000000000000000000000000000000000000000602082015250565b6000613c79602b83613373565b9150613c8482613c1d565b604082019050919050565b60006020820190508181036000830152613ca881613c6c565b9050919050565b600082825260208201905092915050565b82818337600083830152505050565b6000613cdb8385613caf565b9350613ce8838584613cc0565b613cf1836133b7565b840190509392505050565b600060a082019050613d116000830189613679565b613d1e6020830188613679565b613d2b6040830187613537565b613d386060830186613537565b8181036080830152613d4b818486613ccf565b9050979650505050505050565b600081519050613d6781613834565b92915050565b600060208284031215613d8357613d82613423565b5b6000613d9184828501613d58565b91505092915050565b7f4552433230466c6173684d696e743a20696e76616c69642072657475726e207660008201527f616c756500000000000000000000000000000000000000000000000000000000602082015250565b6000613df6602483613373565b9150613e0182613d9a565b604082019050919050565b60006020820190508181036000830152613e2581613de9565b9050919050565b6000613e378261348b565b9150613e428361348b565b925082821015613e5557613e54613b2c565b5b828203905092915050565b7f4e487b7100000000000000000000000000000000000000000000000000000000600052603260045260246000fd5b7f45524332303a2064656372656173656420616c6c6f77616e63652062656c6f7760008201527f207a65726f000000000000000000000000000000000000000000000000000000602082015250565b6000613eeb602583613373565b9150613ef682613e8f565b604082019050919050565b60006020820190508181036000830152613f1a81613ede565b9050919050565b7f4552433230566f7465733a207369676e61747572652065787069726564000000600082015250565b6000613f57601d83613373565b9150613f6282613f21565b602082019050919050565b60006020820190508181036000830152613f8681613f4a565b9050919050565b6000608082019050613fa260008301876135f5565b613faf6020830186613679565b613fbc6040830185613537565b613fc96060830184613537565b95945050505050565b7f4552433230566f7465733a20696e76616c6964206e6f6e636500000000000000600082015250565b6000614008601983613373565b915061401382613fd2565b602082019050919050565b6000602082019050818103600083015261403781613ffb565b9050919050565b7f45524332305065726d69743a206578706972656420646561646c696e65000000600082015250565b6000614074601d83613373565b915061407f8261403e565b602082019050919050565b600060208201905081810360008301526140a381614067565b9050919050565b600060c0820190506140bf60008301896135f5565b6140cc6020830188613679565b6140d96040830187613679565b6140e66060830186613537565b6140f36080830185613537565b61410060a0830184613537565b979650505050505050565b7f45524332305065726d69743a20696e76616c6964207369676e61747572650000600082015250565b6000614141601e83613373565b915061414c8261410b565b602082019050919050565b6000602082019050818103600083015261417081614134565b9050919050565b7f4552433230466c6173684d696e743a2077726f6e6720746f6b656e0000000000600082015250565b60006141ad601b83613373565b91506141b882614177565b602082019050919050565b600060208201905081810360008301526141dc816141a0565b9050919050565b7f4f776e61626c653a206e6577206f776e657220697320746865207a65726f206160008201527f6464726573730000000000000000000000000000000000000000000000000000602082015250565b600061423f602683613373565b915061424a826141e3565b604082019050919050565b6000602082019050818103600083015261426e81614232565b9050919050565b7f45524332303a20617070726f76652066726f6d20746865207a65726f2061646460008201527f7265737300000000000000000000000000000000000000000000000000000000602082015250565b60006142d1602483613373565b91506142dc82614275565b604082019050919050565b60006020820190508181036000830152614300816142c4565b9050919050565b7f45524332303a20617070726f766520746f20746865207a65726f20616464726560008201527f7373000000000000000000000000000000000000000000000000000000000000602082015250565b6000614363602283613373565b915061436e82614307565b604082019050919050565b6000602082019050818103600083015261439281614356565b9050919050565b7f45524332303a20696e73756666696369656e7420616c6c6f77616e6365000000600082015250565b60006143cf601d83613373565b91506143da82614399565b602082019050919050565b600060208201905081810360008301526143fe816143c2565b9050919050565b7f45524332303a207472616e736665722066726f6d20746865207a65726f20616460008201527f6472657373000000000000000000000000000000000000000000000000000000602082015250565b6000614461602583613373565b915061446c82614405565b604082019050919050565b6000602082019050818103600083015261449081614454565b9050919050565b7f45524332303a207472616e7366657220746f20746865207a65726f206164647260008201527f6573730000000000000000000000000000000000000000000000000000000000602082015250565b60006144f3602383613373565b91506144fe82614497565b604082019050919050565b60006020820190508181036000830152614522816144e6565b9050919050565b7f45524332303a207472616e7366657220616d6f756e742065786365656473206260008201527f616c616e63650000000000000000000000000000000000000000000000000000602082015250565b6000614585602683613373565b915061459082614529565b604082019050919050565b600060208201905081810360008301526145b481614578565b9050919050565b7f4f776e61626c653a2063616c6c6572206973206e6f7420746865206f776e6572600082015250565b60006145f1602083613373565b91506145fc826145bb565b602082019050919050565b60006020820190508181036000830152614620816145e4565b9050919050565b7f4552433230536e617073686f743a206964206973203000000000000000000000600082015250565b600061465d601683613373565b915061466882614627565b602082019050919050565b6000602082019050818103600083015261468c81614650565b9050919050565b7f4552433230536e617073686f743a206e6f6e6578697374656e74206964000000600082015250565b60006146c9601d83613373565b91506146d482614693565b602082019050919050565b600060208201905081810360008301526146f8816146bc565b9050919050565b7f53616665436173743a2076616c756520646f65736e27742066697420696e203360008201527f3220626974730000000000000000000000000000000000000000000000000000602082015250565b600061475b602683613373565b9150614766826146ff565b604082019050919050565b6000602082019050818103600083015261478a8161474e565b9050919050565b600060a0820190506147a660008301886135f5565b6147b360208301876135f5565b6147c060408301866135f5565b6147cd6060830185613537565b6147da6080830184613679565b9695505050505050565b7f4e487b7100000000000000000000000000000000000000000000000000000000600052601260045260246000fd5b600061481e8261348b565b91506148298361348b565b925082614839576148386147e4565b5b828204905092915050565b7f4552433230566f7465733a20746f74616c20737570706c79207269736b73206f60008201527f766572666c6f77696e6720766f74657300000000000000000000000000000000602082015250565b60006148a0603083613373565b91506148ab82614844565b604082019050919050565b600060208201905081810360008301526148cf81614893565b9050919050565b60006040820190506148eb6000830185613537565b6148f86020830184613537565b9392505050565b600081905092915050565b7f1901000000000000000000000000000000000000000000000000000000000000600082015250565b60006149406002836148ff565b915061494b8261490a565b600282019050919050565b6000819050919050565b61497161496c826135eb565b614956565b82525050565b600061498282614933565b915061498e8285614960565b60208201915061499e8284614960565b6020820191508190509392505050565b60006080820190506149c360008301876135f5565b6149d060208301866135c1565b6149dd60408301856135f5565b6149ea60608301846135f5565b95945050505050565b7f4e487b7100000000000000000000000000000000000000000000000000000000600052602160045260246000fd5b7f45434453413a20696e76616c6964207369676e61747572650000000000000000600082015250565b6000614a58601883613373565b9150614a6382614a22565b602082019050919050565b60006020820190508181036000830152614a8781614a4b565b9050919050565b7f45434453413a20696e76616c6964207369676e6174757265206c656e67746800600082015250565b6000614ac4601f83613373565b9150614acf82614a8e565b602082019050919050565b60006020820190508181036000830152614af381614ab7565b9050919050565b7f45434453413a20696e76616c6964207369676e6174757265202773272076616c60008201527f7565000000000000000000000000000000000000000000000000000000000000602082015250565b6000614b56602283613373565b9150614b6182614afa565b604082019050919050565b60006020820190508181036000830152614b8581614b49565b9050919050565b7f45524332303a206d696e7420746f20746865207a65726f206164647265737300600082015250565b6000614bc2601f83613373565b9150614bcd82614b8c565b602082019050919050565b60006020820190508181036000830152614bf181614bb5565b9050919050565b7f45524332303a206275726e2066726f6d20746865207a65726f2061646472657360008201527f7300000000000000000000000000000000000000000000000000000000000000602082015250565b6000614c54602183613373565b9150614c5f82614bf8565b604082019050919050565b60006020820190508181036000830152614c8381614c47565b9050919050565b7f45524332303a206275726e20616d6f756e7420657863656564732062616c616e60008201527f6365000000000000000000000000000000000000000000000000000000000000602082015250565b6000614ce6602283613373565b9150614cf182614c8a565b604082019050919050565b60006020820190508181036000830152614d1581614cd9565b9050919050565b7f53616665436173743a2076616c756520646f65736e27742066697420696e203260008201527f3234206269747300000000000000000000000000000000000000000000000000602082015250565b6000614d78602783613373565b9150614d8382614d1c565b604082019050919050565b60006020820190508181036000830152614da781614d6b565b905091905056fea2646970667358221220ad331a685d62303ceb625565f5af0899bc13a69a358a3cb0688fe363ae1f207364736f6c63430008090033",
			"opcodes": "PUSH2 0x140 PUSH1 0x40 MSTORE CALLVALUE DUP1 ISZERO PUSH3 0x12 JUMPI PUSH1 0x0 DUP1 REVERT JUMPDEST POP PUSH1 0x40 MLOAD DUP1 PUSH1 0x40 ADD PUSH1 0x40 MSTORE DUP1 PUSH1 0xA DUP2 MSTORE PUSH1 0x20 ADD PUSH32 0x43686F636F204368697000000000000000000000000000000000000000000000 DUP2 MSTORE POP DUP1 PUSH1 0x40 MLOAD DUP1 PUSH1 0x40 ADD PUSH1 0x40 MSTORE DUP1 PUSH1 0x1 DUP2 MSTORE PUSH1 0x20 ADD PUSH32 0x3100000000000000000000000000000000000000000000000000000000000000 DUP2 MSTORE POP PUSH1 0x40 MLOAD DUP1 PUSH1 0x40 ADD PUSH1 0x40 MSTORE DUP1 PUSH1 0xA DUP2 MSTORE PUSH1 0x20 ADD PUSH32 0x43686F636F204368697000000000000000000000000000000000000000000000 DUP2 MSTORE POP PUSH1 0x40 MLOAD DUP1 PUSH1 0x40 ADD PUSH1 0x40 MSTORE DUP1 PUSH1 0x4 DUP2 MSTORE PUSH1 0x20 ADD PUSH32 0x43484F4300000000000000000000000000000000000000000000000000000000 DUP2 MSTORE POP DUP2 PUSH1 0x3 SWAP1 DUP1 MLOAD SWAP1 PUSH1 0x20 ADD SWAP1 PUSH3 0x104 SWAP3 SWAP2 SWAP1 PUSH3 0x303 JUMP JUMPDEST POP DUP1 PUSH1 0x4 SWAP1 DUP1 MLOAD SWAP1 PUSH1 0x20 ADD SWAP1 PUSH3 0x11D SWAP3 SWAP2 SWAP1 PUSH3 0x303 JUMP JUMPDEST POP POP POP PUSH3 0x140 PUSH3 0x134 PUSH3 0x1F9 PUSH1 0x20 SHL PUSH1 0x20 SHR JUMP JUMPDEST PUSH3 0x201 PUSH1 0x20 SHL PUSH1 0x20 SHR JUMP JUMPDEST PUSH1 0x0 DUP3 DUP1 MLOAD SWAP1 PUSH1 0x20 ADD KECCAK256 SWAP1 POP PUSH1 0x0 DUP3 DUP1 MLOAD SWAP1 PUSH1 0x20 ADD KECCAK256 SWAP1 POP PUSH1 0x0 PUSH32 0x8B73C3C69BB8FE3D512ECC4CF759CC79239F7B179B0FFACAA9A75D522B39400F SWAP1 POP DUP3 PUSH1 0xE0 DUP2 DUP2 MSTORE POP POP DUP2 PUSH2 0x100 DUP2 DUP2 MSTORE POP POP CHAINID PUSH1 0xA0 DUP2 DUP2 MSTORE POP POP PUSH3 0x1A9 DUP2 DUP5 DUP5 PUSH3 0x2C7 PUSH1 0x20 SHL PUSH1 0x20 SHR JUMP JUMPDEST PUSH1 0x80 DUP2 DUP2 MSTORE POP POP ADDRESS PUSH20 0xFFFFFFFFFFFFFFFFFFFFFFFFFFFFFFFFFFFFFFFF AND PUSH1 0xC0 DUP2 PUSH20 0xFFFFFFFFFFFFFFFFFFFFFFFFFFFFFFFFFFFFFFFF AND DUP2 MSTORE POP POP DUP1 PUSH2 0x120 DUP2 DUP2 MSTORE POP POP POP POP POP POP POP POP PUSH3 0x4F0 JUMP JUMPDEST PUSH1 0x0 CALLER SWAP1 POP SWAP1 JUMP JUMPDEST PUSH1 0x0 PUSH1 0x9 PUSH1 0x0 SWAP1 SLOAD SWAP1 PUSH2 0x100 EXP SWAP1 DIV PUSH20 0xFFFFFFFFFFFFFFFFFFFFFFFFFFFFFFFFFFFFFFFF AND SWAP1 POP DUP2 PUSH1 0x9 PUSH1 0x0 PUSH2 0x100 EXP DUP2 SLOAD DUP2 PUSH20 0xFFFFFFFFFFFFFFFFFFFFFFFFFFFFFFFFFFFFFFFF MUL NOT AND SWAP1 DUP4 PUSH20 0xFFFFFFFFFFFFFFFFFFFFFFFFFFFFFFFFFFFFFFFF AND MUL OR SWAP1 SSTORE POP DUP2 PUSH20 0xFFFFFFFFFFFFFFFFFFFFFFFFFFFFFFFFFFFFFFFF AND DUP2 PUSH20 0xFFFFFFFFFFFFFFFFFFFFFFFFFFFFFFFFFFFFFFFF AND PUSH32 0x8BE0079C531659141344CD1FD0A4F28419497F9722A3DAAFE3B4186F6B6457E0 PUSH1 0x40 MLOAD PUSH1 0x40 MLOAD DUP1 SWAP2 SUB SWAP1 LOG3 POP POP JUMP JUMPDEST PUSH1 0x0 DUP4 DUP4 DUP4 CHAINID ADDRESS PUSH1 0x40 MLOAD PUSH1 0x20 ADD PUSH3 0x2E4 SWAP6 SWAP5 SWAP4 SWAP3 SWAP2 SWAP1 PUSH3 0x42E JUMP JUMPDEST PUSH1 0x40 MLOAD PUSH1 0x20 DUP2 DUP4 SUB SUB DUP2 MSTORE SWAP1 PUSH1 0x40 MSTORE DUP1 MLOAD SWAP1 PUSH1 0x20 ADD KECCAK256 SWAP1 POP SWAP4 SWAP3 POP POP POP JUMP JUMPDEST DUP3 DUP1 SLOAD PUSH3 0x311 SWAP1 PUSH3 0x4BA JUMP JUMPDEST SWAP1 PUSH1 0x0 MSTORE PUSH1 0x20 PUSH1 0x0 KECCAK256 SWAP1 PUSH1 0x1F ADD PUSH1 0x20 SWAP1 DIV DUP2 ADD SWAP3 DUP3 PUSH3 0x335 JUMPI PUSH1 0x0 DUP6 SSTORE PUSH3 0x381 JUMP JUMPDEST DUP3 PUSH1 0x1F LT PUSH3 0x350 JUMPI DUP1 MLOAD PUSH1 0xFF NOT AND DUP4 DUP1 ADD OR DUP6 SSTORE PUSH3 0x381 JUMP JUMPDEST DUP3 DUP1 ADD PUSH1 0x1 ADD DUP6 SSTORE DUP3 ISZERO PUSH3 0x381 JUMPI SWAP2 DUP3 ADD JUMPDEST DUP3 DUP2 GT ISZERO PUSH3 0x380 JUMPI DUP3 MLOAD DUP3 SSTORE SWAP2 PUSH1 0x20 ADD SWAP2 SWAP1 PUSH1 0x1 ADD SWAP1 PUSH3 0x363 JUMP JUMPDEST JUMPDEST POP SWAP1 POP PUSH3 0x390 SWAP2 SWAP1 PUSH3 0x394 JUMP JUMPDEST POP SWAP1 JUMP JUMPDEST JUMPDEST DUP1 DUP3 GT ISZERO PUSH3 0x3AF JUMPI PUSH1 0x0 DUP2 PUSH1 0x0 SWAP1 SSTORE POP PUSH1 0x1 ADD PUSH3 0x395 JUMP JUMPDEST POP SWAP1 JUMP JUMPDEST PUSH1 0x0 DUP2 SWAP1 POP SWAP2 SWAP1 POP JUMP JUMPDEST PUSH3 0x3C8 DUP2 PUSH3 0x3B3 JUMP JUMPDEST DUP3 MSTORE POP POP JUMP JUMPDEST PUSH1 0x0 DUP2 SWAP1 POP SWAP2 SWAP1 POP JUMP JUMPDEST PUSH3 0x3E3 DUP2 PUSH3 0x3CE JUMP JUMPDEST DUP3 MSTORE POP POP JUMP JUMPDEST PUSH1 0x0 PUSH20 0xFFFFFFFFFFFFFFFFFFFFFFFFFFFFFFFFFFFFFFFF DUP3 AND SWAP1 POP SWAP2 SWAP1 POP JUMP JUMPDEST PUSH1 0x0 PUSH3 0x416 DUP3 PUSH3 0x3E9 JUMP JUMPDEST SWAP1 POP SWAP2 SWAP1 POP JUMP JUMPDEST PUSH3 0x428 DUP2 PUSH3 0x409 JUMP JUMPDEST DUP3 MSTORE POP POP JUMP JUMPDEST PUSH1 0x0 PUSH1 0xA0 DUP3 ADD SWAP1 POP PUSH3 0x445 PUSH1 0x0 DUP4 ADD DUP9 PUSH3 0x3BD JUMP JUMPDEST PUSH3 0x454 PUSH1 0x20 DUP4 ADD DUP8 PUSH3 0x3BD JUMP JUMPDEST PUSH3 0x463 PUSH1 0x40 DUP4 ADD DUP7 PUSH3 0x3BD JUMP JUMPDEST PUSH3 0x472 PUSH1 0x60 DUP4 ADD DUP6 PUSH3 0x3D8 JUMP JUMPDEST PUSH3 0x481 PUSH1 0x80 DUP4 ADD DUP5 PUSH3 0x41D JUMP JUMPDEST SWAP7 SWAP6 POP POP POP POP POP POP JUMP JUMPDEST PUSH32 0x4E487B7100000000000000000000000000000000000000000000000000000000 PUSH1 0x0 MSTORE PUSH1 0x22 PUSH1 0x4 MSTORE PUSH1 0x24 PUSH1 0x0 REVERT JUMPDEST PUSH1 0x0 PUSH1 0x2 DUP3 DIV SWAP1 POP PUSH1 0x1 DUP3 AND DUP1 PUSH3 0x4D3 JUMPI PUSH1 0x7F DUP3 AND SWAP2 POP JUMPDEST PUSH1 0x20 DUP3 LT DUP2 EQ ISZERO PUSH3 0x4EA JUMPI PUSH3 0x4E9 PUSH3 0x48B JUMP JUMPDEST JUMPDEST POP SWAP2 SWAP1 POP JUMP JUMPDEST PUSH1 0x80 MLOAD PUSH1 0xA0 MLOAD PUSH1 0xC0 MLOAD PUSH1 0xE0 MLOAD PUSH2 0x100 MLOAD PUSH2 0x120 MLOAD PUSH2 0x4DE4 PUSH3 0x540 PUSH1 0x0 CODECOPY PUSH1 0x0 PUSH2 0x1B0B ADD MSTORE PUSH1 0x0 PUSH2 0x1B4D ADD MSTORE PUSH1 0x0 PUSH2 0x1B2C ADD MSTORE PUSH1 0x0 PUSH2 0x1A61 ADD MSTORE PUSH1 0x0 PUSH2 0x1AB7 ADD MSTORE PUSH1 0x0 PUSH2 0x1AE0 ADD MSTORE PUSH2 0x4DE4 PUSH1 0x0 RETURN INVALID PUSH1 0x80 PUSH1 0x40 MSTORE CALLVALUE DUP1 ISZERO PUSH2 0x10 JUMPI PUSH1 0x0 DUP1 REVERT JUMPDEST POP PUSH1 0x4 CALLDATASIZE LT PUSH2 0x206 JUMPI PUSH1 0x0 CALLDATALOAD PUSH1 0xE0 SHR DUP1 PUSH4 0x715018A6 GT PUSH2 0x11A JUMPI DUP1 PUSH4 0x9AB24EB0 GT PUSH2 0xAD JUMPI DUP1 PUSH4 0xD505ACCF GT PUSH2 0x7C JUMPI DUP1 PUSH4 0xD505ACCF EQ PUSH2 0x65F JUMPI DUP1 PUSH4 0xD9D98CE4 EQ PUSH2 0x67B JUMPI DUP1 PUSH4 0xDD62ED3E EQ PUSH2 0x6AB JUMPI DUP1 PUSH4 0xF1127ED8 EQ PUSH2 0x6DB JUMPI DUP1 PUSH4 0xF2FDE38B EQ PUSH2 0x70B JUMPI PUSH2 0x206 JUMP JUMPDEST DUP1 PUSH4 0x9AB24EB0 EQ PUSH2 0x5B3 JUMPI DUP1 PUSH4 0xA457C2D7 EQ PUSH2 0x5E3 JUMPI DUP1 PUSH4 0xA9059CBB EQ PUSH2 0x613 JUMPI DUP1 PUSH4 0xC3CDA520 EQ PUSH2 0x643 JUMPI PUSH2 0x206 JUMP JUMPDEST DUP1 PUSH4 0x8E539E8C GT PUSH2 0xE9 JUMPI DUP1 PUSH4 0x8E539E8C EQ PUSH2 0x52B JUMPI DUP1 PUSH4 0x95D89B41 EQ PUSH2 0x55B JUMPI DUP1 PUSH4 0x9711715A EQ PUSH2 0x579 JUMPI DUP1 PUSH4 0x981B24D0 EQ PUSH2 0x583 JUMPI PUSH2 0x206 JUMP JUMPDEST DUP1 PUSH4 0x715018A6 EQ PUSH2 0x4B7 JUMPI DUP1 PUSH4 0x79CC6790 EQ PUSH2 0x4C1 JUMPI DUP1 PUSH4 0x7ECEBE00 EQ PUSH2 0x4DD JUMPI DUP1 PUSH4 0x8DA5CB5B EQ PUSH2 0x50D JUMPI PUSH2 0x206 JUMP JUMPDEST DUP1 PUSH4 0x40C10F19 GT PUSH2 0x19D JUMPI DUP1 PUSH4 0x5C19A95C GT PUSH2 0x16C JUMPI DUP1 PUSH4 0x5C19A95C EQ PUSH2 0x3DB JUMPI DUP1 PUSH4 0x5CFFE9DE EQ PUSH2 0x3F7 JUMPI DUP1 PUSH4 0x613255AB EQ PUSH2 0x427 JUMPI DUP1 PUSH4 0x6FCFFF45 EQ PUSH2 0x457 JUMPI DUP1 PUSH4 0x70A08231 EQ PUSH2 0x487 JUMPI PUSH2 0x206 JUMP JUMPDEST DUP1 PUSH4 0x40C10F19 EQ PUSH2 0x343 JUMPI DUP1 PUSH4 0x42966C68 EQ PUSH2 0x35F JUMPI DUP1 PUSH4 0x4EE2CD7E EQ PUSH2 0x37B JUMPI DUP1 PUSH4 0x587CDE1E EQ PUSH2 0x3AB JUMPI PUSH2 0x206 JUMP JUMPDEST DUP1 PUSH4 0x313CE567 GT PUSH2 0x1D9 JUMPI DUP1 PUSH4 0x313CE567 EQ PUSH2 0x2A7 JUMPI DUP1 PUSH4 0x3644E515 EQ PUSH2 0x2C5 JUMPI DUP1 PUSH4 0x39509351 EQ PUSH2 0x2E3 JUMPI DUP1 PUSH4 0x3A46B1A8 EQ PUSH2 0x313 JUMPI PUSH2 0x206 JUMP JUMPDEST DUP1 PUSH4 0x6FDDE03 EQ PUSH2 0x20B JUMPI DUP1 PUSH4 0x95EA7B3 EQ PUSH2 0x229 JUMPI DUP1 PUSH4 0x18160DDD EQ PUSH2 0x259 JUMPI DUP1 PUSH4 0x23B872DD EQ PUSH2 0x277 JUMPI JUMPDEST PUSH1 0x0 DUP1 REVERT JUMPDEST PUSH2 0x213 PUSH2 0x727 JUMP JUMPDEST PUSH1 0x40 MLOAD PUSH2 0x220 SWAP2 SWAP1 PUSH2 0x3401 JUMP JUMPDEST PUSH1 0x40 MLOAD DUP1 SWAP2 SUB SWAP1 RETURN JUMPDEST PUSH2 0x243 PUSH1 0x4 DUP1 CALLDATASIZE SUB DUP2 ADD SWAP1 PUSH2 0x23E SWAP2 SWAP1 PUSH2 0x34C1 JUMP JUMPDEST PUSH2 0x7B9 JUMP JUMPDEST PUSH1 0x40 MLOAD PUSH2 0x250 SWAP2 SWAP1 PUSH2 0x351C JUMP JUMPDEST PUSH1 0x40 MLOAD DUP1 SWAP2 SUB SWAP1 RETURN JUMPDEST PUSH2 0x261 PUSH2 0x7DC JUMP JUMPDEST PUSH1 0x40 MLOAD PUSH2 0x26E SWAP2 SWAP1 PUSH2 0x3546 JUMP JUMPDEST PUSH1 0x40 MLOAD DUP1 SWAP2 SUB SWAP1 RETURN JUMPDEST PUSH2 0x291 PUSH1 0x4 DUP1 CALLDATASIZE SUB DUP2 ADD SWAP1 PUSH2 0x28C SWAP2 SWAP1 PUSH2 0x3561 JUMP JUMPDEST PUSH2 0x7E6 JUMP JUMPDEST PUSH1 0x40 MLOAD PUSH2 0x29E SWAP2 SWAP1 PUSH2 0x351C JUMP JUMPDEST PUSH1 0x40 MLOAD DUP1 SWAP2 SUB SWAP1 RETURN JUMPDEST PUSH2 0x2AF PUSH2 0x815 JUMP JUMPDEST PUSH1 0x40 MLOAD PUSH2 0x2BC SWAP2 SWAP1 PUSH2 0x35D0 JUMP JUMPDEST PUSH1 0x40 MLOAD DUP1 SWAP2 SUB SWAP1 RETURN JUMPDEST PUSH2 0x2CD PUSH2 0x81E JUMP JUMPDEST PUSH1 0x40 MLOAD PUSH2 0x2DA SWAP2 SWAP1 PUSH2 0x3604 JUMP JUMPDEST PUSH1 0x40 MLOAD DUP1 SWAP2 SUB SWAP1 RETURN JUMPDEST PUSH2 0x2FD PUSH1 0x4 DUP1 CALLDATASIZE SUB DUP2 ADD SWAP1 PUSH2 0x2F8 SWAP2 SWAP1 PUSH2 0x34C1 JUMP JUMPDEST PUSH2 0x82D JUMP JUMPDEST PUSH1 0x40 MLOAD PUSH2 0x30A SWAP2 SWAP1 PUSH2 0x351C JUMP JUMPDEST PUSH1 0x40 MLOAD DUP1 SWAP2 SUB SWAP1 RETURN JUMPDEST PUSH2 0x32D PUSH1 0x4 DUP1 CALLDATASIZE SUB DUP2 ADD SWAP1 PUSH2 0x328 SWAP2 SWAP1 PUSH2 0x34C1 JUMP JUMPDEST PUSH2 0x864 JUMP JUMPDEST PUSH1 0x40 MLOAD PUSH2 0x33A SWAP2 SWAP1 PUSH2 0x3546 JUMP JUMPDEST PUSH1 0x40 MLOAD DUP1 SWAP2 SUB SWAP1 RETURN JUMPDEST PUSH2 0x35D PUSH1 0x4 DUP1 CALLDATASIZE SUB DUP2 ADD SWAP1 PUSH2 0x358 SWAP2 SWAP1 PUSH2 0x34C1 JUMP JUMPDEST PUSH2 0x8F8 JUMP JUMPDEST STOP JUMPDEST PUSH2 0x379 PUSH1 0x4 DUP1 CALLDATASIZE SUB DUP2 ADD SWAP1 PUSH2 0x374 SWAP2 SWAP1 PUSH2 0x361F JUMP JUMPDEST PUSH2 0x90E JUMP JUMPDEST STOP JUMPDEST PUSH2 0x395 PUSH1 0x4 DUP1 CALLDATASIZE SUB DUP2 ADD SWAP1 PUSH2 0x390 SWAP2 SWAP1 PUSH2 0x34C1 JUMP JUMPDEST PUSH2 0x922 JUMP JUMPDEST PUSH1 0x40 MLOAD PUSH2 0x3A2 SWAP2 SWAP1 PUSH2 0x3546 JUMP JUMPDEST PUSH1 0x40 MLOAD DUP1 SWAP2 SUB SWAP1 RETURN JUMPDEST PUSH2 0x3C5 PUSH1 0x4 DUP1 CALLDATASIZE SUB DUP2 ADD SWAP1 PUSH2 0x3C0 SWAP2 SWAP1 PUSH2 0x364C JUMP JUMPDEST PUSH2 0x992 JUMP JUMPDEST PUSH1 0x40 MLOAD PUSH2 0x3D2 SWAP2 SWAP1 PUSH2 0x3688 JUMP JUMPDEST PUSH1 0x40 MLOAD DUP1 SWAP2 SUB SWAP1 RETURN JUMPDEST PUSH2 0x3F5 PUSH1 0x4 DUP1 CALLDATASIZE SUB DUP2 ADD SWAP1 PUSH2 0x3F0 SWAP2 SWAP1 PUSH2 0x364C JUMP JUMPDEST PUSH2 0x9FB JUMP JUMPDEST STOP JUMPDEST PUSH2 0x411 PUSH1 0x4 DUP1 CALLDATASIZE SUB DUP2 ADD SWAP1 PUSH2 0x40C SWAP2 SWAP1 PUSH2 0x3746 JUMP JUMPDEST PUSH2 0xA0F JUMP JUMPDEST PUSH1 0x40 MLOAD PUSH2 0x41E SWAP2 SWAP1 PUSH2 0x351C JUMP JUMPDEST PUSH1 0x40 MLOAD DUP1 SWAP2 SUB SWAP1 RETURN JUMPDEST PUSH2 0x441 PUSH1 0x4 DUP1 CALLDATASIZE SUB DUP2 ADD SWAP1 PUSH2 0x43C SWAP2 SWAP1 PUSH2 0x364C JUMP JUMPDEST PUSH2 0xC0B JUMP JUMPDEST PUSH1 0x40 MLOAD PUSH2 0x44E SWAP2 SWAP1 PUSH2 0x3546 JUMP JUMPDEST PUSH1 0x40 MLOAD DUP1 SWAP2 SUB SWAP1 RETURN JUMPDEST PUSH2 0x471 PUSH1 0x4 DUP1 CALLDATASIZE SUB DUP2 ADD SWAP1 PUSH2 0x46C SWAP2 SWAP1 PUSH2 0x364C JUMP JUMPDEST PUSH2 0xC82 JUMP JUMPDEST PUSH1 0x40 MLOAD PUSH2 0x47E SWAP2 SWAP1 PUSH2 0x37ED JUMP JUMPDEST PUSH1 0x40 MLOAD DUP1 SWAP2 SUB SWAP1 RETURN JUMPDEST PUSH2 0x4A1 PUSH1 0x4 DUP1 CALLDATASIZE SUB DUP2 ADD SWAP1 PUSH2 0x49C SWAP2 SWAP1 PUSH2 0x364C JUMP JUMPDEST PUSH2 0xCD6 JUMP JUMPDEST PUSH1 0x40 MLOAD PUSH2 0x4AE SWAP2 SWAP1 PUSH2 0x3546 JUMP JUMPDEST PUSH1 0x40 MLOAD DUP1 SWAP2 SUB SWAP1 RETURN JUMPDEST PUSH2 0x4BF PUSH2 0xD1E JUMP JUMPDEST STOP JUMPDEST PUSH2 0x4DB PUSH1 0x4 DUP1 CALLDATASIZE SUB DUP2 ADD SWAP1 PUSH2 0x4D6 SWAP2 SWAP1 PUSH2 0x34C1 JUMP JUMPDEST PUSH2 0xD32 JUMP JUMPDEST STOP JUMPDEST PUSH2 0x4F7 PUSH1 0x4 DUP1 CALLDATASIZE SUB DUP2 ADD SWAP1 PUSH2 0x4F2 SWAP2 SWAP1 PUSH2 0x364C JUMP JUMPDEST PUSH2 0xD52 JUMP JUMPDEST PUSH1 0x40 MLOAD PUSH2 0x504 SWAP2 SWAP1 PUSH2 0x3546 JUMP JUMPDEST PUSH1 0x40 MLOAD DUP1 SWAP2 SUB SWAP1 RETURN JUMPDEST PUSH2 0x515 PUSH2 0xDA2 JUMP JUMPDEST PUSH1 0x40 MLOAD PUSH2 0x522 SWAP2 SWAP1 PUSH2 0x3688 JUMP JUMPDEST PUSH1 0x40 MLOAD DUP1 SWAP2 SUB SWAP1 RETURN JUMPDEST PUSH2 0x545 PUSH1 0x4 DUP1 CALLDATASIZE SUB DUP2 ADD SWAP1 PUSH2 0x540 SWAP2 SWAP1 PUSH2 0x361F JUMP JUMPDEST PUSH2 0xDCC JUMP JUMPDEST PUSH1 0x40 MLOAD PUSH2 0x552 SWAP2 SWAP1 PUSH2 0x3546 JUMP JUMPDEST PUSH1 0x40 MLOAD DUP1 SWAP2 SUB SWAP1 RETURN JUMPDEST PUSH2 0x563 PUSH2 0xE22 JUMP JUMPDEST PUSH1 0x40 MLOAD PUSH2 0x570 SWAP2 SWAP1 PUSH2 0x3401 JUMP JUMPDEST PUSH1 0x40 MLOAD DUP1 SWAP2 SUB SWAP1 RETURN JUMPDEST PUSH2 0x581 PUSH2 0xEB4 JUMP JUMPDEST STOP JUMPDEST PUSH2 0x59D PUSH1 0x4 DUP1 CALLDATASIZE SUB DUP2 ADD SWAP1 PUSH2 0x598 SWAP2 SWAP1 PUSH2 0x361F JUMP JUMPDEST PUSH2 0xEC7 JUMP JUMPDEST PUSH1 0x40 MLOAD PUSH2 0x5AA SWAP2 SWAP1 PUSH2 0x3546 JUMP JUMPDEST PUSH1 0x40 MLOAD DUP1 SWAP2 SUB SWAP1 RETURN JUMPDEST PUSH2 0x5CD PUSH1 0x4 DUP1 CALLDATASIZE SUB DUP2 ADD SWAP1 PUSH2 0x5C8 SWAP2 SWAP1 PUSH2 0x364C JUMP JUMPDEST PUSH2 0xEF8 JUMP JUMPDEST PUSH1 0x40 MLOAD PUSH2 0x5DA SWAP2 SWAP1 PUSH2 0x3546 JUMP JUMPDEST PUSH1 0x40 MLOAD DUP1 SWAP2 SUB SWAP1 RETURN JUMPDEST PUSH2 0x5FD PUSH1 0x4 DUP1 CALLDATASIZE SUB DUP2 ADD SWAP1 PUSH2 0x5F8 SWAP2 SWAP1 PUSH2 0x34C1 JUMP JUMPDEST PUSH2 0x1009 JUMP JUMPDEST PUSH1 0x40 MLOAD PUSH2 0x60A SWAP2 SWAP1 PUSH2 0x351C JUMP JUMPDEST PUSH1 0x40 MLOAD DUP1 SWAP2 SUB SWAP1 RETURN JUMPDEST PUSH2 0x62D PUSH1 0x4 DUP1 CALLDATASIZE SUB DUP2 ADD SWAP1 PUSH2 0x628 SWAP2 SWAP1 PUSH2 0x34C1 JUMP JUMPDEST PUSH2 0x1080 JUMP JUMPDEST PUSH1 0x40 MLOAD PUSH2 0x63A SWAP2 SWAP1 PUSH2 0x351C JUMP JUMPDEST PUSH1 0x40 MLOAD DUP1 SWAP2 SUB SWAP1 RETURN JUMPDEST PUSH2 0x65D PUSH1 0x4 DUP1 CALLDATASIZE SUB DUP2 ADD SWAP1 PUSH2 0x658 SWAP2 SWAP1 PUSH2 0x3860 JUMP JUMPDEST PUSH2 0x10A3 JUMP JUMPDEST STOP JUMPDEST PUSH2 0x679 PUSH1 0x4 DUP1 CALLDATASIZE SUB DUP2 ADD SWAP1 PUSH2 0x674 SWAP2 SWAP1 PUSH2 0x38ED JUMP JUMPDEST PUSH2 0x11A7 JUMP JUMPDEST STOP JUMPDEST PUSH2 0x695 PUSH1 0x4 DUP1 CALLDATASIZE SUB DUP2 ADD SWAP1 PUSH2 0x690 SWAP2 SWAP1 PUSH2 0x34C1 JUMP JUMPDEST PUSH2 0x12E9 JUMP JUMPDEST PUSH1 0x40 MLOAD PUSH2 0x6A2 SWAP2 SWAP1 PUSH2 0x3546 JUMP JUMPDEST PUSH1 0x40 MLOAD DUP1 SWAP2 SUB SWAP1 RETURN JUMPDEST PUSH2 0x6C5 PUSH1 0x4 DUP1 CALLDATASIZE SUB DUP2 ADD SWAP1 PUSH2 0x6C0 SWAP2 SWAP1 PUSH2 0x398F JUMP JUMPDEST PUSH2 0x136B JUMP JUMPDEST PUSH1 0x40 MLOAD PUSH2 0x6D2 SWAP2 SWAP1 PUSH2 0x3546 JUMP JUMPDEST PUSH1 0x40 MLOAD DUP1 SWAP2 SUB SWAP1 RETURN JUMPDEST PUSH2 0x6F5 PUSH1 0x4 DUP1 CALLDATASIZE SUB DUP2 ADD SWAP1 PUSH2 0x6F0 SWAP2 SWAP1 PUSH2 0x39FB JUMP JUMPDEST PUSH2 0x13F2 JUMP JUMPDEST PUSH1 0x40 MLOAD PUSH2 0x702 SWAP2 SWAP1 PUSH2 0x3AB0 JUMP JUMPDEST PUSH1 0x40 MLOAD DUP1 SWAP2 SUB SWAP1 RETURN JUMPDEST PUSH2 0x725 PUSH1 0x4 DUP1 CALLDATASIZE SUB DUP2 ADD SWAP1 PUSH2 0x720 SWAP2 SWAP1 PUSH2 0x364C JUMP JUMPDEST PUSH2 0x1502 JUMP JUMPDEST STOP JUMPDEST PUSH1 0x60 PUSH1 0x3 DUP1 SLOAD PUSH2 0x736 SWAP1 PUSH2 0x3AFA JUMP JUMPDEST DUP1 PUSH1 0x1F ADD PUSH1 0x20 DUP1 SWAP2 DIV MUL PUSH1 0x20 ADD PUSH1 0x40 MLOAD SWAP1 DUP2 ADD PUSH1 0x40 MSTORE DUP1 SWAP3 SWAP2 SWAP1 DUP2 DUP2 MSTORE PUSH1 0x20 ADD DUP3 DUP1 SLOAD PUSH2 0x762 SWAP1 PUSH2 0x3AFA JUMP JUMPDEST DUP1 ISZERO PUSH2 0x7AF JUMPI DUP1 PUSH1 0x1F LT PUSH2 0x784 JUMPI PUSH2 0x100 DUP1 DUP4 SLOAD DIV MUL DUP4 MSTORE SWAP2 PUSH1 0x20 ADD SWAP2 PUSH2 0x7AF JUMP JUMPDEST DUP3 ADD SWAP2 SWAP1 PUSH1 0x0 MSTORE PUSH1 0x20 PUSH1 0x0 KECCAK256 SWAP1 JUMPDEST DUP2 SLOAD DUP2 MSTORE SWAP1 PUSH1 0x1 ADD SWAP1 PUSH1 0x20 ADD DUP1 DUP4 GT PUSH2 0x792 JUMPI DUP3 SWAP1 SUB PUSH1 0x1F AND DUP3 ADD SWAP2 JUMPDEST POP POP POP POP POP SWAP1 POP SWAP1 JUMP JUMPDEST PUSH1 0x0 DUP1 PUSH2 0x7C4 PUSH2 0x1586 JUMP JUMPDEST SWAP1 POP PUSH2 0x7D1 DUP2 DUP6 DUP6 PUSH2 0x158E JUMP JUMPDEST PUSH1 0x1 SWAP2 POP POP SWAP3 SWAP2 POP POP JUMP JUMPDEST PUSH1 0x0 PUSH1 0x2 SLOAD SWAP1 POP SWAP1 JUMP JUMPDEST PUSH1 0x0 DUP1 PUSH2 0x7F1 PUSH2 0x1586 JUMP JUMPDEST SWAP1 POP PUSH2 0x7FE DUP6 DUP3 DUP6 PUSH2 0x1759 JUMP JUMPDEST PUSH2 0x809 DUP6 DUP6 DUP6 PUSH2 0x17E5 JUMP JUMPDEST PUSH1 0x1 SWAP2 POP POP SWAP4 SWAP3 POP POP POP JUMP JUMPDEST PUSH1 0x0 PUSH1 0x12 SWAP1 POP SWAP1 JUMP JUMPDEST PUSH1 0x0 PUSH2 0x828 PUSH2 0x1A5D JUMP JUMPDEST SWAP1 POP SWAP1 JUMP JUMPDEST PUSH1 0x0 DUP1 PUSH2 0x838 PUSH2 0x1586 JUMP JUMPDEST SWAP1 POP PUSH2 0x859 DUP2 DUP6 DUP6 PUSH2 0x84A DUP6 DUP10 PUSH2 0x136B JUMP JUMPDEST PUSH2 0x854 SWAP2 SWAP1 PUSH2 0x3B5B JUMP JUMPDEST PUSH2 0x158E JUMP JUMPDEST PUSH1 0x1 SWAP2 POP POP SWAP3 SWAP2 POP POP JUMP JUMPDEST PUSH1 0x0 NUMBER DUP3 LT PUSH2 0x8A8 JUMPI PUSH1 0x40 MLOAD PUSH32 0x8C379A000000000000000000000000000000000000000000000000000000000 DUP2 MSTORE PUSH1 0x4 ADD PUSH2 0x89F SWAP1 PUSH2 0x3BFD JUMP JUMPDEST PUSH1 0x40 MLOAD DUP1 SWAP2 SUB SWAP1 REVERT JUMPDEST PUSH2 0x8F0 PUSH1 0xD PUSH1 0x0 DUP6 PUSH20 0xFFFFFFFFFFFFFFFFFFFFFFFFFFFFFFFFFFFFFFFF AND PUSH20 0xFFFFFFFFFFFFFFFFFFFFFFFFFFFFFFFFFFFFFFFF AND DUP2 MSTORE PUSH1 0x20 ADD SWAP1 DUP2 MSTORE PUSH1 0x20 ADD PUSH1 0x0 KECCAK256 DUP4 PUSH2 0x1B77 JUMP JUMPDEST SWAP1 POP SWAP3 SWAP2 POP POP JUMP JUMPDEST PUSH2 0x900 PUSH2 0x1CC8 JUMP JUMPDEST PUSH2 0x90A DUP3 DUP3 PUSH2 0x1D46 JUMP JUMPDEST POP POP JUMP JUMPDEST PUSH2 0x91F PUSH2 0x919 PUSH2 0x1586 JUMP JUMPDEST DUP3 PUSH2 0x1D54 JUMP JUMPDEST POP JUMP JUMPDEST PUSH1 0x0 DUP1 PUSH1 0x0 PUSH2 0x96F DUP5 PUSH1 0x5 PUSH1 0x0 DUP9 PUSH20 0xFFFFFFFFFFFFFFFFFFFFFFFFFFFFFFFFFFFFFFFF AND PUSH20 0xFFFFFFFFFFFFFFFFFFFFFFFFFFFFFFFFFFFFFFFF AND DUP2 MSTORE PUSH1 0x20 ADD SWAP1 DUP2 MSTORE PUSH1 0x20 ADD PUSH1 0x0 KECCAK256 PUSH2 0x1D62 JUMP JUMPDEST SWAP2 POP SWAP2 POP DUP2 PUSH2 0x986 JUMPI PUSH2 0x981 DUP6 PUSH2 0xCD6 JUMP JUMPDEST PUSH2 0x988 JUMP JUMPDEST DUP1 JUMPDEST SWAP3 POP POP POP SWAP3 SWAP2 POP POP JUMP JUMPDEST PUSH1 0x0 PUSH1 0xC PUSH1 0x0 DUP4 PUSH20 0xFFFFFFFFFFFFFFFFFFFFFFFFFFFFFFFFFFFFFFFF AND PUSH20 0xFFFFFFFFFFFFFFFFFFFFFFFFFFFFFFFFFFFFFFFF AND DUP2 MSTORE PUSH1 0x20 ADD SWAP1 DUP2 MSTORE PUSH1 0x20 ADD PUSH1 0x0 KECCAK256 PUSH1 0x0 SWAP1 SLOAD SWAP1 PUSH2 0x100 EXP SWAP1 DIV PUSH20 0xFFFFFFFFFFFFFFFFFFFFFFFFFFFFFFFFFFFFFFFF AND SWAP1 POP SWAP2 SWAP1 POP JUMP JUMPDEST PUSH2 0xA0C PUSH2 0xA06 PUSH2 0x1586 JUMP JUMPDEST DUP3 PUSH2 0x1E58 JUMP JUMPDEST POP JUMP JUMPDEST PUSH1 0x0 PUSH2 0xA1A DUP6 PUSH2 0xC0B JUMP JUMPDEST DUP5 GT ISZERO PUSH2 0xA5C JUMPI PUSH1 0x40 MLOAD PUSH32 0x8C379A000000000000000000000000000000000000000000000000000000000 DUP2 MSTORE PUSH1 0x4 ADD PUSH2 0xA53 SWAP1 PUSH2 0x3C8F JUMP JUMPDEST PUSH1 0x40 MLOAD DUP1 SWAP2 SUB SWAP1 REVERT JUMPDEST PUSH1 0x0 PUSH2 0xA68 DUP7 DUP7 PUSH2 0x12E9 JUMP JUMPDEST SWAP1 POP PUSH2 0xA74 DUP8 DUP7 PUSH2 0x1D46 JUMP JUMPDEST PUSH32 0x439148F0BBC682CA079E46D6E2C2F0C1E3B820F1A291B069D8882ABF8CF18DD9 DUP8 PUSH20 0xFFFFFFFFFFFFFFFFFFFFFFFFFFFFFFFFFFFFFFFF AND PUSH4 0x23E30C8B CALLER DUP10 DUP10 DUP7 DUP11 DUP11 PUSH1 0x40 MLOAD DUP8 PUSH4 0xFFFFFFFF AND PUSH1 0xE0 SHL DUP2 MSTORE PUSH1 0x4 ADD PUSH2 0xAD8 SWAP7 SWAP6 SWAP5 SWAP4 SWAP3 SWAP2 SWAP1 PUSH2 0x3CFC JUMP JUMPDEST PUSH1 0x20 PUSH1 0x40 MLOAD DUP1 DUP4 SUB DUP2 PUSH1 0x0 DUP8 DUP1 EXTCODESIZE ISZERO DUP1 ISZERO PUSH2 0xAF2 JUMPI PUSH1 0x0 DUP1 REVERT JUMPDEST POP GAS CALL ISZERO DUP1 ISZERO PUSH2 0xB06 JUMPI RETURNDATASIZE PUSH1 0x0 DUP1 RETURNDATACOPY RETURNDATASIZE PUSH1 0x0 REVERT JUMPDEST POP POP POP POP PUSH1 0x40 MLOAD RETURNDATASIZE PUSH1 0x1F NOT PUSH1 0x1F DUP3 ADD AND DUP3 ADD DUP1 PUSH1 0x40 MSTORE POP DUP2 ADD SWAP1 PUSH2 0xB2A SWAP2 SWAP1 PUSH2 0x3D6D JUMP JUMPDEST EQ PUSH2 0xB6A JUMPI PUSH1 0x40 MLOAD PUSH32 0x8C379A000000000000000000000000000000000000000000000000000000000 DUP2 MSTORE PUSH1 0x4 ADD PUSH2 0xB61 SWAP1 PUSH2 0x3E0C JUMP JUMPDEST PUSH1 0x40 MLOAD DUP1 SWAP2 SUB SWAP1 REVERT JUMPDEST PUSH1 0x0 PUSH2 0xB74 PUSH2 0x1F72 JUMP JUMPDEST SWAP1 POP PUSH2 0xB8C DUP9 ADDRESS DUP5 DUP10 PUSH2 0xB87 SWAP2 SWAP1 PUSH2 0x3B5B JUMP JUMPDEST PUSH2 0x1759 JUMP JUMPDEST PUSH1 0x0 DUP3 EQ DUP1 PUSH2 0xBC7 JUMPI POP PUSH1 0x0 PUSH20 0xFFFFFFFFFFFFFFFFFFFFFFFFFFFFFFFFFFFFFFFF AND DUP2 PUSH20 0xFFFFFFFFFFFFFFFFFFFFFFFFFFFFFFFFFFFFFFFF AND EQ JUMPDEST ISZERO PUSH2 0xBE6 JUMPI PUSH2 0xBE1 DUP9 DUP4 DUP9 PUSH2 0xBDC SWAP2 SWAP1 PUSH2 0x3B5B JUMP JUMPDEST PUSH2 0x1D54 JUMP JUMPDEST PUSH2 0xBFC JUMP JUMPDEST PUSH2 0xBF0 DUP9 DUP8 PUSH2 0x1D54 JUMP JUMPDEST PUSH2 0xBFB DUP9 DUP3 DUP5 PUSH2 0x17E5 JUMP JUMPDEST JUMPDEST PUSH1 0x1 SWAP3 POP POP POP SWAP6 SWAP5 POP POP POP POP POP JUMP JUMPDEST PUSH1 0x0 ADDRESS PUSH20 0xFFFFFFFFFFFFFFFFFFFFFFFFFFFFFFFFFFFFFFFF AND DUP3 PUSH20 0xFFFFFFFFFFFFFFFFFFFFFFFFFFFFFFFFFFFFFFFF AND EQ PUSH2 0xC47 JUMPI PUSH1 0x0 PUSH2 0xC7B JUMP JUMPDEST PUSH2 0xC4F PUSH2 0x7DC JUMP JUMPDEST PUSH32 0xFFFFFFFFFFFFFFFFFFFFFFFFFFFFFFFFFFFFFFFFFFFFFFFFFFFFFFFFFFFFFFFF PUSH2 0xC7A SWAP2 SWAP1 PUSH2 0x3E2C JUMP JUMPDEST JUMPDEST SWAP1 POP SWAP2 SWAP1 POP JUMP JUMPDEST PUSH1 0x0 PUSH2 0xCCF PUSH1 0xD PUSH1 0x0 DUP5 PUSH20 0xFFFFFFFFFFFFFFFFFFFFFFFFFFFFFFFFFFFFFFFF AND PUSH20 0xFFFFFFFFFFFFFFFFFFFFFFFFFFFFFFFFFFFFFFFF AND DUP2 MSTORE PUSH1 0x20 ADD SWAP1 DUP2 MSTORE PUSH1 0x20 ADD PUSH1 0x0 KECCAK256 DUP1 SLOAD SWAP1 POP PUSH2 0x1F77 JUMP JUMPDEST SWAP1 POP SWAP2 SWAP1 POP JUMP JUMPDEST PUSH1 0x0 DUP1 PUSH1 0x0 DUP4 PUSH20 0xFFFFFFFFFFFFFFFFFFFFFFFFFFFFFFFFFFFFFFFF AND PUSH20 0xFFFFFFFFFFFFFFFFFFFFFFFFFFFFFFFFFFFFFFFF AND DUP2 MSTORE PUSH1 0x20 ADD SWAP1 DUP2 MSTORE PUSH1 0x20 ADD PUSH1 0x0 KECCAK256 SLOAD SWAP1 POP SWAP2 SWAP1 POP JUMP JUMPDEST PUSH2 0xD26 PUSH2 0x1CC8 JUMP JUMPDEST PUSH2 0xD30 PUSH1 0x0 PUSH2 0x1FCA JUMP JUMPDEST JUMP JUMPDEST PUSH2 0xD44 DUP3 PUSH2 0xD3E PUSH2 0x1586 JUMP JUMPDEST DUP4 PUSH2 0x1759 JUMP JUMPDEST PUSH2 0xD4E DUP3 DUP3 PUSH2 0x1D54 JUMP JUMPDEST POP POP JUMP JUMPDEST PUSH1 0x0 PUSH2 0xD9B PUSH1 0xA PUSH1 0x0 DUP5 PUSH20 0xFFFFFFFFFFFFFFFFFFFFFFFFFFFFFFFFFFFFFFFF AND PUSH20 0xFFFFFFFFFFFFFFFFFFFFFFFFFFFFFFFFFFFFFFFF AND DUP2 MSTORE PUSH1 0x20 ADD SWAP1 DUP2 MSTORE PUSH1 0x20 ADD PUSH1 0x0 KECCAK256 PUSH2 0x2090 JUMP JUMPDEST SWAP1 POP SWAP2 SWAP1 POP JUMP JUMPDEST PUSH1 0x0 PUSH1 0x9 PUSH1 0x0 SWAP1 SLOAD SWAP1 PUSH2 0x100 EXP SWAP1 DIV PUSH20 0xFFFFFFFFFFFFFFFFFFFFFFFFFFFFFFFFFFFFFFFF AND SWAP1 POP SWAP1 JUMP JUMPDEST PUSH1 0x0 NUMBER DUP3 LT PUSH2 0xE10 JUMPI PUSH1 0x40 MLOAD PUSH32 0x8C379A000000000000000000000000000000000000000000000000000000000 DUP2 MSTORE PUSH1 0x4 ADD PUSH2 0xE07 SWAP1 PUSH2 0x3BFD JUMP JUMPDEST PUSH1 0x40 MLOAD DUP1 SWAP2 SUB SWAP1 REVERT JUMPDEST PUSH2 0xE1B PUSH1 0xE DUP4 PUSH2 0x1B77 JUMP JUMPDEST SWAP1 POP SWAP2 SWAP1 POP JUMP JUMPDEST PUSH1 0x60 PUSH1 0x4 DUP1 SLOAD PUSH2 0xE31 SWAP1 PUSH2 0x3AFA JUMP JUMPDEST DUP1 PUSH1 0x1F ADD PUSH1 0x20 DUP1 SWAP2 DIV MUL PUSH1 0x20 ADD PUSH1 0x40 MLOAD SWAP1 DUP2 ADD PUSH1 0x40 MSTORE DUP1 SWAP3 SWAP2 SWAP1 DUP2 DUP2 MSTORE PUSH1 0x20 ADD DUP3 DUP1 SLOAD PUSH2 0xE5D SWAP1 PUSH2 0x3AFA JUMP JUMPDEST DUP1 ISZERO PUSH2 0xEAA JUMPI DUP1 PUSH1 0x1F LT PUSH2 0xE7F JUMPI PUSH2 0x100 DUP1 DUP4 SLOAD DIV MUL DUP4 MSTORE SWAP2 PUSH1 0x20 ADD SWAP2 PUSH2 0xEAA JUMP JUMPDEST DUP3 ADD SWAP2 SWAP1 PUSH1 0x0 MSTORE PUSH1 0x20 PUSH1 0x0 KECCAK256 SWAP1 JUMPDEST DUP2 SLOAD DUP2 MSTORE SWAP1 PUSH1 0x1 ADD SWAP1 PUSH1 0x20 ADD DUP1 DUP4 GT PUSH2 0xE8D JUMPI DUP3 SWAP1 SUB PUSH1 0x1F AND DUP3 ADD SWAP2 JUMPDEST POP POP POP POP POP SWAP1 POP SWAP1 JUMP JUMPDEST PUSH2 0xEBC PUSH2 0x1CC8 JUMP JUMPDEST PUSH2 0xEC4 PUSH2 0x209E JUMP JUMPDEST POP JUMP JUMPDEST PUSH1 0x0 DUP1 PUSH1 0x0 PUSH2 0xED7 DUP5 PUSH1 0x6 PUSH2 0x1D62 JUMP JUMPDEST SWAP2 POP SWAP2 POP DUP2 PUSH2 0xEED JUMPI PUSH2 0xEE8 PUSH2 0x7DC JUMP JUMPDEST PUSH2 0xEEF JUMP JUMPDEST DUP1 JUMPDEST SWAP3 POP POP POP SWAP2 SWAP1 POP JUMP JUMPDEST PUSH1 0x0 DUP1 PUSH1 0xD PUSH1 0x0 DUP5 PUSH20 0xFFFFFFFFFFFFFFFFFFFFFFFFFFFFFFFFFFFFFFFF AND PUSH20 0xFFFFFFFFFFFFFFFFFFFFFFFFFFFFFFFFFFFFFFFF AND DUP2 MSTORE PUSH1 0x20 ADD SWAP1 DUP2 MSTORE PUSH1 0x20 ADD PUSH1 0x0 KECCAK256 DUP1 SLOAD SWAP1 POP SWAP1 POP PUSH1 0x0 DUP2 EQ PUSH2 0xFE0 JUMPI PUSH1 0xD PUSH1 0x0 DUP5 PUSH20 0xFFFFFFFFFFFFFFFFFFFFFFFFFFFFFFFFFFFFFFFF AND PUSH20 0xFFFFFFFFFFFFFFFFFFFFFFFFFFFFFFFFFFFFFFFF AND DUP2 MSTORE PUSH1 0x20 ADD SWAP1 DUP2 MSTORE PUSH1 0x20 ADD PUSH1 0x0 KECCAK256 PUSH1 0x1 DUP3 PUSH2 0xF94 SWAP2 SWAP1 PUSH2 0x3E2C JUMP JUMPDEST DUP2 SLOAD DUP2 LT PUSH2 0xFA5 JUMPI PUSH2 0xFA4 PUSH2 0x3E60 JUMP JUMPDEST JUMPDEST SWAP1 PUSH1 0x0 MSTORE PUSH1 0x20 PUSH1 0x0 KECCAK256 ADD PUSH1 0x0 ADD PUSH1 0x4 SWAP1 SLOAD SWAP1 PUSH2 0x100 EXP SWAP1 DIV PUSH28 0xFFFFFFFFFFFFFFFFFFFFFFFFFFFFFFFFFFFFFFFFFFFFFFFFFFFFFFFF AND PUSH2 0xFE3 JUMP JUMPDEST PUSH1 0x0 JUMPDEST PUSH28 0xFFFFFFFFFFFFFFFFFFFFFFFFFFFFFFFFFFFFFFFFFFFFFFFFFFFFFFFF AND SWAP2 POP POP SWAP2 SWAP1 POP JUMP JUMPDEST PUSH1 0x0 DUP1 PUSH2 0x1014 PUSH2 0x1586 JUMP JUMPDEST SWAP1 POP PUSH1 0x0 PUSH2 0x1022 DUP3 DUP7 PUSH2 0x136B JUMP JUMPDEST SWAP1 POP DUP4 DUP2 LT ISZERO PUSH2 0x1067 JUMPI PUSH1 0x40 MLOAD PUSH32 0x8C379A000000000000000000000000000000000000000000000000000000000 DUP2 MSTORE PUSH1 0x4 ADD PUSH2 0x105E SWAP1 PUSH2 0x3F01 JUMP JUMPDEST PUSH1 0x40 MLOAD DUP1 SWAP2 SUB SWAP1 REVERT JUMPDEST PUSH2 0x1074 DUP3 DUP7 DUP7 DUP5 SUB PUSH2 0x158E JUMP JUMPDEST PUSH1 0x1 SWAP3 POP POP POP SWAP3 SWAP2 POP POP JUMP JUMPDEST PUSH1 0x0 DUP1 PUSH2 0x108B PUSH2 0x1586 JUMP JUMPDEST SWAP1 POP PUSH2 0x1098 DUP2 DUP6 DUP6 PUSH2 0x17E5 JUMP JUMPDEST PUSH1 0x1 SWAP2 POP POP SWAP3 SWAP2 POP POP JUMP JUMPDEST DUP4 TIMESTAMP GT ISZERO PUSH2 0x10E6 JUMPI PUSH1 0x40 MLOAD PUSH32 0x8C379A000000000000000000000000000000000000000000000000000000000 DUP2 MSTORE PUSH1 0x4 ADD PUSH2 0x10DD SWAP1 PUSH2 0x3F6D JUMP JUMPDEST PUSH1 0x40 MLOAD DUP1 SWAP2 SUB SWAP1 REVERT JUMPDEST PUSH1 0x0 PUSH2 0x1148 PUSH2 0x1140 PUSH32 0xE48329057BFD03D55E49B547132E39CFFD9C1820AD7B9D4C5307691425D15ADF DUP10 DUP10 DUP10 PUSH1 0x40 MLOAD PUSH1 0x20 ADD PUSH2 0x1125 SWAP5 SWAP4 SWAP3 SWAP2 SWAP1 PUSH2 0x3F8D JUMP JUMPDEST PUSH1 0x40 MLOAD PUSH1 0x20 DUP2 DUP4 SUB SUB DUP2 MSTORE SWAP1 PUSH1 0x40 MSTORE DUP1 MLOAD SWAP1 PUSH1 0x20 ADD KECCAK256 PUSH2 0x20F4 JUMP JUMPDEST DUP6 DUP6 DUP6 PUSH2 0x210E JUMP JUMPDEST SWAP1 POP PUSH2 0x1153 DUP2 PUSH2 0x2139 JUMP JUMPDEST DUP7 EQ PUSH2 0x1194 JUMPI PUSH1 0x40 MLOAD PUSH32 0x8C379A000000000000000000000000000000000000000000000000000000000 DUP2 MSTORE PUSH1 0x4 ADD PUSH2 0x118B SWAP1 PUSH2 0x401E JUMP JUMPDEST PUSH1 0x40 MLOAD DUP1 SWAP2 SUB SWAP1 REVERT JUMPDEST PUSH2 0x119E DUP2 DUP9 PUSH2 0x1E58 JUMP JUMPDEST POP POP POP POP POP POP POP JUMP JUMPDEST DUP4 TIMESTAMP GT ISZERO PUSH2 0x11EA JUMPI PUSH1 0x40 MLOAD PUSH32 0x8C379A000000000000000000000000000000000000000000000000000000000 DUP2 MSTORE PUSH1 0x4 ADD PUSH2 0x11E1 SWAP1 PUSH2 0x408A JUMP JUMPDEST PUSH1 0x40 MLOAD DUP1 SWAP2 SUB SWAP1 REVERT JUMPDEST PUSH1 0x0 PUSH32 0x6E71EDAE12B1B97F4D1F60370FEF10105FA2FAAE0126114A169C64845D6126C9 DUP9 DUP9 DUP9 PUSH2 0x1219 DUP13 PUSH2 0x2139 JUMP JUMPDEST DUP10 PUSH1 0x40 MLOAD PUSH1 0x20 ADD PUSH2 0x122F SWAP7 SWAP6 SWAP5 SWAP4 SWAP3 SWAP2 SWAP1 PUSH2 0x40AA JUMP JUMPDEST PUSH1 0x40 MLOAD PUSH1 0x20 DUP2 DUP4 SUB SUB DUP2 MSTORE SWAP1 PUSH1 0x40 MSTORE DUP1 MLOAD SWAP1 PUSH1 0x20 ADD KECCAK256 SWAP1 POP PUSH1 0x0 PUSH2 0x1252 DUP3 PUSH2 0x20F4 JUMP JUMPDEST SWAP1 POP PUSH1 0x0 PUSH2 0x1262 DUP3 DUP8 DUP8 DUP8 PUSH2 0x210E JUMP JUMPDEST SWAP1 POP DUP10 PUSH20 0xFFFFFFFFFFFFFFFFFFFFFFFFFFFFFFFFFFFFFFFF AND DUP2 PUSH20 0xFFFFFFFFFFFFFFFFFFFFFFFFFFFFFFFFFFFFFFFF AND EQ PUSH2 0x12D2 JUMPI PUSH1 0x40 MLOAD PUSH32 0x8C379A000000000000000000000000000000000000000000000000000000000 DUP2 MSTORE PUSH1 0x4 ADD PUSH2 0x12C9 SWAP1 PUSH2 0x4157 JUMP JUMPDEST PUSH1 0x40 MLOAD DUP1 SWAP2 SUB SWAP1 REVERT JUMPDEST PUSH2 0x12DD DUP11 DUP11 DUP11 PUSH2 0x158E JUMP JUMPDEST POP POP POP POP POP POP POP POP POP POP JUMP JUMPDEST PUSH1 0x0 ADDRESS PUSH20 0xFFFFFFFFFFFFFFFFFFFFFFFFFFFFFFFFFFFFFFFF AND DUP4 PUSH20 0xFFFFFFFFFFFFFFFFFFFFFFFFFFFFFFFFFFFFFFFF AND EQ PUSH2 0x1359 JUMPI PUSH1 0x40 MLOAD PUSH32 0x8C379A000000000000000000000000000000000000000000000000000000000 DUP2 MSTORE PUSH1 0x4 ADD PUSH2 0x1350 SWAP1 PUSH2 0x41C3 JUMP JUMPDEST PUSH1 0x40 MLOAD DUP1 SWAP2 SUB SWAP1 REVERT JUMPDEST PUSH2 0x1363 DUP4 DUP4 PUSH2 0x2197 JUMP JUMPDEST SWAP1 POP SWAP3 SWAP2 POP POP JUMP JUMPDEST PUSH1 0x0 PUSH1 0x1 PUSH1 0x0 DUP5 PUSH20 0xFFFFFFFFFFFFFFFFFFFFFFFFFFFFFFFFFFFFFFFF AND PUSH20 0xFFFFFFFFFFFFFFFFFFFFFFFFFFFFFFFFFFFFFFFF AND DUP2 MSTORE PUSH1 0x20 ADD SWAP1 DUP2 MSTORE PUSH1 0x20 ADD PUSH1 0x0 KECCAK256 PUSH1 0x0 DUP4 PUSH20 0xFFFFFFFFFFFFFFFFFFFFFFFFFFFFFFFFFFFFFFFF AND PUSH20 0xFFFFFFFFFFFFFFFFFFFFFFFFFFFFFFFFFFFFFFFF AND DUP2 MSTORE PUSH1 0x20 ADD SWAP1 DUP2 MSTORE PUSH1 0x20 ADD PUSH1 0x0 KECCAK256 SLOAD SWAP1 POP SWAP3 SWAP2 POP POP JUMP JUMPDEST PUSH2 0x13FA PUSH2 0x332A JUMP JUMPDEST PUSH1 0xD PUSH1 0x0 DUP5 PUSH20 0xFFFFFFFFFFFFFFFFFFFFFFFFFFFFFFFFFFFFFFFF AND PUSH20 0xFFFFFFFFFFFFFFFFFFFFFFFFFFFFFFFFFFFFFFFF AND DUP2 MSTORE PUSH1 0x20 ADD SWAP1 DUP2 MSTORE PUSH1 0x20 ADD PUSH1 0x0 KECCAK256 DUP3 PUSH4 0xFFFFFFFF AND DUP2 SLOAD DUP2 LT PUSH2 0x1451 JUMPI PUSH2 0x1450 PUSH2 0x3E60 JUMP JUMPDEST JUMPDEST SWAP1 PUSH1 0x0 MSTORE PUSH1 0x20 PUSH1 0x0 KECCAK256 ADD PUSH1 0x40 MLOAD DUP1 PUSH1 0x40 ADD PUSH1 0x40 MSTORE SWAP1 DUP2 PUSH1 0x0 DUP3 ADD PUSH1 0x0 SWAP1 SLOAD SWAP1 PUSH2 0x100 EXP SWAP1 DIV PUSH4 0xFFFFFFFF AND PUSH4 0xFFFFFFFF AND PUSH4 0xFFFFFFFF AND DUP2 MSTORE PUSH1 0x20 ADD PUSH1 0x0 DUP3 ADD PUSH1 0x4 SWAP1 SLOAD SWAP1 PUSH2 0x100 EXP SWAP1 DIV PUSH28 0xFFFFFFFFFFFFFFFFFFFFFFFFFFFFFFFFFFFFFFFFFFFFFFFFFFFFFFFF AND PUSH28 0xFFFFFFFFFFFFFFFFFFFFFFFFFFFFFFFFFFFFFFFFFFFFFFFFFFFFFFFF AND PUSH28 0xFFFFFFFFFFFFFFFFFFFFFFFFFFFFFFFFFFFFFFFFFFFFFFFFFFFFFFFF AND DUP2 MSTORE POP POP SWAP1 POP SWAP3 SWAP2 POP POP JUMP JUMPDEST PUSH2 0x150A PUSH2 0x1CC8 JUMP JUMPDEST PUSH1 0x0 PUSH20 0xFFFFFFFFFFFFFFFFFFFFFFFFFFFFFFFFFFFFFFFF AND DUP2 PUSH20 0xFFFFFFFFFFFFFFFFFFFFFFFFFFFFFFFFFFFFFFFF AND EQ ISZERO PUSH2 0x157A JUMPI PUSH1 0x40 MLOAD PUSH32 0x8C379A000000000000000000000000000000000000000000000000000000000 DUP2 MSTORE PUSH1 0x4 ADD PUSH2 0x1571 SWAP1 PUSH2 0x4255 JUMP JUMPDEST PUSH1 0x40 MLOAD DUP1 SWAP2 SUB SWAP1 REVERT JUMPDEST PUSH2 0x1583 DUP2 PUSH2 0x1FCA JUMP JUMPDEST POP JUMP JUMPDEST PUSH1 0x0 CALLER SWAP1 POP SWAP1 JUMP JUMPDEST PUSH1 0x0 PUSH20 0xFFFFFFFFFFFFFFFFFFFFFFFFFFFFFFFFFFFFFFFF AND DUP4 PUSH20 0xFFFFFFFFFFFFFFFFFFFFFFFFFFFFFFFFFFFFFFFF AND EQ ISZERO PUSH2 0x15FE JUMPI PUSH1 0x40 MLOAD PUSH32 0x8C379A000000000000000000000000000000000000000000000000000000000 DUP2 MSTORE PUSH1 0x4 ADD PUSH2 0x15F5 SWAP1 PUSH2 0x42E7 JUMP JUMPDEST PUSH1 0x40 MLOAD DUP1 SWAP2 SUB SWAP1 REVERT JUMPDEST PUSH1 0x0 PUSH20 0xFFFFFFFFFFFFFFFFFFFFFFFFFFFFFFFFFFFFFFFF AND DUP3 PUSH20 0xFFFFFFFFFFFFFFFFFFFFFFFFFFFFFFFFFFFFFFFF AND EQ ISZERO PUSH2 0x166E JUMPI PUSH1 0x40 MLOAD PUSH32 0x8C379A000000000000000000000000000000000000000000000000000000000 DUP2 MSTORE PUSH1 0x4 ADD PUSH2 0x1665 SWAP1 PUSH2 0x4379 JUMP JUMPDEST PUSH1 0x40 MLOAD DUP1 SWAP2 SUB SWAP1 REVERT JUMPDEST DUP1 PUSH1 0x1 PUSH1 0x0 DUP6 PUSH20 0xFFFFFFFFFFFFFFFFFFFFFFFFFFFFFFFFFFFFFFFF AND PUSH20 0xFFFFFFFFFFFFFFFFFFFFFFFFFFFFFFFFFFFFFFFF AND DUP2 MSTORE PUSH1 0x20 ADD SWAP1 DUP2 MSTORE PUSH1 0x20 ADD PUSH1 0x0 KECCAK256 PUSH1 0x0 DUP5 PUSH20 0xFFFFFFFFFFFFFFFFFFFFFFFFFFFFFFFFFFFFFFFF AND PUSH20 0xFFFFFFFFFFFFFFFFFFFFFFFFFFFFFFFFFFFFFFFF AND DUP2 MSTORE PUSH1 0x20 ADD SWAP1 DUP2 MSTORE PUSH1 0x20 ADD PUSH1 0x0 KECCAK256 DUP2 SWAP1 SSTORE POP DUP2 PUSH20 0xFFFFFFFFFFFFFFFFFFFFFFFFFFFFFFFFFFFFFFFF AND DUP4 PUSH20 0xFFFFFFFFFFFFFFFFFFFFFFFFFFFFFFFFFFFFFFFF AND PUSH32 0x8C5BE1E5EBEC7D5BD14F71427D1E84F3DD0314C0F7B2291E5B200AC8C7C3B925 DUP4 PUSH1 0x40 MLOAD PUSH2 0x174C SWAP2 SWAP1 PUSH2 0x3546 JUMP JUMPDEST PUSH1 0x40 MLOAD DUP1 SWAP2 SUB SWAP1 LOG3 POP POP POP JUMP JUMPDEST PUSH1 0x0 PUSH2 0x1765 DUP5 DUP5 PUSH2 0x136B JUMP JUMPDEST SWAP1 POP PUSH32 0xFFFFFFFFFFFFFFFFFFFFFFFFFFFFFFFFFFFFFFFFFFFFFFFFFFFFFFFFFFFFFFFF DUP2 EQ PUSH2 0x17DF JUMPI DUP2 DUP2 LT ISZERO PUSH2 0x17D1 JUMPI PUSH1 0x40 MLOAD PUSH32 0x8C379A000000000000000000000000000000000000000000000000000000000 DUP2 MSTORE PUSH1 0x4 ADD PUSH2 0x17C8 SWAP1 PUSH2 0x43E5 JUMP JUMPDEST PUSH1 0x40 MLOAD DUP1 SWAP2 SUB SWAP1 REVERT JUMPDEST PUSH2 0x17DE DUP5 DUP5 DUP5 DUP5 SUB PUSH2 0x158E JUMP JUMPDEST JUMPDEST POP POP POP POP JUMP JUMPDEST PUSH1 0x0 PUSH20 0xFFFFFFFFFFFFFFFFFFFFFFFFFFFFFFFFFFFFFFFF AND DUP4 PUSH20 0xFFFFFFFFFFFFFFFFFFFFFFFFFFFFFFFFFFFFFFFF AND EQ ISZERO PUSH2 0x1855 JUMPI PUSH1 0x40 MLOAD PUSH32 0x8C379A000000000000000000000000000000000000000000000000000000000 DUP2 MSTORE PUSH1 0x4 ADD PUSH2 0x184C SWAP1 PUSH2 0x4477 JUMP JUMPDEST PUSH1 0x40 MLOAD DUP1 SWAP2 SUB SWAP1 REVERT JUMPDEST PUSH1 0x0 PUSH20 0xFFFFFFFFFFFFFFFFFFFFFFFFFFFFFFFFFFFFFFFF AND DUP3 PUSH20 0xFFFFFFFFFFFFFFFFFFFFFFFFFFFFFFFFFFFFFFFF AND EQ ISZERO PUSH2 0x18C5 JUMPI PUSH1 0x40 MLOAD PUSH32 0x8C379A000000000000000000000000000000000000000000000000000000000 DUP2 MSTORE PUSH1 0x4 ADD PUSH2 0x18BC SWAP1 PUSH2 0x4509 JUMP JUMPDEST PUSH1 0x40 MLOAD DUP1 SWAP2 SUB SWAP1 REVERT JUMPDEST PUSH2 0x18D0 DUP4 DUP4 DUP4 PUSH2 0x219F JUMP JUMPDEST PUSH1 0x0 DUP1 PUSH1 0x0 DUP6 PUSH20 0xFFFFFFFFFFFFFFFFFFFFFFFFFFFFFFFFFFFFFFFF AND PUSH20 0xFFFFFFFFFFFFFFFFFFFFFFFFFFFFFFFFFFFFFFFF AND DUP2 MSTORE PUSH1 0x20 ADD SWAP1 DUP2 MSTORE PUSH1 0x20 ADD PUSH1 0x0 KECCAK256 SLOAD SWAP1 POP DUP2 DUP2 LT ISZERO PUSH2 0x1956 JUMPI PUSH1 0x40 MLOAD PUSH32 0x8C379A000000000000000000000000000000000000000000000000000000000 DUP2 MSTORE PUSH1 0x4 ADD PUSH2 0x194D SWAP1 PUSH2 0x459B JUMP JUMPDEST PUSH1 0x40 MLOAD DUP1 SWAP2 SUB SWAP1 REVERT JUMPDEST DUP2 DUP2 SUB PUSH1 0x0 DUP1 DUP7 PUSH20 0xFFFFFFFFFFFFFFFFFFFFFFFFFFFFFFFFFFFFFFFF AND PUSH20 0xFFFFFFFFFFFFFFFFFFFFFFFFFFFFFFFFFFFFFFFF AND DUP2 MSTORE PUSH1 0x20 ADD SWAP1 DUP2 MSTORE PUSH1 0x20 ADD PUSH1 0x0 KECCAK256 DUP2 SWAP1 SSTORE POP DUP2 PUSH1 0x0 DUP1 DUP6 PUSH20 0xFFFFFFFFFFFFFFFFFFFFFFFFFFFFFFFFFFFFFFFF AND PUSH20 0xFFFFFFFFFFFFFFFFFFFFFFFFFFFFFFFFFFFFFFFF AND DUP2 MSTORE PUSH1 0x20 ADD SWAP1 DUP2 MSTORE PUSH1 0x20 ADD PUSH1 0x0 KECCAK256 PUSH1 0x0 DUP3 DUP3 SLOAD ADD SWAP3 POP POP DUP2 SWAP1 SSTORE POP DUP3 PUSH20 0xFFFFFFFFFFFFFFFFFFFFFFFFFFFFFFFFFFFFFFFF AND DUP5 PUSH20 0xFFFFFFFFFFFFFFFFFFFFFFFFFFFFFFFFFFFFFFFF AND PUSH32 0xDDF252AD1BE2C89B69C2B068FC378DAA952BA7F163C4A11628F55A4DF523B3EF DUP5 PUSH1 0x40 MLOAD PUSH2 0x1A44 SWAP2 SWAP1 PUSH2 0x3546 JUMP JUMPDEST PUSH1 0x40 MLOAD DUP1 SWAP2 SUB SWAP1 LOG3 PUSH2 0x1A57 DUP5 DUP5 DUP5 PUSH2 0x21AF JUMP JUMPDEST POP POP POP POP JUMP JUMPDEST PUSH1 0x0 PUSH32 0x0 PUSH20 0xFFFFFFFFFFFFFFFFFFFFFFFFFFFFFFFFFFFFFFFF AND ADDRESS PUSH20 0xFFFFFFFFFFFFFFFFFFFFFFFFFFFFFFFFFFFFFFFF AND EQ DUP1 ISZERO PUSH2 0x1AD9 JUMPI POP PUSH32 0x0 CHAINID EQ JUMPDEST ISZERO PUSH2 0x1B06 JUMPI PUSH32 0x0 SWAP1 POP PUSH2 0x1B74 JUMP JUMPDEST PUSH2 0x1B71 PUSH32 0x0 PUSH32 0x0 PUSH32 0x0 PUSH2 0x21BF JUMP JUMPDEST SWAP1 POP JUMPDEST SWAP1 JUMP JUMPDEST PUSH1 0x0 DUP1 DUP4 DUP1 SLOAD SWAP1 POP SWAP1 POP PUSH1 0x0 DUP1 DUP3 SWAP1 POP PUSH1 0x5 DUP4 GT ISZERO PUSH2 0x1BED JUMPI PUSH1 0x0 PUSH2 0x1B9B DUP5 PUSH2 0x21F9 JUMP JUMPDEST DUP5 PUSH2 0x1BA6 SWAP2 SWAP1 PUSH2 0x3E2C JUMP JUMPDEST SWAP1 POP DUP6 PUSH2 0x1BB3 DUP9 DUP4 PUSH2 0x22F3 JUMP JUMPDEST PUSH1 0x0 ADD PUSH1 0x0 SWAP1 SLOAD SWAP1 PUSH2 0x100 EXP SWAP1 DIV PUSH4 0xFFFFFFFF AND PUSH4 0xFFFFFFFF AND GT ISZERO PUSH2 0x1BDB JUMPI DUP1 SWAP2 POP PUSH2 0x1BEB JUMP JUMPDEST PUSH1 0x1 DUP2 PUSH2 0x1BE8 SWAP2 SWAP1 PUSH2 0x3B5B JUMP JUMPDEST SWAP3 POP JUMPDEST POP JUMPDEST JUMPDEST DUP1 DUP3 LT ISZERO PUSH2 0x1C4D JUMPI PUSH1 0x0 PUSH2 0x1C02 DUP4 DUP4 PUSH2 0x2308 JUMP JUMPDEST SWAP1 POP DUP6 PUSH2 0x1C0F DUP9 DUP4 PUSH2 0x22F3 JUMP JUMPDEST PUSH1 0x0 ADD PUSH1 0x0 SWAP1 SLOAD SWAP1 PUSH2 0x100 EXP SWAP1 DIV PUSH4 0xFFFFFFFF AND PUSH4 0xFFFFFFFF AND GT ISZERO PUSH2 0x1C37 JUMPI DUP1 SWAP2 POP PUSH2 0x1C47 JUMP JUMPDEST PUSH1 0x1 DUP2 PUSH2 0x1C44 SWAP2 SWAP1 PUSH2 0x3B5B JUMP JUMPDEST SWAP3 POP JUMPDEST POP PUSH2 0x1BEE JUMP JUMPDEST PUSH1 0x0 DUP2 EQ PUSH2 0x1C9C JUMPI PUSH2 0x1C6B DUP7 PUSH1 0x1 DUP4 PUSH2 0x1C66 SWAP2 SWAP1 PUSH2 0x3E2C JUMP JUMPDEST PUSH2 0x22F3 JUMP JUMPDEST PUSH1 0x0 ADD PUSH1 0x4 SWAP1 SLOAD SWAP1 PUSH2 0x100 EXP SWAP1 DIV PUSH28 0xFFFFFFFFFFFFFFFFFFFFFFFFFFFFFFFFFFFFFFFFFFFFFFFFFFFFFFFF AND PUSH2 0x1C9F JUMP JUMPDEST PUSH1 0x0 JUMPDEST PUSH28 0xFFFFFFFFFFFFFFFFFFFFFFFFFFFFFFFFFFFFFFFFFFFFFFFFFFFFFFFF AND SWAP4 POP POP POP POP SWAP3 SWAP2 POP POP JUMP JUMPDEST PUSH2 0x1CD0 PUSH2 0x1586 JUMP JUMPDEST PUSH20 0xFFFFFFFFFFFFFFFFFFFFFFFFFFFFFFFFFFFFFFFF AND PUSH2 0x1CEE PUSH2 0xDA2 JUMP JUMPDEST PUSH20 0xFFFFFFFFFFFFFFFFFFFFFFFFFFFFFFFFFFFFFFFF AND EQ PUSH2 0x1D44 JUMPI PUSH1 0x40 MLOAD PUSH32 0x8C379A000000000000000000000000000000000000000000000000000000000 DUP2 MSTORE PUSH1 0x4 ADD PUSH2 0x1D3B SWAP1 PUSH2 0x4607 JUMP JUMPDEST PUSH1 0x40 MLOAD DUP1 SWAP2 SUB SWAP1 REVERT JUMPDEST JUMP JUMPDEST PUSH2 0x1D50 DUP3 DUP3 PUSH2 0x232E JUMP JUMPDEST POP POP JUMP JUMPDEST PUSH2 0x1D5E DUP3 DUP3 PUSH2 0x23BB JUMP JUMPDEST POP POP JUMP JUMPDEST PUSH1 0x0 DUP1 PUSH1 0x0 DUP5 GT PUSH2 0x1DA8 JUMPI PUSH1 0x40 MLOAD PUSH32 0x8C379A000000000000000000000000000000000000000000000000000000000 DUP2 MSTORE PUSH1 0x4 ADD PUSH2 0x1D9F SWAP1 PUSH2 0x4673 JUMP JUMPDEST PUSH1 0x40 MLOAD DUP1 SWAP2 SUB SWAP1 REVERT JUMPDEST PUSH2 0x1DB0 PUSH2 0x23D9 JUMP JUMPDEST DUP5 GT ISZERO PUSH2 0x1DF2 JUMPI PUSH1 0x40 MLOAD PUSH32 0x8C379A000000000000000000000000000000000000000000000000000000000 DUP2 MSTORE PUSH1 0x4 ADD PUSH2 0x1DE9 SWAP1 PUSH2 0x46DF JUMP JUMPDEST PUSH1 0x40 MLOAD DUP1 SWAP2 SUB SWAP1 REVERT JUMPDEST PUSH1 0x0 PUSH2 0x1E0A DUP6 DUP6 PUSH1 0x0 ADD PUSH2 0x23EA SWAP1 SWAP2 SWAP1 PUSH4 0xFFFFFFFF AND JUMP JUMPDEST SWAP1 POP DUP4 PUSH1 0x0 ADD DUP1 SLOAD SWAP1 POP DUP2 EQ ISZERO PUSH2 0x1E28 JUMPI PUSH1 0x0 DUP1 SWAP3 POP SWAP3 POP POP PUSH2 0x1E51 JUMP JUMPDEST PUSH1 0x1 DUP5 PUSH1 0x1 ADD DUP3 DUP2 SLOAD DUP2 LT PUSH2 0x1E40 JUMPI PUSH2 0x1E3F PUSH2 0x3E60 JUMP JUMPDEST JUMPDEST SWAP1 PUSH1 0x0 MSTORE PUSH1 0x20 PUSH1 0x0 KECCAK256 ADD SLOAD SWAP3 POP SWAP3 POP POP JUMPDEST SWAP3 POP SWAP3 SWAP1 POP JUMP JUMPDEST PUSH1 0x0 PUSH2 0x1E63 DUP4 PUSH2 0x992 JUMP JUMPDEST SWAP1 POP PUSH1 0x0 PUSH2 0x1E70 DUP5 PUSH2 0xCD6 JUMP JUMPDEST SWAP1 POP DUP3 PUSH1 0xC PUSH1 0x0 DUP7 PUSH20 0xFFFFFFFFFFFFFFFFFFFFFFFFFFFFFFFFFFFFFFFF AND PUSH20 0xFFFFFFFFFFFFFFFFFFFFFFFFFFFFFFFFFFFFFFFF AND DUP2 MSTORE PUSH1 0x20 ADD SWAP1 DUP2 MSTORE PUSH1 0x20 ADD PUSH1 0x0 KECCAK256 PUSH1 0x0 PUSH2 0x100 EXP DUP2 SLOAD DUP2 PUSH20 0xFFFFFFFFFFFFFFFFFFFFFFFFFFFFFFFFFFFFFFFF MUL NOT AND SWAP1 DUP4 PUSH20 0xFFFFFFFFFFFFFFFFFFFFFFFFFFFFFFFFFFFFFFFF AND MUL OR SWAP1 SSTORE POP DUP3 PUSH20 0xFFFFFFFFFFFFFFFFFFFFFFFFFFFFFFFFFFFFFFFF AND DUP3 PUSH20 0xFFFFFFFFFFFFFFFFFFFFFFFFFFFFFFFFFFFFFFFF AND DUP6 PUSH20 0xFFFFFFFFFFFFFFFFFFFFFFFFFFFFFFFFFFFFFFFF AND PUSH32 0x3134E8A2E6D97E929A7E54011EA5485D7D196DD5F0BA4D4EF95803E8E3FC257F PUSH1 0x40 MLOAD PUSH1 0x40 MLOAD DUP1 SWAP2 SUB SWAP1 LOG4 PUSH2 0x1F6C DUP3 DUP5 DUP4 PUSH2 0x24A4 JUMP JUMPDEST POP POP POP POP JUMP JUMPDEST PUSH1 0x0 SWAP1 JUMP JUMPDEST PUSH1 0x0 PUSH4 0xFFFFFFFF DUP1 AND DUP3 GT ISZERO PUSH2 0x1FC2 JUMPI PUSH1 0x40 MLOAD PUSH32 0x8C379A000000000000000000000000000000000000000000000000000000000 DUP2 MSTORE PUSH1 0x4 ADD PUSH2 0x1FB9 SWAP1 PUSH2 0x4771 JUMP JUMPDEST PUSH1 0x40 MLOAD DUP1 SWAP2 SUB SWAP1 REVERT JUMPDEST DUP2 SWAP1 POP SWAP2 SWAP1 POP JUMP JUMPDEST PUSH1 0x0 PUSH1 0x9 PUSH1 0x0 SWAP1 SLOAD SWAP1 PUSH2 0x100 EXP SWAP1 DIV PUSH20 0xFFFFFFFFFFFFFFFFFFFFFFFFFFFFFFFFFFFFFFFF AND SWAP1 POP DUP2 PUSH1 0x9 PUSH1 0x0 PUSH2 0x100 EXP DUP2 SLOAD DUP2 PUSH20 0xFFFFFFFFFFFFFFFFFFFFFFFFFFFFFFFFFFFFFFFF MUL NOT AND SWAP1 DUP4 PUSH20 0xFFFFFFFFFFFFFFFFFFFFFFFFFFFFFFFFFFFFFFFF AND MUL OR SWAP1 SSTORE POP DUP2 PUSH20 0xFFFFFFFFFFFFFFFFFFFFFFFFFFFFFFFFFFFFFFFF AND DUP2 PUSH20 0xFFFFFFFFFFFFFFFFFFFFFFFFFFFFFFFFFFFFFFFF AND PUSH32 0x8BE0079C531659141344CD1FD0A4F28419497F9722A3DAAFE3B4186F6B6457E0 PUSH1 0x40 MLOAD PUSH1 0x40 MLOAD DUP1 SWAP2 SUB SWAP1 LOG3 POP POP JUMP JUMPDEST PUSH1 0x0 DUP2 PUSH1 0x0 ADD SLOAD SWAP1 POP SWAP2 SWAP1 POP JUMP JUMPDEST PUSH1 0x0 PUSH2 0x20AA PUSH1 0x8 PUSH2 0x269D JUMP JUMPDEST PUSH1 0x0 PUSH2 0x20B4 PUSH2 0x23D9 JUMP JUMPDEST SWAP1 POP PUSH32 0x8030E83B04D87BEF53480E26263266D6CA66863AA8506ACA6F2559D18AA1CB67 DUP2 PUSH1 0x40 MLOAD PUSH2 0x20E5 SWAP2 SWAP1 PUSH2 0x3546 JUMP JUMPDEST PUSH1 0x40 MLOAD DUP1 SWAP2 SUB SWAP1 LOG1 DUP1 SWAP2 POP POP SWAP1 JUMP JUMPDEST PUSH1 0x0 PUSH2 0x2107 PUSH2 0x2101 PUSH2 0x1A5D JUMP JUMPDEST DUP4 PUSH2 0x26B3 JUMP JUMPDEST SWAP1 POP SWAP2 SWAP1 POP JUMP JUMPDEST PUSH1 0x0 DUP1 PUSH1 0x0 PUSH2 0x211F DUP8 DUP8 DUP8 DUP8 PUSH2 0x26E6 JUMP JUMPDEST SWAP2 POP SWAP2 POP PUSH2 0x212C DUP2 PUSH2 0x27C9 JUMP JUMPDEST DUP2 SWAP3 POP POP POP SWAP5 SWAP4 POP POP POP POP JUMP JUMPDEST PUSH1 0x0 DUP1 PUSH1 0xA PUSH1 0x0 DUP5 PUSH20 0xFFFFFFFFFFFFFFFFFFFFFFFFFFFFFFFFFFFFFFFF AND PUSH20 0xFFFFFFFFFFFFFFFFFFFFFFFFFFFFFFFFFFFFFFFF AND DUP2 MSTORE PUSH1 0x20 ADD SWAP1 DUP2 MSTORE PUSH1 0x20 ADD PUSH1 0x0 KECCAK256 SWAP1 POP PUSH2 0x2186 DUP2 PUSH2 0x2090 JUMP JUMPDEST SWAP2 POP PUSH2 0x2191 DUP2 PUSH2 0x269D JUMP JUMPDEST POP SWAP2 SWAP1 POP JUMP JUMPDEST PUSH1 0x0 SWAP3 SWAP2 POP POP JUMP JUMPDEST PUSH2 0x21AA DUP4 DUP4 DUP4 PUSH2 0x2937 JUMP JUMPDEST POP POP POP JUMP JUMPDEST PUSH2 0x21BA DUP4 DUP4 DUP4 PUSH2 0x29F1 JUMP JUMPDEST POP POP POP JUMP JUMPDEST PUSH1 0x0 DUP4 DUP4 DUP4 CHAINID ADDRESS PUSH1 0x40 MLOAD PUSH1 0x20 ADD PUSH2 0x21DA SWAP6 SWAP5 SWAP4 SWAP3 SWAP2 SWAP1 PUSH2 0x4791 JUMP JUMPDEST PUSH1 0x40 MLOAD PUSH1 0x20 DUP2 DUP4 SUB SUB DUP2 MSTORE SWAP1 PUSH1 0x40 MSTORE DUP1 MLOAD SWAP1 PUSH1 0x20 ADD KECCAK256 SWAP1 POP SWAP4 SWAP3 POP POP POP JUMP JUMPDEST PUSH1 0x0 DUP1 DUP3 EQ ISZERO PUSH2 0x220C JUMPI PUSH1 0x0 SWAP1 POP PUSH2 0x22EE JUMP JUMPDEST PUSH1 0x0 PUSH1 0x1 PUSH2 0x2219 DUP5 PUSH2 0x2A1C JUMP JUMPDEST SWAP1 SHR PUSH1 0x1 SWAP1 SHL SWAP1 POP PUSH1 0x1 DUP2 DUP5 DUP2 PUSH2 0x2233 JUMPI PUSH2 0x2232 PUSH2 0x47E4 JUMP JUMPDEST JUMPDEST DIV DUP3 ADD SWAP1 SHR SWAP1 POP PUSH1 0x1 DUP2 DUP5 DUP2 PUSH2 0x224C JUMPI PUSH2 0x224B PUSH2 0x47E4 JUMP JUMPDEST JUMPDEST DIV DUP3 ADD SWAP1 SHR SWAP1 POP PUSH1 0x1 DUP2 DUP5 DUP2 PUSH2 0x2265 JUMPI PUSH2 0x2264 PUSH2 0x47E4 JUMP JUMPDEST JUMPDEST DIV DUP3 ADD SWAP1 SHR SWAP1 POP PUSH1 0x1 DUP2 DUP5 DUP2 PUSH2 0x227E JUMPI PUSH2 0x227D PUSH2 0x47E4 JUMP JUMPDEST JUMPDEST DIV DUP3 ADD SWAP1 SHR SWAP1 POP PUSH1 0x1 DUP2 DUP5 DUP2 PUSH2 0x2297 JUMPI PUSH2 0x2296 PUSH2 0x47E4 JUMP JUMPDEST JUMPDEST DIV DUP3 ADD SWAP1 SHR SWAP1 POP PUSH1 0x1 DUP2 DUP5 DUP2 PUSH2 0x22B0 JUMPI PUSH2 0x22AF PUSH2 0x47E4 JUMP JUMPDEST JUMPDEST DIV DUP3 ADD SWAP1 SHR SWAP1 POP PUSH1 0x1 DUP2 DUP5 DUP2 PUSH2 0x22C9 JUMPI PUSH2 0x22C8 PUSH2 0x47E4 JUMP JUMPDEST JUMPDEST DIV DUP3 ADD SWAP1 SHR SWAP1 POP PUSH2 0x22EA DUP2 DUP3 DUP6 DUP2 PUSH2 0x22E4 JUMPI PUSH2 0x22E3 PUSH2 0x47E4 JUMP JUMPDEST JUMPDEST DIV PUSH2 0x2AFD JUMP JUMPDEST SWAP2 POP POP JUMPDEST SWAP2 SWAP1 POP JUMP JUMPDEST PUSH1 0x0 DUP3 PUSH1 0x0 MSTORE DUP2 PUSH1 0x20 PUSH1 0x0 KECCAK256 ADD SWAP1 POP SWAP3 SWAP2 POP POP JUMP JUMPDEST PUSH1 0x0 PUSH1 0x2 DUP3 DUP5 XOR PUSH2 0x2319 SWAP2 SWAP1 PUSH2 0x4813 JUMP JUMPDEST DUP3 DUP5 AND PUSH2 0x2326 SWAP2 SWAP1 PUSH2 0x3B5B JUMP JUMPDEST SWAP1 POP SWAP3 SWAP2 POP POP JUMP JUMPDEST PUSH2 0x2338 DUP3 DUP3 PUSH2 0x2B16 JUMP JUMPDEST PUSH2 0x2340 PUSH2 0x2C6D JUMP JUMPDEST PUSH28 0xFFFFFFFFFFFFFFFFFFFFFFFFFFFFFFFFFFFFFFFFFFFFFFFFFFFFFFFF AND PUSH2 0x2366 PUSH2 0x7DC JUMP JUMPDEST GT ISZERO PUSH2 0x23A7 JUMPI PUSH1 0x40 MLOAD PUSH32 0x8C379A000000000000000000000000000000000000000000000000000000000 DUP2 MSTORE PUSH1 0x4 ADD PUSH2 0x239E SWAP1 PUSH2 0x48B6 JUMP JUMPDEST PUSH1 0x40 MLOAD DUP1 SWAP2 SUB SWAP1 REVERT JUMPDEST PUSH2 0x23B5 PUSH1 0xE PUSH2 0x2C91 DUP4 PUSH2 0x2CA7 JUMP JUMPDEST POP POP POP POP JUMP JUMPDEST PUSH2 0x23C5 DUP3 DUP3 PUSH2 0x2F76 JUMP JUMPDEST PUSH2 0x23D3 PUSH1 0xE PUSH2 0x3144 DUP4 PUSH2 0x2CA7 JUMP JUMPDEST POP POP POP POP JUMP JUMPDEST PUSH1 0x0 PUSH2 0x23E5 PUSH1 0x8 PUSH2 0x2090 JUMP JUMPDEST SWAP1 POP SWAP1 JUMP JUMPDEST PUSH1 0x0 DUP1 DUP4 DUP1 SLOAD SWAP1 POP EQ ISZERO PUSH2 0x2401 JUMPI PUSH1 0x0 SWAP1 POP PUSH2 0x249E JUMP JUMPDEST PUSH1 0x0 DUP1 DUP5 DUP1 SLOAD SWAP1 POP SWAP1 POP JUMPDEST DUP1 DUP3 LT ISZERO PUSH2 0x2455 JUMPI PUSH1 0x0 PUSH2 0x2420 DUP4 DUP4 PUSH2 0x2308 JUMP JUMPDEST SWAP1 POP DUP5 PUSH2 0x242D DUP8 DUP4 PUSH2 0x315A JUMP JUMPDEST PUSH1 0x0 ADD SLOAD GT ISZERO PUSH2 0x243F JUMPI DUP1 SWAP2 POP PUSH2 0x244F JUMP JUMPDEST PUSH1 0x1 DUP2 PUSH2 0x244C SWAP2 SWAP1 PUSH2 0x3B5B JUMP JUMPDEST SWAP3 POP JUMPDEST POP PUSH2 0x240C JUMP JUMPDEST PUSH1 0x0 DUP3 GT DUP1 ISZERO PUSH2 0x247D JUMPI POP DUP4 PUSH2 0x2477 DUP7 PUSH1 0x1 DUP6 PUSH2 0x2472 SWAP2 SWAP1 PUSH2 0x3E2C JUMP JUMPDEST PUSH2 0x315A JUMP JUMPDEST PUSH1 0x0 ADD SLOAD EQ JUMPDEST ISZERO PUSH2 0x2498 JUMPI PUSH1 0x1 DUP3 PUSH2 0x248F SWAP2 SWAP1 PUSH2 0x3E2C JUMP JUMPDEST SWAP3 POP POP POP PUSH2 0x249E JUMP JUMPDEST DUP2 SWAP3 POP POP POP JUMPDEST SWAP3 SWAP2 POP POP JUMP JUMPDEST DUP2 PUSH20 0xFFFFFFFFFFFFFFFFFFFFFFFFFFFFFFFFFFFFFFFF AND DUP4 PUSH20 0xFFFFFFFFFFFFFFFFFFFFFFFFFFFFFFFFFFFFFFFF AND EQ ISZERO DUP1 ISZERO PUSH2 0x24E0 JUMPI POP PUSH1 0x0 DUP2 GT JUMPDEST ISZERO PUSH2 0x2698 JUMPI PUSH1 0x0 PUSH20 0xFFFFFFFFFFFFFFFFFFFFFFFFFFFFFFFFFFFFFFFF AND DUP4 PUSH20 0xFFFFFFFFFFFFFFFFFFFFFFFFFFFFFFFFFFFFFFFF AND EQ PUSH2 0x25BE JUMPI PUSH1 0x0 DUP1 PUSH2 0x2567 PUSH1 0xD PUSH1 0x0 DUP8 PUSH20 0xFFFFFFFFFFFFFFFFFFFFFFFFFFFFFFFFFFFFFFFF AND PUSH20 0xFFFFFFFFFFFFFFFFFFFFFFFFFFFFFFFFFFFFFFFF AND DUP2 MSTORE PUSH1 0x20 ADD SWAP1 DUP2 MSTORE PUSH1 0x20 ADD PUSH1 0x0 KECCAK256 PUSH2 0x3144 DUP6 PUSH2 0x2CA7 JUMP JUMPDEST SWAP2 POP SWAP2 POP DUP5 PUSH20 0xFFFFFFFFFFFFFFFFFFFFFFFFFFFFFFFFFFFFFFFF AND PUSH32 0xDEC2BACDD2F05B59DE34DA9B523DFF8BE42E5E38E818C82FDB0BAE774387A724 DUP4 DUP4 PUSH1 0x40 MLOAD PUSH2 0x25B3 SWAP3 SWAP2 SWAP1 PUSH2 0x48D6 JUMP JUMPDEST PUSH1 0x40 MLOAD DUP1 SWAP2 SUB SWAP1 LOG2 POP POP JUMPDEST PUSH1 0x0 PUSH20 0xFFFFFFFFFFFFFFFFFFFFFFFFFFFFFFFFFFFFFFFF AND DUP3 PUSH20 0xFFFFFFFFFFFFFFFFFFFFFFFFFFFFFFFFFFFFFFFF AND EQ PUSH2 0x2697 JUMPI PUSH1 0x0 DUP1 PUSH2 0x2640 PUSH1 0xD PUSH1 0x0 DUP7 PUSH20 0xFFFFFFFFFFFFFFFFFFFFFFFFFFFFFFFFFFFFFFFF AND PUSH20 0xFFFFFFFFFFFFFFFFFFFFFFFFFFFFFFFFFFFFFFFF AND DUP2 MSTORE PUSH1 0x20 ADD SWAP1 DUP2 MSTORE PUSH1 0x20 ADD PUSH1 0x0 KECCAK256 PUSH2 0x2C91 DUP6 PUSH2 0x2CA7 JUMP JUMPDEST SWAP2 POP SWAP2 POP DUP4 PUSH20 0xFFFFFFFFFFFFFFFFFFFFFFFFFFFFFFFFFFFFFFFF AND PUSH32 0xDEC2BACDD2F05B59DE34DA9B523DFF8BE42E5E38E818C82FDB0BAE774387A724 DUP4 DUP4 PUSH1 0x40 MLOAD PUSH2 0x268C SWAP3 SWAP2 SWAP1 PUSH2 0x48D6 JUMP JUMPDEST PUSH1 0x40 MLOAD DUP1 SWAP2 SUB SWAP1 LOG2 POP POP JUMPDEST JUMPDEST POP POP POP JUMP JUMPDEST PUSH1 0x1 DUP2 PUSH1 0x0 ADD PUSH1 0x0 DUP3 DUP3 SLOAD ADD SWAP3 POP POP DUP2 SWAP1 SSTORE POP POP JUMP JUMPDEST PUSH1 0x0 DUP3 DUP3 PUSH1 0x40 MLOAD PUSH1 0x20 ADD PUSH2 0x26C8 SWAP3 SWAP2 SWAP1 PUSH2 0x4977 JUMP JUMPDEST PUSH1 0x40 MLOAD PUSH1 0x20 DUP2 DUP4 SUB SUB DUP2 MSTORE SWAP1 PUSH1 0x40 MSTORE DUP1 MLOAD SWAP1 PUSH1 0x20 ADD KECCAK256 SWAP1 POP SWAP3 SWAP2 POP POP JUMP JUMPDEST PUSH1 0x0 DUP1 PUSH32 0x7FFFFFFFFFFFFFFFFFFFFFFFFFFFFFFF5D576E7357A4501DDFE92F46681B20A0 DUP4 PUSH1 0x0 SHR GT ISZERO PUSH2 0x2721 JUMPI PUSH1 0x0 PUSH1 0x3 SWAP2 POP SWAP2 POP PUSH2 0x27C0 JUMP JUMPDEST PUSH1 0x0 PUSH1 0x1 DUP8 DUP8 DUP8 DUP8 PUSH1 0x40 MLOAD PUSH1 0x0 DUP2 MSTORE PUSH1 0x20 ADD PUSH1 0x40 MSTORE PUSH1 0x40 MLOAD PUSH2 0x2746 SWAP5 SWAP4 SWAP3 SWAP2 SWAP1 PUSH2 0x49AE JUMP JUMPDEST PUSH1 0x20 PUSH1 0x40 MLOAD PUSH1 0x20 DUP2 SUB SWAP1 DUP1 DUP5 SUB SWAP1 DUP6 GAS STATICCALL ISZERO DUP1 ISZERO PUSH2 0x2768 JUMPI RETURNDATASIZE PUSH1 0x0 DUP1 RETURNDATACOPY RETURNDATASIZE PUSH1 0x0 REVERT JUMPDEST POP POP POP PUSH1 0x20 PUSH1 0x40 MLOAD SUB MLOAD SWAP1 POP PUSH1 0x0 PUSH20 0xFFFFFFFFFFFFFFFFFFFFFFFFFFFFFFFFFFFFFFFF AND DUP2 PUSH20 0xFFFFFFFFFFFFFFFFFFFFFFFFFFFFFFFFFFFFFFFF AND EQ ISZERO PUSH2 0x27B7 JUMPI PUSH1 0x0 PUSH1 0x1 SWAP3 POP SWAP3 POP POP PUSH2 0x27C0 JUMP JUMPDEST DUP1 PUSH1 0x0 SWAP3 POP SWAP3 POP POP JUMPDEST SWAP5 POP SWAP5 SWAP3 POP POP POP JUMP JUMPDEST PUSH1 0x0 PUSH1 0x4 DUP2 GT ISZERO PUSH2 0x27DD JUMPI PUSH2 0x27DC PUSH2 0x49F3 JUMP JUMPDEST JUMPDEST DUP2 PUSH1 0x4 DUP2 GT ISZERO PUSH2 0x27F0 JUMPI PUSH2 0x27EF PUSH2 0x49F3 JUMP JUMPDEST JUMPDEST EQ ISZERO PUSH2 0x27FB JUMPI PUSH2 0x2934 JUMP JUMPDEST PUSH1 0x1 PUSH1 0x4 DUP2 GT ISZERO PUSH2 0x280F JUMPI PUSH2 0x280E PUSH2 0x49F3 JUMP JUMPDEST JUMPDEST DUP2 PUSH1 0x4 DUP2 GT ISZERO PUSH2 0x2822 JUMPI PUSH2 0x2821 PUSH2 0x49F3 JUMP JUMPDEST JUMPDEST EQ ISZERO PUSH2 0x2863 JUMPI PUSH1 0x40 MLOAD PUSH32 0x8C379A000000000000000000000000000000000000000000000000000000000 DUP2 MSTORE PUSH1 0x4 ADD PUSH2 0x285A SWAP1 PUSH2 0x4A6E JUMP JUMPDEST PUSH1 0x40 MLOAD DUP1 SWAP2 SUB SWAP1 REVERT JUMPDEST PUSH1 0x2 PUSH1 0x4 DUP2 GT ISZERO PUSH2 0x2877 JUMPI PUSH2 0x2876 PUSH2 0x49F3 JUMP JUMPDEST JUMPDEST DUP2 PUSH1 0x4 DUP2 GT ISZERO PUSH2 0x288A JUMPI PUSH2 0x2889 PUSH2 0x49F3 JUMP JUMPDEST JUMPDEST EQ ISZERO PUSH2 0x28CB JUMPI PUSH1 0x40 MLOAD PUSH32 0x8C379A000000000000000000000000000000000000000000000000000000000 DUP2 MSTORE PUSH1 0x4 ADD PUSH2 0x28C2 SWAP1 PUSH2 0x4ADA JUMP JUMPDEST PUSH1 0x40 MLOAD DUP1 SWAP2 SUB SWAP1 REVERT JUMPDEST PUSH1 0x3 PUSH1 0x4 DUP2 GT ISZERO PUSH2 0x28DF JUMPI PUSH2 0x28DE PUSH2 0x49F3 JUMP JUMPDEST JUMPDEST DUP2 PUSH1 0x4 DUP2 GT ISZERO PUSH2 0x28F2 JUMPI PUSH2 0x28F1 PUSH2 0x49F3 JUMP JUMPDEST JUMPDEST EQ ISZERO PUSH2 0x2933 JUMPI PUSH1 0x40 MLOAD PUSH32 0x8C379A000000000000000000000000000000000000000000000000000000000 DUP2 MSTORE PUSH1 0x4 ADD PUSH2 0x292A SWAP1 PUSH2 0x4B6C JUMP JUMPDEST PUSH1 0x40 MLOAD DUP1 SWAP2 SUB SWAP1 REVERT JUMPDEST JUMPDEST POP JUMP JUMPDEST PUSH2 0x2942 DUP4 DUP4 DUP4 PUSH2 0x317C JUMP JUMPDEST PUSH1 0x0 PUSH20 0xFFFFFFFFFFFFFFFFFFFFFFFFFFFFFFFFFFFFFFFF AND DUP4 PUSH20 0xFFFFFFFFFFFFFFFFFFFFFFFFFFFFFFFFFFFFFFFF AND EQ ISZERO PUSH2 0x298D JUMPI PUSH2 0x2980 DUP3 PUSH2 0x3181 JUMP JUMPDEST PUSH2 0x2988 PUSH2 0x31D4 JUMP JUMPDEST PUSH2 0x29EC JUMP JUMPDEST PUSH1 0x0 PUSH20 0xFFFFFFFFFFFFFFFFFFFFFFFFFFFFFFFFFFFFFFFF AND DUP3 PUSH20 0xFFFFFFFFFFFFFFFFFFFFFFFFFFFFFFFFFFFFFFFF AND EQ ISZERO PUSH2 0x29D8 JUMPI PUSH2 0x29CB DUP4 PUSH2 0x3181 JUMP JUMPDEST PUSH2 0x29D3 PUSH2 0x31D4 JUMP JUMPDEST PUSH2 0x29EB JUMP JUMPDEST PUSH2 0x29E1 DUP4 PUSH2 0x3181 JUMP JUMPDEST PUSH2 0x29EA DUP3 PUSH2 0x3181 JUMP JUMPDEST JUMPDEST JUMPDEST POP POP POP JUMP JUMPDEST PUSH2 0x29FC DUP4 DUP4 DUP4 PUSH2 0x31E8 JUMP JUMPDEST PUSH2 0x2A17 PUSH2 0x2A08 DUP5 PUSH2 0x992 JUMP JUMPDEST PUSH2 0x2A11 DUP5 PUSH2 0x992 JUMP JUMPDEST DUP4 PUSH2 0x24A4 JUMP JUMPDEST POP POP POP JUMP JUMPDEST PUSH1 0x0 DUP1 PUSH1 0x0 SWAP1 POP PUSH1 0x0 PUSH1 0x80 DUP5 SWAP1 SHR GT ISZERO PUSH2 0x2A3E JUMPI PUSH1 0x80 DUP4 SWAP1 SHR SWAP3 POP PUSH1 0x80 DUP2 ADD SWAP1 POP JUMPDEST PUSH1 0x0 PUSH1 0x40 DUP5 SWAP1 SHR GT ISZERO PUSH2 0x2A59 JUMPI PUSH1 0x40 DUP4 SWAP1 SHR SWAP3 POP PUSH1 0x40 DUP2 ADD SWAP1 POP JUMPDEST PUSH1 0x0 PUSH1 0x20 DUP5 SWAP1 SHR GT ISZERO PUSH2 0x2A74 JUMPI PUSH1 0x20 DUP4 SWAP1 SHR SWAP3 POP PUSH1 0x20 DUP2 ADD SWAP1 POP JUMPDEST PUSH1 0x0 PUSH1 0x10 DUP5 SWAP1 SHR GT ISZERO PUSH2 0x2A8F JUMPI PUSH1 0x10 DUP4 SWAP1 SHR SWAP3 POP PUSH1 0x10 DUP2 ADD SWAP1 POP JUMPDEST PUSH1 0x0 PUSH1 0x8 DUP5 SWAP1 SHR GT ISZERO PUSH2 0x2AAA JUMPI PUSH1 0x8 DUP4 SWAP1 SHR SWAP3 POP PUSH1 0x8 DUP2 ADD SWAP1 POP JUMPDEST PUSH1 0x0 PUSH1 0x4 DUP5 SWAP1 SHR GT ISZERO PUSH2 0x2AC5 JUMPI PUSH1 0x4 DUP4 SWAP1 SHR SWAP3 POP PUSH1 0x4 DUP2 ADD SWAP1 POP JUMPDEST PUSH1 0x0 PUSH1 0x2 DUP5 SWAP1 SHR GT ISZERO PUSH2 0x2AE0 JUMPI PUSH1 0x2 DUP4 SWAP1 SHR SWAP3 POP PUSH1 0x2 DUP2 ADD SWAP1 POP JUMPDEST PUSH1 0x0 PUSH1 0x1 DUP5 SWAP1 SHR GT ISZERO PUSH2 0x2AF4 JUMPI PUSH1 0x1 DUP2 ADD SWAP1 POP JUMPDEST DUP1 SWAP2 POP POP SWAP2 SWAP1 POP JUMP JUMPDEST PUSH1 0x0 DUP2 DUP4 LT PUSH2 0x2B0C JUMPI DUP2 PUSH2 0x2B0E JUMP JUMPDEST DUP3 JUMPDEST SWAP1 POP SWAP3 SWAP2 POP POP JUMP JUMPDEST PUSH1 0x0 PUSH20 0xFFFFFFFFFFFFFFFFFFFFFFFFFFFFFFFFFFFFFFFF AND DUP3 PUSH20 0xFFFFFFFFFFFFFFFFFFFFFFFFFFFFFFFFFFFFFFFF AND EQ ISZERO PUSH2 0x2B86 JUMPI PUSH1 0x40 MLOAD PUSH32 0x8C379A000000000000000000000000000000000000000000000000000000000 DUP2 MSTORE PUSH1 0x4 ADD PUSH2 0x2B7D SWAP1 PUSH2 0x4BD8 JUMP JUMPDEST PUSH1 0x40 MLOAD DUP1 SWAP2 SUB SWAP1 REVERT JUMPDEST PUSH2 0x2B92 PUSH1 0x0 DUP4 DUP4 PUSH2 0x219F JUMP JUMPDEST DUP1 PUSH1 0x2 PUSH1 0x0 DUP3 DUP3 SLOAD PUSH2 0x2BA4 SWAP2 SWAP1 PUSH2 0x3B5B JUMP JUMPDEST SWAP3 POP POP DUP2 SWAP1 SSTORE POP DUP1 PUSH1 0x0 DUP1 DUP5 PUSH20 0xFFFFFFFFFFFFFFFFFFFFFFFFFFFFFFFFFFFFFFFF AND PUSH20 0xFFFFFFFFFFFFFFFFFFFFFFFFFFFFFFFFFFFFFFFF AND DUP2 MSTORE PUSH1 0x20 ADD SWAP1 DUP2 MSTORE PUSH1 0x20 ADD PUSH1 0x0 KECCAK256 PUSH1 0x0 DUP3 DUP3 SLOAD ADD SWAP3 POP POP DUP2 SWAP1 SSTORE POP DUP2 PUSH20 0xFFFFFFFFFFFFFFFFFFFFFFFFFFFFFFFFFFFFFFFF AND PUSH1 0x0 PUSH20 0xFFFFFFFFFFFFFFFFFFFFFFFFFFFFFFFFFFFFFFFF AND PUSH32 0xDDF252AD1BE2C89B69C2B068FC378DAA952BA7F163C4A11628F55A4DF523B3EF DUP4 PUSH1 0x40 MLOAD PUSH2 0x2C55 SWAP2 SWAP1 PUSH2 0x3546 JUMP JUMPDEST PUSH1 0x40 MLOAD DUP1 SWAP2 SUB SWAP1 LOG3 PUSH2 0x2C69 PUSH1 0x0 DUP4 DUP4 PUSH2 0x21AF JUMP JUMPDEST POP POP JUMP JUMPDEST PUSH1 0x0 PUSH28 0xFFFFFFFFFFFFFFFFFFFFFFFFFFFFFFFFFFFFFFFFFFFFFFFFFFFFFFFF SWAP1 POP SWAP1 JUMP JUMPDEST PUSH1 0x0 DUP2 DUP4 PUSH2 0x2C9F SWAP2 SWAP1 PUSH2 0x3B5B JUMP JUMPDEST SWAP1 POP SWAP3 SWAP2 POP POP JUMP JUMPDEST PUSH1 0x0 DUP1 PUSH1 0x0 DUP6 DUP1 SLOAD SWAP1 POP SWAP1 POP PUSH1 0x0 DUP1 DUP3 EQ PUSH2 0x2D76 JUMPI PUSH2 0x2CD2 DUP8 PUSH1 0x1 DUP5 PUSH2 0x2CCD SWAP2 SWAP1 PUSH2 0x3E2C JUMP JUMPDEST PUSH2 0x22F3 JUMP JUMPDEST PUSH1 0x40 MLOAD DUP1 PUSH1 0x40 ADD PUSH1 0x40 MSTORE SWAP1 DUP2 PUSH1 0x0 DUP3 ADD PUSH1 0x0 SWAP1 SLOAD SWAP1 PUSH2 0x100 EXP SWAP1 DIV PUSH4 0xFFFFFFFF AND PUSH4 0xFFFFFFFF AND PUSH4 0xFFFFFFFF AND DUP2 MSTORE PUSH1 0x20 ADD PUSH1 0x0 DUP3 ADD PUSH1 0x4 SWAP1 SLOAD SWAP1 PUSH2 0x100 EXP SWAP1 DIV PUSH28 0xFFFFFFFFFFFFFFFFFFFFFFFFFFFFFFFFFFFFFFFFFFFFFFFFFFFFFFFF AND PUSH28 0xFFFFFFFFFFFFFFFFFFFFFFFFFFFFFFFFFFFFFFFFFFFFFFFFFFFFFFFF AND PUSH28 0xFFFFFFFFFFFFFFFFFFFFFFFFFFFFFFFFFFFFFFFFFFFFFFFFFFFFFFFF AND DUP2 MSTORE POP POP PUSH2 0x2DB2 JUMP JUMPDEST PUSH1 0x40 MLOAD DUP1 PUSH1 0x40 ADD PUSH1 0x40 MSTORE DUP1 PUSH1 0x0 PUSH4 0xFFFFFFFF AND DUP2 MSTORE PUSH1 0x20 ADD PUSH1 0x0 PUSH28 0xFFFFFFFFFFFFFFFFFFFFFFFFFFFFFFFFFFFFFFFFFFFFFFFFFFFFFFFF AND DUP2 MSTORE POP JUMPDEST SWAP1 POP DUP1 PUSH1 0x20 ADD MLOAD PUSH28 0xFFFFFFFFFFFFFFFFFFFFFFFFFFFFFFFFFFFFFFFFFFFFFFFFFFFFFFFF AND SWAP4 POP PUSH2 0x2DE7 DUP5 DUP7 DUP9 PUSH4 0xFFFFFFFF AND JUMP JUMPDEST SWAP3 POP PUSH1 0x0 DUP3 GT DUP1 ISZERO PUSH2 0x2E02 JUMPI POP NUMBER DUP2 PUSH1 0x0 ADD MLOAD PUSH4 0xFFFFFFFF AND EQ JUMPDEST ISZERO PUSH2 0x2E7C JUMPI PUSH2 0x2E10 DUP4 PUSH2 0x31ED JUMP JUMPDEST PUSH2 0x2E26 DUP9 PUSH1 0x1 DUP6 PUSH2 0x2E21 SWAP2 SWAP1 PUSH2 0x3E2C JUMP JUMPDEST PUSH2 0x22F3 JUMP JUMPDEST PUSH1 0x0 ADD PUSH1 0x4 PUSH2 0x100 EXP DUP2 SLOAD DUP2 PUSH28 0xFFFFFFFFFFFFFFFFFFFFFFFFFFFFFFFFFFFFFFFFFFFFFFFFFFFFFFFF MUL NOT AND SWAP1 DUP4 PUSH28 0xFFFFFFFFFFFFFFFFFFFFFFFFFFFFFFFFFFFFFFFFFFFFFFFFFFFFFFFF AND MUL OR SWAP1 SSTORE POP PUSH2 0x2F6C JUMP JUMPDEST DUP7 PUSH1 0x40 MLOAD DUP1 PUSH1 0x40 ADD PUSH1 0x40 MSTORE DUP1 PUSH2 0x2E91 NUMBER PUSH2 0x1F77 JUMP JUMPDEST PUSH4 0xFFFFFFFF AND DUP2 MSTORE PUSH1 0x20 ADD PUSH2 0x2EA5 DUP7 PUSH2 0x31ED JUMP JUMPDEST PUSH28 0xFFFFFFFFFFFFFFFFFFFFFFFFFFFFFFFFFFFFFFFFFFFFFFFFFFFFFFFF AND DUP2 MSTORE POP SWAP1 DUP1 PUSH1 0x1 DUP2 SLOAD ADD DUP1 DUP3 SSTORE DUP1 SWAP2 POP POP PUSH1 0x1 SWAP1 SUB SWAP1 PUSH1 0x0 MSTORE PUSH1 0x20 PUSH1 0x0 KECCAK256 ADD PUSH1 0x0 SWAP1 SWAP2 SWAP1 SWAP2 SWAP1 SWAP2 POP PUSH1 0x0 DUP3 ADD MLOAD DUP2 PUSH1 0x0 ADD PUSH1 0x0 PUSH2 0x100 EXP DUP2 SLOAD DUP2 PUSH4 0xFFFFFFFF MUL NOT AND SWAP1 DUP4 PUSH4 0xFFFFFFFF AND MUL OR SWAP1 SSTORE POP PUSH1 0x20 DUP3 ADD MLOAD DUP2 PUSH1 0x0 ADD PUSH1 0x4 PUSH2 0x100 EXP DUP2 SLOAD DUP2 PUSH28 0xFFFFFFFFFFFFFFFFFFFFFFFFFFFFFFFFFFFFFFFFFFFFFFFFFFFFFFFF MUL NOT AND SWAP1 DUP4 PUSH28 0xFFFFFFFFFFFFFFFFFFFFFFFFFFFFFFFFFFFFFFFFFFFFFFFFFFFFFFFF AND MUL OR SWAP1 SSTORE POP POP POP JUMPDEST POP POP SWAP4 POP SWAP4 SWAP2 POP POP JUMP JUMPDEST PUSH1 0x0 PUSH20 0xFFFFFFFFFFFFFFFFFFFFFFFFFFFFFFFFFFFFFFFF AND DUP3 PUSH20 0xFFFFFFFFFFFFFFFFFFFFFFFFFFFFFFFFFFFFFFFF AND EQ ISZERO PUSH2 0x2FE6 JUMPI PUSH1 0x40 MLOAD PUSH32 0x8C379A000000000000000000000000000000000000000000000000000000000 DUP2 MSTORE PUSH1 0x4 ADD PUSH2 0x2FDD SWAP1 PUSH2 0x4C6A JUMP JUMPDEST PUSH1 0x40 MLOAD DUP1 SWAP2 SUB SWAP1 REVERT JUMPDEST PUSH2 0x2FF2 DUP3 PUSH1 0x0 DUP4 PUSH2 0x219F JUMP JUMPDEST PUSH1 0x0 DUP1 PUSH1 0x0 DUP5 PUSH20 0xFFFFFFFFFFFFFFFFFFFFFFFFFFFFFFFFFFFFFFFF AND PUSH20 0xFFFFFFFFFFFFFFFFFFFFFFFFFFFFFFFFFFFFFFFF AND DUP2 MSTORE PUSH1 0x20 ADD SWAP1 DUP2 MSTORE PUSH1 0x20 ADD PUSH1 0x0 KECCAK256 SLOAD SWAP1 POP DUP2 DUP2 LT ISZERO PUSH2 0x3078 JUMPI PUSH1 0x40 MLOAD PUSH32 0x8C379A000000000000000000000000000000000000000000000000000000000 DUP2 MSTORE PUSH1 0x4 ADD PUSH2 0x306F SWAP1 PUSH2 0x4CFC JUMP JUMPDEST PUSH1 0x40 MLOAD DUP1 SWAP2 SUB SWAP1 REVERT JUMPDEST DUP2 DUP2 SUB PUSH1 0x0 DUP1 DUP6 PUSH20 0xFFFFFFFFFFFFFFFFFFFFFFFFFFFFFFFFFFFFFFFF AND PUSH20 0xFFFFFFFFFFFFFFFFFFFFFFFFFFFFFFFFFFFFFFFF AND DUP2 MSTORE PUSH1 0x20 ADD SWAP1 DUP2 MSTORE PUSH1 0x20 ADD PUSH1 0x0 KECCAK256 DUP2 SWAP1 SSTORE POP DUP2 PUSH1 0x2 PUSH1 0x0 DUP3 DUP3 SLOAD SUB SWAP3 POP POP DUP2 SWAP1 SSTORE POP PUSH1 0x0 PUSH20 0xFFFFFFFFFFFFFFFFFFFFFFFFFFFFFFFFFFFFFFFF AND DUP4 PUSH20 0xFFFFFFFFFFFFFFFFFFFFFFFFFFFFFFFFFFFFFFFF AND PUSH32 0xDDF252AD1BE2C89B69C2B068FC378DAA952BA7F163C4A11628F55A4DF523B3EF DUP5 PUSH1 0x40 MLOAD PUSH2 0x312B SWAP2 SWAP1 PUSH2 0x3546 JUMP JUMPDEST PUSH1 0x40 MLOAD DUP1 SWAP2 SUB SWAP1 LOG3 PUSH2 0x313F DUP4 PUSH1 0x0 DUP5 PUSH2 0x21AF JUMP JUMPDEST POP POP POP JUMP JUMPDEST PUSH1 0x0 DUP2 DUP4 PUSH2 0x3152 SWAP2 SWAP1 PUSH2 0x3E2C JUMP JUMPDEST SWAP1 POP SWAP3 SWAP2 POP POP JUMP JUMPDEST PUSH1 0x0 DUP1 DUP4 PUSH1 0x0 MSTORE DUP3 PUSH1 0x20 PUSH1 0x0 KECCAK256 ADD SWAP1 POP PUSH2 0x3173 DUP2 PUSH2 0x3258 JUMP JUMPDEST SWAP2 POP POP SWAP3 SWAP2 POP POP JUMP JUMPDEST POP POP POP JUMP JUMPDEST PUSH2 0x31D1 PUSH1 0x5 PUSH1 0x0 DUP4 PUSH20 0xFFFFFFFFFFFFFFFFFFFFFFFFFFFFFFFFFFFFFFFF AND PUSH20 0xFFFFFFFFFFFFFFFFFFFFFFFFFFFFFFFFFFFFFFFF AND DUP2 MSTORE PUSH1 0x20 ADD SWAP1 DUP2 MSTORE PUSH1 0x20 ADD PUSH1 0x0 KECCAK256 PUSH2 0x31CC DUP4 PUSH2 0xCD6 JUMP JUMPDEST PUSH2 0x3262 JUMP JUMPDEST POP JUMP JUMPDEST PUSH2 0x31E6 PUSH1 0x6 PUSH2 0x31E1 PUSH2 0x7DC JUMP JUMPDEST PUSH2 0x3262 JUMP JUMPDEST JUMP JUMPDEST POP POP POP JUMP JUMPDEST PUSH1 0x0 PUSH28 0xFFFFFFFFFFFFFFFFFFFFFFFFFFFFFFFFFFFFFFFFFFFFFFFFFFFFFFFF DUP1 AND DUP3 GT ISZERO PUSH2 0x3250 JUMPI PUSH1 0x40 MLOAD PUSH32 0x8C379A000000000000000000000000000000000000000000000000000000000 DUP2 MSTORE PUSH1 0x4 ADD PUSH2 0x3247 SWAP1 PUSH2 0x4D8E JUMP JUMPDEST PUSH1 0x40 MLOAD DUP1 SWAP2 SUB SWAP1 REVERT JUMPDEST DUP2 SWAP1 POP SWAP2 SWAP1 POP JUMP JUMPDEST PUSH1 0x0 DUP2 SWAP1 POP SWAP2 SWAP1 POP JUMP JUMPDEST PUSH1 0x0 PUSH2 0x326C PUSH2 0x23D9 JUMP JUMPDEST SWAP1 POP DUP1 PUSH2 0x327B DUP5 PUSH1 0x0 ADD PUSH2 0x32DD JUMP JUMPDEST LT ISZERO PUSH2 0x32D8 JUMPI DUP3 PUSH1 0x0 ADD DUP2 SWAP1 DUP1 PUSH1 0x1 DUP2 SLOAD ADD DUP1 DUP3 SSTORE DUP1 SWAP2 POP POP PUSH1 0x1 SWAP1 SUB SWAP1 PUSH1 0x0 MSTORE PUSH1 0x20 PUSH1 0x0 KECCAK256 ADD PUSH1 0x0 SWAP1 SWAP2 SWAP1 SWAP2 SWAP1 SWAP2 POP SSTORE DUP3 PUSH1 0x1 ADD DUP3 SWAP1 DUP1 PUSH1 0x1 DUP2 SLOAD ADD DUP1 DUP3 SSTORE DUP1 SWAP2 POP POP PUSH1 0x1 SWAP1 SUB SWAP1 PUSH1 0x0 MSTORE PUSH1 0x20 PUSH1 0x0 KECCAK256 ADD PUSH1 0x0 SWAP1 SWAP2 SWAP1 SWAP2 SWAP1 SWAP2 POP SSTORE JUMPDEST POP POP POP JUMP JUMPDEST PUSH1 0x0 DUP1 DUP3 DUP1 SLOAD SWAP1 POP EQ ISZERO PUSH2 0x32F4 JUMPI PUSH1 0x0 SWAP1 POP PUSH2 0x3325 JUMP JUMPDEST DUP2 PUSH1 0x1 DUP4 DUP1 SLOAD SWAP1 POP PUSH2 0x3306 SWAP2 SWAP1 PUSH2 0x3E2C JUMP JUMPDEST DUP2 SLOAD DUP2 LT PUSH2 0x3317 JUMPI PUSH2 0x3316 PUSH2 0x3E60 JUMP JUMPDEST JUMPDEST SWAP1 PUSH1 0x0 MSTORE PUSH1 0x20 PUSH1 0x0 KECCAK256 ADD SLOAD SWAP1 POP JUMPDEST SWAP2 SWAP1 POP JUMP JUMPDEST PUSH1 0x40 MLOAD DUP1 PUSH1 0x40 ADD PUSH1 0x40 MSTORE DUP1 PUSH1 0x0 PUSH4 0xFFFFFFFF AND DUP2 MSTORE PUSH1 0x20 ADD PUSH1 0x0 PUSH28 0xFFFFFFFFFFFFFFFFFFFFFFFFFFFFFFFFFFFFFFFFFFFFFFFFFFFFFFFF AND DUP2 MSTORE POP SWAP1 JUMP JUMPDEST PUSH1 0x0 DUP2 MLOAD SWAP1 POP SWAP2 SWAP1 POP JUMP JUMPDEST PUSH1 0x0 DUP3 DUP3 MSTORE PUSH1 0x20 DUP3 ADD SWAP1 POP SWAP3 SWAP2 POP POP JUMP JUMPDEST PUSH1 0x0 JUMPDEST DUP4 DUP2 LT ISZERO PUSH2 0x33A2 JUMPI DUP1 DUP3 ADD MLOAD DUP2 DUP5 ADD MSTORE PUSH1 0x20 DUP2 ADD SWAP1 POP PUSH2 0x3387 JUMP JUMPDEST DUP4 DUP2 GT ISZERO PUSH2 0x33B1 JUMPI PUSH1 0x0 DUP5 DUP5 ADD MSTORE JUMPDEST POP POP POP POP JUMP JUMPDEST PUSH1 0x0 PUSH1 0x1F NOT PUSH1 0x1F DUP4 ADD AND SWAP1 POP SWAP2 SWAP1 POP JUMP JUMPDEST PUSH1 0x0 PUSH2 0x33D3 DUP3 PUSH2 0x3368 JUMP JUMPDEST PUSH2 0x33DD DUP2 DUP6 PUSH2 0x3373 JUMP JUMPDEST SWAP4 POP PUSH2 0x33ED DUP2 DUP6 PUSH1 0x20 DUP7 ADD PUSH2 0x3384 JUMP JUMPDEST PUSH2 0x33F6 DUP2 PUSH2 0x33B7 JUMP JUMPDEST DUP5 ADD SWAP2 POP POP SWAP3 SWAP2 POP POP JUMP JUMPDEST PUSH1 0x0 PUSH1 0x20 DUP3 ADD SWAP1 POP DUP2 DUP2 SUB PUSH1 0x0 DUP4 ADD MSTORE PUSH2 0x341B DUP2 DUP5 PUSH2 0x33C8 JUMP JUMPDEST SWAP1 POP SWAP3 SWAP2 POP POP JUMP JUMPDEST PUSH1 0x0 DUP1 REVERT JUMPDEST PUSH1 0x0 DUP1 REVERT JUMPDEST PUSH1 0x0 PUSH20 0xFFFFFFFFFFFFFFFFFFFFFFFFFFFFFFFFFFFFFFFF DUP3 AND SWAP1 POP SWAP2 SWAP1 POP JUMP JUMPDEST PUSH1 0x0 PUSH2 0x3458 DUP3 PUSH2 0x342D JUMP JUMPDEST SWAP1 POP SWAP2 SWAP1 POP JUMP JUMPDEST PUSH2 0x3468 DUP2 PUSH2 0x344D JUMP JUMPDEST DUP2 EQ PUSH2 0x3473 JUMPI PUSH1 0x0 DUP1 REVERT JUMPDEST POP JUMP JUMPDEST PUSH1 0x0 DUP2 CALLDATALOAD SWAP1 POP PUSH2 0x3485 DUP2 PUSH2 0x345F JUMP JUMPDEST SWAP3 SWAP2 POP POP JUMP JUMPDEST PUSH1 0x0 DUP2 SWAP1 POP SWAP2 SWAP1 POP JUMP JUMPDEST PUSH2 0x349E DUP2 PUSH2 0x348B JUMP JUMPDEST DUP2 EQ PUSH2 0x34A9 JUMPI PUSH1 0x0 DUP1 REVERT JUMPDEST POP JUMP JUMPDEST PUSH1 0x0 DUP2 CALLDATALOAD SWAP1 POP PUSH2 0x34BB DUP2 PUSH2 0x3495 JUMP JUMPDEST SWAP3 SWAP2 POP POP JUMP JUMPDEST PUSH1 0x0 DUP1 PUSH1 0x40 DUP4 DUP6 SUB SLT ISZERO PUSH2 0x34D8 JUMPI PUSH2 0x34D7 PUSH2 0x3423 JUMP JUMPDEST JUMPDEST PUSH1 0x0 PUSH2 0x34E6 DUP6 DUP3 DUP7 ADD PUSH2 0x3476 JUMP JUMPDEST SWAP3 POP POP PUSH1 0x20 PUSH2 0x34F7 DUP6 DUP3 DUP7 ADD PUSH2 0x34AC JUMP JUMPDEST SWAP2 POP POP SWAP3 POP SWAP3 SWAP1 POP JUMP JUMPDEST PUSH1 0x0 DUP2 ISZERO ISZERO SWAP1 POP SWAP2 SWAP1 POP JUMP JUMPDEST PUSH2 0x3516 DUP2 PUSH2 0x3501 JUMP JUMPDEST DUP3 MSTORE POP POP JUMP JUMPDEST PUSH1 0x0 PUSH1 0x20 DUP3 ADD SWAP1 POP PUSH2 0x3531 PUSH1 0x0 DUP4 ADD DUP5 PUSH2 0x350D JUMP JUMPDEST SWAP3 SWAP2 POP POP JUMP JUMPDEST PUSH2 0x3540 DUP2 PUSH2 0x348B JUMP JUMPDEST DUP3 MSTORE POP POP JUMP JUMPDEST PUSH1 0x0 PUSH1 0x20 DUP3 ADD SWAP1 POP PUSH2 0x355B PUSH1 0x0 DUP4 ADD DUP5 PUSH2 0x3537 JUMP JUMPDEST SWAP3 SWAP2 POP POP JUMP JUMPDEST PUSH1 0x0 DUP1 PUSH1 0x0 PUSH1 0x60 DUP5 DUP7 SUB SLT ISZERO PUSH2 0x357A JUMPI PUSH2 0x3579 PUSH2 0x3423 JUMP JUMPDEST JUMPDEST PUSH1 0x0 PUSH2 0x3588 DUP7 DUP3 DUP8 ADD PUSH2 0x3476 JUMP JUMPDEST SWAP4 POP POP PUSH1 0x20 PUSH2 0x3599 DUP7 DUP3 DUP8 ADD PUSH2 0x3476 JUMP JUMPDEST SWAP3 POP POP PUSH1 0x40 PUSH2 0x35AA DUP7 DUP3 DUP8 ADD PUSH2 0x34AC JUMP JUMPDEST SWAP2 POP POP SWAP3 POP SWAP3 POP SWAP3 JUMP JUMPDEST PUSH1 0x0 PUSH1 0xFF DUP3 AND SWAP1 POP SWAP2 SWAP1 POP JUMP JUMPDEST PUSH2 0x35CA DUP2 PUSH2 0x35B4 JUMP JUMPDEST DUP3 MSTORE POP POP JUMP JUMPDEST PUSH1 0x0 PUSH1 0x20 DUP3 ADD SWAP1 POP PUSH2 0x35E5 PUSH1 0x0 DUP4 ADD DUP5 PUSH2 0x35C1 JUMP JUMPDEST SWAP3 SWAP2 POP POP JUMP JUMPDEST PUSH1 0x0 DUP2 SWAP1 POP SWAP2 SWAP1 POP JUMP JUMPDEST PUSH2 0x35FE DUP2 PUSH2 0x35EB JUMP JUMPDEST DUP3 MSTORE POP POP JUMP JUMPDEST PUSH1 0x0 PUSH1 0x20 DUP3 ADD SWAP1 POP PUSH2 0x3619 PUSH1 0x0 DUP4 ADD DUP5 PUSH2 0x35F5 JUMP JUMPDEST SWAP3 SWAP2 POP POP JUMP JUMPDEST PUSH1 0x0 PUSH1 0x20 DUP3 DUP5 SUB SLT ISZERO PUSH2 0x3635 JUMPI PUSH2 0x3634 PUSH2 0x3423 JUMP JUMPDEST JUMPDEST PUSH1 0x0 PUSH2 0x3643 DUP5 DUP3 DUP6 ADD PUSH2 0x34AC JUMP JUMPDEST SWAP2 POP POP SWAP3 SWAP2 POP POP JUMP JUMPDEST PUSH1 0x0 PUSH1 0x20 DUP3 DUP5 SUB SLT ISZERO PUSH2 0x3662 JUMPI PUSH2 0x3661 PUSH2 0x3423 JUMP JUMPDEST JUMPDEST PUSH1 0x0 PUSH2 0x3670 DUP5 DUP3 DUP6 ADD PUSH2 0x3476 JUMP JUMPDEST SWAP2 POP POP SWAP3 SWAP2 POP POP JUMP JUMPDEST PUSH2 0x3682 DUP2 PUSH2 0x344D JUMP JUMPDEST DUP3 MSTORE POP POP JUMP JUMPDEST PUSH1 0x0 PUSH1 0x20 DUP3 ADD SWAP1 POP PUSH2 0x369D PUSH1 0x0 DUP4 ADD DUP5 PUSH2 0x3679 JUMP JUMPDEST SWAP3 SWAP2 POP POP JUMP JUMPDEST PUSH1 0x0 PUSH2 0x36AE DUP3 PUSH2 0x344D JUMP JUMPDEST SWAP1 POP SWAP2 SWAP1 POP JUMP JUMPDEST PUSH2 0x36BE DUP2 PUSH2 0x36A3 JUMP JUMPDEST DUP2 EQ PUSH2 0x36C9 JUMPI PUSH1 0x0 DUP1 REVERT JUMPDEST POP JUMP JUMPDEST PUSH1 0x0 DUP2 CALLDATALOAD SWAP1 POP PUSH2 0x36DB DUP2 PUSH2 0x36B5 JUMP JUMPDEST SWAP3 SWAP2 POP POP JUMP JUMPDEST PUSH1 0x0 DUP1 REVERT JUMPDEST PUSH1 0x0 DUP1 REVERT JUMPDEST PUSH1 0x0 DUP1 REVERT JUMPDEST PUSH1 0x0 DUP1 DUP4 PUSH1 0x1F DUP5 ADD SLT PUSH2 0x3706 JUMPI PUSH2 0x3705 PUSH2 0x36E1 JUMP JUMPDEST JUMPDEST DUP3 CALLDATALOAD SWAP1 POP PUSH8 0xFFFFFFFFFFFFFFFF DUP2 GT ISZERO PUSH2 0x3723 JUMPI PUSH2 0x3722 PUSH2 0x36E6 JUMP JUMPDEST JUMPDEST PUSH1 0x20 DUP4 ADD SWAP2 POP DUP4 PUSH1 0x1 DUP3 MUL DUP4 ADD GT ISZERO PUSH2 0x373F JUMPI PUSH2 0x373E PUSH2 0x36EB JUMP JUMPDEST JUMPDEST SWAP3 POP SWAP3 SWAP1 POP JUMP JUMPDEST PUSH1 0x0 DUP1 PUSH1 0x0 DUP1 PUSH1 0x0 PUSH1 0x80 DUP7 DUP9 SUB SLT ISZERO PUSH2 0x3762 JUMPI PUSH2 0x3761 PUSH2 0x3423 JUMP JUMPDEST JUMPDEST PUSH1 0x0 PUSH2 0x3770 DUP9 DUP3 DUP10 ADD PUSH2 0x36CC JUMP JUMPDEST SWAP6 POP POP PUSH1 0x20 PUSH2 0x3781 DUP9 DUP3 DUP10 ADD PUSH2 0x3476 JUMP JUMPDEST SWAP5 POP POP PUSH1 0x40 PUSH2 0x3792 DUP9 DUP3 DUP10 ADD PUSH2 0x34AC JUMP JUMPDEST SWAP4 POP POP PUSH1 0x60 DUP7 ADD CALLDATALOAD PUSH8 0xFFFFFFFFFFFFFFFF DUP2 GT ISZERO PUSH2 0x37B3 JUMPI PUSH2 0x37B2 PUSH2 0x3428 JUMP JUMPDEST JUMPDEST PUSH2 0x37BF DUP9 DUP3 DUP10 ADD PUSH2 0x36F0 JUMP JUMPDEST SWAP3 POP SWAP3 POP POP SWAP3 SWAP6 POP SWAP3 SWAP6 SWAP1 SWAP4 POP JUMP JUMPDEST PUSH1 0x0 PUSH4 0xFFFFFFFF DUP3 AND SWAP1 POP SWAP2 SWAP1 POP JUMP JUMPDEST PUSH2 0x37E7 DUP2 PUSH2 0x37CE JUMP JUMPDEST DUP3 MSTORE POP POP JUMP JUMPDEST PUSH1 0x0 PUSH1 0x20 DUP3 ADD SWAP1 POP PUSH2 0x3802 PUSH1 0x0 DUP4 ADD DUP5 PUSH2 0x37DE JUMP JUMPDEST SWAP3 SWAP2 POP POP JUMP JUMPDEST PUSH2 0x3811 DUP2 PUSH2 0x35B4 JUMP JUMPDEST DUP2 EQ PUSH2 0x381C JUMPI PUSH1 0x0 DUP1 REVERT JUMPDEST POP JUMP JUMPDEST PUSH1 0x0 DUP2 CALLDATALOAD SWAP1 POP PUSH2 0x382E DUP2 PUSH2 0x3808 JUMP JUMPDEST SWAP3 SWAP2 POP POP JUMP JUMPDEST PUSH2 0x383D DUP2 PUSH2 0x35EB JUMP JUMPDEST DUP2 EQ PUSH2 0x3848 JUMPI PUSH1 0x0 DUP1 REVERT JUMPDEST POP JUMP JUMPDEST PUSH1 0x0 DUP2 CALLDATALOAD SWAP1 POP PUSH2 0x385A DUP2 PUSH2 0x3834 JUMP JUMPDEST SWAP3 SWAP2 POP POP JUMP JUMPDEST PUSH1 0x0 DUP1 PUSH1 0x0 DUP1 PUSH1 0x0 DUP1 PUSH1 0xC0 DUP8 DUP10 SUB SLT ISZERO PUSH2 0x387D JUMPI PUSH2 0x387C PUSH2 0x3423 JUMP JUMPDEST JUMPDEST PUSH1 0x0 PUSH2 0x388B DUP10 DUP3 DUP11 ADD PUSH2 0x3476 JUMP JUMPDEST SWAP7 POP POP PUSH1 0x20 PUSH2 0x389C DUP10 DUP3 DUP11 ADD PUSH2 0x34AC JUMP JUMPDEST SWAP6 POP POP PUSH1 0x40 PUSH2 0x38AD DUP10 DUP3 DUP11 ADD PUSH2 0x34AC JUMP JUMPDEST SWAP5 POP POP PUSH1 0x60 PUSH2 0x38BE DUP10 DUP3 DUP11 ADD PUSH2 0x381F JUMP JUMPDEST SWAP4 POP POP PUSH1 0x80 PUSH2 0x38CF DUP10 DUP3 DUP11 ADD PUSH2 0x384B JUMP JUMPDEST SWAP3 POP POP PUSH1 0xA0 PUSH2 0x38E0 DUP10 DUP3 DUP11 ADD PUSH2 0x384B JUMP JUMPDEST SWAP2 POP POP SWAP3 SWAP6 POP SWAP3 SWAP6 POP SWAP3 SWAP6 JUMP JUMPDEST PUSH1 0x0 DUP1 PUSH1 0x0 DUP1 PUSH1 0x0 DUP1 PUSH1 0x0 PUSH1 0xE0 DUP9 DUP11 SUB SLT ISZERO PUSH2 0x390C JUMPI PUSH2 0x390B PUSH2 0x3423 JUMP JUMPDEST JUMPDEST PUSH1 0x0 PUSH2 0x391A DUP11 DUP3 DUP12 ADD PUSH2 0x3476 JUMP JUMPDEST SWAP8 POP POP PUSH1 0x20 PUSH2 0x392B DUP11 DUP3 DUP12 ADD PUSH2 0x3476 JUMP JUMPDEST SWAP7 POP POP PUSH1 0x40 PUSH2 0x393C DUP11 DUP3 DUP12 ADD PUSH2 0x34AC JUMP JUMPDEST SWAP6 POP POP PUSH1 0x60 PUSH2 0x394D DUP11 DUP3 DUP12 ADD PUSH2 0x34AC JUMP JUMPDEST SWAP5 POP POP PUSH1 0x80 PUSH2 0x395E DUP11 DUP3 DUP12 ADD PUSH2 0x381F JUMP JUMPDEST SWAP4 POP POP PUSH1 0xA0 PUSH2 0x396F DUP11 DUP3 DUP12 ADD PUSH2 0x384B JUMP JUMPDEST SWAP3 POP POP PUSH1 0xC0 PUSH2 0x3980 DUP11 DUP3 DUP12 ADD PUSH2 0x384B JUMP JUMPDEST SWAP2 POP POP SWAP3 SWAP6 SWAP9 SWAP2 SWAP5 SWAP8 POP SWAP3 SWAP6 POP JUMP JUMPDEST PUSH1 0x0 DUP1 PUSH1 0x40 DUP4 DUP6 SUB SLT ISZERO PUSH2 0x39A6 JUMPI PUSH2 0x39A5 PUSH2 0x3423 JUMP JUMPDEST JUMPDEST PUSH1 0x0 PUSH2 0x39B4 DUP6 DUP3 DUP7 ADD PUSH2 0x3476 JUMP JUMPDEST SWAP3 POP POP PUSH1 0x20 PUSH2 0x39C5 DUP6 DUP3 DUP7 ADD PUSH2 0x3476 JUMP JUMPDEST SWAP2 POP POP SWAP3 POP SWAP3 SWAP1 POP JUMP JUMPDEST PUSH2 0x39D8 DUP2 PUSH2 0x37CE JUMP JUMPDEST DUP2 EQ PUSH2 0x39E3 JUMPI PUSH1 0x0 DUP1 REVERT JUMPDEST POP JUMP JUMPDEST PUSH1 0x0 DUP2 CALLDATALOAD SWAP1 POP PUSH2 0x39F5 DUP2 PUSH2 0x39CF JUMP JUMPDEST SWAP3 SWAP2 POP POP JUMP JUMPDEST PUSH1 0x0 DUP1 PUSH1 0x40 DUP4 DUP6 SUB SLT ISZERO PUSH2 0x3A12 JUMPI PUSH2 0x3A11 PUSH2 0x3423 JUMP JUMPDEST JUMPDEST PUSH1 0x0 PUSH2 0x3A20 DUP6 DUP3 DUP7 ADD PUSH2 0x3476 JUMP JUMPDEST SWAP3 POP POP PUSH1 0x20 PUSH2 0x3A31 DUP6 DUP3 DUP7 ADD PUSH2 0x39E6 JUMP JUMPDEST SWAP2 POP POP SWAP3 POP SWAP3 SWAP1 POP JUMP JUMPDEST PUSH2 0x3A44 DUP2 PUSH2 0x37CE JUMP JUMPDEST DUP3 MSTORE POP POP JUMP JUMPDEST PUSH1 0x0 PUSH28 0xFFFFFFFFFFFFFFFFFFFFFFFFFFFFFFFFFFFFFFFFFFFFFFFFFFFFFFFF DUP3 AND SWAP1 POP SWAP2 SWAP1 POP JUMP JUMPDEST PUSH2 0x3A7B DUP2 PUSH2 0x3A4A JUMP JUMPDEST DUP3 MSTORE POP POP JUMP JUMPDEST PUSH1 0x40 DUP3 ADD PUSH1 0x0 DUP3 ADD MLOAD PUSH2 0x3A97 PUSH1 0x0 DUP6 ADD DUP3 PUSH2 0x3A3B JUMP JUMPDEST POP PUSH1 0x20 DUP3 ADD MLOAD PUSH2 0x3AAA PUSH1 0x20 DUP6 ADD DUP3 PUSH2 0x3A72 JUMP JUMPDEST POP POP POP POP JUMP JUMPDEST PUSH1 0x0 PUSH1 0x40 DUP3 ADD SWAP1 POP PUSH2 0x3AC5 PUSH1 0x0 DUP4 ADD DUP5 PUSH2 0x3A81 JUMP JUMPDEST SWAP3 SWAP2 POP POP JUMP JUMPDEST PUSH32 0x4E487B7100000000000000000000000000000000000000000000000000000000 PUSH1 0x0 MSTORE PUSH1 0x22 PUSH1 0x4 MSTORE PUSH1 0x24 PUSH1 0x0 REVERT JUMPDEST PUSH1 0x0 PUSH1 0x2 DUP3 DIV SWAP1 POP PUSH1 0x1 DUP3 AND DUP1 PUSH2 0x3B12 JUMPI PUSH1 0x7F DUP3 AND SWAP2 POP JUMPDEST PUSH1 0x20 DUP3 LT DUP2 EQ ISZERO PUSH2 0x3B26 JUMPI PUSH2 0x3B25 PUSH2 0x3ACB JUMP JUMPDEST JUMPDEST POP SWAP2 SWAP1 POP JUMP JUMPDEST PUSH32 0x4E487B7100000000000000000000000000000000000000000000000000000000 PUSH1 0x0 MSTORE PUSH1 0x11 PUSH1 0x4 MSTORE PUSH1 0x24 PUSH1 0x0 REVERT JUMPDEST PUSH1 0x0 PUSH2 0x3B66 DUP3 PUSH2 0x348B JUMP JUMPDEST SWAP2 POP PUSH2 0x3B71 DUP4 PUSH2 0x348B JUMP JUMPDEST SWAP3 POP DUP3 PUSH32 0xFFFFFFFFFFFFFFFFFFFFFFFFFFFFFFFFFFFFFFFFFFFFFFFFFFFFFFFFFFFFFFFF SUB DUP3 GT ISZERO PUSH2 0x3BA6 JUMPI PUSH2 0x3BA5 PUSH2 0x3B2C JUMP JUMPDEST JUMPDEST DUP3 DUP3 ADD SWAP1 POP SWAP3 SWAP2 POP POP JUMP JUMPDEST PUSH32 0x4552433230566F7465733A20626C6F636B206E6F7420796574206D696E656400 PUSH1 0x0 DUP3 ADD MSTORE POP JUMP JUMPDEST PUSH1 0x0 PUSH2 0x3BE7 PUSH1 0x1F DUP4 PUSH2 0x3373 JUMP JUMPDEST SWAP2 POP PUSH2 0x3BF2 DUP3 PUSH2 0x3BB1 JUMP JUMPDEST PUSH1 0x20 DUP3 ADD SWAP1 POP SWAP2 SWAP1 POP JUMP JUMPDEST PUSH1 0x0 PUSH1 0x20 DUP3 ADD SWAP1 POP DUP2 DUP2 SUB PUSH1 0x0 DUP4 ADD MSTORE PUSH2 0x3C16 DUP2 PUSH2 0x3BDA JUMP JUMPDEST SWAP1 POP SWAP2 SWAP1 POP JUMP JUMPDEST PUSH32 0x4552433230466C6173684D696E743A20616D6F756E742065786365656473206D PUSH1 0x0 DUP3 ADD MSTORE PUSH32 0x6178466C6173684C6F616E000000000000000000000000000000000000000000 PUSH1 0x20 DUP3 ADD MSTORE POP JUMP JUMPDEST PUSH1 0x0 PUSH2 0x3C79 PUSH1 0x2B DUP4 PUSH2 0x3373 JUMP JUMPDEST SWAP2 POP PUSH2 0x3C84 DUP3 PUSH2 0x3C1D JUMP JUMPDEST PUSH1 0x40 DUP3 ADD SWAP1 POP SWAP2 SWAP1 POP JUMP JUMPDEST PUSH1 0x0 PUSH1 0x20 DUP3 ADD SWAP1 POP DUP2 DUP2 SUB PUSH1 0x0 DUP4 ADD MSTORE PUSH2 0x3CA8 DUP2 PUSH2 0x3C6C JUMP JUMPDEST SWAP1 POP SWAP2 SWAP1 POP JUMP JUMPDEST PUSH1 0x0 DUP3 DUP3 MSTORE PUSH1 0x20 DUP3 ADD SWAP1 POP SWAP3 SWAP2 POP POP JUMP JUMPDEST DUP3 DUP2 DUP4 CALLDATACOPY PUSH1 0x0 DUP4 DUP4 ADD MSTORE POP POP POP JUMP JUMPDEST PUSH1 0x0 PUSH2 0x3CDB DUP4 DUP6 PUSH2 0x3CAF JUMP JUMPDEST SWAP4 POP PUSH2 0x3CE8 DUP4 DUP6 DUP5 PUSH2 0x3CC0 JUMP JUMPDEST PUSH2 0x3CF1 DUP4 PUSH2 0x33B7 JUMP JUMPDEST DUP5 ADD SWAP1 POP SWAP4 SWAP3 POP POP POP JUMP JUMPDEST PUSH1 0x0 PUSH1 0xA0 DUP3 ADD SWAP1 POP PUSH2 0x3D11 PUSH1 0x0 DUP4 ADD DUP10 PUSH2 0x3679 JUMP JUMPDEST PUSH2 0x3D1E PUSH1 0x20 DUP4 ADD DUP9 PUSH2 0x3679 JUMP JUMPDEST PUSH2 0x3D2B PUSH1 0x40 DUP4 ADD DUP8 PUSH2 0x3537 JUMP JUMPDEST PUSH2 0x3D38 PUSH1 0x60 DUP4 ADD DUP7 PUSH2 0x3537 JUMP JUMPDEST DUP2 DUP2 SUB PUSH1 0x80 DUP4 ADD MSTORE PUSH2 0x3D4B DUP2 DUP5 DUP7 PUSH2 0x3CCF JUMP JUMPDEST SWAP1 POP SWAP8 SWAP7 POP POP POP POP POP POP POP JUMP JUMPDEST PUSH1 0x0 DUP2 MLOAD SWAP1 POP PUSH2 0x3D67 DUP2 PUSH2 0x3834 JUMP JUMPDEST SWAP3 SWAP2 POP POP JUMP JUMPDEST PUSH1 0x0 PUSH1 0x20 DUP3 DUP5 SUB SLT ISZERO PUSH2 0x3D83 JUMPI PUSH2 0x3D82 PUSH2 0x3423 JUMP JUMPDEST JUMPDEST PUSH1 0x0 PUSH2 0x3D91 DUP5 DUP3 DUP6 ADD PUSH2 0x3D58 JUMP JUMPDEST SWAP2 POP POP SWAP3 SWAP2 POP POP JUMP JUMPDEST PUSH32 0x4552433230466C6173684D696E743A20696E76616C69642072657475726E2076 PUSH1 0x0 DUP3 ADD MSTORE PUSH32 0x616C756500000000000000000000000000000000000000000000000000000000 PUSH1 0x20 DUP3 ADD MSTORE POP JUMP JUMPDEST PUSH1 0x0 PUSH2 0x3DF6 PUSH1 0x24 DUP4 PUSH2 0x3373 JUMP JUMPDEST SWAP2 POP PUSH2 0x3E01 DUP3 PUSH2 0x3D9A JUMP JUMPDEST PUSH1 0x40 DUP3 ADD SWAP1 POP SWAP2 SWAP1 POP JUMP JUMPDEST PUSH1 0x0 PUSH1 0x20 DUP3 ADD SWAP1 POP DUP2 DUP2 SUB PUSH1 0x0 DUP4 ADD MSTORE PUSH2 0x3E25 DUP2 PUSH2 0x3DE9 JUMP JUMPDEST SWAP1 POP SWAP2 SWAP1 POP JUMP JUMPDEST PUSH1 0x0 PUSH2 0x3E37 DUP3 PUSH2 0x348B JUMP JUMPDEST SWAP2 POP PUSH2 0x3E42 DUP4 PUSH2 0x348B JUMP JUMPDEST SWAP3 POP DUP3 DUP3 LT ISZERO PUSH2 0x3E55 JUMPI PUSH2 0x3E54 PUSH2 0x3B2C JUMP JUMPDEST JUMPDEST DUP3 DUP3 SUB SWAP1 POP SWAP3 SWAP2 POP POP JUMP JUMPDEST PUSH32 0x4E487B7100000000000000000000000000000000000000000000000000000000 PUSH1 0x0 MSTORE PUSH1 0x32 PUSH1 0x4 MSTORE PUSH1 0x24 PUSH1 0x0 REVERT JUMPDEST PUSH32 0x45524332303A2064656372656173656420616C6C6F77616E63652062656C6F77 PUSH1 0x0 DUP3 ADD MSTORE PUSH32 0x207A65726F000000000000000000000000000000000000000000000000000000 PUSH1 0x20 DUP3 ADD MSTORE POP JUMP JUMPDEST PUSH1 0x0 PUSH2 0x3EEB PUSH1 0x25 DUP4 PUSH2 0x3373 JUMP JUMPDEST SWAP2 POP PUSH2 0x3EF6 DUP3 PUSH2 0x3E8F JUMP JUMPDEST PUSH1 0x40 DUP3 ADD SWAP1 POP SWAP2 SWAP1 POP JUMP JUMPDEST PUSH1 0x0 PUSH1 0x20 DUP3 ADD SWAP1 POP DUP2 DUP2 SUB PUSH1 0x0 DUP4 ADD MSTORE PUSH2 0x3F1A DUP2 PUSH2 0x3EDE JUMP JUMPDEST SWAP1 POP SWAP2 SWAP1 POP JUMP JUMPDEST PUSH32 0x4552433230566F7465733A207369676E61747572652065787069726564000000 PUSH1 0x0 DUP3 ADD MSTORE POP JUMP JUMPDEST PUSH1 0x0 PUSH2 0x3F57 PUSH1 0x1D DUP4 PUSH2 0x3373 JUMP JUMPDEST SWAP2 POP PUSH2 0x3F62 DUP3 PUSH2 0x3F21 JUMP JUMPDEST PUSH1 0x20 DUP3 ADD SWAP1 POP SWAP2 SWAP1 POP JUMP JUMPDEST PUSH1 0x0 PUSH1 0x20 DUP3 ADD SWAP1 POP DUP2 DUP2 SUB PUSH1 0x0 DUP4 ADD MSTORE PUSH2 0x3F86 DUP2 PUSH2 0x3F4A JUMP JUMPDEST SWAP1 POP SWAP2 SWAP1 POP JUMP JUMPDEST PUSH1 0x0 PUSH1 0x80 DUP3 ADD SWAP1 POP PUSH2 0x3FA2 PUSH1 0x0 DUP4 ADD DUP8 PUSH2 0x35F5 JUMP JUMPDEST PUSH2 0x3FAF PUSH1 0x20 DUP4 ADD DUP7 PUSH2 0x3679 JUMP JUMPDEST PUSH2 0x3FBC PUSH1 0x40 DUP4 ADD DUP6 PUSH2 0x3537 JUMP JUMPDEST PUSH2 0x3FC9 PUSH1 0x60 DUP4 ADD DUP5 PUSH2 0x3537 JUMP JUMPDEST SWAP6 SWAP5 POP POP POP POP POP JUMP JUMPDEST PUSH32 0x4552433230566F7465733A20696E76616C6964206E6F6E636500000000000000 PUSH1 0x0 DUP3 ADD MSTORE POP JUMP JUMPDEST PUSH1 0x0 PUSH2 0x4008 PUSH1 0x19 DUP4 PUSH2 0x3373 JUMP JUMPDEST SWAP2 POP PUSH2 0x4013 DUP3 PUSH2 0x3FD2 JUMP JUMPDEST PUSH1 0x20 DUP3 ADD SWAP1 POP SWAP2 SWAP1 POP JUMP JUMPDEST PUSH1 0x0 PUSH1 0x20 DUP3 ADD SWAP1 POP DUP2 DUP2 SUB PUSH1 0x0 DUP4 ADD MSTORE PUSH2 0x4037 DUP2 PUSH2 0x3FFB JUMP JUMPDEST SWAP1 POP SWAP2 SWAP1 POP JUMP JUMPDEST PUSH32 0x45524332305065726D69743A206578706972656420646561646C696E65000000 PUSH1 0x0 DUP3 ADD MSTORE POP JUMP JUMPDEST PUSH1 0x0 PUSH2 0x4074 PUSH1 0x1D DUP4 PUSH2 0x3373 JUMP JUMPDEST SWAP2 POP PUSH2 0x407F DUP3 PUSH2 0x403E JUMP JUMPDEST PUSH1 0x20 DUP3 ADD SWAP1 POP SWAP2 SWAP1 POP JUMP JUMPDEST PUSH1 0x0 PUSH1 0x20 DUP3 ADD SWAP1 POP DUP2 DUP2 SUB PUSH1 0x0 DUP4 ADD MSTORE PUSH2 0x40A3 DUP2 PUSH2 0x4067 JUMP JUMPDEST SWAP1 POP SWAP2 SWAP1 POP JUMP JUMPDEST PUSH1 0x0 PUSH1 0xC0 DUP3 ADD SWAP1 POP PUSH2 0x40BF PUSH1 0x0 DUP4 ADD DUP10 PUSH2 0x35F5 JUMP JUMPDEST PUSH2 0x40CC PUSH1 0x20 DUP4 ADD DUP9 PUSH2 0x3679 JUMP JUMPDEST PUSH2 0x40D9 PUSH1 0x40 DUP4 ADD DUP8 PUSH2 0x3679 JUMP JUMPDEST PUSH2 0x40E6 PUSH1 0x60 DUP4 ADD DUP7 PUSH2 0x3537 JUMP JUMPDEST PUSH2 0x40F3 PUSH1 0x80 DUP4 ADD DUP6 PUSH2 0x3537 JUMP JUMPDEST PUSH2 0x4100 PUSH1 0xA0 DUP4 ADD DUP5 PUSH2 0x3537 JUMP JUMPDEST SWAP8 SWAP7 POP POP POP POP POP POP POP JUMP JUMPDEST PUSH32 0x45524332305065726D69743A20696E76616C6964207369676E61747572650000 PUSH1 0x0 DUP3 ADD MSTORE POP JUMP JUMPDEST PUSH1 0x0 PUSH2 0x4141 PUSH1 0x1E DUP4 PUSH2 0x3373 JUMP JUMPDEST SWAP2 POP PUSH2 0x414C DUP3 PUSH2 0x410B JUMP JUMPDEST PUSH1 0x20 DUP3 ADD SWAP1 POP SWAP2 SWAP1 POP JUMP JUMPDEST PUSH1 0x0 PUSH1 0x20 DUP3 ADD SWAP1 POP DUP2 DUP2 SUB PUSH1 0x0 DUP4 ADD MSTORE PUSH2 0x4170 DUP2 PUSH2 0x4134 JUMP JUMPDEST SWAP1 POP SWAP2 SWAP1 POP JUMP JUMPDEST PUSH32 0x4552433230466C6173684D696E743A2077726F6E6720746F6B656E0000000000 PUSH1 0x0 DUP3 ADD MSTORE POP JUMP JUMPDEST PUSH1 0x0 PUSH2 0x41AD PUSH1 0x1B DUP4 PUSH2 0x3373 JUMP JUMPDEST SWAP2 POP PUSH2 0x41B8 DUP3 PUSH2 0x4177 JUMP JUMPDEST PUSH1 0x20 DUP3 ADD SWAP1 POP SWAP2 SWAP1 POP JUMP JUMPDEST PUSH1 0x0 PUSH1 0x20 DUP3 ADD SWAP1 POP DUP2 DUP2 SUB PUSH1 0x0 DUP4 ADD MSTORE PUSH2 0x41DC DUP2 PUSH2 0x41A0 JUMP JUMPDEST SWAP1 POP SWAP2 SWAP1 POP JUMP JUMPDEST PUSH32 0x4F776E61626C653A206E6577206F776E657220697320746865207A65726F2061 PUSH1 0x0 DUP3 ADD MSTORE PUSH32 0x6464726573730000000000000000000000000000000000000000000000000000 PUSH1 0x20 DUP3 ADD MSTORE POP JUMP JUMPDEST PUSH1 0x0 PUSH2 0x423F PUSH1 0x26 DUP4 PUSH2 0x3373 JUMP JUMPDEST SWAP2 POP PUSH2 0x424A DUP3 PUSH2 0x41E3 JUMP JUMPDEST PUSH1 0x40 DUP3 ADD SWAP1 POP SWAP2 SWAP1 POP JUMP JUMPDEST PUSH1 0x0 PUSH1 0x20 DUP3 ADD SWAP1 POP DUP2 DUP2 SUB PUSH1 0x0 DUP4 ADD MSTORE PUSH2 0x426E DUP2 PUSH2 0x4232 JUMP JUMPDEST SWAP1 POP SWAP2 SWAP1 POP JUMP JUMPDEST PUSH32 0x45524332303A20617070726F76652066726F6D20746865207A65726F20616464 PUSH1 0x0 DUP3 ADD MSTORE PUSH32 0x7265737300000000000000000000000000000000000000000000000000000000 PUSH1 0x20 DUP3 ADD MSTORE POP JUMP JUMPDEST PUSH1 0x0 PUSH2 0x42D1 PUSH1 0x24 DUP4 PUSH2 0x3373 JUMP JUMPDEST SWAP2 POP PUSH2 0x42DC DUP3 PUSH2 0x4275 JUMP JUMPDEST PUSH1 0x40 DUP3 ADD SWAP1 POP SWAP2 SWAP1 POP JUMP JUMPDEST PUSH1 0x0 PUSH1 0x20 DUP3 ADD SWAP1 POP DUP2 DUP2 SUB PUSH1 0x0 DUP4 ADD MSTORE PUSH2 0x4300 DUP2 PUSH2 0x42C4 JUMP JUMPDEST SWAP1 POP SWAP2 SWAP1 POP JUMP JUMPDEST PUSH32 0x45524332303A20617070726F766520746F20746865207A65726F206164647265 PUSH1 0x0 DUP3 ADD MSTORE PUSH32 0x7373000000000000000000000000000000000000000000000000000000000000 PUSH1 0x20 DUP3 ADD MSTORE POP JUMP JUMPDEST PUSH1 0x0 PUSH2 0x4363 PUSH1 0x22 DUP4 PUSH2 0x3373 JUMP JUMPDEST SWAP2 POP PUSH2 0x436E DUP3 PUSH2 0x4307 JUMP JUMPDEST PUSH1 0x40 DUP3 ADD SWAP1 POP SWAP2 SWAP1 POP JUMP JUMPDEST PUSH1 0x0 PUSH1 0x20 DUP3 ADD SWAP1 POP DUP2 DUP2 SUB PUSH1 0x0 DUP4 ADD MSTORE PUSH2 0x4392 DUP2 PUSH2 0x4356 JUMP JUMPDEST SWAP1 POP SWAP2 SWAP1 POP JUMP JUMPDEST PUSH32 0x45524332303A20696E73756666696369656E7420616C6C6F77616E6365000000 PUSH1 0x0 DUP3 ADD MSTORE POP JUMP JUMPDEST PUSH1 0x0 PUSH2 0x43CF PUSH1 0x1D DUP4 PUSH2 0x3373 JUMP JUMPDEST SWAP2 POP PUSH2 0x43DA DUP3 PUSH2 0x4399 JUMP JUMPDEST PUSH1 0x20 DUP3 ADD SWAP1 POP SWAP2 SWAP1 POP JUMP JUMPDEST PUSH1 0x0 PUSH1 0x20 DUP3 ADD SWAP1 POP DUP2 DUP2 SUB PUSH1 0x0 DUP4 ADD MSTORE PUSH2 0x43FE DUP2 PUSH2 0x43C2 JUMP JUMPDEST SWAP1 POP SWAP2 SWAP1 POP JUMP JUMPDEST PUSH32 0x45524332303A207472616E736665722066726F6D20746865207A65726F206164 PUSH1 0x0 DUP3 ADD MSTORE PUSH32 0x6472657373000000000000000000000000000000000000000000000000000000 PUSH1 0x20 DUP3 ADD MSTORE POP JUMP JUMPDEST PUSH1 0x0 PUSH2 0x4461 PUSH1 0x25 DUP4 PUSH2 0x3373 JUMP JUMPDEST SWAP2 POP PUSH2 0x446C DUP3 PUSH2 0x4405 JUMP JUMPDEST PUSH1 0x40 DUP3 ADD SWAP1 POP SWAP2 SWAP1 POP JUMP JUMPDEST PUSH1 0x0 PUSH1 0x20 DUP3 ADD SWAP1 POP DUP2 DUP2 SUB PUSH1 0x0 DUP4 ADD MSTORE PUSH2 0x4490 DUP2 PUSH2 0x4454 JUMP JUMPDEST SWAP1 POP SWAP2 SWAP1 POP JUMP JUMPDEST PUSH32 0x45524332303A207472616E7366657220746F20746865207A65726F2061646472 PUSH1 0x0 DUP3 ADD MSTORE PUSH32 0x6573730000000000000000000000000000000000000000000000000000000000 PUSH1 0x20 DUP3 ADD MSTORE POP JUMP JUMPDEST PUSH1 0x0 PUSH2 0x44F3 PUSH1 0x23 DUP4 PUSH2 0x3373 JUMP JUMPDEST SWAP2 POP PUSH2 0x44FE DUP3 PUSH2 0x4497 JUMP JUMPDEST PUSH1 0x40 DUP3 ADD SWAP1 POP SWAP2 SWAP1 POP JUMP JUMPDEST PUSH1 0x0 PUSH1 0x20 DUP3 ADD SWAP1 POP DUP2 DUP2 SUB PUSH1 0x0 DUP4 ADD MSTORE PUSH2 0x4522 DUP2 PUSH2 0x44E6 JUMP JUMPDEST SWAP1 POP SWAP2 SWAP1 POP JUMP JUMPDEST PUSH32 0x45524332303A207472616E7366657220616D6F756E7420657863656564732062 PUSH1 0x0 DUP3 ADD MSTORE PUSH32 0x616C616E63650000000000000000000000000000000000000000000000000000 PUSH1 0x20 DUP3 ADD MSTORE POP JUMP JUMPDEST PUSH1 0x0 PUSH2 0x4585 PUSH1 0x26 DUP4 PUSH2 0x3373 JUMP JUMPDEST SWAP2 POP PUSH2 0x4590 DUP3 PUSH2 0x4529 JUMP JUMPDEST PUSH1 0x40 DUP3 ADD SWAP1 POP SWAP2 SWAP1 POP JUMP JUMPDEST PUSH1 0x0 PUSH1 0x20 DUP3 ADD SWAP1 POP DUP2 DUP2 SUB PUSH1 0x0 DUP4 ADD MSTORE PUSH2 0x45B4 DUP2 PUSH2 0x4578 JUMP JUMPDEST SWAP1 POP SWAP2 SWAP1 POP JUMP JUMPDEST PUSH32 0x4F776E61626C653A2063616C6C6572206973206E6F7420746865206F776E6572 PUSH1 0x0 DUP3 ADD MSTORE POP JUMP JUMPDEST PUSH1 0x0 PUSH2 0x45F1 PUSH1 0x20 DUP4 PUSH2 0x3373 JUMP JUMPDEST SWAP2 POP PUSH2 0x45FC DUP3 PUSH2 0x45BB JUMP JUMPDEST PUSH1 0x20 DUP3 ADD SWAP1 POP SWAP2 SWAP1 POP JUMP JUMPDEST PUSH1 0x0 PUSH1 0x20 DUP3 ADD SWAP1 POP DUP2 DUP2 SUB PUSH1 0x0 DUP4 ADD MSTORE PUSH2 0x4620 DUP2 PUSH2 0x45E4 JUMP JUMPDEST SWAP1 POP SWAP2 SWAP1 POP JUMP JUMPDEST PUSH32 0x4552433230536E617073686F743A206964206973203000000000000000000000 PUSH1 0x0 DUP3 ADD MSTORE POP JUMP JUMPDEST PUSH1 0x0 PUSH2 0x465D PUSH1 0x16 DUP4 PUSH2 0x3373 JUMP JUMPDEST SWAP2 POP PUSH2 0x4668 DUP3 PUSH2 0x4627 JUMP JUMPDEST PUSH1 0x20 DUP3 ADD SWAP1 POP SWAP2 SWAP1 POP JUMP JUMPDEST PUSH1 0x0 PUSH1 0x20 DUP3 ADD SWAP1 POP DUP2 DUP2 SUB PUSH1 0x0 DUP4 ADD MSTORE PUSH2 0x468C DUP2 PUSH2 0x4650 JUMP JUMPDEST SWAP1 POP SWAP2 SWAP1 POP JUMP JUMPDEST PUSH32 0x4552433230536E617073686F743A206E6F6E6578697374656E74206964000000 PUSH1 0x0 DUP3 ADD MSTORE POP JUMP JUMPDEST PUSH1 0x0 PUSH2 0x46C9 PUSH1 0x1D DUP4 PUSH2 0x3373 JUMP JUMPDEST SWAP2 POP PUSH2 0x46D4 DUP3 PUSH2 0x4693 JUMP JUMPDEST PUSH1 0x20 DUP3 ADD SWAP1 POP SWAP2 SWAP1 POP JUMP JUMPDEST PUSH1 0x0 PUSH1 0x20 DUP3 ADD SWAP1 POP DUP2 DUP2 SUB PUSH1 0x0 DUP4 ADD MSTORE PUSH2 0x46F8 DUP2 PUSH2 0x46BC JUMP JUMPDEST SWAP1 POP SWAP2 SWAP1 POP JUMP JUMPDEST PUSH32 0x53616665436173743A2076616C756520646F65736E27742066697420696E2033 PUSH1 0x0 DUP3 ADD MSTORE PUSH32 0x3220626974730000000000000000000000000000000000000000000000000000 PUSH1 0x20 DUP3 ADD MSTORE POP JUMP JUMPDEST PUSH1 0x0 PUSH2 0x475B PUSH1 0x26 DUP4 PUSH2 0x3373 JUMP JUMPDEST SWAP2 POP PUSH2 0x4766 DUP3 PUSH2 0x46FF JUMP JUMPDEST PUSH1 0x40 DUP3 ADD SWAP1 POP SWAP2 SWAP1 POP JUMP JUMPDEST PUSH1 0x0 PUSH1 0x20 DUP3 ADD SWAP1 POP DUP2 DUP2 SUB PUSH1 0x0 DUP4 ADD MSTORE PUSH2 0x478A DUP2 PUSH2 0x474E JUMP JUMPDEST SWAP1 POP SWAP2 SWAP1 POP JUMP JUMPDEST PUSH1 0x0 PUSH1 0xA0 DUP3 ADD SWAP1 POP PUSH2 0x47A6 PUSH1 0x0 DUP4 ADD DUP9 PUSH2 0x35F5 JUMP JUMPDEST PUSH2 0x47B3 PUSH1 0x20 DUP4 ADD DUP8 PUSH2 0x35F5 JUMP JUMPDEST PUSH2 0x47C0 PUSH1 0x40 DUP4 ADD DUP7 PUSH2 0x35F5 JUMP JUMPDEST PUSH2 0x47CD PUSH1 0x60 DUP4 ADD DUP6 PUSH2 0x3537 JUMP JUMPDEST PUSH2 0x47DA PUSH1 0x80 DUP4 ADD DUP5 PUSH2 0x3679 JUMP JUMPDEST SWAP7 SWAP6 POP POP POP POP POP POP JUMP JUMPDEST PUSH32 0x4E487B7100000000000000000000000000000000000000000000000000000000 PUSH1 0x0 MSTORE PUSH1 0x12 PUSH1 0x4 MSTORE PUSH1 0x24 PUSH1 0x0 REVERT JUMPDEST PUSH1 0x0 PUSH2 0x481E DUP3 PUSH2 0x348B JUMP JUMPDEST SWAP2 POP PUSH2 0x4829 DUP4 PUSH2 0x348B JUMP JUMPDEST SWAP3 POP DUP3 PUSH2 0x4839 JUMPI PUSH2 0x4838 PUSH2 0x47E4 JUMP JUMPDEST JUMPDEST DUP3 DUP3 DIV SWAP1 POP SWAP3 SWAP2 POP POP JUMP JUMPDEST PUSH32 0x4552433230566F7465733A20746F74616C20737570706C79207269736B73206F PUSH1 0x0 DUP3 ADD MSTORE PUSH32 0x766572666C6F77696E6720766F74657300000000000000000000000000000000 PUSH1 0x20 DUP3 ADD MSTORE POP JUMP JUMPDEST PUSH1 0x0 PUSH2 0x48A0 PUSH1 0x30 DUP4 PUSH2 0x3373 JUMP JUMPDEST SWAP2 POP PUSH2 0x48AB DUP3 PUSH2 0x4844 JUMP JUMPDEST PUSH1 0x40 DUP3 ADD SWAP1 POP SWAP2 SWAP1 POP JUMP JUMPDEST PUSH1 0x0 PUSH1 0x20 DUP3 ADD SWAP1 POP DUP2 DUP2 SUB PUSH1 0x0 DUP4 ADD MSTORE PUSH2 0x48CF DUP2 PUSH2 0x4893 JUMP JUMPDEST SWAP1 POP SWAP2 SWAP1 POP JUMP JUMPDEST PUSH1 0x0 PUSH1 0x40 DUP3 ADD SWAP1 POP PUSH2 0x48EB PUSH1 0x0 DUP4 ADD DUP6 PUSH2 0x3537 JUMP JUMPDEST PUSH2 0x48F8 PUSH1 0x20 DUP4 ADD DUP5 PUSH2 0x3537 JUMP JUMPDEST SWAP4 SWAP3 POP POP POP JUMP JUMPDEST PUSH1 0x0 DUP2 SWAP1 POP SWAP3 SWAP2 POP POP JUMP JUMPDEST PUSH32 0x1901000000000000000000000000000000000000000000000000000000000000 PUSH1 0x0 DUP3 ADD MSTORE POP JUMP JUMPDEST PUSH1 0x0 PUSH2 0x4940 PUSH1 0x2 DUP4 PUSH2 0x48FF JUMP JUMPDEST SWAP2 POP PUSH2 0x494B DUP3 PUSH2 0x490A JUMP JUMPDEST PUSH1 0x2 DUP3 ADD SWAP1 POP SWAP2 SWAP1 POP JUMP JUMPDEST PUSH1 0x0 DUP2 SWAP1 POP SWAP2 SWAP1 POP JUMP JUMPDEST PUSH2 0x4971 PUSH2 0x496C DUP3 PUSH2 0x35EB JUMP JUMPDEST PUSH2 0x4956 JUMP JUMPDEST DUP3 MSTORE POP POP JUMP JUMPDEST PUSH1 0x0 PUSH2 0x4982 DUP3 PUSH2 0x4933 JUMP JUMPDEST SWAP2 POP PUSH2 0x498E DUP3 DUP6 PUSH2 0x4960 JUMP JUMPDEST PUSH1 0x20 DUP3 ADD SWAP2 POP PUSH2 0x499E DUP3 DUP5 PUSH2 0x4960 JUMP JUMPDEST PUSH1 0x20 DUP3 ADD SWAP2 POP DUP2 SWAP1 POP SWAP4 SWAP3 POP POP POP JUMP JUMPDEST PUSH1 0x0 PUSH1 0x80 DUP3 ADD SWAP1 POP PUSH2 0x49C3 PUSH1 0x0 DUP4 ADD DUP8 PUSH2 0x35F5 JUMP JUMPDEST PUSH2 0x49D0 PUSH1 0x20 DUP4 ADD DUP7 PUSH2 0x35C1 JUMP JUMPDEST PUSH2 0x49DD PUSH1 0x40 DUP4 ADD DUP6 PUSH2 0x35F5 JUMP JUMPDEST PUSH2 0x49EA PUSH1 0x60 DUP4 ADD DUP5 PUSH2 0x35F5 JUMP JUMPDEST SWAP6 SWAP5 POP POP POP POP POP JUMP JUMPDEST PUSH32 0x4E487B7100000000000000000000000000000000000000000000000000000000 PUSH1 0x0 MSTORE PUSH1 0x21 PUSH1 0x4 MSTORE PUSH1 0x24 PUSH1 0x0 REVERT JUMPDEST PUSH32 0x45434453413A20696E76616C6964207369676E61747572650000000000000000 PUSH1 0x0 DUP3 ADD MSTORE POP JUMP JUMPDEST PUSH1 0x0 PUSH2 0x4A58 PUSH1 0x18 DUP4 PUSH2 0x3373 JUMP JUMPDEST SWAP2 POP PUSH2 0x4A63 DUP3 PUSH2 0x4A22 JUMP JUMPDEST PUSH1 0x20 DUP3 ADD SWAP1 POP SWAP2 SWAP1 POP JUMP JUMPDEST PUSH1 0x0 PUSH1 0x20 DUP3 ADD SWAP1 POP DUP2 DUP2 SUB PUSH1 0x0 DUP4 ADD MSTORE PUSH2 0x4A87 DUP2 PUSH2 0x4A4B JUMP JUMPDEST SWAP1 POP SWAP2 SWAP1 POP JUMP JUMPDEST PUSH32 0x45434453413A20696E76616C6964207369676E6174757265206C656E67746800 PUSH1 0x0 DUP3 ADD MSTORE POP JUMP JUMPDEST PUSH1 0x0 PUSH2 0x4AC4 PUSH1 0x1F DUP4 PUSH2 0x3373 JUMP JUMPDEST SWAP2 POP PUSH2 0x4ACF DUP3 PUSH2 0x4A8E JUMP JUMPDEST PUSH1 0x20 DUP3 ADD SWAP1 POP SWAP2 SWAP1 POP JUMP JUMPDEST PUSH1 0x0 PUSH1 0x20 DUP3 ADD SWAP1 POP DUP2 DUP2 SUB PUSH1 0x0 DUP4 ADD MSTORE PUSH2 0x4AF3 DUP2 PUSH2 0x4AB7 JUMP JUMPDEST SWAP1 POP SWAP2 SWAP1 POP JUMP JUMPDEST PUSH32 0x45434453413A20696E76616C6964207369676E6174757265202773272076616C PUSH1 0x0 DUP3 ADD MSTORE PUSH32 0x7565000000000000000000000000000000000000000000000000000000000000 PUSH1 0x20 DUP3 ADD MSTORE POP JUMP JUMPDEST PUSH1 0x0 PUSH2 0x4B56 PUSH1 0x22 DUP4 PUSH2 0x3373 JUMP JUMPDEST SWAP2 POP PUSH2 0x4B61 DUP3 PUSH2 0x4AFA JUMP JUMPDEST PUSH1 0x40 DUP3 ADD SWAP1 POP SWAP2 SWAP1 POP JUMP JUMPDEST PUSH1 0x0 PUSH1 0x20 DUP3 ADD SWAP1 POP DUP2 DUP2 SUB PUSH1 0x0 DUP4 ADD MSTORE PUSH2 0x4B85 DUP2 PUSH2 0x4B49 JUMP JUMPDEST SWAP1 POP SWAP2 SWAP1 POP JUMP JUMPDEST PUSH32 0x45524332303A206D696E7420746F20746865207A65726F206164647265737300 PUSH1 0x0 DUP3 ADD MSTORE POP JUMP JUMPDEST PUSH1 0x0 PUSH2 0x4BC2 PUSH1 0x1F DUP4 PUSH2 0x3373 JUMP JUMPDEST SWAP2 POP PUSH2 0x4BCD DUP3 PUSH2 0x4B8C JUMP JUMPDEST PUSH1 0x20 DUP3 ADD SWAP1 POP SWAP2 SWAP1 POP JUMP JUMPDEST PUSH1 0x0 PUSH1 0x20 DUP3 ADD SWAP1 POP DUP2 DUP2 SUB PUSH1 0x0 DUP4 ADD MSTORE PUSH2 0x4BF1 DUP2 PUSH2 0x4BB5 JUMP JUMPDEST SWAP1 POP SWAP2 SWAP1 POP JUMP JUMPDEST PUSH32 0x45524332303A206275726E2066726F6D20746865207A65726F20616464726573 PUSH1 0x0 DUP3 ADD MSTORE PUSH32 0x7300000000000000000000000000000000000000000000000000000000000000 PUSH1 0x20 DUP3 ADD MSTORE POP JUMP JUMPDEST PUSH1 0x0 PUSH2 0x4C54 PUSH1 0x21 DUP4 PUSH2 0x3373 JUMP JUMPDEST SWAP2 POP PUSH2 0x4C5F DUP3 PUSH2 0x4BF8 JUMP JUMPDEST PUSH1 0x40 DUP3 ADD SWAP1 POP SWAP2 SWAP1 POP JUMP JUMPDEST PUSH1 0x0 PUSH1 0x20 DUP3 ADD SWAP1 POP DUP2 DUP2 SUB PUSH1 0x0 DUP4 ADD MSTORE PUSH2 0x4C83 DUP2 PUSH2 0x4C47 JUMP JUMPDEST SWAP1 POP SWAP2 SWAP1 POP JUMP JUMPDEST PUSH32 0x45524332303A206275726E20616D6F756E7420657863656564732062616C616E PUSH1 0x0 DUP3 ADD MSTORE PUSH32 0x6365000000000000000000000000000000000000000000000000000000000000 PUSH1 0x20 DUP3 ADD MSTORE POP JUMP JUMPDEST PUSH1 0x0 PUSH2 0x4CE6 PUSH1 0x22 DUP4 PUSH2 0x3373 JUMP JUMPDEST SWAP2 POP PUSH2 0x4CF1 DUP3 PUSH2 0x4C8A JUMP JUMPDEST PUSH1 0x40 DUP3 ADD SWAP1 POP SWAP2 SWAP1 POP JUMP JUMPDEST PUSH1 0x0 PUSH1 0x20 DUP3 ADD SWAP1 POP DUP2 DUP2 SUB PUSH1 0x0 DUP4 ADD MSTORE PUSH2 0x4D15 DUP2 PUSH2 0x4CD9 JUMP JUMPDEST SWAP1 POP SWAP2 SWAP1 POP JUMP JUMPDEST PUSH32 0x53616665436173743A2076616C756520646F65736E27742066697420696E2032 PUSH1 0x0 DUP3 ADD MSTORE PUSH32 0x3234206269747300000000000000000000000000000000000000000000000000 PUSH1 0x20 DUP3 ADD MSTORE POP JUMP JUMPDEST PUSH1 0x0 PUSH2 0x4D78 PUSH1 0x27 DUP4 PUSH2 0x3373 JUMP JUMPDEST SWAP2 POP PUSH2 0x4D83 DUP3 PUSH2 0x4D1C JUMP JUMPDEST PUSH1 0x40 DUP3 ADD SWAP1 POP SWAP2 SWAP1 POP JUMP JUMPDEST PUSH1 0x0 PUSH1 0x20 DUP3 ADD SWAP1 POP DUP2 DUP2 SUB PUSH1 0x0 DUP4 ADD MSTORE PUSH2 0x4DA7 DUP2 PUSH2 0x4D6B JUMP JUMPDEST SWAP1 POP SWAP2 SWAP1 POP JUMP INVALID LOG2 PUSH5 0x6970667358 0x22 SLT KECCAK256 0xAD CALLER BYTE PUSH9 0x5D62303CEB625565F5 0xAF ADDMOD SWAP10 0xBC SGT 0xA6 SWAP11 CALLDATALOAD DUP11 EXTCODECOPY 0xB0 PUSH9 0x8FE363AE1F20736473 PUSH16 0x6C634300080900330000000000000000 "
		},
		"gasEstimates": {
			"creation": {
				"codeDepositCost": "3988000",
				"executionCost": "infinite",
				"totalCost": "infinite"
			},
			"external": {
				"DOMAIN_SEPARATOR()": "infinite",
				"allowance(address,address)": "infinite",
				"approve(address,uint256)": "infinite",
				"balanceOf(address)": "2974",
				"balanceOfAt(address,uint256)": "infinite",
				"burn(uint256)": "infinite",
				"burnFrom(address,uint256)": "infinite",
				"checkpoints(address,uint32)": "infinite",
				"decimals()": "389",
				"decreaseAllowance(address,uint256)": "infinite",
				"delegate(address)": "infinite",
				"delegateBySig(address,uint256,uint256,uint8,bytes32,bytes32)": "infinite",
				"delegates(address)": "infinite",
				"flashFee(address,uint256)": "infinite",
				"flashLoan(address,address,uint256,bytes)": "infinite",
				"getPastTotalSupply(uint256)": "infinite",
				"getPastVotes(address,uint256)": "infinite",
				"getVotes(address)": "infinite",
				"increaseAllowance(address,uint256)": "infinite",
				"maxFlashLoan(address)": "infinite",
				"mint(address,uint256)": "infinite",
				"name()": "infinite",
				"nonces(address)": "2980",
				"numCheckpoints(address)": "3125",
				"owner()": "2634",
				"permit(address,address,uint256,uint256,uint8,bytes32,bytes32)": "infinite",
				"renounceOwnership()": "30444",
				"snapshot()": "30193",
				"symbol()": "infinite",
				"totalSupply()": "2528",
				"totalSupplyAt(uint256)": "infinite",
				"transfer(address,uint256)": "infinite",
				"transferFrom(address,address,uint256)": "infinite",
				"transferOwnership(address)": "30879"
			},
			"internal": {
				"_afterTokenTransfer(address,address,uint256)": "infinite",
				"_beforeTokenTransfer(address,address,uint256)": "infinite",
				"_burn(address,uint256)": "infinite",
				"_mint(address,uint256)": "infinite"
			}
		},
		"methodIdentifiers": {
			"DOMAIN_SEPARATOR()": "3644e515",
			"allowance(address,address)": "dd62ed3e",
			"approve(address,uint256)": "095ea7b3",
			"balanceOf(address)": "70a08231",
			"balanceOfAt(address,uint256)": "4ee2cd7e",
			"burn(uint256)": "42966c68",
			"burnFrom(address,uint256)": "79cc6790",
			"checkpoints(address,uint32)": "f1127ed8",
			"decimals()": "313ce567",
			"decreaseAllowance(address,uint256)": "a457c2d7",
			"delegate(address)": "5c19a95c",
			"delegateBySig(address,uint256,uint256,uint8,bytes32,bytes32)": "c3cda520",
			"delegates(address)": "587cde1e",
			"flashFee(address,uint256)": "d9d98ce4",
			"flashLoan(address,address,uint256,bytes)": "5cffe9de",
			"getPastTotalSupply(uint256)": "8e539e8c",
			"getPastVotes(address,uint256)": "3a46b1a8",
			"getVotes(address)": "9ab24eb0",
			"increaseAllowance(address,uint256)": "39509351",
			"maxFlashLoan(address)": "613255ab",
			"mint(address,uint256)": "40c10f19",
			"name()": "06fdde03",
			"nonces(address)": "7ecebe00",
			"numCheckpoints(address)": "6fcfff45",
			"owner()": "8da5cb5b",
			"permit(address,address,uint256,uint256,uint8,bytes32,bytes32)": "d505accf",
			"renounceOwnership()": "715018a6",
			"snapshot()": "9711715a",
			"symbol()": "95d89b41",
			"totalSupply()": "18160ddd",
			"totalSupplyAt(uint256)": "981b24d0",
			"transfer(address,uint256)": "a9059cbb",
			"transferFrom(address,address,uint256)": "23b872dd",
			"transferOwnership(address)": "f2fde38b"
		}
	},
	"abi": [
		{
			"inputs": [],
			"stateMutability": "nonpayable",
			"type": "constructor"
		},
		{
			"anonymous": false,
			"inputs": [
				{
					"indexed": true,
					"internalType": "address",
					"name": "owner",
					"type": "address"
				},
				{
					"indexed": true,
					"internalType": "address",
					"name": "spender",
					"type": "address"
				},
				{
					"indexed": false,
					"internalType": "uint256",
					"name": "value",
					"type": "uint256"
				}
			],
			"name": "Approval",
			"type": "event"
		},
		{
			"anonymous": false,
			"inputs": [
				{
					"indexed": true,
					"internalType": "address",
					"name": "delegator",
					"type": "address"
				},
				{
					"indexed": true,
					"internalType": "address",
					"name": "fromDelegate",
					"type": "address"
				},
				{
					"indexed": true,
					"internalType": "address",
					"name": "toDelegate",
					"type": "address"
				}
			],
			"name": "DelegateChanged",
			"type": "event"
		},
		{
			"anonymous": false,
			"inputs": [
				{
					"indexed": true,
					"internalType": "address",
					"name": "delegate",
					"type": "address"
				},
				{
					"indexed": false,
					"internalType": "uint256",
					"name": "previousBalance",
					"type": "uint256"
				},
				{
					"indexed": false,
					"internalType": "uint256",
					"name": "newBalance",
					"type": "uint256"
				}
			],
			"name": "DelegateVotesChanged",
			"type": "event"
		},
		{
			"anonymous": false,
			"inputs": [
				{
					"indexed": true,
					"internalType": "address",
					"name": "previousOwner",
					"type": "address"
				},
				{
					"indexed": true,
					"internalType": "address",
					"name": "newOwner",
					"type": "address"
				}
			],
			"name": "OwnershipTransferred",
			"type": "event"
		},
		{
			"anonymous": false,
			"inputs": [
				{
					"indexed": false,
					"internalType": "uint256",
					"name": "id",
					"type": "uint256"
				}
			],
			"name": "Snapshot",
			"type": "event"
		},
		{
			"anonymous": false,
			"inputs": [
				{
					"indexed": true,
					"internalType": "address",
					"name": "from",
					"type": "address"
				},
				{
					"indexed": true,
					"internalType": "address",
					"name": "to",
					"type": "address"
				},
				{
					"indexed": false,
					"internalType": "uint256",
					"name": "value",
					"type": "uint256"
				}
			],
			"name": "Transfer",
			"type": "event"
		},
		{
			"inputs": [],
			"name": "DOMAIN_SEPARATOR",
			"outputs": [
				{
					"internalType": "bytes32",
					"name": "",
					"type": "bytes32"
				}
			],
			"stateMutability": "view",
			"type": "function"
		},
		{
			"inputs": [
				{
					"internalType": "address",
					"name": "owner",
					"type": "address"
				},
				{
					"internalType": "address",
					"name": "spender",
					"type": "address"
				}
			],
			"name": "allowance",
			"outputs": [
				{
					"internalType": "uint256",
					"name": "",
					"type": "uint256"
				}
			],
			"stateMutability": "view",
			"type": "function"
		},
		{
			"inputs": [
				{
					"internalType": "address",
					"name": "spender",
					"type": "address"
				},
				{
					"internalType": "uint256",
					"name": "amount",
					"type": "uint256"
				}
			],
			"name": "approve",
			"outputs": [
				{
					"internalType": "bool",
					"name": "",
					"type": "bool"
				}
			],
			"stateMutability": "nonpayable",
			"type": "function"
		},
		{
			"inputs": [
				{
					"internalType": "address",
					"name": "account",
					"type": "address"
				}
			],
			"name": "balanceOf",
			"outputs": [
				{
					"internalType": "uint256",
					"name": "",
					"type": "uint256"
				}
			],
			"stateMutability": "view",
			"type": "function"
		},
		{
			"inputs": [
				{
					"internalType": "address",
					"name": "account",
					"type": "address"
				},
				{
					"internalType": "uint256",
					"name": "snapshotId",
					"type": "uint256"
				}
			],
			"name": "balanceOfAt",
			"outputs": [
				{
					"internalType": "uint256",
					"name": "",
					"type": "uint256"
				}
			],
			"stateMutability": "view",
			"type": "function"
		},
		{
			"inputs": [
				{
					"internalType": "uint256",
					"name": "amount",
					"type": "uint256"
				}
			],
			"name": "burn",
			"outputs": [],
			"stateMutability": "nonpayable",
			"type": "function"
		},
		{
			"inputs": [
				{
					"internalType": "address",
					"name": "account",
					"type": "address"
				},
				{
					"internalType": "uint256",
					"name": "amount",
					"type": "uint256"
				}
			],
			"name": "burnFrom",
			"outputs": [],
			"stateMutability": "nonpayable",
			"type": "function"
		},
		{
			"inputs": [
				{
					"internalType": "address",
					"name": "account",
					"type": "address"
				},
				{
					"internalType": "uint32",
					"name": "pos",
					"type": "uint32"
				}
			],
			"name": "checkpoints",
			"outputs": [
				{
					"components": [
						{
							"internalType": "uint32",
							"name": "fromBlock",
							"type": "uint32"
						},
						{
							"internalType": "uint224",
							"name": "votes",
							"type": "uint224"
						}
					],
					"internalType": "struct ERC20Votes.Checkpoint",
					"name": "",
					"type": "tuple"
				}
			],
			"stateMutability": "view",
			"type": "function"
		},
		{
			"inputs": [],
			"name": "decimals",
			"outputs": [
				{
					"internalType": "uint8",
					"name": "",
					"type": "uint8"
				}
			],
			"stateMutability": "view",
			"type": "function"
		},
		{
			"inputs": [
				{
					"internalType": "address",
					"name": "spender",
					"type": "address"
				},
				{
					"internalType": "uint256",
					"name": "subtractedValue",
					"type": "uint256"
				}
			],
			"name": "decreaseAllowance",
			"outputs": [
				{
					"internalType": "bool",
					"name": "",
					"type": "bool"
				}
			],
			"stateMutability": "nonpayable",
			"type": "function"
		},
		{
			"inputs": [
				{
					"internalType": "address",
					"name": "delegatee",
					"type": "address"
				}
			],
			"name": "delegate",
			"outputs": [],
			"stateMutability": "nonpayable",
			"type": "function"
		},
		{
			"inputs": [
				{
					"internalType": "address",
					"name": "delegatee",
					"type": "address"
				},
				{
					"internalType": "uint256",
					"name": "nonce",
					"type": "uint256"
				},
				{
					"internalType": "uint256",
					"name": "expiry",
					"type": "uint256"
				},
				{
					"internalType": "uint8",
					"name": "v",
					"type": "uint8"
				},
				{
					"internalType": "bytes32",
					"name": "r",
					"type": "bytes32"
				},
				{
					"internalType": "bytes32",
					"name": "s",
					"type": "bytes32"
				}
			],
			"name": "delegateBySig",
			"outputs": [],
			"stateMutability": "nonpayable",
			"type": "function"
		},
		{
			"inputs": [
				{
					"internalType": "address",
					"name": "account",
					"type": "address"
				}
			],
			"name": "delegates",
			"outputs": [
				{
					"internalType": "address",
					"name": "",
					"type": "address"
				}
			],
			"stateMutability": "view",
			"type": "function"
		},
		{
			"inputs": [
				{
					"internalType": "address",
					"name": "token",
					"type": "address"
				},
				{
					"internalType": "uint256",
					"name": "amount",
					"type": "uint256"
				}
			],
			"name": "flashFee",
			"outputs": [
				{
					"internalType": "uint256",
					"name": "",
					"type": "uint256"
				}
			],
			"stateMutability": "view",
			"type": "function"
		},
		{
			"inputs": [
				{
					"internalType": "contract IERC3156FlashBorrower",
					"name": "receiver",
					"type": "address"
				},
				{
					"internalType": "address",
					"name": "token",
					"type": "address"
				},
				{
					"internalType": "uint256",
					"name": "amount",
					"type": "uint256"
				},
				{
					"internalType": "bytes",
					"name": "data",
					"type": "bytes"
				}
			],
			"name": "flashLoan",
			"outputs": [
				{
					"internalType": "bool",
					"name": "",
					"type": "bool"
				}
			],
			"stateMutability": "nonpayable",
			"type": "function"
		},
		{
			"inputs": [
				{
					"internalType": "uint256",
					"name": "blockNumber",
					"type": "uint256"
				}
			],
			"name": "getPastTotalSupply",
			"outputs": [
				{
					"internalType": "uint256",
					"name": "",
					"type": "uint256"
				}
			],
			"stateMutability": "view",
			"type": "function"
		},
		{
			"inputs": [
				{
					"internalType": "address",
					"name": "account",
					"type": "address"
				},
				{
					"internalType": "uint256",
					"name": "blockNumber",
					"type": "uint256"
				}
			],
			"name": "getPastVotes",
			"outputs": [
				{
					"internalType": "uint256",
					"name": "",
					"type": "uint256"
				}
			],
			"stateMutability": "view",
			"type": "function"
		},
		{
			"inputs": [
				{
					"internalType": "address",
					"name": "account",
					"type": "address"
				}
			],
			"name": "getVotes",
			"outputs": [
				{
					"internalType": "uint256",
					"name": "",
					"type": "uint256"
				}
			],
			"stateMutability": "view",
			"type": "function"
		},
		{
			"inputs": [
				{
					"internalType": "address",
					"name": "spender",
					"type": "address"
				},
				{
					"internalType": "uint256",
					"name": "addedValue",
					"type": "uint256"
				}
			],
			"name": "increaseAllowance",
			"outputs": [
				{
					"internalType": "bool",
					"name": "",
					"type": "bool"
				}
			],
			"stateMutability": "nonpayable",
			"type": "function"
		},
		{
			"inputs": [
				{
					"internalType": "address",
					"name": "token",
					"type": "address"
				}
			],
			"name": "maxFlashLoan",
			"outputs": [
				{
					"internalType": "uint256",
					"name": "",
					"type": "uint256"
				}
			],
			"stateMutability": "view",
			"type": "function"
		},
		{
			"inputs": [
				{
					"internalType": "address",
					"name": "to",
					"type": "address"
				},
				{
					"internalType": "uint256",
					"name": "amount",
					"type": "uint256"
				}
			],
			"name": "mint",
			"outputs": [],
			"stateMutability": "nonpayable",
			"type": "function"
		},
		{
			"inputs": [],
			"name": "name",
			"outputs": [
				{
					"internalType": "string",
					"name": "",
					"type": "string"
				}
			],
			"stateMutability": "view",
			"type": "function"
		},
		{
			"inputs": [
				{
					"internalType": "address",
					"name": "owner",
					"type": "address"
				}
			],
			"name": "nonces",
			"outputs": [
				{
					"internalType": "uint256",
					"name": "",
					"type": "uint256"
				}
			],
			"stateMutability": "view",
			"type": "function"
		},
		{
			"inputs": [
				{
					"internalType": "address",
					"name": "account",
					"type": "address"
				}
			],
			"name": "numCheckpoints",
			"outputs": [
				{
					"internalType": "uint32",
					"name": "",
					"type": "uint32"
				}
			],
			"stateMutability": "view",
			"type": "function"
		},
		{
			"inputs": [],
			"name": "owner",
			"outputs": [
				{
					"internalType": "address",
					"name": "",
					"type": "address"
				}
			],
			"stateMutability": "view",
			"type": "function"
		},
		{
			"inputs": [
				{
					"internalType": "address",
					"name": "owner",
					"type": "address"
				},
				{
					"internalType": "address",
					"name": "spender",
					"type": "address"
				},
				{
					"internalType": "uint256",
					"name": "value",
					"type": "uint256"
				},
				{
					"internalType": "uint256",
					"name": "deadline",
					"type": "uint256"
				},
				{
					"internalType": "uint8",
					"name": "v",
					"type": "uint8"
				},
				{
					"internalType": "bytes32",
					"name": "r",
					"type": "bytes32"
				},
				{
					"internalType": "bytes32",
					"name": "s",
					"type": "bytes32"
				}
			],
			"name": "permit",
			"outputs": [],
			"stateMutability": "nonpayable",
			"type": "function"
		},
		{
			"inputs": [],
			"name": "renounceOwnership",
			"outputs": [],
			"stateMutability": "nonpayable",
			"type": "function"
		},
		{
			"inputs": [],
			"name": "snapshot",
			"outputs": [],
			"stateMutability": "nonpayable",
			"type": "function"
		},
		{
			"inputs": [],
			"name": "symbol",
			"outputs": [
				{
					"internalType": "string",
					"name": "",
					"type": "string"
				}
			],
			"stateMutability": "view",
			"type": "function"
		},
		{
			"inputs": [],
			"name": "totalSupply",
			"outputs": [
				{
					"internalType": "uint256",
					"name": "",
					"type": "uint256"
				}
			],
			"stateMutability": "view",
			"type": "function"
		},
		{
			"inputs": [
				{
					"internalType": "uint256",
					"name": "snapshotId",
					"type": "uint256"
				}
			],
			"name": "totalSupplyAt",
			"outputs": [
				{
					"internalType": "uint256",
					"name": "",
					"type": "uint256"
				}
			],
			"stateMutability": "view",
			"type": "function"
		},
		{
			"inputs": [
				{
					"internalType": "address",
					"name": "to",
					"type": "address"
				},
				{
					"internalType": "uint256",
					"name": "amount",
					"type": "uint256"
				}
			],
			"name": "transfer",
			"outputs": [
				{
					"internalType": "bool",
					"name": "",
					"type": "bool"
				}
			],
			"stateMutability": "nonpayable",
			"type": "function"
		},
		{
			"inputs": [
				{
					"internalType": "address",
					"name": "from",
					"type": "address"
				},
				{
					"internalType": "address",
					"name": "to",
					"type": "address"
				},
				{
					"internalType": "uint256",
					"name": "amount",
					"type": "uint256"
				}
			],
			"name": "transferFrom",
			"outputs": [
				{
					"internalType": "bool",
					"name": "",
					"type": "bool"
				}
			],
			"stateMutability": "nonpayable",
			"type": "function"
		},
		{
			"inputs": [
				{
					"internalType": "address",
					"name": "newOwner",
					"type": "address"
				}
			],
			"name": "transferOwnership",
			"outputs": [],
			"stateMutability": "nonpayable",
			"type": "function"
		}
	]
}