{
  "_format": "hh-sol-artifact-1",
  "contractName": "ChocoChip",
  "sourceName": "contracts/ChocoChip.sol",
  "abi": [
    {
      "inputs": [],
      "stateMutability": "nonpayable",
      "type": "constructor"
    },
    {
      "anonymous": false,
      "inputs": [
        {
          "indexed": true,
          "internalType": "address",
          "name": "owner",
          "type": "address"
        },
        {
          "indexed": true,
          "internalType": "address",
          "name": "spender",
          "type": "address"
        },
        {
          "indexed": false,
          "internalType": "uint256",
          "name": "value",
          "type": "uint256"
        }
      ],
      "name": "Approval",
      "type": "event"
    },
    {
      "anonymous": false,
      "inputs": [
        {
          "indexed": true,
          "internalType": "address",
          "name": "delegator",
          "type": "address"
        },
        {
          "indexed": true,
          "internalType": "address",
          "name": "fromDelegate",
          "type": "address"
        },
        {
          "indexed": true,
          "internalType": "address",
          "name": "toDelegate",
          "type": "address"
        }
      ],
      "name": "DelegateChanged",
      "type": "event"
    },
    {
      "anonymous": false,
      "inputs": [
        {
          "indexed": true,
          "internalType": "address",
          "name": "delegate",
          "type": "address"
        },
        {
          "indexed": false,
          "internalType": "uint256",
          "name": "previousBalance",
          "type": "uint256"
        },
        {
          "indexed": false,
          "internalType": "uint256",
          "name": "newBalance",
          "type": "uint256"
        }
      ],
      "name": "DelegateVotesChanged",
      "type": "event"
    },
    {
      "anonymous": false,
      "inputs": [
        {
          "indexed": true,
          "internalType": "address",
          "name": "previousOwner",
          "type": "address"
        },
        {
          "indexed": true,
          "internalType": "address",
          "name": "newOwner",
          "type": "address"
        }
      ],
      "name": "OwnershipTransferred",
      "type": "event"
    },
    {
      "anonymous": false,
      "inputs": [
        {
          "indexed": false,
          "internalType": "uint256",
          "name": "id",
          "type": "uint256"
        }
      ],
      "name": "Snapshot",
      "type": "event"
    },
    {
      "anonymous": false,
      "inputs": [
        {
          "indexed": true,
          "internalType": "address",
          "name": "from",
          "type": "address"
        },
        {
          "indexed": true,
          "internalType": "address",
          "name": "to",
          "type": "address"
        },
        {
          "indexed": false,
          "internalType": "uint256",
          "name": "value",
          "type": "uint256"
        }
      ],
      "name": "Transfer",
      "type": "event"
    },
    {
      "inputs": [],
      "name": "DOMAIN_SEPARATOR",
      "outputs": [
        {
          "internalType": "bytes32",
          "name": "",
          "type": "bytes32"
        }
      ],
      "stateMutability": "view",
      "type": "function"
    },
    {
      "inputs": [
        {
          "internalType": "address",
          "name": "owner",
          "type": "address"
        },
        {
          "internalType": "address",
          "name": "spender",
          "type": "address"
        }
      ],
      "name": "allowance",
      "outputs": [
        {
          "internalType": "uint256",
          "name": "",
          "type": "uint256"
        }
      ],
      "stateMutability": "view",
      "type": "function"
    },
    {
      "inputs": [
        {
          "internalType": "address",
          "name": "spender",
          "type": "address"
        },
        {
          "internalType": "uint256",
          "name": "amount",
          "type": "uint256"
        }
      ],
      "name": "approve",
      "outputs": [
        {
          "internalType": "bool",
          "name": "",
          "type": "bool"
        }
      ],
      "stateMutability": "nonpayable",
      "type": "function"
    },
    {
      "inputs": [
        {
          "internalType": "address",
          "name": "account",
          "type": "address"
        }
      ],
      "name": "balanceOf",
      "outputs": [
        {
          "internalType": "uint256",
          "name": "",
          "type": "uint256"
        }
      ],
      "stateMutability": "view",
      "type": "function"
    },
    {
      "inputs": [
        {
          "internalType": "address",
          "name": "account",
          "type": "address"
        },
        {
          "internalType": "uint256",
          "name": "snapshotId",
          "type": "uint256"
        }
      ],
      "name": "balanceOfAt",
      "outputs": [
        {
          "internalType": "uint256",
          "name": "",
          "type": "uint256"
        }
      ],
      "stateMutability": "view",
      "type": "function"
    },
    {
      "inputs": [
        {
          "internalType": "uint256",
          "name": "amount",
          "type": "uint256"
        }
      ],
      "name": "burn",
      "outputs": [],
      "stateMutability": "nonpayable",
      "type": "function"
    },
    {
      "inputs": [
        {
          "internalType": "address",
          "name": "account",
          "type": "address"
        },
        {
          "internalType": "uint256",
          "name": "amount",
          "type": "uint256"
        }
      ],
      "name": "burnFrom",
      "outputs": [],
      "stateMutability": "nonpayable",
      "type": "function"
    },
    {
      "inputs": [
        {
          "internalType": "address",
          "name": "account",
          "type": "address"
        },
        {
          "internalType": "uint32",
          "name": "pos",
          "type": "uint32"
        }
      ],
      "name": "checkpoints",
      "outputs": [
        {
          "components": [
            {
              "internalType": "uint32",
              "name": "fromBlock",
              "type": "uint32"
            },
            {
              "internalType": "uint224",
              "name": "votes",
              "type": "uint224"
            }
          ],
          "internalType": "struct ERC20Votes.Checkpoint",
          "name": "",
          "type": "tuple"
        }
      ],
      "stateMutability": "view",
      "type": "function"
    },
    {
      "inputs": [],
      "name": "decimals",
      "outputs": [
        {
          "internalType": "uint8",
          "name": "",
          "type": "uint8"
        }
      ],
      "stateMutability": "view",
      "type": "function"
    },
    {
      "inputs": [
        {
          "internalType": "address",
          "name": "spender",
          "type": "address"
        },
        {
          "internalType": "uint256",
          "name": "subtractedValue",
          "type": "uint256"
        }
      ],
      "name": "decreaseAllowance",
      "outputs": [
        {
          "internalType": "bool",
          "name": "",
          "type": "bool"
        }
      ],
      "stateMutability": "nonpayable",
      "type": "function"
    },
    {
      "inputs": [
        {
          "internalType": "address",
          "name": "delegatee",
          "type": "address"
        }
      ],
      "name": "delegate",
      "outputs": [],
      "stateMutability": "nonpayable",
      "type": "function"
    },
    {
      "inputs": [
        {
          "internalType": "address",
          "name": "delegatee",
          "type": "address"
        },
        {
          "internalType": "uint256",
          "name": "nonce",
          "type": "uint256"
        },
        {
          "internalType": "uint256",
          "name": "expiry",
          "type": "uint256"
        },
        {
          "internalType": "uint8",
          "name": "v",
          "type": "uint8"
        },
        {
          "internalType": "bytes32",
          "name": "r",
          "type": "bytes32"
        },
        {
          "internalType": "bytes32",
          "name": "s",
          "type": "bytes32"
        }
      ],
      "name": "delegateBySig",
      "outputs": [],
      "stateMutability": "nonpayable",
      "type": "function"
    },
    {
      "inputs": [
        {
          "internalType": "address",
          "name": "account",
          "type": "address"
        }
      ],
      "name": "delegates",
      "outputs": [
        {
          "internalType": "address",
          "name": "",
          "type": "address"
        }
      ],
      "stateMutability": "view",
      "type": "function"
    },
    {
      "inputs": [
        {
          "internalType": "address",
          "name": "token",
          "type": "address"
        },
        {
          "internalType": "uint256",
          "name": "amount",
          "type": "uint256"
        }
      ],
      "name": "flashFee",
      "outputs": [
        {
          "internalType": "uint256",
          "name": "",
          "type": "uint256"
        }
      ],
      "stateMutability": "view",
      "type": "function"
    },
    {
      "inputs": [
        {
          "internalType": "contract IERC3156FlashBorrower",
          "name": "receiver",
          "type": "address"
        },
        {
          "internalType": "address",
          "name": "token",
          "type": "address"
        },
        {
          "internalType": "uint256",
          "name": "amount",
          "type": "uint256"
        },
        {
          "internalType": "bytes",
          "name": "data",
          "type": "bytes"
        }
      ],
      "name": "flashLoan",
      "outputs": [
        {
          "internalType": "bool",
          "name": "",
          "type": "bool"
        }
      ],
      "stateMutability": "nonpayable",
      "type": "function"
    },
    {
      "inputs": [
        {
          "internalType": "uint256",
          "name": "blockNumber",
          "type": "uint256"
        }
      ],
      "name": "getPastTotalSupply",
      "outputs": [
        {
          "internalType": "uint256",
          "name": "",
          "type": "uint256"
        }
      ],
      "stateMutability": "view",
      "type": "function"
    },
    {
      "inputs": [
        {
          "internalType": "address",
          "name": "account",
          "type": "address"
        },
        {
          "internalType": "uint256",
          "name": "blockNumber",
          "type": "uint256"
        }
      ],
      "name": "getPastVotes",
      "outputs": [
        {
          "internalType": "uint256",
          "name": "",
          "type": "uint256"
        }
      ],
      "stateMutability": "view",
      "type": "function"
    },
    {
      "inputs": [
        {
          "internalType": "address",
          "name": "account",
          "type": "address"
        }
      ],
      "name": "getVotes",
      "outputs": [
        {
          "internalType": "uint256",
          "name": "",
          "type": "uint256"
        }
      ],
      "stateMutability": "view",
      "type": "function"
    },
    {
      "inputs": [
        {
          "internalType": "address",
          "name": "spender",
          "type": "address"
        },
        {
          "internalType": "uint256",
          "name": "addedValue",
          "type": "uint256"
        }
      ],
      "name": "increaseAllowance",
      "outputs": [
        {
          "internalType": "bool",
          "name": "",
          "type": "bool"
        }
      ],
      "stateMutability": "nonpayable",
      "type": "function"
    },
    {
      "inputs": [
        {
          "internalType": "address",
          "name": "token",
          "type": "address"
        }
      ],
      "name": "maxFlashLoan",
      "outputs": [
        {
          "internalType": "uint256",
          "name": "",
          "type": "uint256"
        }
      ],
      "stateMutability": "view",
      "type": "function"
    },
    {
      "inputs": [
        {
          "internalType": "address",
          "name": "to",
          "type": "address"
        },
        {
          "internalType": "uint256",
          "name": "amount",
          "type": "uint256"
        }
      ],
      "name": "mint",
      "outputs": [],
      "stateMutability": "nonpayable",
      "type": "function"
    },
    {
      "inputs": [],
      "name": "name",
      "outputs": [
        {
          "internalType": "string",
          "name": "",
          "type": "string"
        }
      ],
      "stateMutability": "view",
      "type": "function"
    },
    {
      "inputs": [
        {
          "internalType": "address",
          "name": "owner",
          "type": "address"
        }
      ],
      "name": "nonces",
      "outputs": [
        {
          "internalType": "uint256",
          "name": "",
          "type": "uint256"
        }
      ],
      "stateMutability": "view",
      "type": "function"
    },
    {
      "inputs": [
        {
          "internalType": "address",
          "name": "account",
          "type": "address"
        }
      ],
      "name": "numCheckpoints",
      "outputs": [
        {
          "internalType": "uint32",
          "name": "",
          "type": "uint32"
        }
      ],
      "stateMutability": "view",
      "type": "function"
    },
    {
      "inputs": [],
      "name": "owner",
      "outputs": [
        {
          "internalType": "address",
          "name": "",
          "type": "address"
        }
      ],
      "stateMutability": "view",
      "type": "function"
    },
    {
      "inputs": [
        {
          "internalType": "address",
          "name": "owner",
          "type": "address"
        },
        {
          "internalType": "address",
          "name": "spender",
          "type": "address"
        },
        {
          "internalType": "uint256",
          "name": "value",
          "type": "uint256"
        },
        {
          "internalType": "uint256",
          "name": "deadline",
          "type": "uint256"
        },
        {
          "internalType": "uint8",
          "name": "v",
          "type": "uint8"
        },
        {
          "internalType": "bytes32",
          "name": "r",
          "type": "bytes32"
        },
        {
          "internalType": "bytes32",
          "name": "s",
          "type": "bytes32"
        }
      ],
      "name": "permit",
      "outputs": [],
      "stateMutability": "nonpayable",
      "type": "function"
    },
    {
      "inputs": [],
      "name": "renounceOwnership",
      "outputs": [],
      "stateMutability": "nonpayable",
      "type": "function"
    },
    {
      "inputs": [],
      "name": "snapshot",
      "outputs": [],
      "stateMutability": "nonpayable",
      "type": "function"
    },
    {
      "inputs": [],
      "name": "symbol",
      "outputs": [
        {
          "internalType": "string",
          "name": "",
          "type": "string"
        }
      ],
      "stateMutability": "view",
      "type": "function"
    },
    {
      "inputs": [],
      "name": "totalSupply",
      "outputs": [
        {
          "internalType": "uint256",
          "name": "",
          "type": "uint256"
        }
      ],
      "stateMutability": "view",
      "type": "function"
    },
    {
      "inputs": [
        {
          "internalType": "uint256",
          "name": "snapshotId",
          "type": "uint256"
        }
      ],
      "name": "totalSupplyAt",
      "outputs": [
        {
          "internalType": "uint256",
          "name": "",
          "type": "uint256"
        }
      ],
      "stateMutability": "view",
      "type": "function"
    },
    {
      "inputs": [
        {
          "internalType": "address",
          "name": "to",
          "type": "address"
        },
        {
          "internalType": "uint256",
          "name": "amount",
          "type": "uint256"
        }
      ],
      "name": "transfer",
      "outputs": [
        {
          "internalType": "bool",
          "name": "",
          "type": "bool"
        }
      ],
      "stateMutability": "nonpayable",
      "type": "function"
    },
    {
      "inputs": [
        {
          "internalType": "address",
          "name": "from",
          "type": "address"
        },
        {
          "internalType": "address",
          "name": "to",
          "type": "address"
        },
        {
          "internalType": "uint256",
          "name": "amount",
          "type": "uint256"
        }
      ],
      "name": "transferFrom",
      "outputs": [
        {
          "internalType": "bool",
          "name": "",
          "type": "bool"
        }
      ],
      "stateMutability": "nonpayable",
      "type": "function"
    },
    {
      "inputs": [
        {
          "internalType": "address",
          "name": "newOwner",
          "type": "address"
        }
      ],
      "name": "transferOwnership",
      "outputs": [],
      "stateMutability": "nonpayable",
      "type": "function"
    }
  ],
  "bytecode": "0x6101406040523480156200001257600080fd5b506040518060400160405280600a815260200169043686f636f20436869760b41b81525080604051806040016040528060018152602001603160f81b8152506040518060400160405280600a815260200169043686f636f20436869760b41b8152506040518060400160405280600481526020016343484f4360e01b8152508160039080519060200190620000a9929190620001c8565b508051620000bf906004906020840190620001c8565b505050620000dc620000d66200017260201b60201c565b62000176565b815160209283012081519183019190912060e08290526101008190524660a0818152604080517f8b73c3c69bb8fe3d512ecc4cf759cc79239f7b179b0ffacaa9a75d522b39400f818801819052818301969096526060810194909452608080850193909352308483018190528151808603909301835260c0948501909152815191909501209052919091526101205250620002ab565b3390565b600980546001600160a01b038381166001600160a01b0319831681179093556040519116919082907f8be0079c531659141344cd1fd0a4f28419497f9722a3daafe3b4186f6b6457e090600090a35050565b828054620001d6906200026e565b90600052602060002090601f016020900481019282620001fa576000855562000245565b82601f106200021557805160ff191683800117855562000245565b8280016001018555821562000245579182015b828111156200024557825182559160200191906001019062000228565b506200025392915062000257565b5090565b5b8082111562000253576000815560010162000258565b600181811c908216806200028357607f821691505b60208210811415620002a557634e487b7160e01b600052602260045260246000fd5b50919050565b60805160a05160c05160e0516101005161012051612878620002fb600039600061133e0152600061138d01526000611368015260006112c1015260006112eb0152600061131501526128786000f3fe608060405234801561001057600080fd5b50600436106102065760003560e01c8063715018a61161011a5780639ab24eb0116100ad578063d505accf1161007c578063d505accf14610478578063d9d98ce41461048b578063dd62ed3e1461049e578063f1127ed8146104b1578063f2fde38b146104ee57600080fd5b80639ab24eb01461042c578063a457c2d71461043f578063a9059cbb14610452578063c3cda5201461046557600080fd5b80638e539e8c116100e95780638e539e8c146103f657806395d89b41146104095780639711715a14610411578063981b24d01461041957600080fd5b8063715018a6146103b757806379cc6790146103bf5780637ecebe00146103d25780638da5cb5b146103e557600080fd5b806340c10f191161019d5780635c19a95c1161016c5780635c19a95c1461032d5780635cffe9de14610340578063613255ab146103535780636fcfff451461036657806370a082311461038e57600080fd5b806340c10f19146102ae57806342966c68146102c35780634ee2cd7e146102d6578063587cde1e146102e957600080fd5b8063313ce567116101d9578063313ce567146102715780633644e5151461028057806339509351146102885780633a46b1a81461029b57600080fd5b806306fdde031461020b578063095ea7b31461022957806318160ddd1461024c57806323b872dd1461025e575b600080fd5b610213610501565b60405161022091906123fa565b60405180910390f35b61023c610237366004612464565b610593565b6040519015158152602001610220565b6002545b604051908152602001610220565b61023c61026c366004612490565b6105ad565b60405160128152602001610220565b6102506105d1565b61023c610296366004612464565b6105e0565b6102506102a9366004612464565b610602565b6102c16102bc366004612464565b610681565b005b6102c16102d13660046124d1565b610697565b6102506102e4366004612464565b6106a4565b6103156102f73660046124ea565b6001600160a01b039081166000908152600c60205260409020541690565b6040516001600160a01b039091168152602001610220565b6102c161033b3660046124ea565b6106fd565b61023c61034e366004612507565b610707565b6102506103613660046124ea565b6108fa565b6103796103743660046124ea565b610922565b60405163ffffffff9091168152602001610220565b61025061039c3660046124ea565b6001600160a01b031660009081526020819052604090205490565b6102c1610944565b6102c16103cd366004612464565b610958565b6102506103e03660046124ea565b61096d565b6009546001600160a01b0316610315565b6102506104043660046124d1565b61098b565b6102136109e7565b6102c16109f6565b6102506104273660046124d1565b610a06565b61025061043a3660046124ea565b610a31565b61023c61044d366004612464565b610ab8565b61023c610460366004612464565b610b33565b6102c16104733660046125b7565b610b41565b6102c1610486366004612611565b610c77565b610250610499366004612464565b610ddb565b6102506104ac36600461267f565b610e3c565b6104c46104bf3660046126b8565b610e67565b60408051825163ffffffff1681526020928301516001600160e01b03169281019290925201610220565b6102c16104fc3660046124ea565b610eeb565b606060038054610510906126ef565b80601f016020809104026020016040519081016040528092919081815260200182805461053c906126ef565b80156105895780601f1061055e57610100808354040283529160200191610589565b820191906000526020600020905b81548152906001019060200180831161056c57829003601f168201915b5050505050905090565b6000336105a1818585610f61565b60019150505b92915050565b6000336105bb858285611085565b6105c68585856110ff565b506001949350505050565b60006105db6112b4565b905090565b6000336105a18185856105f38383610e3c565b6105fd919061273a565b610f61565b60004382106106585760405162461bcd60e51b815260206004820152601f60248201527f4552433230566f7465733a20626c6f636b206e6f7420796574206d696e65640060448201526064015b60405180910390fd5b6001600160a01b0383166000908152600d6020526040902061067a90836113db565b9392505050565b6106896114d2565b610693828261152c565b5050565b6106a13382611536565b50565b6001600160a01b0382166000908152600560205260408120819081906106cb908590611540565b91509150816106f2576001600160a01b0385166000908152602081905260409020546106f4565b805b95945050505050565b6106a13382611637565b6000610712856108fa565b8411156107755760405162461bcd60e51b815260206004820152602b60248201527f4552433230466c6173684d696e743a20616d6f756e742065786365656473206d60448201526a30bc233630b9b42637b0b760a91b606482015260840161064f565b60006107818686610ddb565b905061078d878661152c565b6040516323e30c8b60e01b81527f439148f0bbc682ca079e46d6e2c2f0c1e3b820f1a291b069d8882abf8cf18dd9906001600160a01b038916906323e30c8b906107e59033908b908b9088908c908c90600401612752565b602060405180830381600087803b1580156107ff57600080fd5b505af1158015610813573d6000803e3d6000fd5b505050506040513d601f19601f8201168201806040525081019061083791906127ae565b146108905760405162461bcd60e51b8152602060048201526024808201527f4552433230466c6173684d696e743a20696e76616c69642072657475726e2076604482015263616c756560e01b606482015260840161064f565b60006108a688306108a1858a61273a565b611085565b8115806108ba57506001600160a01b038116155b156108d7576108d2886108cd848961273a565b611536565b6108ec565b6108e18887611536565b6108ec8882846110ff565b506001979650505050505050565b60006001600160a01b03821630146109135760006105a7565b6002546105a7906000196127c7565b6001600160a01b0381166000908152600d60205260408120546105a7906116b0565b61094c6114d2565b6109566000611719565b565b610963823383611085565b6106938282611536565b6001600160a01b0381166000908152600a60205260408120546105a7565b60004382106109dc5760405162461bcd60e51b815260206004820152601f60248201527f4552433230566f7465733a20626c6f636b206e6f7420796574206d696e656400604482015260640161064f565b6105a7600e836113db565b606060048054610510906126ef565b6109fe6114d2565b6106a161176b565b6000806000610a16846006611540565b9150915081610a2757600254610a29565b805b949350505050565b6001600160a01b0381166000908152600d60205260408120548015610aa5576001600160a01b0383166000908152600d60205260409020610a736001836127c7565b81548110610a8357610a836127de565b60009182526020909120015464010000000090046001600160e01b0316610aa8565b60005b6001600160e01b03169392505050565b60003381610ac68286610e3c565b905083811015610b265760405162461bcd60e51b815260206004820152602560248201527f45524332303a2064656372656173656420616c6c6f77616e63652062656c6f77604482015264207a65726f60d81b606482015260840161064f565b6105c68286868403610f61565b6000336105a18185856110ff565b83421115610b915760405162461bcd60e51b815260206004820152601d60248201527f4552433230566f7465733a207369676e61747572652065787069726564000000604482015260640161064f565b604080517fe48329057bfd03d55e49b547132e39cffd9c1820ad7b9d4c5307691425d15adf60208201526001600160a01b038816918101919091526060810186905260808101859052600090610c0b90610c039060a001604051602081830303815290604052805190602001206117c5565b858585611813565b9050610c168161183b565b8614610c645760405162461bcd60e51b815260206004820152601960248201527f4552433230566f7465733a20696e76616c6964206e6f6e636500000000000000604482015260640161064f565b610c6e8188611637565b50505050505050565b83421115610cc75760405162461bcd60e51b815260206004820152601d60248201527f45524332305065726d69743a206578706972656420646561646c696e65000000604482015260640161064f565b60007f6e71edae12b1b97f4d1f60370fef10105fa2faae0126114a169c64845d6126c9888888610cf68c61183b565b6040805160208101969096526001600160a01b0394851690860152929091166060840152608083015260a082015260c0810186905260e0016040516020818303038152906040528051906020012090506000610d51826117c5565b90506000610d6182878787611813565b9050896001600160a01b0316816001600160a01b031614610dc45760405162461bcd60e51b815260206004820152601e60248201527f45524332305065726d69743a20696e76616c6964207369676e61747572650000604482015260640161064f565b610dcf8a8a8a610f61565b50505050505050505050565b60006001600160a01b0383163014610e355760405162461bcd60e51b815260206004820152601b60248201527f4552433230466c6173684d696e743a2077726f6e6720746f6b656e0000000000604482015260640161064f565b600061067a565b6001600160a01b03918216600090815260016020908152604080832093909416825291909152205490565b60408051808201909152600080825260208201526001600160a01b0383166000908152600d60205260409020805463ffffffff8416908110610eab57610eab6127de565b60009182526020918290206040805180820190915291015463ffffffff8116825264010000000090046001600160e01b0316918101919091529392505050565b610ef36114d2565b6001600160a01b038116610f585760405162461bcd60e51b815260206004820152602660248201527f4f776e61626c653a206e6577206f776e657220697320746865207a65726f206160448201526564647265737360d01b606482015260840161064f565b6106a181611719565b6001600160a01b038316610fc35760405162461bcd60e51b8152602060048201526024808201527f45524332303a20617070726f76652066726f6d20746865207a65726f206164646044820152637265737360e01b606482015260840161064f565b6001600160a01b0382166110245760405162461bcd60e51b815260206004820152602260248201527f45524332303a20617070726f766520746f20746865207a65726f206164647265604482015261737360f01b606482015260840161064f565b6001600160a01b0383811660008181526001602090815260408083209487168084529482529182902085905590518481527f8c5be1e5ebec7d5bd14f71427d1e84f3dd0314c0f7b2291e5b200ac8c7c3b925910160405180910390a3505050565b60006110918484610e3c565b905060001981146110f957818110156110ec5760405162461bcd60e51b815260206004820152601d60248201527f45524332303a20696e73756666696369656e7420616c6c6f77616e6365000000604482015260640161064f565b6110f98484848403610f61565b50505050565b6001600160a01b0383166111635760405162461bcd60e51b815260206004820152602560248201527f45524332303a207472616e736665722066726f6d20746865207a65726f206164604482015264647265737360d81b606482015260840161064f565b6001600160a01b0382166111c55760405162461bcd60e51b815260206004820152602360248201527f45524332303a207472616e7366657220746f20746865207a65726f206164647260448201526265737360e81b606482015260840161064f565b6111d0838383611863565b6001600160a01b038316600090815260208190526040902054818110156112485760405162461bcd60e51b815260206004820152602660248201527f45524332303a207472616e7366657220616d6f756e7420657863656564732062604482015265616c616e636560d01b606482015260840161064f565b6001600160a01b03848116600081815260208181526040808320878703905593871680835291849020805487019055925185815290927fddf252ad1be2c89b69c2b068fc378daa952ba7f163c4a11628f55a4df523b3ef910160405180910390a36110f9848484611873565b6000306001600160a01b037f00000000000000000000000000000000000000000000000000000000000000001614801561130d57507f000000000000000000000000000000000000000000000000000000000000000046145b1561133757507f000000000000000000000000000000000000000000000000000000000000000090565b50604080517f00000000000000000000000000000000000000000000000000000000000000006020808301919091527f0000000000000000000000000000000000000000000000000000000000000000828401527f000000000000000000000000000000000000000000000000000000000000000060608301524660808301523060a0808401919091528351808403909101815260c0909201909252805191012090565b8154600090818160058111156114355760006113f68461187e565b61140090856127c7565b600088815260209020909150869082015463ffffffff16111561142557809150611433565b61143081600161273a565b92505b505b808210156114825760006114498383611963565b600088815260209020909150869082015463ffffffff16111561146e5780915061147c565b61147981600161273a565b92505b50611435565b80156114bc576114a5866114976001846127c7565b600091825260209091200190565b5464010000000090046001600160e01b03166114bf565b60005b6001600160e01b03169695505050505050565b6009546001600160a01b031633146109565760405162461bcd60e51b815260206004820181905260248201527f4f776e61626c653a2063616c6c6572206973206e6f7420746865206f776e6572604482015260640161064f565b610693828261197e565b6106938282611a08565b6000806000841161158c5760405162461bcd60e51b815260206004820152601660248201527504552433230536e617073686f743a20696420697320360541b604482015260640161064f565b611594611a20565b8411156115e35760405162461bcd60e51b815260206004820152601d60248201527f4552433230536e617073686f743a206e6f6e6578697374656e74206964000000604482015260640161064f565b60006115ef8486611a2b565b8454909150811415611608576000809250925050611630565b600184600101828154811061161f5761161f6127de565b906000526020600020015492509250505b9250929050565b6001600160a01b038281166000818152600c60208181526040808420805485845282862054949093528787166001600160a01b03198416811790915590519190951694919391928592917f3134e8a2e6d97e929a7e54011ea5485d7d196dd5f0ba4d4ef95803e8e3fc257f9190a46110f9828483611ac8565b600063ffffffff8211156117155760405162461bcd60e51b815260206004820152602660248201527f53616665436173743a2076616c756520646f65736e27742066697420696e203360448201526532206269747360d01b606482015260840161064f565b5090565b600980546001600160a01b038381166001600160a01b0319831681179093556040519116919082907f8be0079c531659141344cd1fd0a4f28419497f9722a3daafe3b4186f6b6457e090600090a35050565b600061177b600880546001019055565b6000611785611a20565b90507f8030e83b04d87bef53480e26263266d6ca66863aa8506aca6f2559d18aa1cb67816040516117b891815260200190565b60405180910390a1919050565b60006105a76117d26112b4565b8360405161190160f01b6020820152602281018390526042810182905260009060620160405160208183030381529060405280519060200120905092915050565b600080600061182487878787611c05565b9150915061183181611cc9565b5095945050505050565b6001600160a01b0381166000908152600a602052604090208054600181018255905b50919050565b61186e838383611e17565b505050565b61186e838383611e5f565b60008161188d57506000919050565b6000600161189a84611e91565b901c6001901b905060018184816118b3576118b36127f4565b048201901c905060018184816118cb576118cb6127f4565b048201901c905060018184816118e3576118e36127f4565b048201901c905060018184816118fb576118fb6127f4565b048201901c90506001818481611913576119136127f4565b048201901c9050600181848161192b5761192b6127f4565b048201901c90506001818481611943576119436127f4565b048201901c905061067a8182858161195d5761195d6127f4565b04611f25565b6000611972600284841861280a565b61067a9084841661273a565b6119888282611f3b565b6002546001600160e01b0310156119fa5760405162461bcd60e51b815260206004820152603060248201527f4552433230566f7465733a20746f74616c20737570706c79207269736b73206f60448201526f766572666c6f77696e6720766f74657360801b606482015260840161064f565b6110f9600e61200e8361201a565b611a12828261216e565b6110f9600e6122b38361201a565b60006105db60085490565b8154600090611a3c575060006105a7565b82546000905b80821015611a89576000611a568383611963565b60008781526020902090915085908201541115611a7557809150611a83565b611a8081600161273a565b92505b50611a42565b600082118015611aa7575083611aa4866114976001866127c7565b54145b15611ac057611ab76001836127c7565b925050506105a7565b5090506105a7565b816001600160a01b0316836001600160a01b031614158015611aea5750600081115b1561186e576001600160a01b03831615611b78576001600160a01b0383166000908152600d602052604081208190611b25906122b38561201a565b91509150846001600160a01b03167fdec2bacdd2f05b59de34da9b523dff8be42e5e38e818c82fdb0bae774387a7248383604051611b6d929190918252602082015260400190565b60405180910390a250505b6001600160a01b0382161561186e576001600160a01b0382166000908152600d602052604081208190611bae9061200e8561201a565b91509150836001600160a01b03167fdec2bacdd2f05b59de34da9b523dff8be42e5e38e818c82fdb0bae774387a7248383604051611bf6929190918252602082015260400190565b60405180910390a25050505050565b6000807f7fffffffffffffffffffffffffffffff5d576e7357a4501ddfe92f46681b20a0831115611c3c5750600090506003611cc0565b6040805160008082526020820180845289905260ff881692820192909252606081018690526080810185905260019060a0016020604051602081039080840390855afa158015611c90573d6000803e3d6000fd5b5050604051601f1901519150506001600160a01b038116611cb957600060019250925050611cc0565b9150600090505b94509492505050565b6000816004811115611cdd57611cdd61282c565b1415611ce65750565b6001816004811115611cfa57611cfa61282c565b1415611d485760405162461bcd60e51b815260206004820152601860248201527f45434453413a20696e76616c6964207369676e61747572650000000000000000604482015260640161064f565b6002816004811115611d5c57611d5c61282c565b1415611daa5760405162461bcd60e51b815260206004820152601f60248201527f45434453413a20696e76616c6964207369676e6174757265206c656e67746800604482015260640161064f565b6003816004811115611dbe57611dbe61282c565b14156106a15760405162461bcd60e51b815260206004820152602260248201527f45434453413a20696e76616c6964207369676e6174757265202773272076616c604482015261756560f01b606482015260840161064f565b6001600160a01b038316611e3657611e2e826122bf565b61186e6122f1565b6001600160a01b038216611e4d57611e2e836122bf565b611e56836122bf565b61186e826122bf565b6001600160a01b038381166000908152600c602052604080822054858416835291205461186e92918216911683611ac8565b600080608083901c15611ea657608092831c92015b604083901c15611eb857604092831c92015b602083901c15611eca57602092831c92015b601083901c15611edc57601092831c92015b600883901c15611eee57600892831c92015b600483901c15611f0057600492831c92015b600283901c15611f1257600292831c92015b600183901c156105a75760010192915050565b6000818310611f34578161067a565b5090919050565b6001600160a01b038216611f915760405162461bcd60e51b815260206004820152601f60248201527f45524332303a206d696e7420746f20746865207a65726f206164647265737300604482015260640161064f565b611f9d60008383611863565b8060026000828254611faf919061273a565b90915550506001600160a01b038216600081815260208181526040808320805486019055518481527fddf252ad1be2c89b69c2b068fc378daa952ba7f163c4a11628f55a4df523b3ef910160405180910390a361069360008383611873565b600061067a828461273a565b8254600090819081811561206757612037876114976001856127c7565b60408051808201909152905463ffffffff8116825264010000000090046001600160e01b0316602082015261207c565b60408051808201909152600080825260208201525b905080602001516001600160e01b0316935061209c84868863ffffffff16565b92506000821180156120b45750805163ffffffff1643145b156120f9576120c2836122ff565b6120d1886114976001866127c7565b80546001600160e01b03929092166401000000000263ffffffff909216919091179055612164565b86604051806040016040528061210e436116b0565b63ffffffff168152602001612122866122ff565b6001600160e01b0390811690915282546001810184556000938452602093849020835194909301519091166401000000000263ffffffff909316929092179101555b5050935093915050565b6001600160a01b0382166121ce5760405162461bcd60e51b815260206004820152602160248201527f45524332303a206275726e2066726f6d20746865207a65726f206164647265736044820152607360f81b606482015260840161064f565b6121da82600083611863565b6001600160a01b0382166000908152602081905260409020548181101561224e5760405162461bcd60e51b815260206004820152602260248201527f45524332303a206275726e20616d6f756e7420657863656564732062616c616e604482015261636560f01b606482015260840161064f565b6001600160a01b0383166000818152602081815260408083208686039055600280548790039055518581529192917fddf252ad1be2c89b69c2b068fc378daa952ba7f163c4a11628f55a4df523b3ef910160405180910390a361186e83600084611873565b600061067a82846127c7565b6001600160a01b038116600090815260056020908152604080832091839052909120546106a19190612368565b612368565b61095660066122ec60025490565b60006001600160e01b038211156117155760405162461bcd60e51b815260206004820152602760248201527f53616665436173743a2076616c756520646f65736e27742066697420696e20326044820152663234206269747360c81b606482015260840161064f565b6000612372611a20565b90508061237e846123b2565b101561186e578254600180820185556000858152602080822090930193909355938401805494850181558252902090910155565b80546000906123c357506000919050565b815482906123d3906001906127c7565b815481106123e3576123e36127de565b90600052602060002001549050919050565b919050565b600060208083528351808285015260005b818110156124275785810183015185820160400152820161240b565b81811115612439576000604083870101525b50601f01601f1916929092016040019392505050565b6001600160a01b03811681146106a157600080fd5b6000806040838503121561247757600080fd5b82356124828161244f565b946020939093013593505050565b6000806000606084860312156124a557600080fd5b83356124b08161244f565b925060208401356124c08161244f565b929592945050506040919091013590565b6000602082840312156124e357600080fd5b5035919050565b6000602082840312156124fc57600080fd5b813561067a8161244f565b60008060008060006080868803121561251f57600080fd5b853561252a8161244f565b9450602086013561253a8161244f565b935060408601359250606086013567ffffffffffffffff8082111561255e57600080fd5b818801915088601f83011261257257600080fd5b81358181111561258157600080fd5b89602082850101111561259357600080fd5b9699959850939650602001949392505050565b803560ff811681146123f557600080fd5b60008060008060008060c087890312156125d057600080fd5b86356125db8161244f565b955060208701359450604087013593506125f7606088016125a6565b92506080870135915060a087013590509295509295509295565b600080600080600080600060e0888a03121561262c57600080fd5b87356126378161244f565b965060208801356126478161244f565b95506040880135945060608801359350612663608089016125a6565b925060a0880135915060c0880135905092959891949750929550565b6000806040838503121561269257600080fd5b823561269d8161244f565b915060208301356126ad8161244f565b809150509250929050565b600080604083850312156126cb57600080fd5b82356126d68161244f565b9150602083013563ffffffff811681146126ad57600080fd5b600181811c9082168061270357607f821691505b6020821081141561185d57634e487b7160e01b600052602260045260246000fd5b634e487b7160e01b600052601160045260246000fd5b6000821982111561274d5761274d612724565b500190565b6001600160a01b03878116825286166020820152604081018590526060810184905260a06080820181905281018290526000828460c0840137600060c0848401015260c0601f19601f8501168301019050979650505050505050565b6000602082840312156127c057600080fd5b5051919050565b6000828210156127d9576127d9612724565b500390565b634e487b7160e01b600052603260045260246000fd5b634e487b7160e01b600052601260045260246000fd5b60008261282757634e487b7160e01b600052601260045260246000fd5b500490565b634e487b7160e01b600052602160045260246000fdfea26469706673582212200e3b80261c7600504157c0c024c01b51fe29b4facf82e612fa9388ac23c10f7f64736f6c63430008090033",
  "linkReferences": {},
  "deployedLinkReferences": {}
}