{
  "_format": "hh-sol-artifact-1",
  "contractName": "MeltyFiDAO",
  "sourceName": "contracts/MeltyFiDAO.sol",
  "abi": [
    {
      "inputs": [
        {
          "internalType": "contract IVotes",
          "name": "_token",
          "type": "address"
        },
        {
          "internalType": "contract TimelockController",
          "name": "_timelock",
          "type": "address"
        }
      ],
      "stateMutability": "nonpayable",
      "type": "constructor"
    },
    {
      "inputs": [],
      "name": "Empty",
      "type": "error"
    },
    {
      "anonymous": false,
      "inputs": [
        {
          "indexed": false,
          "internalType": "uint256",
          "name": "proposalId",
          "type": "uint256"
        }
      ],
      "name": "ProposalCanceled",
      "type": "event"
    },
    {
      "anonymous": false,
      "inputs": [
        {
          "indexed": false,
          "internalType": "uint256",
          "name": "proposalId",
          "type": "uint256"
        },
        {
          "indexed": false,
          "internalType": "address",
          "name": "proposer",
          "type": "address"
        },
        {
          "indexed": false,
          "internalType": "address[]",
          "name": "targets",
          "type": "address[]"
        },
        {
          "indexed": false,
          "internalType": "uint256[]",
          "name": "values",
          "type": "uint256[]"
        },
        {
          "indexed": false,
          "internalType": "string[]",
          "name": "signatures",
          "type": "string[]"
        },
        {
          "indexed": false,
          "internalType": "bytes[]",
          "name": "calldatas",
          "type": "bytes[]"
        },
        {
          "indexed": false,
          "internalType": "uint256",
          "name": "startBlock",
          "type": "uint256"
        },
        {
          "indexed": false,
          "internalType": "uint256",
          "name": "endBlock",
          "type": "uint256"
        },
        {
          "indexed": false,
          "internalType": "string",
          "name": "description",
          "type": "string"
        }
      ],
      "name": "ProposalCreated",
      "type": "event"
    },
    {
      "anonymous": false,
      "inputs": [
        {
          "indexed": false,
          "internalType": "uint256",
          "name": "proposalId",
          "type": "uint256"
        }
      ],
      "name": "ProposalExecuted",
      "type": "event"
    },
    {
      "anonymous": false,
      "inputs": [
        {
          "indexed": false,
          "internalType": "uint256",
          "name": "proposalId",
          "type": "uint256"
        },
        {
          "indexed": false,
          "internalType": "uint256",
          "name": "eta",
          "type": "uint256"
        }
      ],
      "name": "ProposalQueued",
      "type": "event"
    },
    {
      "anonymous": false,
      "inputs": [
        {
          "indexed": false,
          "internalType": "uint256",
          "name": "oldProposalThreshold",
          "type": "uint256"
        },
        {
          "indexed": false,
          "internalType": "uint256",
          "name": "newProposalThreshold",
          "type": "uint256"
        }
      ],
      "name": "ProposalThresholdSet",
      "type": "event"
    },
    {
      "anonymous": false,
      "inputs": [
        {
          "indexed": false,
          "internalType": "uint256",
          "name": "oldQuorumNumerator",
          "type": "uint256"
        },
        {
          "indexed": false,
          "internalType": "uint256",
          "name": "newQuorumNumerator",
          "type": "uint256"
        }
      ],
      "name": "QuorumNumeratorUpdated",
      "type": "event"
    },
    {
      "anonymous": false,
      "inputs": [
        {
          "indexed": false,
          "internalType": "address",
          "name": "oldTimelock",
          "type": "address"
        },
        {
          "indexed": false,
          "internalType": "address",
          "name": "newTimelock",
          "type": "address"
        }
      ],
      "name": "TimelockChange",
      "type": "event"
    },
    {
      "anonymous": false,
      "inputs": [
        {
          "indexed": true,
          "internalType": "address",
          "name": "voter",
          "type": "address"
        },
        {
          "indexed": false,
          "internalType": "uint256",
          "name": "proposalId",
          "type": "uint256"
        },
        {
          "indexed": false,
          "internalType": "uint8",
          "name": "support",
          "type": "uint8"
        },
        {
          "indexed": false,
          "internalType": "uint256",
          "name": "weight",
          "type": "uint256"
        },
        {
          "indexed": false,
          "internalType": "string",
          "name": "reason",
          "type": "string"
        }
      ],
      "name": "VoteCast",
      "type": "event"
    },
    {
      "anonymous": false,
      "inputs": [
        {
          "indexed": true,
          "internalType": "address",
          "name": "voter",
          "type": "address"
        },
        {
          "indexed": false,
          "internalType": "uint256",
          "name": "proposalId",
          "type": "uint256"
        },
        {
          "indexed": false,
          "internalType": "uint8",
          "name": "support",
          "type": "uint8"
        },
        {
          "indexed": false,
          "internalType": "uint256",
          "name": "weight",
          "type": "uint256"
        },
        {
          "indexed": false,
          "internalType": "string",
          "name": "reason",
          "type": "string"
        },
        {
          "indexed": false,
          "internalType": "bytes",
          "name": "params",
          "type": "bytes"
        }
      ],
      "name": "VoteCastWithParams",
      "type": "event"
    },
    {
      "anonymous": false,
      "inputs": [
        {
          "indexed": false,
          "internalType": "uint256",
          "name": "oldVotingDelay",
          "type": "uint256"
        },
        {
          "indexed": false,
          "internalType": "uint256",
          "name": "newVotingDelay",
          "type": "uint256"
        }
      ],
      "name": "VotingDelaySet",
      "type": "event"
    },
    {
      "anonymous": false,
      "inputs": [
        {
          "indexed": false,
          "internalType": "uint256",
          "name": "oldVotingPeriod",
          "type": "uint256"
        },
        {
          "indexed": false,
          "internalType": "uint256",
          "name": "newVotingPeriod",
          "type": "uint256"
        }
      ],
      "name": "VotingPeriodSet",
      "type": "event"
    },
    {
      "inputs": [],
      "name": "BALLOT_TYPEHASH",
      "outputs": [
        {
          "internalType": "bytes32",
          "name": "",
          "type": "bytes32"
        }
      ],
      "stateMutability": "view",
      "type": "function"
    },
    {
      "inputs": [],
      "name": "COUNTING_MODE",
      "outputs": [
        {
          "internalType": "string",
          "name": "",
          "type": "string"
        }
      ],
      "stateMutability": "pure",
      "type": "function"
    },
    {
      "inputs": [],
      "name": "EXTENDED_BALLOT_TYPEHASH",
      "outputs": [
        {
          "internalType": "bytes32",
          "name": "",
          "type": "bytes32"
        }
      ],
      "stateMutability": "view",
      "type": "function"
    },
    {
      "inputs": [
        {
          "internalType": "uint256",
          "name": "proposalId",
          "type": "uint256"
        }
      ],
      "name": "cancel",
      "outputs": [],
      "stateMutability": "nonpayable",
      "type": "function"
    },
    {
      "inputs": [
        {
          "internalType": "uint256",
          "name": "proposalId",
          "type": "uint256"
        },
        {
          "internalType": "uint8",
          "name": "support",
          "type": "uint8"
        }
      ],
      "name": "castVote",
      "outputs": [
        {
          "internalType": "uint256",
          "name": "",
          "type": "uint256"
        }
      ],
      "stateMutability": "nonpayable",
      "type": "function"
    },
    {
      "inputs": [
        {
          "internalType": "uint256",
          "name": "proposalId",
          "type": "uint256"
        },
        {
          "internalType": "uint8",
          "name": "support",
          "type": "uint8"
        },
        {
          "internalType": "uint8",
          "name": "v",
          "type": "uint8"
        },
        {
          "internalType": "bytes32",
          "name": "r",
          "type": "bytes32"
        },
        {
          "internalType": "bytes32",
          "name": "s",
          "type": "bytes32"
        }
      ],
      "name": "castVoteBySig",
      "outputs": [
        {
          "internalType": "uint256",
          "name": "",
          "type": "uint256"
        }
      ],
      "stateMutability": "nonpayable",
      "type": "function"
    },
    {
      "inputs": [
        {
          "internalType": "uint256",
          "name": "proposalId",
          "type": "uint256"
        },
        {
          "internalType": "uint8",
          "name": "support",
          "type": "uint8"
        },
        {
          "internalType": "string",
          "name": "reason",
          "type": "string"
        }
      ],
      "name": "castVoteWithReason",
      "outputs": [
        {
          "internalType": "uint256",
          "name": "",
          "type": "uint256"
        }
      ],
      "stateMutability": "nonpayable",
      "type": "function"
    },
    {
      "inputs": [
        {
          "internalType": "uint256",
          "name": "proposalId",
          "type": "uint256"
        },
        {
          "internalType": "uint8",
          "name": "support",
          "type": "uint8"
        },
        {
          "internalType": "string",
          "name": "reason",
          "type": "string"
        },
        {
          "internalType": "bytes",
          "name": "params",
          "type": "bytes"
        }
      ],
      "name": "castVoteWithReasonAndParams",
      "outputs": [
        {
          "internalType": "uint256",
          "name": "",
          "type": "uint256"
        }
      ],
      "stateMutability": "nonpayable",
      "type": "function"
    },
    {
      "inputs": [
        {
          "internalType": "uint256",
          "name": "proposalId",
          "type": "uint256"
        },
        {
          "internalType": "uint8",
          "name": "support",
          "type": "uint8"
        },
        {
          "internalType": "string",
          "name": "reason",
          "type": "string"
        },
        {
          "internalType": "bytes",
          "name": "params",
          "type": "bytes"
        },
        {
          "internalType": "uint8",
          "name": "v",
          "type": "uint8"
        },
        {
          "internalType": "bytes32",
          "name": "r",
          "type": "bytes32"
        },
        {
          "internalType": "bytes32",
          "name": "s",
          "type": "bytes32"
        }
      ],
      "name": "castVoteWithReasonAndParamsBySig",
      "outputs": [
        {
          "internalType": "uint256",
          "name": "",
          "type": "uint256"
        }
      ],
      "stateMutability": "nonpayable",
      "type": "function"
    },
    {
      "inputs": [
        {
          "internalType": "address[]",
          "name": "targets",
          "type": "address[]"
        },
        {
          "internalType": "uint256[]",
          "name": "values",
          "type": "uint256[]"
        },
        {
          "internalType": "bytes[]",
          "name": "calldatas",
          "type": "bytes[]"
        },
        {
          "internalType": "bytes32",
          "name": "descriptionHash",
          "type": "bytes32"
        }
      ],
      "name": "execute",
      "outputs": [
        {
          "internalType": "uint256",
          "name": "",
          "type": "uint256"
        }
      ],
      "stateMutability": "payable",
      "type": "function"
    },
    {
      "inputs": [
        {
          "internalType": "uint256",
          "name": "proposalId",
          "type": "uint256"
        }
      ],
      "name": "execute",
      "outputs": [],
      "stateMutability": "payable",
      "type": "function"
    },
    {
      "inputs": [
        {
          "internalType": "uint256",
          "name": "proposalId",
          "type": "uint256"
        }
      ],
      "name": "getActions",
      "outputs": [
        {
          "internalType": "address[]",
          "name": "targets",
          "type": "address[]"
        },
        {
          "internalType": "uint256[]",
          "name": "values",
          "type": "uint256[]"
        },
        {
          "internalType": "string[]",
          "name": "signatures",
          "type": "string[]"
        },
        {
          "internalType": "bytes[]",
          "name": "calldatas",
          "type": "bytes[]"
        }
      ],
      "stateMutability": "view",
      "type": "function"
    },
    {
      "inputs": [
        {
          "internalType": "uint256",
          "name": "proposalId",
          "type": "uint256"
        },
        {
          "internalType": "address",
          "name": "voter",
          "type": "address"
        }
      ],
      "name": "getReceipt",
      "outputs": [
        {
          "components": [
            {
              "internalType": "bool",
              "name": "hasVoted",
              "type": "bool"
            },
            {
              "internalType": "uint8",
              "name": "support",
              "type": "uint8"
            },
            {
              "internalType": "uint96",
              "name": "votes",
              "type": "uint96"
            }
          ],
          "internalType": "struct IGovernorCompatibilityBravo.Receipt",
          "name": "",
          "type": "tuple"
        }
      ],
      "stateMutability": "view",
      "type": "function"
    },
    {
      "inputs": [
        {
          "internalType": "address",
          "name": "account",
          "type": "address"
        },
        {
          "internalType": "uint256",
          "name": "blockNumber",
          "type": "uint256"
        }
      ],
      "name": "getVotes",
      "outputs": [
        {
          "internalType": "uint256",
          "name": "",
          "type": "uint256"
        }
      ],
      "stateMutability": "view",
      "type": "function"
    },
    {
      "inputs": [
        {
          "internalType": "address",
          "name": "account",
          "type": "address"
        },
        {
          "internalType": "uint256",
          "name": "blockNumber",
          "type": "uint256"
        },
        {
          "internalType": "bytes",
          "name": "params",
          "type": "bytes"
        }
      ],
      "name": "getVotesWithParams",
      "outputs": [
        {
          "internalType": "uint256",
          "name": "",
          "type": "uint256"
        }
      ],
      "stateMutability": "view",
      "type": "function"
    },
    {
      "inputs": [
        {
          "internalType": "uint256",
          "name": "proposalId",
          "type": "uint256"
        },
        {
          "internalType": "address",
          "name": "account",
          "type": "address"
        }
      ],
      "name": "hasVoted",
      "outputs": [
        {
          "internalType": "bool",
          "name": "",
          "type": "bool"
        }
      ],
      "stateMutability": "view",
      "type": "function"
    },
    {
      "inputs": [
        {
          "internalType": "address[]",
          "name": "targets",
          "type": "address[]"
        },
        {
          "internalType": "uint256[]",
          "name": "values",
          "type": "uint256[]"
        },
        {
          "internalType": "bytes[]",
          "name": "calldatas",
          "type": "bytes[]"
        },
        {
          "internalType": "bytes32",
          "name": "descriptionHash",
          "type": "bytes32"
        }
      ],
      "name": "hashProposal",
      "outputs": [
        {
          "internalType": "uint256",
          "name": "",
          "type": "uint256"
        }
      ],
      "stateMutability": "pure",
      "type": "function"
    },
    {
      "inputs": [],
      "name": "name",
      "outputs": [
        {
          "internalType": "string",
          "name": "",
          "type": "string"
        }
      ],
      "stateMutability": "view",
      "type": "function"
    },
    {
      "inputs": [
        {
          "internalType": "address",
          "name": "",
          "type": "address"
        },
        {
          "internalType": "address",
          "name": "",
          "type": "address"
        },
        {
          "internalType": "uint256[]",
          "name": "",
          "type": "uint256[]"
        },
        {
          "internalType": "uint256[]",
          "name": "",
          "type": "uint256[]"
        },
        {
          "internalType": "bytes",
          "name": "",
          "type": "bytes"
        }
      ],
      "name": "onERC1155BatchReceived",
      "outputs": [
        {
          "internalType": "bytes4",
          "name": "",
          "type": "bytes4"
        }
      ],
      "stateMutability": "nonpayable",
      "type": "function"
    },
    {
      "inputs": [
        {
          "internalType": "address",
          "name": "",
          "type": "address"
        },
        {
          "internalType": "address",
          "name": "",
          "type": "address"
        },
        {
          "internalType": "uint256",
          "name": "",
          "type": "uint256"
        },
        {
          "internalType": "uint256",
          "name": "",
          "type": "uint256"
        },
        {
          "internalType": "bytes",
          "name": "",
          "type": "bytes"
        }
      ],
      "name": "onERC1155Received",
      "outputs": [
        {
          "internalType": "bytes4",
          "name": "",
          "type": "bytes4"
        }
      ],
      "stateMutability": "nonpayable",
      "type": "function"
    },
    {
      "inputs": [
        {
          "internalType": "address",
          "name": "",
          "type": "address"
        },
        {
          "internalType": "address",
          "name": "",
          "type": "address"
        },
        {
          "internalType": "uint256",
          "name": "",
          "type": "uint256"
        },
        {
          "internalType": "bytes",
          "name": "",
          "type": "bytes"
        }
      ],
      "name": "onERC721Received",
      "outputs": [
        {
          "internalType": "bytes4",
          "name": "",
          "type": "bytes4"
        }
      ],
      "stateMutability": "nonpayable",
      "type": "function"
    },
    {
      "inputs": [
        {
          "internalType": "uint256",
          "name": "proposalId",
          "type": "uint256"
        }
      ],
      "name": "proposalDeadline",
      "outputs": [
        {
          "internalType": "uint256",
          "name": "",
          "type": "uint256"
        }
      ],
      "stateMutability": "view",
      "type": "function"
    },
    {
      "inputs": [
        {
          "internalType": "uint256",
          "name": "proposalId",
          "type": "uint256"
        }
      ],
      "name": "proposalEta",
      "outputs": [
        {
          "internalType": "uint256",
          "name": "",
          "type": "uint256"
        }
      ],
      "stateMutability": "view",
      "type": "function"
    },
    {
      "inputs": [
        {
          "internalType": "uint256",
          "name": "proposalId",
          "type": "uint256"
        }
      ],
      "name": "proposalSnapshot",
      "outputs": [
        {
          "internalType": "uint256",
          "name": "",
          "type": "uint256"
        }
      ],
      "stateMutability": "view",
      "type": "function"
    },
    {
      "inputs": [],
      "name": "proposalThreshold",
      "outputs": [
        {
          "internalType": "uint256",
          "name": "",
          "type": "uint256"
        }
      ],
      "stateMutability": "view",
      "type": "function"
    },
    {
      "inputs": [
        {
          "internalType": "uint256",
          "name": "proposalId",
          "type": "uint256"
        }
      ],
      "name": "proposals",
      "outputs": [
        {
          "internalType": "uint256",
          "name": "id",
          "type": "uint256"
        },
        {
          "internalType": "address",
          "name": "proposer",
          "type": "address"
        },
        {
          "internalType": "uint256",
          "name": "eta",
          "type": "uint256"
        },
        {
          "internalType": "uint256",
          "name": "startBlock",
          "type": "uint256"
        },
        {
          "internalType": "uint256",
          "name": "endBlock",
          "type": "uint256"
        },
        {
          "internalType": "uint256",
          "name": "forVotes",
          "type": "uint256"
        },
        {
          "internalType": "uint256",
          "name": "againstVotes",
          "type": "uint256"
        },
        {
          "internalType": "uint256",
          "name": "abstainVotes",
          "type": "uint256"
        },
        {
          "internalType": "bool",
          "name": "canceled",
          "type": "bool"
        },
        {
          "internalType": "bool",
          "name": "executed",
          "type": "bool"
        }
      ],
      "stateMutability": "view",
      "type": "function"
    },
    {
      "inputs": [
        {
          "internalType": "address[]",
          "name": "targets",
          "type": "address[]"
        },
        {
          "internalType": "uint256[]",
          "name": "values",
          "type": "uint256[]"
        },
        {
          "internalType": "bytes[]",
          "name": "calldatas",
          "type": "bytes[]"
        },
        {
          "internalType": "string",
          "name": "description",
          "type": "string"
        }
      ],
      "name": "propose",
      "outputs": [
        {
          "internalType": "uint256",
          "name": "",
          "type": "uint256"
        }
      ],
      "stateMutability": "nonpayable",
      "type": "function"
    },
    {
      "inputs": [
        {
          "internalType": "address[]",
          "name": "targets",
          "type": "address[]"
        },
        {
          "internalType": "uint256[]",
          "name": "values",
          "type": "uint256[]"
        },
        {
          "internalType": "string[]",
          "name": "signatures",
          "type": "string[]"
        },
        {
          "internalType": "bytes[]",
          "name": "calldatas",
          "type": "bytes[]"
        },
        {
          "internalType": "string",
          "name": "description",
          "type": "string"
        }
      ],
      "name": "propose",
      "outputs": [
        {
          "internalType": "uint256",
          "name": "",
          "type": "uint256"
        }
      ],
      "stateMutability": "nonpayable",
      "type": "function"
    },
    {
      "inputs": [
        {
          "internalType": "address[]",
          "name": "targets",
          "type": "address[]"
        },
        {
          "internalType": "uint256[]",
          "name": "values",
          "type": "uint256[]"
        },
        {
          "internalType": "bytes[]",
          "name": "calldatas",
          "type": "bytes[]"
        },
        {
          "internalType": "bytes32",
          "name": "descriptionHash",
          "type": "bytes32"
        }
      ],
      "name": "queue",
      "outputs": [
        {
          "internalType": "uint256",
          "name": "",
          "type": "uint256"
        }
      ],
      "stateMutability": "nonpayable",
      "type": "function"
    },
    {
      "inputs": [
        {
          "internalType": "uint256",
          "name": "proposalId",
          "type": "uint256"
        }
      ],
      "name": "queue",
      "outputs": [],
      "stateMutability": "nonpayable",
      "type": "function"
    },
    {
      "inputs": [
        {
          "internalType": "uint256",
          "name": "blockNumber",
          "type": "uint256"
        }
      ],
      "name": "quorum",
      "outputs": [
        {
          "internalType": "uint256",
          "name": "",
          "type": "uint256"
        }
      ],
      "stateMutability": "view",
      "type": "function"
    },
    {
      "inputs": [],
      "name": "quorumDenominator",
      "outputs": [
        {
          "internalType": "uint256",
          "name": "",
          "type": "uint256"
        }
      ],
      "stateMutability": "view",
      "type": "function"
    },
    {
      "inputs": [
        {
          "internalType": "uint256",
          "name": "blockNumber",
          "type": "uint256"
        }
      ],
      "name": "quorumNumerator",
      "outputs": [
        {
          "internalType": "uint256",
          "name": "",
          "type": "uint256"
        }
      ],
      "stateMutability": "view",
      "type": "function"
    },
    {
      "inputs": [],
      "name": "quorumNumerator",
      "outputs": [
        {
          "internalType": "uint256",
          "name": "",
          "type": "uint256"
        }
      ],
      "stateMutability": "view",
      "type": "function"
    },
    {
      "inputs": [],
      "name": "quorumVotes",
      "outputs": [
        {
          "internalType": "uint256",
          "name": "",
          "type": "uint256"
        }
      ],
      "stateMutability": "view",
      "type": "function"
    },
    {
      "inputs": [
        {
          "internalType": "address",
          "name": "target",
          "type": "address"
        },
        {
          "internalType": "uint256",
          "name": "value",
          "type": "uint256"
        },
        {
          "internalType": "bytes",
          "name": "data",
          "type": "bytes"
        }
      ],
      "name": "relay",
      "outputs": [],
      "stateMutability": "payable",
      "type": "function"
    },
    {
      "inputs": [
        {
          "internalType": "uint256",
          "name": "newProposalThreshold",
          "type": "uint256"
        }
      ],
      "name": "setProposalThreshold",
      "outputs": [],
      "stateMutability": "nonpayable",
      "type": "function"
    },
    {
      "inputs": [
        {
          "internalType": "uint256",
          "name": "newVotingDelay",
          "type": "uint256"
        }
      ],
      "name": "setVotingDelay",
      "outputs": [],
      "stateMutability": "nonpayable",
      "type": "function"
    },
    {
      "inputs": [
        {
          "internalType": "uint256",
          "name": "newVotingPeriod",
          "type": "uint256"
        }
      ],
      "name": "setVotingPeriod",
      "outputs": [],
      "stateMutability": "nonpayable",
      "type": "function"
    },
    {
      "inputs": [
        {
          "internalType": "uint256",
          "name": "proposalId",
          "type": "uint256"
        }
      ],
      "name": "state",
      "outputs": [
        {
          "internalType": "enum IGovernor.ProposalState",
          "name": "",
          "type": "uint8"
        }
      ],
      "stateMutability": "view",
      "type": "function"
    },
    {
      "inputs": [
        {
          "internalType": "bytes4",
          "name": "interfaceId",
          "type": "bytes4"
        }
      ],
      "name": "supportsInterface",
      "outputs": [
        {
          "internalType": "bool",
          "name": "",
          "type": "bool"
        }
      ],
      "stateMutability": "view",
      "type": "function"
    },
    {
      "inputs": [],
      "name": "timelock",
      "outputs": [
        {
          "internalType": "address",
          "name": "",
          "type": "address"
        }
      ],
      "stateMutability": "view",
      "type": "function"
    },
    {
      "inputs": [],
      "name": "token",
      "outputs": [
        {
          "internalType": "contract IVotes",
          "name": "",
          "type": "address"
        }
      ],
      "stateMutability": "view",
      "type": "function"
    },
    {
      "inputs": [
        {
          "internalType": "uint256",
          "name": "newQuorumNumerator",
          "type": "uint256"
        }
      ],
      "name": "updateQuorumNumerator",
      "outputs": [],
      "stateMutability": "nonpayable",
      "type": "function"
    },
    {
      "inputs": [
        {
          "internalType": "contract TimelockController",
          "name": "newTimelock",
          "type": "address"
        }
      ],
      "name": "updateTimelock",
      "outputs": [],
      "stateMutability": "nonpayable",
      "type": "function"
    },
    {
      "inputs": [],
      "name": "version",
      "outputs": [
        {
          "internalType": "string",
          "name": "",
          "type": "string"
        }
      ],
      "stateMutability": "view",
      "type": "function"
    },
    {
      "inputs": [],
      "name": "votingDelay",
      "outputs": [
        {
          "internalType": "uint256",
          "name": "",
          "type": "uint256"
        }
      ],
      "stateMutability": "view",
      "type": "function"
    },
    {
      "inputs": [],
      "name": "votingPeriod",
      "outputs": [
        {
          "internalType": "uint256",
          "name": "",
          "type": "uint256"
        }
      ],
      "stateMutability": "view",
      "type": "function"
    },
    {
      "stateMutability": "payable",
      "type": "receive"
    }
  ],
  "bytecode": "0x6101606040523480156200001257600080fd5b5060405162009b6b38038062009b6b833981810160405281019062000038919062000d69565b80600483600161c4e060006040518060400160405280600b81526020017f4d656c747946692044414f000000000000000000000000000000000000000000815250806200008a620001ee60201b60201c565b60008280519060200120905060008280519060200120905060007f8b73c3c69bb8fe3d512ecc4cf759cc79239f7b179b0ffacaa9a75d522b39400f90508260e081815250508161010081815250504660a08181525050620000f38184846200022b60201b60201c565b608081815250503073ffffffffffffffffffffffffffffffffffffffff1660c08173ffffffffffffffffffffffffffffffffffffffff1681525050806101208181525050505050505080600090805190602001906200015492919062000be2565b505062000167836200026760201b60201c565b6200017882620002ae60201b60201c565b62000189816200033b60201b60201c565b5050508073ffffffffffffffffffffffffffffffffffffffff166101408173ffffffffffffffffffffffffffffffffffffffff168152505050620001d3816200038260201b60201c565b50620001e5816200056160201b60201c565b50505062001286565b60606040518060400160405280600181526020017f3100000000000000000000000000000000000000000000000000000000000000815250905090565b600083838346306040516020016200024895949392919062000df7565b6040516020818303038152906040528051906020012090509392505050565b7fc565b045403dc03c2eea82b81a0465edad9e2e7fc4d97e11421c209da93d7a93600454826040516200029c92919062000e54565b60405180910390a18060048190555050565b60008111620002f4576040517f08c379a0000000000000000000000000000000000000000000000000000000008152600401620002eb9062000f08565b60405180910390fd5b7f7e3f7f0708a84de9203036abaa450dccc85ad5ff52f78c170f3edb55cf5e8828600554826040516200032992919062000e54565b60405180910390a18060058190555050565b7fccb45da8d5717e6c4544694297c4ba5cf151d455c9bb0ed4fc7a38411bc05461600654826040516200037092919062000e54565b60405180910390a18060068190555050565b620003926200060260201b60201c565b811115620003d7576040517f08c379a0000000000000000000000000000000000000000000000000000000008152600401620003ce9062000fc6565b60405180910390fd5b6000620003e96200060b60201b60201c565b9050600081141580156200040557506000600960000180549050145b15620005055760096000016040518060400160405280600063ffffffff1681526020016200043e846200066160201b62002e301760201c565b7bffffffffffffffffffffffffffffffffffffffffffffffffffffffff168152509080600181540180825580915050600190039060005260206000200160009091909190915060008201518160000160006101000a81548163ffffffff021916908363ffffffff16021790555060208201518160000160046101000a8154817bffffffffffffffffffffffffffffffffffffffffffffffffffffffff02191690837bffffffffffffffffffffffffffffffffffffffffffffffffffffffff16021790555050505b62000520826009620006cf60201b62002e9b1790919060201c565b50507f0553476bf02ef2726e8ce5ced78d63e26e602e4a2257b1f559418e24b463399781836040516200055592919062000e54565b60405180910390a15050565b7f08f74ea46ef7894f65eabfb5e6e695de773a000b47c529ab559178069b226401600a60009054906101000a900473ffffffffffffffffffffffffffffffffffffffff1682604051620005b692919062000fe8565b60405180910390a180600a60006101000a81548173ffffffffffffffffffffffffffffffffffffffff021916908373ffffffffffffffffffffffffffffffffffffffff16021790555050565b60006064905090565b6000806009600001805490501462000658576200063460096200075f60201b62002f091760201c565b7bffffffffffffffffffffffffffffffffffffffffffffffffffffffff166200065c565b6008545b905090565b60007bffffffffffffffffffffffffffffffffffffffffffffffffffffffff8016821115620006c7576040517f08c379a0000000000000000000000000000000000000000000000000000000008152600401620006be906200108b565b60405180910390fd5b819050919050565b6000806200071284600001620006f043620007d560201b62002f731760201c565b62000706866200066160201b62002e301760201c565b6200082b60201b60201c565b817bffffffffffffffffffffffffffffffffffffffffffffffffffffffff169150807bffffffffffffffffffffffffffffffffffffffffffffffffffffffff169050915091509250929050565b6000808260000180549050905060008114620007ca5762000798836000016001836200078c9190620010dc565b62000bcd60201b60201c565b60000160049054906101000a90047bffffffffffffffffffffffffffffffffffffffffffffffffffffffff16620007cd565b60005b915050919050565b600063ffffffff801682111562000823576040517f08c379a00000000000000000000000000000000000000000000000000000000081526004016200081a906200118d565b60405180910390fd5b819050919050565b600080600085805490509050600081111562000add5760006200086387600184620008579190620010dc565b62000bcd60201b60201c565b6040518060400160405290816000820160009054906101000a900463ffffffff1663ffffffff1663ffffffff1681526020016000820160049054906101000a90047bffffffffffffffffffffffffffffffffffffffffffffffffffffffff167bffffffffffffffffffffffffffffffffffffffffffffffffffffffff167bffffffffffffffffffffffffffffffffffffffffffffffffffffffff168152505090508563ffffffff16816000015163ffffffff1611156200095a576040517f08c379a00000000000000000000000000000000000000000000000000000000081526004016200095190620011ff565b60405180910390fd5b8563ffffffff16816000015163ffffffff161415620009eb57846200099488600185620009889190620010dc565b62000bcd60201b60201c565b60000160046101000a8154817bffffffffffffffffffffffffffffffffffffffffffffffffffffffff02191690837bffffffffffffffffffffffffffffffffffffffffffffffffffffffff16021790555062000acb565b8660405180604001604052808863ffffffff168152602001877bffffffffffffffffffffffffffffffffffffffffffffffffffffffff168152509080600181540180825580915050600190039060005260206000200160009091909190915060008201518160000160006101000a81548163ffffffff021916908363ffffffff16021790555060208201518160000160046101000a8154817bffffffffffffffffffffffffffffffffffffffffffffffffffffffff02191690837bffffffffffffffffffffffffffffffffffffffffffffffffffffffff16021790555050505b80602001518593509350505062000bc5565b8560405180604001604052808763ffffffff168152602001867bffffffffffffffffffffffffffffffffffffffffffffffffffffffff168152509080600181540180825580915050600190039060005260206000200160009091909190915060008201518160000160006101000a81548163ffffffff021916908363ffffffff16021790555060208201518160000160046101000a8154817bffffffffffffffffffffffffffffffffffffffffffffffffffffffff02191690837bffffffffffffffffffffffffffffffffffffffffffffffffffffffff160217905550505060008492509250505b935093915050565b60008260005281602060002001905092915050565b82805462000bf09062001250565b90600052602060002090601f01602090048101928262000c14576000855562000c60565b82601f1062000c2f57805160ff191683800117855562000c60565b8280016001018555821562000c60579182015b8281111562000c5f57825182559160200191906001019062000c42565b5b50905062000c6f919062000c73565b5090565b5b8082111562000c8e57600081600090555060010162000c74565b5090565b600080fd5b600073ffffffffffffffffffffffffffffffffffffffff82169050919050565b600062000cc48262000c97565b9050919050565b600062000cd88262000cb7565b9050919050565b62000cea8162000ccb565b811462000cf657600080fd5b50565b60008151905062000d0a8162000cdf565b92915050565b600062000d1d8262000c97565b9050919050565b600062000d318262000d10565b9050919050565b62000d438162000d24565b811462000d4f57600080fd5b50565b60008151905062000d638162000d38565b92915050565b6000806040838503121562000d835762000d8262000c92565b5b600062000d938582860162000cf9565b925050602062000da68582860162000d52565b9150509250929050565b6000819050919050565b62000dc58162000db0565b82525050565b6000819050919050565b62000de08162000dcb565b82525050565b62000df18162000cb7565b82525050565b600060a08201905062000e0e600083018862000dba565b62000e1d602083018762000dba565b62000e2c604083018662000dba565b62000e3b606083018562000dd5565b62000e4a608083018462000de6565b9695505050505050565b600060408201905062000e6b600083018562000dd5565b62000e7a602083018462000dd5565b9392505050565b600082825260208201905092915050565b7f476f7665726e6f7253657474696e67733a20766f74696e6720706572696f642060008201527f746f6f206c6f7700000000000000000000000000000000000000000000000000602082015250565b600062000ef060278362000e81565b915062000efd8262000e92565b604082019050919050565b6000602082019050818103600083015262000f238162000ee1565b9050919050565b7f476f7665726e6f72566f74657351756f72756d4672616374696f6e3a2071756f60008201527f72756d4e756d657261746f72206f7665722071756f72756d44656e6f6d696e6160208201527f746f720000000000000000000000000000000000000000000000000000000000604082015250565b600062000fae60438362000e81565b915062000fbb8262000f2a565b606082019050919050565b6000602082019050818103600083015262000fe18162000f9f565b9050919050565b600060408201905062000fff600083018562000de6565b6200100e602083018462000de6565b9392505050565b7f53616665436173743a2076616c756520646f65736e27742066697420696e203260008201527f3234206269747300000000000000000000000000000000000000000000000000602082015250565b60006200107360278362000e81565b9150620010808262001015565b604082019050919050565b60006020820190508181036000830152620010a68162001064565b9050919050565b7f4e487b7100000000000000000000000000000000000000000000000000000000600052601160045260246000fd5b6000620010e98262000dcb565b9150620010f68362000dcb565b9250828210156200110c576200110b620010ad565b5b828203905092915050565b7f53616665436173743a2076616c756520646f65736e27742066697420696e203360008201527f3220626974730000000000000000000000000000000000000000000000000000602082015250565b60006200117560268362000e81565b9150620011828262001117565b604082019050919050565b60006020820190508181036000830152620011a88162001166565b9050919050565b7f436865636b706f696e743a20696e76616c6964206b6579000000000000000000600082015250565b6000620011e760178362000e81565b9150620011f482620011af565b602082019050919050565b600060208201905081810360008301526200121a81620011d8565b9050919050565b7f4e487b7100000000000000000000000000000000000000000000000000000000600052602260045260246000fd5b600060028204905060018216806200126957607f821691505b6020821081141562001280576200127f62001221565b5b50919050565b60805160a05160c05160e05161010051610120516101405161887c620012ef60003960008181612b5901528181613b9f0152613f1c0152600061458d015260006145cf015260006145ae015260006144e30152600061453901526000614562015261887c6000f3fe6080604052600436106102975760003560e01c80637d5e81e21161015a578063da95691a116100c1578063eb9019d41161007a578063eb9019d414610b72578063ece40cc114610baf578063f23a6e6114610bd8578063f8ce560a14610c15578063fc0c546a14610c52578063fe0d94c114610c7d576102dd565b8063da95691a14610a50578063dd4e2ba514610a8d578063ddf0b00914610ab8578063deaaa7cc14610ae1578063e23a9a5214610b0c578063ea0217cf14610b49576102dd565b8063b58131b011610113578063b58131b014610927578063bc197c8114610952578063c01f9e371461098f578063c28bc2fa146109cc578063c59057e4146109e8578063d33219b414610a25576102dd565b80637d5e81e2146107f157806397c3d3341461082e5780639a802a6d14610859578063a7713a7014610896578063a890c910146108c1578063ab58fb8e146108ea576102dd565b8063328dd982116101fe57806354fd4d50116101b757806354fd4d50146106a957806356781388146106d45780635f398a141461071157806360c4247f1461074e57806370b0f6601461078b5780637b3c71d3146107b4576102dd565b8063328dd9821461055e5780633932abb11461059e5780633bccf4fd146105c95780633e4f49e61461060657806340e58ee514610643578063438596321461066c576102dd565b8063150b7a0211610250578063150b7a0214610421578063160cbed71461045e57806324bc1a641461049b5780632656227d146104c65780632d63f693146104f65780632fe3e26114610533576102dd565b8063013cf08b146102e257806301ffc9a71461032857806302a251a314610365578063034201811461039057806306f3f9e6146103cd57806306fdde03146103f6576102dd565b366102dd573073ffffffffffffffffffffffffffffffffffffffff166102bb610c99565b73ffffffffffffffffffffffffffffffffffffffff16146102db57600080fd5b005b600080fd5b3480156102ee57600080fd5b50610309600480360381019061030491906159d0565b610ca8565b60405161031f9a99989796959493929190615a68565b60405180910390f35b34801561033457600080fd5b5061034f600480360381019061034a9190615b5c565b610d9d565b60405161035c9190615b89565b60405180910390f35b34801561037157600080fd5b5061037a610daf565b6040516103879190615ba4565b60405180910390f35b34801561039c57600080fd5b506103b760048036038101906103b29190615dd4565b610dbe565b6040516103c49190615ba4565b60405180910390f35b3480156103d957600080fd5b506103f460048036038101906103ef91906159d0565b610ea3565b005b34801561040257600080fd5b5061040b610f9f565b6040516104189190615f3a565b60405180910390f35b34801561042d57600080fd5b5061044860048036038101906104439190615f88565b611031565b604051610455919061601a565b60405180910390f35b34801561046a57600080fd5b506104856004803603810190610480919061629c565b611045565b6040516104929190615ba4565b60405180910390f35b3480156104a757600080fd5b506104b061131d565b6040516104bd9190615ba4565b60405180910390f35b6104e060048036038101906104db919061629c565b611339565b6040516104ed9190615ba4565b60405180910390f35b34801561050257600080fd5b5061051d600480360381019061051891906159d0565b611486565b60405161052a9190615ba4565b60405180910390f35b34801561053f57600080fd5b506105486114f4565b6040516105559190616366565b60405180910390f35b34801561056a57600080fd5b50610585600480360381019061058091906159d0565b611518565b6040516105959493929190616720565b60405180910390f35b3480156105aa57600080fd5b506105b36117d5565b6040516105c09190615ba4565b60405180910390f35b3480156105d557600080fd5b506105f060048036038101906105eb9190616781565b6117e4565b6040516105fd9190615ba4565b60405180910390f35b34801561061257600080fd5b5061062d600480360381019061062891906159d0565b61186e565b60405161063a9190616873565b60405180910390f35b34801561064f57600080fd5b5061066a600480360381019061066591906159d0565b611880565b005b34801561067857600080fd5b50610693600480360381019061068e919061688e565b611c18565b6040516106a09190615b89565b60405180910390f35b3480156106b557600080fd5b506106be611c86565b6040516106cb9190615f3a565b60405180910390f35b3480156106e057600080fd5b506106fb60048036038101906106f691906168ce565b611cc3565b6040516107089190615ba4565b60405180910390f35b34801561071d57600080fd5b506107386004803603810190610733919061690e565b611cf4565b6040516107459190615ba4565b60405180910390f35b34801561075a57600080fd5b50610775600480360381019061077091906159d0565b611d5e565b6040516107829190615ba4565b60405180910390f35b34801561079757600080fd5b506107b260048036038101906107ad91906159d0565b611eab565b005b3480156107c057600080fd5b506107db60048036038101906107d691906169b2565b611fa7565b6040516107e89190615ba4565b60405180910390f35b3480156107fd57600080fd5b5061081860048036038101906108139190616ac7565b61200f565b6040516108259190615ba4565b60405180910390f35b34801561083a57600080fd5b50610843612027565b6040516108509190615ba4565b60405180910390f35b34801561086557600080fd5b50610880600480360381019061087b9190616b9e565b612030565b60405161088d9190615ba4565b60405180910390f35b3480156108a257600080fd5b506108ab612046565b6040516108b89190615ba4565b60405180910390f35b3480156108cd57600080fd5b506108e860048036038101906108e39190616c5d565b61208d565b005b3480156108f657600080fd5b50610911600480360381019061090c91906159d0565b612189565b60405161091e9190615ba4565b60405180910390f35b34801561093357600080fd5b5061093c612265565b6040516109499190615ba4565b60405180910390f35b34801561095e57600080fd5b5061097960048036038101906109749190616c8a565b612274565b604051610986919061601a565b60405180910390f35b34801561099b57600080fd5b506109b660048036038101906109b191906159d0565b612289565b6040516109c39190615ba4565b60405180910390f35b6109e660048036038101906109e19190616daf565b6122f7565b005b3480156109f457600080fd5b50610a0f6004803603810190610a0a919061629c565b612485565b604051610a1c9190615ba4565b60405180910390f35b348015610a3157600080fd5b50610a3a6124c1565b604051610a479190616e23565b60405180910390f35b348015610a5c57600080fd5b50610a776004803603810190610a729190616f1f565b6124eb565b604051610a849190615ba4565b60405180910390f35b348015610a9957600080fd5b50610aa2612522565b604051610aaf9190615f3a565b60405180910390f35b348015610ac457600080fd5b50610adf6004803603810190610ada91906159d0565b61255f565b005b348015610aed57600080fd5b50610af6612814565b604051610b039190616366565b60405180910390f35b348015610b1857600080fd5b50610b336004803603810190610b2e919061688e565b612838565b604051610b4091906170ad565b60405180910390f35b348015610b5557600080fd5b50610b706004803603810190610b6b91906159d0565b61291c565b005b348015610b7e57600080fd5b50610b996004803603810190610b9491906170c8565b612a18565b604051610ba69190615ba4565b60405180910390f35b348015610bbb57600080fd5b50610bd66004803603810190610bd191906159d0565b612a34565b005b348015610be457600080fd5b50610bff6004803603810190610bfa9190617108565b612b30565b604051610c0c919061601a565b60405180910390f35b348015610c2157600080fd5b50610c3c6004803603810190610c3791906159d0565b612b45565b604051610c499190615ba4565b60405180910390f35b348015610c5e57600080fd5b50610c67612b57565b604051610c7491906171fe565b60405180910390f35b610c976004803603810190610c9291906159d0565b612b7b565b005b6000610ca3612fc6565b905090565b6000806000806000806000806000808a9950610cc38b612189565b9750610cce8b611486565b9650610cd98b612289565b95506000600760008d815260200190815260200160002090508060000160009054906101000a900473ffffffffffffffffffffffffffffffffffffffff1699508060050154955080600601549450806007015493506000610d398d61186e565b905060026007811115610d4f57610d4e6167fc565b5b816007811115610d6257610d616167fc565b5b149350600780811115610d7857610d776167fc565b5b816007811115610d8b57610d8a6167fc565b5b14925050509193959799509193959799565b6000610da882612ff0565b9050919050565b6000610db961306a565b905090565b600080610e41610e397fb3b3f3b703cd84ce352197dcff232b1b5d3cfb2025ce47cf04742d0651f1af888c8c8c8c604051610dfa929190617249565b60405180910390208b80519060200120604051602001610e1e959493929190617271565b60405160208183030381529060405280519060200120613074565b86868661308e565b9050610e948a828b8b8b8080601f016020809104026020016040519081016040528093929190818152602001838380828437600081840152601f19601f820116905080830192505050505050508a6130b9565b91505098975050505050505050565b610eab610c99565b73ffffffffffffffffffffffffffffffffffffffff16610ec9613276565b73ffffffffffffffffffffffffffffffffffffffff1614610f1f576040517f08c379a0000000000000000000000000000000000000000000000000000000008152600401610f1690617310565b60405180910390fd5b3073ffffffffffffffffffffffffffffffffffffffff16610f3e610c99565b73ffffffffffffffffffffffffffffffffffffffff1614610f93576000610f6361327e565b604051610f71929190617249565b604051809103902090505b80610f87600261328b565b14610f9157610f7c565b505b610f9c81613367565b50565b606060008054610fae9061735f565b80601f0160208091040260200160405190810160405280929190818152602001828054610fda9061735f565b80156110275780601f10610ffc57610100808354040283529160200191611027565b820191906000526020600020905b81548152906001019060200180831161100a57829003601f168201915b5050505050905090565b600063150b7a0260e01b9050949350505050565b60008061105486868686612485565b90506004600781111561106a576110696167fc565b5b6110738261186e565b6007811115611085576110846167fc565b5b146110c5576040517f08c379a00000000000000000000000000000000000000000000000000000000081526004016110bc90617403565b60405180910390fd5b6000600a60009054906101000a900473ffffffffffffffffffffffffffffffffffffffff1673ffffffffffffffffffffffffffffffffffffffff1663f27a0c926040518163ffffffff1660e01b815260040160206040518083038186803b15801561112f57600080fd5b505afa158015611143573d6000803e3d6000fd5b505050506040513d601f19601f820116820180604052508101906111679190617438565b9050600a60009054906101000a900473ffffffffffffffffffffffffffffffffffffffff1673ffffffffffffffffffffffffffffffffffffffff1663b1c5f4278888886000896040518663ffffffff1660e01b81526004016111cd9594939291906174ad565b60206040518083038186803b1580156111e557600080fd5b505afa1580156111f9573d6000803e3d6000fd5b505050506040513d601f19601f8201168201806040525081019061121d919061752a565b600b600084815260200190815260200160002081905550600a60009054906101000a900473ffffffffffffffffffffffffffffffffffffffff1673ffffffffffffffffffffffffffffffffffffffff16638f2a0bb0888888600089876040518763ffffffff1660e01b815260040161129a96959493929190617557565b600060405180830381600087803b1580156112b457600080fd5b505af11580156112c8573d6000803e3d6000fd5b505050507f9a2e42fd6722813d69113e7d0079d3d940171428df7373df9c7f7617cfda28928282426112fa91906175fc565b604051611308929190617652565b60405180910390a18192505050949350505050565b600061133460014361132f919061767b565b612b45565b905090565b60008061134886868686612485565b905060006113558261186e565b90506004600781111561136b5761136a6167fc565b5b81600781111561137e5761137d6167fc565b5b14806113ae575060056007811115611399576113986167fc565b5b8160078111156113ac576113ab6167fc565b5b145b6113ed576040517f08c379a00000000000000000000000000000000000000000000000000000000081526004016113e490617403565b60405180910390fd5b600180600084815260200190815260200160002060020160006101000a81548160ff0219169083151502179055507f712ae1383f79ac853f8d882153778e0260ef8f03b504e2866e0593e04d2b291f8260405161144a9190615ba4565b60405180910390a161145f828888888861351b565b61146c82888888886135ff565b6114798288888888613613565b8192505050949350505050565b60006114e3600160008481526020019081526020016000206000016040518060200160405290816000820160009054906101000a900467ffffffffffffffff1667ffffffffffffffff1667ffffffffffffffff168152505061366e565b67ffffffffffffffff169050919050565b7fb3b3f3b703cd84ce352197dcff232b1b5d3cfb2025ce47cf04742d0651f1af8881565b606080606080600060076000878152602001908152602001600020905080600101816002018260030183600401838054806020026020016040519081016040528092919081815260200182805480156115c657602002820191906000526020600020905b8160009054906101000a900473ffffffffffffffffffffffffffffffffffffffff1673ffffffffffffffffffffffffffffffffffffffff168152602001906001019080831161157c575b505050505093508280548060200260200160405190810160405280929190818152602001828054801561161857602002820191906000526020600020905b815481526020019060010190808311611604575b5050505050925081805480602002602001604051908101604052809291908181526020016000905b828210156116ec57838290600052602060002001805461165f9061735f565b80601f016020809104026020016040519081016040528092919081815260200182805461168b9061735f565b80156116d85780601f106116ad576101008083540402835291602001916116d8565b820191906000526020600020905b8154815290600101906020018083116116bb57829003601f168201915b505050505081526020019060010190611640565b50505050915080805480602002602001604051908101604052809291908181526020016000905b828210156117bf5783829060005260206000200180546117329061735f565b80601f016020809104026020016040519081016040528092919081815260200182805461175e9061735f565b80156117ab5780601f10611780576101008083540402835291602001916117ab565b820191906000526020600020905b81548152906001019060200180831161178e57829003601f168201915b505050505081526020019060010190611713565b5050505090509450945094509450509193509193565b60006117df61367c565b905090565b60008061184561183d7f150214d74d59b7d1e90c73fc22ef3d991dd0a76b046543d4d80ab92d2a50328f8989604051602001611822939291906176af565b60405160208183030381529060405280519060200120613074565b86868661308e565b905061186287828860405180602001604052806000815250613686565b91505095945050505050565b6000611879826136a6565b9050919050565b60006007600083815260200190815260200160002090508060000160009054906101000a900473ffffffffffffffffffffffffffffffffffffffff1673ffffffffffffffffffffffffffffffffffffffff166118da613276565b73ffffffffffffffffffffffffffffffffffffffff16148061193b57506118ff612265565b6119398260000160009054906101000a900473ffffffffffffffffffffffffffffffffffffffff16600143611934919061767b565b612a18565b105b61197a576040517f08c379a000000000000000000000000000000000000000000000000000000000815260040161197190617758565b60405180910390fd5b611c1381600101805480602002602001604051908101604052809291908181526020018280548015611a0157602002820191906000526020600020905b8160009054906101000a900473ffffffffffffffffffffffffffffffffffffffff1673ffffffffffffffffffffffffffffffffffffffff16815260200190600101908083116119b7575b505050505082600201805480602002602001604051908101604052809291908181526020018280548015611a5457602002820191906000526020600020905b815481526020019060010190808311611a40575b5050505050611c0984600301805480602002602001604051908101604052809291908181526020016000905b82821015611b2c578382906000526020600020018054611a9f9061735f565b80601f0160208091040260200160405190810160405280929190818152602001828054611acb9061735f565b8015611b185780601f10611aed57610100808354040283529160200191611b18565b820191906000526020600020905b815481529060010190602001808311611afb57829003601f168201915b505050505081526020019060010190611a80565b5050505085600401805480602002602001604051908101604052809291908181526020016000905b82821015611c00578382906000526020600020018054611b739061735f565b80601f0160208091040260200160405190810160405280929190818152602001828054611b9f9061735f565b8015611bec5780601f10611bc157610100808354040283529160200191611bec565b820191906000526020600020905b815481529060010190602001808311611bcf57829003601f168201915b505050505081526020019060010190611b54565b50505050613898565b84600901546139d4565b505050565b60006007600084815260200190815260200160002060080160008373ffffffffffffffffffffffffffffffffffffffff1673ffffffffffffffffffffffffffffffffffffffff16815260200190815260200160002060000160009054906101000a900460ff16905092915050565b60606040518060400160405280600181526020017f3100000000000000000000000000000000000000000000000000000000000000815250905090565b600080611cce613276565b9050611ceb84828560405180602001604052806000815250613686565b91505092915050565b600080611cff613276565b9050611d5287828888888080601f016020809104026020016040519081016040528093929190818152602001838380828437600081840152601f19601f82011690508083019250505050505050876130b9565b91505095945050505050565b60008060096000018054905090506000811415611d8057600854915050611ea6565b60006009600001600183611d94919061767b565b81548110611da557611da4617778565b5b906000526020600020016040518060400160405290816000820160009054906101000a900463ffffffff1663ffffffff1663ffffffff1681526020016000820160049054906101000a90047bffffffffffffffffffffffffffffffffffffffffffffffffffffffff167bffffffffffffffffffffffffffffffffffffffffffffffffffffffff167bffffffffffffffffffffffffffffffffffffffffffffffffffffffff1681525050905083816000015163ffffffff1611611e8d5780602001517bffffffffffffffffffffffffffffffffffffffffffffffffffffffff1692505050611ea6565b611ea18460096139ec90919063ffffffff16565b925050505b919050565b611eb3610c99565b73ffffffffffffffffffffffffffffffffffffffff16611ed1613276565b73ffffffffffffffffffffffffffffffffffffffff1614611f27576040517f08c379a0000000000000000000000000000000000000000000000000000000008152600401611f1e90617310565b60405180910390fd5b3073ffffffffffffffffffffffffffffffffffffffff16611f46610c99565b73ffffffffffffffffffffffffffffffffffffffff1614611f9b576000611f6b61327e565b604051611f79929190617249565b604051809103902090505b80611f8f600261328b565b14611f9957611f84565b505b611fa481613adb565b50565b600080611fb2613276565b905061200486828787878080601f016020809104026020016040519081016040528093929190818152602001838380828437600081840152601f19601f82011690508083019250505050505050613686565b915050949350505050565b600061201d85858585613b20565b9050949350505050565b60006064905090565b600061203d848484613b9b565b90509392505050565b60008060096000018054905014612084576120616009612f09565b7bffffffffffffffffffffffffffffffffffffffffffffffffffffffff16612088565b6008545b905090565b612095610c99565b73ffffffffffffffffffffffffffffffffffffffff166120b3613276565b73ffffffffffffffffffffffffffffffffffffffff1614612109576040517f08c379a000000000000000000000000000000000000000000000000000000000815260040161210090617310565b60405180910390fd5b3073ffffffffffffffffffffffffffffffffffffffff16612128610c99565b73ffffffffffffffffffffffffffffffffffffffff161461217d57600061214d61327e565b60405161215b929190617249565b604051809103902090505b80612171600261328b565b1461217b57612166565b505b61218681613c51565b50565b600080600a60009054906101000a900473ffffffffffffffffffffffffffffffffffffffff1673ffffffffffffffffffffffffffffffffffffffff1663d45c4435600b6000868152602001908152602001600020546040518263ffffffff1660e01b81526004016121fa9190616366565b60206040518083038186803b15801561221257600080fd5b505afa158015612226573d6000803e3d6000fd5b505050506040513d601f19601f8201168201806040525081019061224a9190617438565b90506001811461225a578061225d565b60005b915050919050565b600061226f613cf0565b905090565b600063bc197c8160e01b905095945050505050565b60006122e6600160008481526020019081526020016000206001016040518060200160405290816000820160009054906101000a900467ffffffffffffffff1667ffffffffffffffff1667ffffffffffffffff168152505061366e565b67ffffffffffffffff169050919050565b6122ff610c99565b73ffffffffffffffffffffffffffffffffffffffff1661231d613276565b73ffffffffffffffffffffffffffffffffffffffff1614612373576040517f08c379a000000000000000000000000000000000000000000000000000000000815260040161236a90617310565b60405180910390fd5b3073ffffffffffffffffffffffffffffffffffffffff16612392610c99565b73ffffffffffffffffffffffffffffffffffffffff16146123e75760006123b761327e565b6040516123c5929190617249565b604051809103902090505b806123db600261328b565b146123e5576123d0565b505b6000808573ffffffffffffffffffffffffffffffffffffffff16858585604051612412929190617249565b60006040518083038185875af1925050503d806000811461244f576040519150601f19603f3d011682016040523d82523d6000602084013e612454565b606091505b509150915061247c828260405180606001604052806028815260200161881f60289139613cfa565b50505050505050565b60008484848460405160200161249e94939291906177a7565b6040516020818303038152906040528051906020012060001c9050949350505050565b6000600a60009054906101000a900473ffffffffffffffffffffffffffffffffffffffff16905090565b60006125026124f8613276565b8787878787613d1c565b61251786866125118787613898565b8561200f565b905095945050505050565b60606040518060400160405280601a81526020017f737570706f72743d627261766f2671756f72756d3d627261766f000000000000815250905090565b600060076000838152602001908152602001600020905061280f816001018054806020026020016040519081016040528092919081815260200182805480156125fd57602002820191906000526020600020905b8160009054906101000a900473ffffffffffffffffffffffffffffffffffffffff1673ffffffffffffffffffffffffffffffffffffffff16815260200190600101908083116125b3575b50505050508260020180548060200260200160405190810160405280929190818152602001828054801561265057602002820191906000526020600020905b81548152602001906001019080831161263c575b505050505061280584600301805480602002602001604051908101604052809291908181526020016000905b8282101561272857838290600052602060002001805461269b9061735f565b80601f01602080910402602001604051908101604052809291908181526020018280546126c79061735f565b80156127145780601f106126e957610100808354040283529160200191612714565b820191906000526020600020905b8154815290600101906020018083116126f757829003601f168201915b50505050508152602001906001019061267c565b5050505085600401805480602002602001604051908101604052809291908181526020016000905b828210156127fc57838290600052602060002001805461276f9061735f565b80601f016020809104026020016040519081016040528092919081815260200182805461279b9061735f565b80156127e85780601f106127bd576101008083540402835291602001916127e8565b820191906000526020600020905b8154815290600101906020018083116127cb57829003601f168201915b505050505081526020019060010190612750565b50505050613898565b8460090154611045565b505050565b7f150214d74d59b7d1e90c73fc22ef3d991dd0a76b046543d4d80ab92d2a50328f81565b6128406155ca565b6007600084815260200190815260200160002060080160008373ffffffffffffffffffffffffffffffffffffffff1673ffffffffffffffffffffffffffffffffffffffff1681526020019081526020016000206040518060600160405290816000820160009054906101000a900460ff161515151581526020016000820160019054906101000a900460ff1660ff1660ff1681526020016000820160029054906101000a90046bffffffffffffffffffffffff166bffffffffffffffffffffffff166bffffffffffffffffffffffff1681525050905092915050565b612924610c99565b73ffffffffffffffffffffffffffffffffffffffff16612942613276565b73ffffffffffffffffffffffffffffffffffffffff1614612998576040517f08c379a000000000000000000000000000000000000000000000000000000000815260040161298f90617310565b60405180910390fd5b3073ffffffffffffffffffffffffffffffffffffffff166129b7610c99565b73ffffffffffffffffffffffffffffffffffffffff1614612a0c5760006129dc61327e565b6040516129ea929190617249565b604051809103902090505b80612a00600261328b565b14612a0a576129f5565b505b612a1581613e23565b50565b6000612a2c8383612a27613eab565b613b9b565b905092915050565b612a3c610c99565b73ffffffffffffffffffffffffffffffffffffffff16612a5a613276565b73ffffffffffffffffffffffffffffffffffffffff1614612ab0576040517f08c379a0000000000000000000000000000000000000000000000000000000008152600401612aa790617310565b60405180910390fd5b3073ffffffffffffffffffffffffffffffffffffffff16612acf610c99565b73ffffffffffffffffffffffffffffffffffffffff1614612b24576000612af461327e565b604051612b02929190617249565b604051809103902090505b80612b18600261328b565b14612b2257612b0d565b505b612b2d81613ec2565b50565b600063f23a6e6160e01b905095945050505050565b6000612b5082613f07565b9050919050565b7f000000000000000000000000000000000000000000000000000000000000000081565b6000600760008381526020019081526020016000209050612e2b81600101805480602002602001604051908101604052809291908181526020018280548015612c1957602002820191906000526020600020905b8160009054906101000a900473ffffffffffffffffffffffffffffffffffffffff1673ffffffffffffffffffffffffffffffffffffffff1681526020019060010190808311612bcf575b505050505082600201805480602002602001604051908101604052809291908181526020018280548015612c6c57602002820191906000526020600020905b815481526020019060010190808311612c58575b5050505050612e2184600301805480602002602001604051908101604052809291908181526020016000905b82821015612d44578382906000526020600020018054612cb79061735f565b80601f0160208091040260200160405190810160405280929190818152602001828054612ce39061735f565b8015612d305780601f10612d0557610100808354040283529160200191612d30565b820191906000526020600020905b815481529060010190602001808311612d1357829003601f168201915b505050505081526020019060010190612c98565b5050505085600401805480602002602001604051908101604052809291908181526020016000905b82821015612e18578382906000526020600020018054612d8b9061735f565b80601f0160208091040260200160405190810160405280929190818152602001828054612db79061735f565b8015612e045780601f10612dd957610100808354040283529160200191612e04565b820191906000526020600020905b815481529060010190602001808311612de757829003601f168201915b505050505081526020019060010190612d6c565b50505050613898565b8460090154611339565b505050565b60007bffffffffffffffffffffffffffffffffffffffffffffffffffffffff8016821115612e93576040517f08c379a0000000000000000000000000000000000000000000000000000000008152600401612e8a90617873565b60405180910390fd5b819050919050565b600080612ebc84600001612eae43612f73565b612eb786612e30565b613fde565b817bffffffffffffffffffffffffffffffffffffffffffffffffffffffff169150807bffffffffffffffffffffffffffffffffffffffffffffffffffffffff169050915091509250929050565b6000808260000180549050905060008114612f6857612f3783600001600183612f32919061767b565b614365565b60000160049054906101000a90047bffffffffffffffffffffffffffffffffffffffffffffffffffffffff16612f6b565b60005b915050919050565b600063ffffffff8016821115612fbe576040517f08c379a0000000000000000000000000000000000000000000000000000000008152600401612fb590617905565b60405180910390fd5b819050919050565b6000600a60009054906101000a900473ffffffffffffffffffffffffffffffffffffffff16905090565b60007f6e665ced000000000000000000000000000000000000000000000000000000007bffffffffffffffffffffffffffffffffffffffffffffffffffffffff1916827bffffffffffffffffffffffffffffffffffffffffffffffffffffffff1916148061306357506130628261437a565b5b9050919050565b6000600554905090565b60006130876130816144df565b836145f9565b9050919050565b600080600061309f8787878761462c565b915091506130ac8161470f565b8192505050949350505050565b600080600160008881526020019081526020016000209050600160078111156130e5576130e46167fc565b5b6130ee8861186e565b6007811115613100576130ff6167fc565b5b14613140576040517f08c379a000000000000000000000000000000000000000000000000000000000815260040161313790617997565b60405180910390fd5b600061319f8761318f846000016040518060200160405290816000820160009054906101000a900467ffffffffffffffff1667ffffffffffffffff1667ffffffffffffffff168152505061366e565b67ffffffffffffffff1686613b9b565b90506131ae888888848861487d565b600084511415613211578673ffffffffffffffffffffffffffffffffffffffff167fb8e138887d0aa13bab447e82de9d5c1777041ecd21ca36ba824ff1e6c07ddda48988848960405161320494939291906179b7565b60405180910390a2613268565b8673ffffffffffffffffffffffffffffffffffffffff167fe2babfbac5889a709b63bb7f598b324e08bc5a4fb9ec647fb3cbc9ec07eb8712898884898960405161325f959493929190617a4d565b60405180910390a25b809250505095945050505050565b600033905090565b3660008036915091509091565b600061329682614aa8565b156132cd576040517f3db2a12a00000000000000000000000000000000000000000000000000000000815260040160405180910390fd5b60008260000160009054906101000a9004600f0b905082600101600082600f0b600f0b815260200190815260200160002054915082600101600082600f0b600f0b815260200190815260200160002060009055600181018360000160006101000a8154816fffffffffffffffffffffffffffffffff0219169083600f0b6fffffffffffffffffffffffffffffffff16021790555050919050565b61336f612027565b8111156133b1576040517f08c379a00000000000000000000000000000000000000000000000000000000081526004016133a890617b46565b60405180910390fd5b60006133bb612046565b9050600081141580156133d657506000600960000180549050145b156134c85760096000016040518060400160405280600063ffffffff16815260200161340184612e30565b7bffffffffffffffffffffffffffffffffffffffffffffffffffffffff168152509080600181540180825580915050600190039060005260206000200160009091909190915060008201518160000160006101000a81548163ffffffff021916908363ffffffff16021790555060208201518160000160046101000a8154817bffffffffffffffffffffffffffffffffffffffffffffffffffffffff02191690837bffffffffffffffffffffffffffffffffffffffffffffffffffffffff16021790555050505b6134dc826009612e9b90919063ffffffff16565b50507f0553476bf02ef2726e8ce5ced78d63e26e602e4a2257b1f559418e24b4633997818360405161350f929190617652565b60405180910390a15050565b3073ffffffffffffffffffffffffffffffffffffffff1661353a610c99565b73ffffffffffffffffffffffffffffffffffffffff16146135f85760005b84518110156135f6573073ffffffffffffffffffffffffffffffffffffffff1685828151811061358b5761358a617778565b5b602002602001015173ffffffffffffffffffffffffffffffffffffffff1614156135e5576135e48382815181106135c5576135c4617778565b5b6020026020010151805190602001206002614add90919063ffffffff16565b5b806135ef90617b66565b9050613558565b505b5050505050565b61360c8585858585614b59565b5050505050565b3073ffffffffffffffffffffffffffffffffffffffff16613632610c99565b73ffffffffffffffffffffffffffffffffffffffff1614613667576136576002614aa8565b613666576136656002614bf7565b5b5b5050505050565b600081600001519050919050565b6000600454905090565b600061369c85858585613697613eab565b6130b9565b9050949350505050565b6000806136b283614c78565b9050600460078111156136c8576136c76167fc565b5b8160078111156136db576136da6167fc565b5b146136e95780915050613893565b6000600b60008581526020019081526020016000205490506000801b811415613716578192505050613893565b600a60009054906101000a900473ffffffffffffffffffffffffffffffffffffffff1673ffffffffffffffffffffffffffffffffffffffff16632ab0f529826040518263ffffffff1660e01b81526004016137719190616366565b60206040518083038186803b15801561378957600080fd5b505afa15801561379d573d6000803e3d6000fd5b505050506040513d601f19601f820116820180604052508101906137c19190617bdb565b156137d157600792505050613893565b600a60009054906101000a900473ffffffffffffffffffffffffffffffffffffffff1673ffffffffffffffffffffffffffffffffffffffff1663584b153e826040518263ffffffff1660e01b815260040161382c9190616366565b60206040518083038186803b15801561384457600080fd5b505afa158015613858573d6000803e3d6000fd5b505050506040513d601f19601f8201168201806040525081019061387c9190617bdb565b1561388c57600592505050613893565b6002925050505b919050565b60606000825167ffffffffffffffff8111156138b7576138b6615c73565b5b6040519080825280602002602001820160405280156138ea57816020015b60608152602001906001900390816138d55790505b50905060005b84518110156139c957600085828151811061390e5761390d617778565b5b6020026020010151511461397e5784818151811061392f5761392e617778565b5b60200260200101518051906020012084828151811061395157613950617778565b5b602002602001015160405160200161396a929190617c5a565b60405160208183030381529060405261399a565b83818151811061399157613990617778565b5b60200260200101515b8282815181106139ad576139ac617778565b5b6020026020010181905250806139c290617b66565b90506138f0565b508091505092915050565b60006139e285858585614d8d565b9050949350505050565b6000438210613a30576040517f08c379a0000000000000000000000000000000000000000000000000000000008152600401613a2790617cce565b60405180910390fd5b6000613a3b83612f73565b90506000846000018054905090506000613a5b8660000184600085614e7f565b905060008114613aaf57613a7e86600001600183613a79919061767b565b614365565b60000160049054906101000a90047bffffffffffffffffffffffffffffffffffffffffffffffffffffffff16613ab2565b60005b7bffffffffffffffffffffffffffffffffffffffffffffffffffffffff16935050505092915050565b7fc565b045403dc03c2eea82b81a0465edad9e2e7fc4d97e11421c209da93d7a9360045482604051613b0e929190617652565b60405180910390a18060048190555050565b6000613b85613b2d613276565b8686865167ffffffffffffffff811115613b4a57613b49615c73565b5b604051908082528060200260200182016040528015613b7d57816020015b6060815260200190600190039081613b685790505b508787613d1c565b613b9185858585614ef2565b9050949350505050565b60007f000000000000000000000000000000000000000000000000000000000000000073ffffffffffffffffffffffffffffffffffffffff16633a46b1a885856040518363ffffffff1660e01b8152600401613bf8929190617cee565b60206040518083038186803b158015613c1057600080fd5b505afa158015613c24573d6000803e3d6000fd5b505050506040513d601f19601f82011682018060405250810190613c489190617438565b90509392505050565b7f08f74ea46ef7894f65eabfb5e6e695de773a000b47c529ab559178069b226401600a60009054906101000a900473ffffffffffffffffffffffffffffffffffffffff1682604051613ca4929190617d17565b60405180910390a180600a60006101000a81548173ffffffffffffffffffffffffffffffffffffffff021916908373ffffffffffffffffffffffffffffffffffffffff16021790555050565b6000600654905090565b60608315613d0a57829050613d15565b613d1483836151f9565b5b9392505050565b6000818051906020012090506000613d3f8787613d398888613898565b85612485565b905060006007600083815260200190815260200160002090506000801b81600901541415613e1857888160000160006101000a81548173ffffffffffffffffffffffffffffffffffffffff021916908373ffffffffffffffffffffffffffffffffffffffff16021790555087816001019080519060200190613dc29291906155fe565b5086816002019080519060200190613ddb929190615688565b5085816003019080519060200190613df49291906156d5565b5084816004019080519060200190613e0d929190615735565b508281600901819055505b505050505050505050565b60008111613e66576040517f08c379a0000000000000000000000000000000000000000000000000000000008152600401613e5d90617db2565b60405180910390fd5b7f7e3f7f0708a84de9203036abaa450dccc85ad5ff52f78c170f3edb55cf5e882860055482604051613e99929190617652565b60405180910390a18060058190555050565b606060405180602001604052806000815250905090565b7fccb45da8d5717e6c4544694297c4ba5cf151d455c9bb0ed4fc7a38411bc0546160065482604051613ef5929190617652565b60405180910390a18060068190555050565b6000613f11612027565b613f1a83611d5e565b7f000000000000000000000000000000000000000000000000000000000000000073ffffffffffffffffffffffffffffffffffffffff16638e539e8c856040518263ffffffff1660e01b8152600401613f739190615ba4565b60206040518083038186803b158015613f8b57600080fd5b505afa158015613f9f573d6000803e3d6000fd5b505050506040513d601f19601f82011682018060405250810190613fc39190617438565b613fcd9190617dd2565b613fd79190617e5b565b9050919050565b600080600085805490509050600081111561427557600061400b87600184614006919061767b565b614365565b6040518060400160405290816000820160009054906101000a900463ffffffff1663ffffffff1663ffffffff1681526020016000820160049054906101000a90047bffffffffffffffffffffffffffffffffffffffffffffffffffffffff167bffffffffffffffffffffffffffffffffffffffffffffffffffffffff167bffffffffffffffffffffffffffffffffffffffffffffffffffffffff168152505090508563ffffffff16816000015163ffffffff1611156140ff576040517f08c379a00000000000000000000000000000000000000000000000000000000081526004016140f690617ed8565b60405180910390fd5b8563ffffffff16816000015163ffffffff161415614184578461412e88600185614129919061767b565b614365565b60000160046101000a8154817bffffffffffffffffffffffffffffffffffffffffffffffffffffffff02191690837bffffffffffffffffffffffffffffffffffffffffffffffffffffffff160217905550614264565b8660405180604001604052808863ffffffff168152602001877bffffffffffffffffffffffffffffffffffffffffffffffffffffffff168152509080600181540180825580915050600190039060005260206000200160009091909190915060008201518160000160006101000a81548163ffffffff021916908363ffffffff16021790555060208201518160000160046101000a8154817bffffffffffffffffffffffffffffffffffffffffffffffffffffffff02191690837bffffffffffffffffffffffffffffffffffffffffffffffffffffffff16021790555050505b80602001518593509350505061435d565b8560405180604001604052808763ffffffff168152602001867bffffffffffffffffffffffffffffffffffffffffffffffffffffffff168152509080600181540180825580915050600190039060005260206000200160009091909190915060008201518160000160006101000a81548163ffffffff021916908363ffffffff16021790555060208201518160000160046101000a8154817bffffffffffffffffffffffffffffffffffffffffffffffffffffffff02191690837bffffffffffffffffffffffffffffffffffffffffffffffffffffffff160217905550505060008492509250505b935093915050565b60008260005281602060002001905092915050565b6000639a802a6d60e01b630342018160e01b635f398a1460e01b7f79dd796f000000000000000000000000000000000000000000000000000000001818187bffffffffffffffffffffffffffffffffffffffffffffffffffffffff1916827bffffffffffffffffffffffffffffffffffffffffffffffffffffffff1916148061446057507f79dd796f000000000000000000000000000000000000000000000000000000007bffffffffffffffffffffffffffffffffffffffffffffffffffffffff1916827bffffffffffffffffffffffffffffffffffffffffffffffffffffffff1916145b806144c857507f4e2312e0000000000000000000000000000000000000000000000000000000007bffffffffffffffffffffffffffffffffffffffffffffffffffffffff1916827bffffffffffffffffffffffffffffffffffffffffffffffffffffffff1916145b806144d857506144d782615249565b5b9050919050565b60007f000000000000000000000000000000000000000000000000000000000000000073ffffffffffffffffffffffffffffffffffffffff163073ffffffffffffffffffffffffffffffffffffffff1614801561455b57507f000000000000000000000000000000000000000000000000000000000000000046145b15614588577f000000000000000000000000000000000000000000000000000000000000000090506145f6565b6145f37f00000000000000000000000000000000000000000000000000000000000000007f00000000000000000000000000000000000000000000000000000000000000007f00000000000000000000000000000000000000000000000000000000000000006152b3565b90505b90565b6000828260405160200161460e929190617f70565b60405160208183030381529060405280519060200120905092915050565b6000807f7fffffffffffffffffffffffffffffff5d576e7357a4501ddfe92f46681b20a08360001c1115614667576000600391509150614706565b60006001878787876040516000815260200160405260405161468c9493929190617fa7565b6020604051602081039080840390855afa1580156146ae573d6000803e3d6000fd5b505050602060405103519050600073ffffffffffffffffffffffffffffffffffffffff168173ffffffffffffffffffffffffffffffffffffffff1614156146fd57600060019250925050614706565b80600092509250505b94509492505050565b60006004811115614723576147226167fc565b5b816004811115614736576147356167fc565b5b14156147415761487a565b60016004811115614755576147546167fc565b5b816004811115614768576147676167fc565b5b14156147a9576040517f08c379a00000000000000000000000000000000000000000000000000000000081526004016147a090618038565b60405180910390fd5b600260048111156147bd576147bc6167fc565b5b8160048111156147d0576147cf6167fc565b5b1415614811576040517f08c379a0000000000000000000000000000000000000000000000000000000008152600401614808906180a4565b60405180910390fd5b60036004811115614825576148246167fc565b5b816004811115614838576148376167fc565b5b1415614879576040517f08c379a000000000000000000000000000000000000000000000000000000000815260040161487090618136565b60405180910390fd5b5b50565b600060076000878152602001908152602001600020905060008160080160008773ffffffffffffffffffffffffffffffffffffffff1673ffffffffffffffffffffffffffffffffffffffff16815260200190815260200160002090508060000160009054906101000a900460ff161561492b576040517f08c379a0000000000000000000000000000000000000000000000000000000008152600401614922906181c8565b60405180910390fd5b60018160000160006101000a81548160ff021916908315150217905550848160000160016101000a81548160ff021916908360ff16021790555061496e846152ed565b8160000160026101000a8154816bffffffffffffffffffffffff02191690836bffffffffffffffffffffffff160217905550600060028111156149b4576149b36167fc565b5b60ff168560ff1614156149e157838260060160008282546149d591906175fc565b92505081905550614a9f565b600160028111156149f5576149f46167fc565b5b60ff168560ff161415614a225783826005016000828254614a1691906175fc565b92505081905550614a9e565b600280811115614a3557614a346167fc565b5b60ff168560ff161415614a625783826007016000828254614a5691906175fc565b92505081905550614a9d565b6040517f08c379a0000000000000000000000000000000000000000000000000000000008152600401614a949061825a565b60405180910390fd5b5b5b50505050505050565b60008160000160009054906101000a9004600f0b600f0b8260000160109054906101000a9004600f0b600f0b13159050919050565b60008260000160109054906101000a9004600f0b90508183600101600083600f0b600f0b815260200190815260200160002081905550600181018360000160106101000a8154816fffffffffffffffffffffffffffffffff0219169083600f0b6fffffffffffffffffffffffffffffffff160217905550505050565b600a60009054906101000a900473ffffffffffffffffffffffffffffffffffffffff1673ffffffffffffffffffffffffffffffffffffffff1663e38335e5348686866000876040518763ffffffff1660e01b8152600401614bbe9594939291906174ad565b6000604051808303818588803b158015614bd757600080fd5b505af1158015614beb573d6000803e3d6000fd5b50505050505050505050565b60008160000160006101000a8154816fffffffffffffffffffffffffffffffff0219169083600f0b6fffffffffffffffffffffffffffffffff16021790555060008160000160106101000a8154816fffffffffffffffffffffffffffffffff0219169083600f0b6fffffffffffffffffffffffffffffffff16021790555050565b6000806001600084815260200190815260200160002090508060020160009054906101000a900460ff1615614cb1576007915050614d88565b8060020160019054906101000a900460ff1615614cd2576002915050614d88565b6000614cdd84611486565b90506000811415614d23576040517f08c379a0000000000000000000000000000000000000000000000000000000008152600401614d1a906182c6565b60405180910390fd5b438110614d3557600092505050614d88565b6000614d4085612289565b9050438110614d555760019350505050614d88565b614d5e85615348565b8015614d6f5750614d6e85615380565b5b15614d805760049350505050614d88565b600393505050505b919050565b600080614d9c868686866153ab565b90506000801b600b60008381526020019081526020016000205414614e7357600a60009054906101000a900473ffffffffffffffffffffffffffffffffffffffff1673ffffffffffffffffffffffffffffffffffffffff1663c4d252f5600b6000848152602001908152602001600020546040518263ffffffff1660e01b8152600401614e299190616366565b600060405180830381600087803b158015614e4357600080fd5b505af1158015614e57573d6000803e3d6000fd5b50505050600b6000828152602001908152602001600020600090555b80915050949350505050565b60005b81831015614ee7576000614e968484615504565b90508463ffffffff16614ea98783614365565b60000160009054906101000a900463ffffffff1663ffffffff161115614ed157809250614ee1565b600181614ede91906175fc565b93505b50614e82565b819050949350505050565b6000614efc612265565b614f19614f07613276565b600143614f14919061767b565b612a18565b1015614f5a576040517f08c379a0000000000000000000000000000000000000000000000000000000008152600401614f5190618358565b60405180910390fd5b6000614f6f8686868680519060200120612485565b90508451865114614fb5576040517f08c379a0000000000000000000000000000000000000000000000000000000008152600401614fac906183ea565b60405180910390fd5b8351865114614ff9576040517f08c379a0000000000000000000000000000000000000000000000000000000008152600401614ff0906183ea565b60405180910390fd5b600086511161503d576040517f08c379a000000000000000000000000000000000000000000000000000000000815260040161503490618456565b60405180910390fd5b600060016000838152602001908152602001600020905061509d816000016040518060200160405290816000820160009054906101000a900467ffffffffffffffff1667ffffffffffffffff1667ffffffffffffffff168152505061552a565b6150dc576040517f08c379a00000000000000000000000000000000000000000000000000000000081526004016150d3906184e8565b60405180910390fd5b60006150ee6150e96117d5565b615544565b6150f743615544565b615101919061851c565b90506000615115615110610daf565b615544565b82615120919061851c565b9050615138828460000161559b90919063ffffffff16565b61514e818460010161559b90919063ffffffff16565b7f7d84a6263ae0d98d3329bd7b46bb4e8d6f98cd35a7adb45c274c8b7fd5ebd5e084615178613276565b8b8b8d5167ffffffffffffffff81111561519557615194615c73565b5b6040519080825280602002602001820160405280156151c857816020015b60608152602001906001900390816151b35790505b508c88888e6040516151e29998979695949392919061858b565b60405180910390a183945050505050949350505050565b60008251111561520c5781518083602001fd5b806040517f08c379a00000000000000000000000000000000000000000000000000000000081526004016152409190615f3a565b60405180910390fd5b60007f01ffc9a7000000000000000000000000000000000000000000000000000000007bffffffffffffffffffffffffffffffffffffffffffffffffffffffff1916827bffffffffffffffffffffffffffffffffffffffffffffffffffffffff1916149050919050565b600083838346306040516020016152ce95949392919061863b565b6040516020818303038152906040528051906020012090509392505050565b60006bffffffffffffffffffffffff8016821115615340576040517f08c379a000000000000000000000000000000000000000000000000000000000815260040161533790618700565b60405180910390fd5b819050919050565b600080600760008481526020019081526020016000209050806005015461537661537185611486565b612b45565b1115915050919050565b6000806007600084815260200190815260200160002090508060060154816005015411915050919050565b6000806153ba86868686612485565b905060006153c78261186e565b9050600260078111156153dd576153dc6167fc565b5b8160078111156153f0576153ef6167fc565b5b1415801561542357506006600781111561540d5761540c6167fc565b5b8160078111156154205761541f6167fc565b5b14155b8015615453575060078081111561543d5761543c6167fc565b5b8160078111156154505761544f6167fc565b5b14155b615492576040517f08c379a00000000000000000000000000000000000000000000000000000000081526004016154899061876c565b60405180910390fd5b600180600084815260200190815260200160002060020160016101000a81548160ff0219169083151502179055507f789cf55be980739dad1d0699b93b58e806b51c9d96619bfa8fe0a28abaa7b30c826040516154ef9190615ba4565b60405180910390a18192505050949350505050565b600060028284186155159190617e5b565b82841661552291906175fc565b905092915050565b600080826000015167ffffffffffffffff16149050919050565b600067ffffffffffffffff8016821115615593576040517f08c379a000000000000000000000000000000000000000000000000000000000815260040161558a906187fe565b60405180910390fd5b819050919050565b808260000160006101000a81548167ffffffffffffffff021916908367ffffffffffffffff1602179055505050565b6040518060600160405280600015158152602001600060ff16815260200160006bffffffffffffffffffffffff1681525090565b828054828255906000526020600020908101928215615677579160200282015b828111156156765782518260006101000a81548173ffffffffffffffffffffffffffffffffffffffff021916908373ffffffffffffffffffffffffffffffffffffffff1602179055509160200191906001019061561e565b5b5090506156849190615795565b5090565b8280548282559060005260206000209081019282156156c4579160200282015b828111156156c35782518255916020019190600101906156a8565b5b5090506156d19190615795565b5090565b828054828255906000526020600020908101928215615724579160200282015b828111156157235782518290805190602001906157139291906157b2565b50916020019190600101906156f5565b5b5090506157319190615838565b5090565b828054828255906000526020600020908101928215615784579160200282015b8281111561578357825182908051906020019061577392919061585c565b5091602001919060010190615755565b5b50905061579191906158e2565b5090565b5b808211156157ae576000816000905550600101615796565b5090565b8280546157be9061735f565b90600052602060002090601f0160209004810192826157e05760008555615827565b82601f106157f957805160ff1916838001178555615827565b82800160010185558215615827579182015b8281111561582657825182559160200191906001019061580b565b5b5090506158349190615795565b5090565b5b80821115615858576000818161584f9190615906565b50600101615839565b5090565b8280546158689061735f565b90600052602060002090601f01602090048101928261588a57600085556158d1565b82601f106158a357805160ff19168380011785556158d1565b828001600101855582156158d1579182015b828111156158d05782518255916020019190600101906158b5565b5b5090506158de9190615795565b5090565b5b8082111561590257600081816158f99190615946565b506001016158e3565b5090565b5080546159129061735f565b6000825580601f106159245750615943565b601f0160209004906000526020600020908101906159429190615795565b5b50565b5080546159529061735f565b6000825580601f106159645750615983565b601f0160209004906000526020600020908101906159829190615795565b5b50565b6000604051905090565b600080fd5b600080fd5b6000819050919050565b6159ad8161599a565b81146159b857600080fd5b50565b6000813590506159ca816159a4565b92915050565b6000602082840312156159e6576159e5615990565b5b60006159f4848285016159bb565b91505092915050565b615a068161599a565b82525050565b600073ffffffffffffffffffffffffffffffffffffffff82169050919050565b6000615a3782615a0c565b9050919050565b615a4781615a2c565b82525050565b60008115159050919050565b615a6281615a4d565b82525050565b600061014082019050615a7e600083018d6159fd565b615a8b602083018c615a3e565b615a98604083018b6159fd565b615aa5606083018a6159fd565b615ab260808301896159fd565b615abf60a08301886159fd565b615acc60c08301876159fd565b615ad960e08301866159fd565b615ae7610100830185615a59565b615af5610120830184615a59565b9b9a5050505050505050505050565b60007fffffffff0000000000000000000000000000000000000000000000000000000082169050919050565b615b3981615b04565b8114615b4457600080fd5b50565b600081359050615b5681615b30565b92915050565b600060208284031215615b7257615b71615990565b5b6000615b8084828501615b47565b91505092915050565b6000602082019050615b9e6000830184615a59565b92915050565b6000602082019050615bb960008301846159fd565b92915050565b600060ff82169050919050565b615bd581615bbf565b8114615be057600080fd5b50565b600081359050615bf281615bcc565b92915050565b600080fd5b600080fd5b600080fd5b60008083601f840112615c1d57615c1c615bf8565b5b8235905067ffffffffffffffff811115615c3a57615c39615bfd565b5b602083019150836001820283011115615c5657615c55615c02565b5b9250929050565b600080fd5b6000601f19601f8301169050919050565b7f4e487b7100000000000000000000000000000000000000000000000000000000600052604160045260246000fd5b615cab82615c62565b810181811067ffffffffffffffff82111715615cca57615cc9615c73565b5b80604052505050565b6000615cdd615986565b9050615ce98282615ca2565b919050565b600067ffffffffffffffff821115615d0957615d08615c73565b5b615d1282615c62565b9050602081019050919050565b82818337600083830152505050565b6000615d41615d3c84615cee565b615cd3565b905082815260208101848484011115615d5d57615d5c615c5d565b5b615d68848285615d1f565b509392505050565b600082601f830112615d8557615d84615bf8565b5b8135615d95848260208601615d2e565b91505092915050565b6000819050919050565b615db181615d9e565b8114615dbc57600080fd5b50565b600081359050615dce81615da8565b92915050565b60008060008060008060008060e0898b031215615df457615df3615990565b5b6000615e028b828c016159bb565b9850506020615e138b828c01615be3565b975050604089013567ffffffffffffffff811115615e3457615e33615995565b5b615e408b828c01615c07565b9650965050606089013567ffffffffffffffff811115615e6357615e62615995565b5b615e6f8b828c01615d70565b9450506080615e808b828c01615be3565b93505060a0615e918b828c01615dbf565b92505060c0615ea28b828c01615dbf565b9150509295985092959890939650565b600081519050919050565b600082825260208201905092915050565b60005b83811015615eec578082015181840152602081019050615ed1565b83811115615efb576000848401525b50505050565b6000615f0c82615eb2565b615f168185615ebd565b9350615f26818560208601615ece565b615f2f81615c62565b840191505092915050565b60006020820190508181036000830152615f548184615f01565b905092915050565b615f6581615a2c565b8114615f7057600080fd5b50565b600081359050615f8281615f5c565b92915050565b60008060008060808587031215615fa257615fa1615990565b5b6000615fb087828801615f73565b9450506020615fc187828801615f73565b9350506040615fd2878288016159bb565b925050606085013567ffffffffffffffff811115615ff357615ff2615995565b5b615fff87828801615d70565b91505092959194509250565b61601481615b04565b82525050565b600060208201905061602f600083018461600b565b92915050565b600067ffffffffffffffff8211156160505761604f615c73565b5b602082029050602081019050919050565b600061607461606f84616035565b615cd3565b9050808382526020820190506020840283018581111561609757616096615c02565b5b835b818110156160c057806160ac8882615f73565b845260208401935050602081019050616099565b5050509392505050565b600082601f8301126160df576160de615bf8565b5b81356160ef848260208601616061565b91505092915050565b600067ffffffffffffffff82111561611357616112615c73565b5b602082029050602081019050919050565b6000616137616132846160f8565b615cd3565b9050808382526020820190506020840283018581111561615a57616159615c02565b5b835b81811015616183578061616f88826159bb565b84526020840193505060208101905061615c565b5050509392505050565b600082601f8301126161a2576161a1615bf8565b5b81356161b2848260208601616124565b91505092915050565b600067ffffffffffffffff8211156161d6576161d5615c73565b5b602082029050602081019050919050565b60006161fa6161f5846161bb565b615cd3565b9050808382526020820190506020840283018581111561621d5761621c615c02565b5b835b8181101561626457803567ffffffffffffffff81111561624257616241615bf8565b5b80860161624f8982615d70565b8552602085019450505060208101905061621f565b5050509392505050565b600082601f83011261628357616282615bf8565b5b81356162938482602086016161e7565b91505092915050565b600080600080608085870312156162b6576162b5615990565b5b600085013567ffffffffffffffff8111156162d4576162d3615995565b5b6162e0878288016160ca565b945050602085013567ffffffffffffffff81111561630157616300615995565b5b61630d8782880161618d565b935050604085013567ffffffffffffffff81111561632e5761632d615995565b5b61633a8782880161626e565b925050606061634b87828801615dbf565b91505092959194509250565b61636081615d9e565b82525050565b600060208201905061637b6000830184616357565b92915050565b600081519050919050565b600082825260208201905092915050565b6000819050602082019050919050565b6163b681615a2c565b82525050565b60006163c883836163ad565b60208301905092915050565b6000602082019050919050565b60006163ec82616381565b6163f6818561638c565b93506164018361639d565b8060005b8381101561643257815161641988826163bc565b9750616424836163d4565b925050600181019050616405565b5085935050505092915050565b600081519050919050565b600082825260208201905092915050565b6000819050602082019050919050565b6164748161599a565b82525050565b6000616486838361646b565b60208301905092915050565b6000602082019050919050565b60006164aa8261643f565b6164b4818561644a565b93506164bf8361645b565b8060005b838110156164f05781516164d7888261647a565b97506164e283616492565b9250506001810190506164c3565b5085935050505092915050565b600081519050919050565b600082825260208201905092915050565b6000819050602082019050919050565b600082825260208201905092915050565b600061654582615eb2565b61654f8185616529565b935061655f818560208601615ece565b61656881615c62565b840191505092915050565b600061657f838361653a565b905092915050565b6000602082019050919050565b600061659f826164fd565b6165a98185616508565b9350836020820285016165bb85616519565b8060005b858110156165f757848403895281516165d88582616573565b94506165e383616587565b925060208a019950506001810190506165bf565b50829750879550505050505092915050565b600081519050919050565b600082825260208201905092915050565b6000819050602082019050919050565b600081519050919050565b600082825260208201905092915050565b600061665c82616635565b6166668185616640565b9350616676818560208601615ece565b61667f81615c62565b840191505092915050565b60006166968383616651565b905092915050565b6000602082019050919050565b60006166b682616609565b6166c08185616614565b9350836020820285016166d285616625565b8060005b8581101561670e57848403895281516166ef858261668a565b94506166fa8361669e565b925060208a019950506001810190506166d6565b50829750879550505050505092915050565b6000608082019050818103600083015261673a81876163e1565b9050818103602083015261674e818661649f565b905081810360408301526167628185616594565b9050818103606083015261677681846166ab565b905095945050505050565b600080600080600060a0868803121561679d5761679c615990565b5b60006167ab888289016159bb565b95505060206167bc88828901615be3565b94505060406167cd88828901615be3565b93505060606167de88828901615dbf565b92505060806167ef88828901615dbf565b9150509295509295909350565b7f4e487b7100000000000000000000000000000000000000000000000000000000600052602160045260246000fd5b6008811061683c5761683b6167fc565b5b50565b600081905061684d8261682b565b919050565b600061685d8261683f565b9050919050565b61686d81616852565b82525050565b60006020820190506168886000830184616864565b92915050565b600080604083850312156168a5576168a4615990565b5b60006168b3858286016159bb565b92505060206168c485828601615f73565b9150509250929050565b600080604083850312156168e5576168e4615990565b5b60006168f3858286016159bb565b925050602061690485828601615be3565b9150509250929050565b60008060008060006080868803121561692a57616929615990565b5b6000616938888289016159bb565b955050602061694988828901615be3565b945050604086013567ffffffffffffffff81111561696a57616969615995565b5b61697688828901615c07565b9350935050606086013567ffffffffffffffff81111561699957616998615995565b5b6169a588828901615d70565b9150509295509295909350565b600080600080606085870312156169cc576169cb615990565b5b60006169da878288016159bb565b94505060206169eb87828801615be3565b935050604085013567ffffffffffffffff811115616a0c57616a0b615995565b5b616a1887828801615c07565b925092505092959194509250565b600067ffffffffffffffff821115616a4157616a40615c73565b5b616a4a82615c62565b9050602081019050919050565b6000616a6a616a6584616a26565b615cd3565b905082815260208101848484011115616a8657616a85615c5d565b5b616a91848285615d1f565b509392505050565b600082601f830112616aae57616aad615bf8565b5b8135616abe848260208601616a57565b91505092915050565b60008060008060808587031215616ae157616ae0615990565b5b600085013567ffffffffffffffff811115616aff57616afe615995565b5b616b0b878288016160ca565b945050602085013567ffffffffffffffff811115616b2c57616b2b615995565b5b616b388782880161618d565b935050604085013567ffffffffffffffff811115616b5957616b58615995565b5b616b658782880161626e565b925050606085013567ffffffffffffffff811115616b8657616b85615995565b5b616b9287828801616a99565b91505092959194509250565b600080600060608486031215616bb757616bb6615990565b5b6000616bc586828701615f73565b9350506020616bd6868287016159bb565b925050604084013567ffffffffffffffff811115616bf757616bf6615995565b5b616c0386828701615d70565b9150509250925092565b6000616c1882615a0c565b9050919050565b6000616c2a82616c0d565b9050919050565b616c3a81616c1f565b8114616c4557600080fd5b50565b600081359050616c5781616c31565b92915050565b600060208284031215616c7357616c72615990565b5b6000616c8184828501616c48565b91505092915050565b600080600080600060a08688031215616ca657616ca5615990565b5b6000616cb488828901615f73565b9550506020616cc588828901615f73565b945050604086013567ffffffffffffffff811115616ce657616ce5615995565b5b616cf28882890161618d565b935050606086013567ffffffffffffffff811115616d1357616d12615995565b5b616d1f8882890161618d565b925050608086013567ffffffffffffffff811115616d4057616d3f615995565b5b616d4c88828901615d70565b9150509295509295909350565b60008083601f840112616d6f57616d6e615bf8565b5b8235905067ffffffffffffffff811115616d8c57616d8b615bfd565b5b602083019150836001820283011115616da857616da7615c02565b5b9250929050565b60008060008060608587031215616dc957616dc8615990565b5b6000616dd787828801615f73565b9450506020616de8878288016159bb565b935050604085013567ffffffffffffffff811115616e0957616e08615995565b5b616e1587828801616d59565b925092505092959194509250565b6000602082019050616e386000830184615a3e565b92915050565b600067ffffffffffffffff821115616e5957616e58615c73565b5b602082029050602081019050919050565b6000616e7d616e7884616e3e565b615cd3565b90508083825260208201905060208402830185811115616ea057616e9f615c02565b5b835b81811015616ee757803567ffffffffffffffff811115616ec557616ec4615bf8565b5b808601616ed28982616a99565b85526020850194505050602081019050616ea2565b5050509392505050565b600082601f830112616f0657616f05615bf8565b5b8135616f16848260208601616e6a565b91505092915050565b600080600080600060a08688031215616f3b57616f3a615990565b5b600086013567ffffffffffffffff811115616f5957616f58615995565b5b616f65888289016160ca565b955050602086013567ffffffffffffffff811115616f8657616f85615995565b5b616f928882890161618d565b945050604086013567ffffffffffffffff811115616fb357616fb2615995565b5b616fbf88828901616ef1565b935050606086013567ffffffffffffffff811115616fe057616fdf615995565b5b616fec8882890161626e565b925050608086013567ffffffffffffffff81111561700d5761700c615995565b5b61701988828901616a99565b9150509295509295909350565b61702f81615a4d565b82525050565b61703e81615bbf565b82525050565b60006bffffffffffffffffffffffff82169050919050565b61706581617044565b82525050565b6060820160008201516170816000850182617026565b5060208201516170946020850182617035565b5060408201516170a7604085018261705c565b50505050565b60006060820190506170c2600083018461706b565b92915050565b600080604083850312156170df576170de615990565b5b60006170ed85828601615f73565b92505060206170fe858286016159bb565b9150509250929050565b600080600080600060a0868803121561712457617123615990565b5b600061713288828901615f73565b955050602061714388828901615f73565b9450506040617154888289016159bb565b9350506060617165888289016159bb565b925050608086013567ffffffffffffffff81111561718657617185615995565b5b61719288828901615d70565b9150509295509295909350565b6000819050919050565b60006171c46171bf6171ba84615a0c565b61719f565b615a0c565b9050919050565b60006171d6826171a9565b9050919050565b60006171e8826171cb565b9050919050565b6171f8816171dd565b82525050565b600060208201905061721360008301846171ef565b92915050565b600081905092915050565b60006172308385617219565b935061723d838584615d1f565b82840190509392505050565b6000617256828486617224565b91508190509392505050565b61726b81615bbf565b82525050565b600060a0820190506172866000830188616357565b61729360208301876159fd565b6172a06040830186617262565b6172ad6060830185616357565b6172ba6080830184616357565b9695505050505050565b7f476f7665726e6f723a206f6e6c79476f7665726e616e63650000000000000000600082015250565b60006172fa601883615ebd565b9150617305826172c4565b602082019050919050565b60006020820190508181036000830152617329816172ed565b9050919050565b7f4e487b7100000000000000000000000000000000000000000000000000000000600052602260045260246000fd5b6000600282049050600182168061737757607f821691505b6020821081141561738b5761738a617330565b5b50919050565b7f476f7665726e6f723a2070726f706f73616c206e6f742073756363657373667560008201527f6c00000000000000000000000000000000000000000000000000000000000000602082015250565b60006173ed602183615ebd565b91506173f882617391565b604082019050919050565b6000602082019050818103600083015261741c816173e0565b9050919050565b600081519050617432816159a4565b92915050565b60006020828403121561744e5761744d615990565b5b600061745c84828501617423565b91505092915050565b6000819050919050565b60008160001b9050919050565b600061749761749261748d84617465565b61746f565b615d9e565b9050919050565b6174a78161747c565b82525050565b600060a08201905081810360008301526174c781886163e1565b905081810360208301526174db818761649f565b905081810360408301526174ef81866166ab565b90506174fe606083018561749e565b61750b6080830184616357565b9695505050505050565b60008151905061752481615da8565b92915050565b6000602082840312156175405761753f615990565b5b600061754e84828501617515565b91505092915050565b600060c082019050818103600083015261757181896163e1565b90508181036020830152617585818861649f565b9050818103604083015261759981876166ab565b90506175a8606083018661749e565b6175b56080830185616357565b6175c260a08301846159fd565b979650505050505050565b7f4e487b7100000000000000000000000000000000000000000000000000000000600052601160045260246000fd5b60006176078261599a565b91506176128361599a565b9250827fffffffffffffffffffffffffffffffffffffffffffffffffffffffffffffffff03821115617647576176466175cd565b5b828201905092915050565b600060408201905061766760008301856159fd565b61767460208301846159fd565b9392505050565b60006176868261599a565b91506176918361599a565b9250828210156176a4576176a36175cd565b5b828203905092915050565b60006060820190506176c46000830186616357565b6176d160208301856159fd565b6176de6040830184617262565b949350505050565b7f476f7665726e6f72427261766f3a2070726f706f7365722061626f766520746860008201527f726573686f6c6400000000000000000000000000000000000000000000000000602082015250565b6000617742602783615ebd565b915061774d826176e6565b604082019050919050565b6000602082019050818103600083015261777181617735565b9050919050565b7f4e487b7100000000000000000000000000000000000000000000000000000000600052603260045260246000fd5b600060808201905081810360008301526177c181876163e1565b905081810360208301526177d5818661649f565b905081810360408301526177e981856166ab565b90506177f86060830184616357565b95945050505050565b7f53616665436173743a2076616c756520646f65736e27742066697420696e203260008201527f3234206269747300000000000000000000000000000000000000000000000000602082015250565b600061785d602783615ebd565b915061786882617801565b604082019050919050565b6000602082019050818103600083015261788c81617850565b9050919050565b7f53616665436173743a2076616c756520646f65736e27742066697420696e203360008201527f3220626974730000000000000000000000000000000000000000000000000000602082015250565b60006178ef602683615ebd565b91506178fa82617893565b604082019050919050565b6000602082019050818103600083015261791e816178e2565b9050919050565b7f476f7665726e6f723a20766f7465206e6f742063757272656e746c792061637460008201527f6976650000000000000000000000000000000000000000000000000000000000602082015250565b6000617981602383615ebd565b915061798c82617925565b604082019050919050565b600060208201905081810360008301526179b081617974565b9050919050565b60006080820190506179cc60008301876159fd565b6179d96020830186617262565b6179e660408301856159fd565b81810360608301526179f88184615f01565b905095945050505050565b600082825260208201905092915050565b6000617a1f82616635565b617a298185617a03565b9350617a39818560208601615ece565b617a4281615c62565b840191505092915050565b600060a082019050617a6260008301886159fd565b617a6f6020830187617262565b617a7c60408301866159fd565b8181036060830152617a8e8185615f01565b90508181036080830152617aa28184617a14565b90509695505050505050565b7f476f7665726e6f72566f74657351756f72756d4672616374696f6e3a2071756f60008201527f72756d4e756d657261746f72206f7665722071756f72756d44656e6f6d696e6160208201527f746f720000000000000000000000000000000000000000000000000000000000604082015250565b6000617b30604383615ebd565b9150617b3b82617aae565b606082019050919050565b60006020820190508181036000830152617b5f81617b23565b9050919050565b6000617b718261599a565b91507fffffffffffffffffffffffffffffffffffffffffffffffffffffffffffffffff821415617ba457617ba36175cd565b5b600182019050919050565b617bb881615a4d565b8114617bc357600080fd5b50565b600081519050617bd581617baf565b92915050565b600060208284031215617bf157617bf0615990565b5b6000617bff84828501617bc6565b91505092915050565b6000819050919050565b617c23617c1e82615b04565b617c08565b82525050565b6000617c3482616635565b617c3e8185617219565b9350617c4e818560208601615ece565b80840191505092915050565b6000617c668285617c12565b600482019150617c768284617c29565b91508190509392505050565b7f436865636b706f696e74733a20626c6f636b206e6f7420796574206d696e6564600082015250565b6000617cb8602083615ebd565b9150617cc382617c82565b602082019050919050565b60006020820190508181036000830152617ce781617cab565b9050919050565b6000604082019050617d036000830185615a3e565b617d1060208301846159fd565b9392505050565b6000604082019050617d2c6000830185615a3e565b617d396020830184615a3e565b9392505050565b7f476f7665726e6f7253657474696e67733a20766f74696e6720706572696f642060008201527f746f6f206c6f7700000000000000000000000000000000000000000000000000602082015250565b6000617d9c602783615ebd565b9150617da782617d40565b604082019050919050565b60006020820190508181036000830152617dcb81617d8f565b9050919050565b6000617ddd8261599a565b9150617de88361599a565b9250817fffffffffffffffffffffffffffffffffffffffffffffffffffffffffffffffff0483118215151615617e2157617e206175cd565b5b828202905092915050565b7f4e487b7100000000000000000000000000000000000000000000000000000000600052601260045260246000fd5b6000617e668261599a565b9150617e718361599a565b925082617e8157617e80617e2c565b5b828204905092915050565b7f436865636b706f696e743a20696e76616c6964206b6579000000000000000000600082015250565b6000617ec2601783615ebd565b9150617ecd82617e8c565b602082019050919050565b60006020820190508181036000830152617ef181617eb5565b9050919050565b600081905092915050565b7f1901000000000000000000000000000000000000000000000000000000000000600082015250565b6000617f39600283617ef8565b9150617f4482617f03565b600282019050919050565b6000819050919050565b617f6a617f6582615d9e565b617f4f565b82525050565b6000617f7b82617f2c565b9150617f878285617f59565b602082019150617f978284617f59565b6020820191508190509392505050565b6000608082019050617fbc6000830187616357565b617fc96020830186617262565b617fd66040830185616357565b617fe36060830184616357565b95945050505050565b7f45434453413a20696e76616c6964207369676e61747572650000000000000000600082015250565b6000618022601883615ebd565b915061802d82617fec565b602082019050919050565b6000602082019050818103600083015261805181618015565b9050919050565b7f45434453413a20696e76616c6964207369676e6174757265206c656e67746800600082015250565b600061808e601f83615ebd565b915061809982618058565b602082019050919050565b600060208201905081810360008301526180bd81618081565b9050919050565b7f45434453413a20696e76616c6964207369676e6174757265202773272076616c60008201527f7565000000000000000000000000000000000000000000000000000000000000602082015250565b6000618120602283615ebd565b915061812b826180c4565b604082019050919050565b6000602082019050818103600083015261814f81618113565b9050919050565b7f476f7665726e6f72436f6d7061746962696c697479427261766f3a20766f746560008201527f20616c7265616479206361737400000000000000000000000000000000000000602082015250565b60006181b2602d83615ebd565b91506181bd82618156565b604082019050919050565b600060208201905081810360008301526181e1816181a5565b9050919050565b7f476f7665726e6f72436f6d7061746962696c697479427261766f3a20696e766160008201527f6c696420766f7465207479706500000000000000000000000000000000000000602082015250565b6000618244602d83615ebd565b915061824f826181e8565b604082019050919050565b6000602082019050818103600083015261827381618237565b9050919050565b7f476f7665726e6f723a20756e6b6e6f776e2070726f706f73616c206964000000600082015250565b60006182b0601d83615ebd565b91506182bb8261827a565b602082019050919050565b600060208201905081810360008301526182df816182a3565b9050919050565b7f476f7665726e6f723a2070726f706f73657220766f7465732062656c6f77207060008201527f726f706f73616c207468726573686f6c64000000000000000000000000000000602082015250565b6000618342603183615ebd565b915061834d826182e6565b604082019050919050565b6000602082019050818103600083015261837181618335565b9050919050565b7f476f7665726e6f723a20696e76616c69642070726f706f73616c206c656e677460008201527f6800000000000000000000000000000000000000000000000000000000000000602082015250565b60006183d4602183615ebd565b91506183df82618378565b604082019050919050565b60006020820190508181036000830152618403816183c7565b9050919050565b7f476f7665726e6f723a20656d7074792070726f706f73616c0000000000000000600082015250565b6000618440601883615ebd565b915061844b8261840a565b602082019050919050565b6000602082019050818103600083015261846f81618433565b9050919050565b7f476f7665726e6f723a2070726f706f73616c20616c726561647920657869737460008201527f7300000000000000000000000000000000000000000000000000000000000000602082015250565b60006184d2602183615ebd565b91506184dd82618476565b604082019050919050565b60006020820190508181036000830152618501816184c5565b9050919050565b600067ffffffffffffffff82169050919050565b600061852782618508565b915061853283618508565b92508267ffffffffffffffff0382111561854f5761854e6175cd565b5b828201905092915050565b600061857561857061856b84618508565b61719f565b61599a565b9050919050565b6185858161855a565b82525050565b6000610120820190506185a1600083018c6159fd565b6185ae602083018b615a3e565b81810360408301526185c0818a6163e1565b905081810360608301526185d4818961649f565b905081810360808301526185e88188616594565b905081810360a08301526185fc81876166ab565b905061860b60c083018661857c565b61861860e083018561857c565b81810361010083015261862b8184615f01565b90509a9950505050505050505050565b600060a0820190506186506000830188616357565b61865d6020830187616357565b61866a6040830186616357565b61867760608301856159fd565b6186846080830184615a3e565b9695505050505050565b7f53616665436173743a2076616c756520646f65736e27742066697420696e203960008201527f3620626974730000000000000000000000000000000000000000000000000000602082015250565b60006186ea602683615ebd565b91506186f58261868e565b604082019050919050565b60006020820190508181036000830152618719816186dd565b9050919050565b7f476f7665726e6f723a2070726f706f73616c206e6f7420616374697665000000600082015250565b6000618756601d83615ebd565b915061876182618720565b602082019050919050565b6000602082019050818103600083015261878581618749565b9050919050565b7f53616665436173743a2076616c756520646f65736e27742066697420696e203660008201527f3420626974730000000000000000000000000000000000000000000000000000602082015250565b60006187e8602683615ebd565b91506187f38261878c565b604082019050919050565b60006020820190508181036000830152618817816187db565b905091905056fe476f7665726e6f723a2072656c617920726576657274656420776974686f7574206d657373616765a2646970667358221220d78cf843f1b342a1fcf3880f9feaf7d3606172f9911047c13ccd9707c8afa01764736f6c63430008090033",
  "linkReferences": {},
  "deployedLinkReferences": {}
}