{
  "_format": "hh-sol-artifact-1",
  "contractName": "MeltyFiDAO",
  "sourceName": "contracts/MeltyFiDAO.sol",
  "abi": [
    {
      "inputs": [
        {
          "internalType": "contract IVotes",
          "name": "_token",
          "type": "address"
        },
        {
          "internalType": "contract TimelockController",
          "name": "_timelock",
          "type": "address"
        }
      ],
      "stateMutability": "nonpayable",
      "type": "constructor"
    },
    {
      "inputs": [],
      "name": "Empty",
      "type": "error"
    },
    {
      "anonymous": false,
      "inputs": [
        {
          "indexed": false,
          "internalType": "uint256",
          "name": "proposalId",
          "type": "uint256"
        }
      ],
      "name": "ProposalCanceled",
      "type": "event"
    },
    {
      "anonymous": false,
      "inputs": [
        {
          "indexed": false,
          "internalType": "uint256",
          "name": "proposalId",
          "type": "uint256"
        },
        {
          "indexed": false,
          "internalType": "address",
          "name": "proposer",
          "type": "address"
        },
        {
          "indexed": false,
          "internalType": "address[]",
          "name": "targets",
          "type": "address[]"
        },
        {
          "indexed": false,
          "internalType": "uint256[]",
          "name": "values",
          "type": "uint256[]"
        },
        {
          "indexed": false,
          "internalType": "string[]",
          "name": "signatures",
          "type": "string[]"
        },
        {
          "indexed": false,
          "internalType": "bytes[]",
          "name": "calldatas",
          "type": "bytes[]"
        },
        {
          "indexed": false,
          "internalType": "uint256",
          "name": "startBlock",
          "type": "uint256"
        },
        {
          "indexed": false,
          "internalType": "uint256",
          "name": "endBlock",
          "type": "uint256"
        },
        {
          "indexed": false,
          "internalType": "string",
          "name": "description",
          "type": "string"
        }
      ],
      "name": "ProposalCreated",
      "type": "event"
    },
    {
      "anonymous": false,
      "inputs": [
        {
          "indexed": false,
          "internalType": "uint256",
          "name": "proposalId",
          "type": "uint256"
        }
      ],
      "name": "ProposalExecuted",
      "type": "event"
    },
    {
      "anonymous": false,
      "inputs": [
        {
          "indexed": false,
          "internalType": "uint256",
          "name": "proposalId",
          "type": "uint256"
        },
        {
          "indexed": false,
          "internalType": "uint256",
          "name": "eta",
          "type": "uint256"
        }
      ],
      "name": "ProposalQueued",
      "type": "event"
    },
    {
      "anonymous": false,
      "inputs": [
        {
          "indexed": false,
          "internalType": "uint256",
          "name": "oldProposalThreshold",
          "type": "uint256"
        },
        {
          "indexed": false,
          "internalType": "uint256",
          "name": "newProposalThreshold",
          "type": "uint256"
        }
      ],
      "name": "ProposalThresholdSet",
      "type": "event"
    },
    {
      "anonymous": false,
      "inputs": [
        {
          "indexed": false,
          "internalType": "uint256",
          "name": "oldQuorumNumerator",
          "type": "uint256"
        },
        {
          "indexed": false,
          "internalType": "uint256",
          "name": "newQuorumNumerator",
          "type": "uint256"
        }
      ],
      "name": "QuorumNumeratorUpdated",
      "type": "event"
    },
    {
      "anonymous": false,
      "inputs": [
        {
          "indexed": false,
          "internalType": "address",
          "name": "oldTimelock",
          "type": "address"
        },
        {
          "indexed": false,
          "internalType": "address",
          "name": "newTimelock",
          "type": "address"
        }
      ],
      "name": "TimelockChange",
      "type": "event"
    },
    {
      "anonymous": false,
      "inputs": [
        {
          "indexed": true,
          "internalType": "address",
          "name": "voter",
          "type": "address"
        },
        {
          "indexed": false,
          "internalType": "uint256",
          "name": "proposalId",
          "type": "uint256"
        },
        {
          "indexed": false,
          "internalType": "uint8",
          "name": "support",
          "type": "uint8"
        },
        {
          "indexed": false,
          "internalType": "uint256",
          "name": "weight",
          "type": "uint256"
        },
        {
          "indexed": false,
          "internalType": "string",
          "name": "reason",
          "type": "string"
        }
      ],
      "name": "VoteCast",
      "type": "event"
    },
    {
      "anonymous": false,
      "inputs": [
        {
          "indexed": true,
          "internalType": "address",
          "name": "voter",
          "type": "address"
        },
        {
          "indexed": false,
          "internalType": "uint256",
          "name": "proposalId",
          "type": "uint256"
        },
        {
          "indexed": false,
          "internalType": "uint8",
          "name": "support",
          "type": "uint8"
        },
        {
          "indexed": false,
          "internalType": "uint256",
          "name": "weight",
          "type": "uint256"
        },
        {
          "indexed": false,
          "internalType": "string",
          "name": "reason",
          "type": "string"
        },
        {
          "indexed": false,
          "internalType": "bytes",
          "name": "params",
          "type": "bytes"
        }
      ],
      "name": "VoteCastWithParams",
      "type": "event"
    },
    {
      "anonymous": false,
      "inputs": [
        {
          "indexed": false,
          "internalType": "uint256",
          "name": "oldVotingDelay",
          "type": "uint256"
        },
        {
          "indexed": false,
          "internalType": "uint256",
          "name": "newVotingDelay",
          "type": "uint256"
        }
      ],
      "name": "VotingDelaySet",
      "type": "event"
    },
    {
      "anonymous": false,
      "inputs": [
        {
          "indexed": false,
          "internalType": "uint256",
          "name": "oldVotingPeriod",
          "type": "uint256"
        },
        {
          "indexed": false,
          "internalType": "uint256",
          "name": "newVotingPeriod",
          "type": "uint256"
        }
      ],
      "name": "VotingPeriodSet",
      "type": "event"
    },
    {
      "inputs": [],
      "name": "BALLOT_TYPEHASH",
      "outputs": [
        {
          "internalType": "bytes32",
          "name": "",
          "type": "bytes32"
        }
      ],
      "stateMutability": "view",
      "type": "function"
    },
    {
      "inputs": [],
      "name": "COUNTING_MODE",
      "outputs": [
        {
          "internalType": "string",
          "name": "",
          "type": "string"
        }
      ],
      "stateMutability": "pure",
      "type": "function"
    },
    {
      "inputs": [],
      "name": "EXTENDED_BALLOT_TYPEHASH",
      "outputs": [
        {
          "internalType": "bytes32",
          "name": "",
          "type": "bytes32"
        }
      ],
      "stateMutability": "view",
      "type": "function"
    },
    {
      "inputs": [
        {
          "internalType": "uint256",
          "name": "proposalId",
          "type": "uint256"
        }
      ],
      "name": "cancel",
      "outputs": [],
      "stateMutability": "nonpayable",
      "type": "function"
    },
    {
      "inputs": [
        {
          "internalType": "uint256",
          "name": "proposalId",
          "type": "uint256"
        },
        {
          "internalType": "uint8",
          "name": "support",
          "type": "uint8"
        }
      ],
      "name": "castVote",
      "outputs": [
        {
          "internalType": "uint256",
          "name": "",
          "type": "uint256"
        }
      ],
      "stateMutability": "nonpayable",
      "type": "function"
    },
    {
      "inputs": [
        {
          "internalType": "uint256",
          "name": "proposalId",
          "type": "uint256"
        },
        {
          "internalType": "uint8",
          "name": "support",
          "type": "uint8"
        },
        {
          "internalType": "uint8",
          "name": "v",
          "type": "uint8"
        },
        {
          "internalType": "bytes32",
          "name": "r",
          "type": "bytes32"
        },
        {
          "internalType": "bytes32",
          "name": "s",
          "type": "bytes32"
        }
      ],
      "name": "castVoteBySig",
      "outputs": [
        {
          "internalType": "uint256",
          "name": "",
          "type": "uint256"
        }
      ],
      "stateMutability": "nonpayable",
      "type": "function"
    },
    {
      "inputs": [
        {
          "internalType": "uint256",
          "name": "proposalId",
          "type": "uint256"
        },
        {
          "internalType": "uint8",
          "name": "support",
          "type": "uint8"
        },
        {
          "internalType": "string",
          "name": "reason",
          "type": "string"
        }
      ],
      "name": "castVoteWithReason",
      "outputs": [
        {
          "internalType": "uint256",
          "name": "",
          "type": "uint256"
        }
      ],
      "stateMutability": "nonpayable",
      "type": "function"
    },
    {
      "inputs": [
        {
          "internalType": "uint256",
          "name": "proposalId",
          "type": "uint256"
        },
        {
          "internalType": "uint8",
          "name": "support",
          "type": "uint8"
        },
        {
          "internalType": "string",
          "name": "reason",
          "type": "string"
        },
        {
          "internalType": "bytes",
          "name": "params",
          "type": "bytes"
        }
      ],
      "name": "castVoteWithReasonAndParams",
      "outputs": [
        {
          "internalType": "uint256",
          "name": "",
          "type": "uint256"
        }
      ],
      "stateMutability": "nonpayable",
      "type": "function"
    },
    {
      "inputs": [
        {
          "internalType": "uint256",
          "name": "proposalId",
          "type": "uint256"
        },
        {
          "internalType": "uint8",
          "name": "support",
          "type": "uint8"
        },
        {
          "internalType": "string",
          "name": "reason",
          "type": "string"
        },
        {
          "internalType": "bytes",
          "name": "params",
          "type": "bytes"
        },
        {
          "internalType": "uint8",
          "name": "v",
          "type": "uint8"
        },
        {
          "internalType": "bytes32",
          "name": "r",
          "type": "bytes32"
        },
        {
          "internalType": "bytes32",
          "name": "s",
          "type": "bytes32"
        }
      ],
      "name": "castVoteWithReasonAndParamsBySig",
      "outputs": [
        {
          "internalType": "uint256",
          "name": "",
          "type": "uint256"
        }
      ],
      "stateMutability": "nonpayable",
      "type": "function"
    },
    {
      "inputs": [
        {
          "internalType": "address[]",
          "name": "targets",
          "type": "address[]"
        },
        {
          "internalType": "uint256[]",
          "name": "values",
          "type": "uint256[]"
        },
        {
          "internalType": "bytes[]",
          "name": "calldatas",
          "type": "bytes[]"
        },
        {
          "internalType": "bytes32",
          "name": "descriptionHash",
          "type": "bytes32"
        }
      ],
      "name": "execute",
      "outputs": [
        {
          "internalType": "uint256",
          "name": "",
          "type": "uint256"
        }
      ],
      "stateMutability": "payable",
      "type": "function"
    },
    {
      "inputs": [
        {
          "internalType": "uint256",
          "name": "proposalId",
          "type": "uint256"
        }
      ],
      "name": "execute",
      "outputs": [],
      "stateMutability": "payable",
      "type": "function"
    },
    {
      "inputs": [
        {
          "internalType": "uint256",
          "name": "proposalId",
          "type": "uint256"
        }
      ],
      "name": "getActions",
      "outputs": [
        {
          "internalType": "address[]",
          "name": "targets",
          "type": "address[]"
        },
        {
          "internalType": "uint256[]",
          "name": "values",
          "type": "uint256[]"
        },
        {
          "internalType": "string[]",
          "name": "signatures",
          "type": "string[]"
        },
        {
          "internalType": "bytes[]",
          "name": "calldatas",
          "type": "bytes[]"
        }
      ],
      "stateMutability": "view",
      "type": "function"
    },
    {
      "inputs": [
        {
          "internalType": "uint256",
          "name": "proposalId",
          "type": "uint256"
        },
        {
          "internalType": "address",
          "name": "voter",
          "type": "address"
        }
      ],
      "name": "getReceipt",
      "outputs": [
        {
          "components": [
            {
              "internalType": "bool",
              "name": "hasVoted",
              "type": "bool"
            },
            {
              "internalType": "uint8",
              "name": "support",
              "type": "uint8"
            },
            {
              "internalType": "uint96",
              "name": "votes",
              "type": "uint96"
            }
          ],
          "internalType": "struct IGovernorCompatibilityBravo.Receipt",
          "name": "",
          "type": "tuple"
        }
      ],
      "stateMutability": "view",
      "type": "function"
    },
    {
      "inputs": [
        {
          "internalType": "address",
          "name": "account",
          "type": "address"
        },
        {
          "internalType": "uint256",
          "name": "blockNumber",
          "type": "uint256"
        }
      ],
      "name": "getVotes",
      "outputs": [
        {
          "internalType": "uint256",
          "name": "",
          "type": "uint256"
        }
      ],
      "stateMutability": "view",
      "type": "function"
    },
    {
      "inputs": [
        {
          "internalType": "address",
          "name": "account",
          "type": "address"
        },
        {
          "internalType": "uint256",
          "name": "blockNumber",
          "type": "uint256"
        },
        {
          "internalType": "bytes",
          "name": "params",
          "type": "bytes"
        }
      ],
      "name": "getVotesWithParams",
      "outputs": [
        {
          "internalType": "uint256",
          "name": "",
          "type": "uint256"
        }
      ],
      "stateMutability": "view",
      "type": "function"
    },
    {
      "inputs": [
        {
          "internalType": "uint256",
          "name": "proposalId",
          "type": "uint256"
        },
        {
          "internalType": "address",
          "name": "account",
          "type": "address"
        }
      ],
      "name": "hasVoted",
      "outputs": [
        {
          "internalType": "bool",
          "name": "",
          "type": "bool"
        }
      ],
      "stateMutability": "view",
      "type": "function"
    },
    {
      "inputs": [
        {
          "internalType": "address[]",
          "name": "targets",
          "type": "address[]"
        },
        {
          "internalType": "uint256[]",
          "name": "values",
          "type": "uint256[]"
        },
        {
          "internalType": "bytes[]",
          "name": "calldatas",
          "type": "bytes[]"
        },
        {
          "internalType": "bytes32",
          "name": "descriptionHash",
          "type": "bytes32"
        }
      ],
      "name": "hashProposal",
      "outputs": [
        {
          "internalType": "uint256",
          "name": "",
          "type": "uint256"
        }
      ],
      "stateMutability": "pure",
      "type": "function"
    },
    {
      "inputs": [],
      "name": "name",
      "outputs": [
        {
          "internalType": "string",
          "name": "",
          "type": "string"
        }
      ],
      "stateMutability": "view",
      "type": "function"
    },
    {
      "inputs": [
        {
          "internalType": "address",
          "name": "",
          "type": "address"
        },
        {
          "internalType": "address",
          "name": "",
          "type": "address"
        },
        {
          "internalType": "uint256[]",
          "name": "",
          "type": "uint256[]"
        },
        {
          "internalType": "uint256[]",
          "name": "",
          "type": "uint256[]"
        },
        {
          "internalType": "bytes",
          "name": "",
          "type": "bytes"
        }
      ],
      "name": "onERC1155BatchReceived",
      "outputs": [
        {
          "internalType": "bytes4",
          "name": "",
          "type": "bytes4"
        }
      ],
      "stateMutability": "nonpayable",
      "type": "function"
    },
    {
      "inputs": [
        {
          "internalType": "address",
          "name": "",
          "type": "address"
        },
        {
          "internalType": "address",
          "name": "",
          "type": "address"
        },
        {
          "internalType": "uint256",
          "name": "",
          "type": "uint256"
        },
        {
          "internalType": "uint256",
          "name": "",
          "type": "uint256"
        },
        {
          "internalType": "bytes",
          "name": "",
          "type": "bytes"
        }
      ],
      "name": "onERC1155Received",
      "outputs": [
        {
          "internalType": "bytes4",
          "name": "",
          "type": "bytes4"
        }
      ],
      "stateMutability": "nonpayable",
      "type": "function"
    },
    {
      "inputs": [
        {
          "internalType": "address",
          "name": "",
          "type": "address"
        },
        {
          "internalType": "address",
          "name": "",
          "type": "address"
        },
        {
          "internalType": "uint256",
          "name": "",
          "type": "uint256"
        },
        {
          "internalType": "bytes",
          "name": "",
          "type": "bytes"
        }
      ],
      "name": "onERC721Received",
      "outputs": [
        {
          "internalType": "bytes4",
          "name": "",
          "type": "bytes4"
        }
      ],
      "stateMutability": "nonpayable",
      "type": "function"
    },
    {
      "inputs": [
        {
          "internalType": "uint256",
          "name": "proposalId",
          "type": "uint256"
        }
      ],
      "name": "proposalDeadline",
      "outputs": [
        {
          "internalType": "uint256",
          "name": "",
          "type": "uint256"
        }
      ],
      "stateMutability": "view",
      "type": "function"
    },
    {
      "inputs": [
        {
          "internalType": "uint256",
          "name": "proposalId",
          "type": "uint256"
        }
      ],
      "name": "proposalEta",
      "outputs": [
        {
          "internalType": "uint256",
          "name": "",
          "type": "uint256"
        }
      ],
      "stateMutability": "view",
      "type": "function"
    },
    {
      "inputs": [
        {
          "internalType": "uint256",
          "name": "proposalId",
          "type": "uint256"
        }
      ],
      "name": "proposalSnapshot",
      "outputs": [
        {
          "internalType": "uint256",
          "name": "",
          "type": "uint256"
        }
      ],
      "stateMutability": "view",
      "type": "function"
    },
    {
      "inputs": [],
      "name": "proposalThreshold",
      "outputs": [
        {
          "internalType": "uint256",
          "name": "",
          "type": "uint256"
        }
      ],
      "stateMutability": "view",
      "type": "function"
    },
    {
      "inputs": [
        {
          "internalType": "uint256",
          "name": "proposalId",
          "type": "uint256"
        }
      ],
      "name": "proposals",
      "outputs": [
        {
          "internalType": "uint256",
          "name": "id",
          "type": "uint256"
        },
        {
          "internalType": "address",
          "name": "proposer",
          "type": "address"
        },
        {
          "internalType": "uint256",
          "name": "eta",
          "type": "uint256"
        },
        {
          "internalType": "uint256",
          "name": "startBlock",
          "type": "uint256"
        },
        {
          "internalType": "uint256",
          "name": "endBlock",
          "type": "uint256"
        },
        {
          "internalType": "uint256",
          "name": "forVotes",
          "type": "uint256"
        },
        {
          "internalType": "uint256",
          "name": "againstVotes",
          "type": "uint256"
        },
        {
          "internalType": "uint256",
          "name": "abstainVotes",
          "type": "uint256"
        },
        {
          "internalType": "bool",
          "name": "canceled",
          "type": "bool"
        },
        {
          "internalType": "bool",
          "name": "executed",
          "type": "bool"
        }
      ],
      "stateMutability": "view",
      "type": "function"
    },
    {
      "inputs": [
        {
          "internalType": "address[]",
          "name": "targets",
          "type": "address[]"
        },
        {
          "internalType": "uint256[]",
          "name": "values",
          "type": "uint256[]"
        },
        {
          "internalType": "bytes[]",
          "name": "calldatas",
          "type": "bytes[]"
        },
        {
          "internalType": "string",
          "name": "description",
          "type": "string"
        }
      ],
      "name": "propose",
      "outputs": [
        {
          "internalType": "uint256",
          "name": "",
          "type": "uint256"
        }
      ],
      "stateMutability": "nonpayable",
      "type": "function"
    },
    {
      "inputs": [
        {
          "internalType": "address[]",
          "name": "targets",
          "type": "address[]"
        },
        {
          "internalType": "uint256[]",
          "name": "values",
          "type": "uint256[]"
        },
        {
          "internalType": "string[]",
          "name": "signatures",
          "type": "string[]"
        },
        {
          "internalType": "bytes[]",
          "name": "calldatas",
          "type": "bytes[]"
        },
        {
          "internalType": "string",
          "name": "description",
          "type": "string"
        }
      ],
      "name": "propose",
      "outputs": [
        {
          "internalType": "uint256",
          "name": "",
          "type": "uint256"
        }
      ],
      "stateMutability": "nonpayable",
      "type": "function"
    },
    {
      "inputs": [
        {
          "internalType": "address[]",
          "name": "targets",
          "type": "address[]"
        },
        {
          "internalType": "uint256[]",
          "name": "values",
          "type": "uint256[]"
        },
        {
          "internalType": "bytes[]",
          "name": "calldatas",
          "type": "bytes[]"
        },
        {
          "internalType": "bytes32",
          "name": "descriptionHash",
          "type": "bytes32"
        }
      ],
      "name": "queue",
      "outputs": [
        {
          "internalType": "uint256",
          "name": "",
          "type": "uint256"
        }
      ],
      "stateMutability": "nonpayable",
      "type": "function"
    },
    {
      "inputs": [
        {
          "internalType": "uint256",
          "name": "proposalId",
          "type": "uint256"
        }
      ],
      "name": "queue",
      "outputs": [],
      "stateMutability": "nonpayable",
      "type": "function"
    },
    {
      "inputs": [
        {
          "internalType": "uint256",
          "name": "blockNumber",
          "type": "uint256"
        }
      ],
      "name": "quorum",
      "outputs": [
        {
          "internalType": "uint256",
          "name": "",
          "type": "uint256"
        }
      ],
      "stateMutability": "view",
      "type": "function"
    },
    {
      "inputs": [],
      "name": "quorumDenominator",
      "outputs": [
        {
          "internalType": "uint256",
          "name": "",
          "type": "uint256"
        }
      ],
      "stateMutability": "view",
      "type": "function"
    },
    {
      "inputs": [
        {
          "internalType": "uint256",
          "name": "blockNumber",
          "type": "uint256"
        }
      ],
      "name": "quorumNumerator",
      "outputs": [
        {
          "internalType": "uint256",
          "name": "",
          "type": "uint256"
        }
      ],
      "stateMutability": "view",
      "type": "function"
    },
    {
      "inputs": [],
      "name": "quorumNumerator",
      "outputs": [
        {
          "internalType": "uint256",
          "name": "",
          "type": "uint256"
        }
      ],
      "stateMutability": "view",
      "type": "function"
    },
    {
      "inputs": [],
      "name": "quorumVotes",
      "outputs": [
        {
          "internalType": "uint256",
          "name": "",
          "type": "uint256"
        }
      ],
      "stateMutability": "view",
      "type": "function"
    },
    {
      "inputs": [
        {
          "internalType": "address",
          "name": "target",
          "type": "address"
        },
        {
          "internalType": "uint256",
          "name": "value",
          "type": "uint256"
        },
        {
          "internalType": "bytes",
          "name": "data",
          "type": "bytes"
        }
      ],
      "name": "relay",
      "outputs": [],
      "stateMutability": "payable",
      "type": "function"
    },
    {
      "inputs": [
        {
          "internalType": "uint256",
          "name": "newProposalThreshold",
          "type": "uint256"
        }
      ],
      "name": "setProposalThreshold",
      "outputs": [],
      "stateMutability": "nonpayable",
      "type": "function"
    },
    {
      "inputs": [
        {
          "internalType": "uint256",
          "name": "newVotingDelay",
          "type": "uint256"
        }
      ],
      "name": "setVotingDelay",
      "outputs": [],
      "stateMutability": "nonpayable",
      "type": "function"
    },
    {
      "inputs": [
        {
          "internalType": "uint256",
          "name": "newVotingPeriod",
          "type": "uint256"
        }
      ],
      "name": "setVotingPeriod",
      "outputs": [],
      "stateMutability": "nonpayable",
      "type": "function"
    },
    {
      "inputs": [
        {
          "internalType": "uint256",
          "name": "proposalId",
          "type": "uint256"
        }
      ],
      "name": "state",
      "outputs": [
        {
          "internalType": "enum IGovernor.ProposalState",
          "name": "",
          "type": "uint8"
        }
      ],
      "stateMutability": "view",
      "type": "function"
    },
    {
      "inputs": [
        {
          "internalType": "bytes4",
          "name": "interfaceId",
          "type": "bytes4"
        }
      ],
      "name": "supportsInterface",
      "outputs": [
        {
          "internalType": "bool",
          "name": "",
          "type": "bool"
        }
      ],
      "stateMutability": "view",
      "type": "function"
    },
    {
      "inputs": [],
      "name": "timelock",
      "outputs": [
        {
          "internalType": "address",
          "name": "",
          "type": "address"
        }
      ],
      "stateMutability": "view",
      "type": "function"
    },
    {
      "inputs": [],
      "name": "token",
      "outputs": [
        {
          "internalType": "contract IVotes",
          "name": "",
          "type": "address"
        }
      ],
      "stateMutability": "view",
      "type": "function"
    },
    {
      "inputs": [
        {
          "internalType": "uint256",
          "name": "newQuorumNumerator",
          "type": "uint256"
        }
      ],
      "name": "updateQuorumNumerator",
      "outputs": [],
      "stateMutability": "nonpayable",
      "type": "function"
    },
    {
      "inputs": [
        {
          "internalType": "contract TimelockController",
          "name": "newTimelock",
          "type": "address"
        }
      ],
      "name": "updateTimelock",
      "outputs": [],
      "stateMutability": "nonpayable",
      "type": "function"
    },
    {
      "inputs": [],
      "name": "version",
      "outputs": [
        {
          "internalType": "string",
          "name": "",
          "type": "string"
        }
      ],
      "stateMutability": "view",
      "type": "function"
    },
    {
      "inputs": [],
      "name": "votingDelay",
      "outputs": [
        {
          "internalType": "uint256",
          "name": "",
          "type": "uint256"
        }
      ],
      "stateMutability": "view",
      "type": "function"
    },
    {
      "inputs": [],
      "name": "votingPeriod",
      "outputs": [
        {
          "internalType": "uint256",
          "name": "",
          "type": "uint256"
        }
      ],
      "stateMutability": "view",
      "type": "function"
    },
    {
      "stateMutability": "payable",
      "type": "receive"
    }
  ],
  "bytecode": "0x6101606040523480156200001257600080fd5b5060405162005aab38038062005aab8339810160408190526200003591620008b2565b80600483600161c4e060006040518060400160405280600b81526020016a4d656c747946692044414f60a81b81525080620000756200016f60201b60201c565b815160208084019190912082518383012060e08290526101008190524660a0818152604080517f8b73c3c69bb8fe3d512ecc4cf759cc79239f7b179b0ffacaa9a75d522b39400f81880181905281830187905260608201869052608082019490945230818401528151808203909301835260c00190528051940193909320919290916080523060c05261012052505082516200011b9250600091506020840190620007fd565b50620001299050836200018a565b6200013482620001cb565b6200013f8162000272565b5050506001600160a01b0316610140526200015a81620002b3565b5062000166816200042b565b50505062000954565b6040805180820190915260018152603160f81b602082015290565b60045460408051918252602082018390527fc565b045403dc03c2eea82b81a0465edad9e2e7fc4d97e11421c209da93d7a93910160405180910390a1600455565b60008111620002315760405162461bcd60e51b815260206004820152602760248201527f476f7665726e6f7253657474696e67733a20766f74696e6720706572696f6420604482015266746f6f206c6f7760c81b60648201526084015b60405180910390fd5b60055460408051918252602082018390527f7e3f7f0708a84de9203036abaa450dccc85ad5ff52f78c170f3edb55cf5e8828910160405180910390a1600555565b60065460408051918252602082018390527fccb45da8d5717e6c4544694297c4ba5cf151d455c9bb0ed4fc7a38411bc05461910160405180910390a1600655565b6064811115620003385760405162461bcd60e51b815260206004820152604360248201527f476f7665726e6f72566f74657351756f72756d4672616374696f6e3a2071756f60448201527f72756d4e756d657261746f72206f7665722071756f72756d44656e6f6d696e616064820152623a37b960e91b608482015260a40162000228565b60006200034462000494565b90508015801590620003565750600954155b15620003d15760096000016040518060400160405280600063ffffffff1681526020016200038f84620004cc60201b620022451760201c565b6001600160e01b0390811690915282546001810184556000938452602093849020835194909301519091166401000000000263ffffffff909316929092179101555b620003ec8260096200053b60201b620022b21790919060201c565b505060408051828152602081018490527f0553476bf02ef2726e8ce5ced78d63e26e602e4a2257b1f559418e24b4633997910160405180910390a15050565b600a54604080516001600160a01b03928316815291831660208301527f08f74ea46ef7894f65eabfb5e6e695de773a000b47c529ab559178069b226401910160405180910390a1600a80546001600160a01b0319166001600160a01b0392909216919091179055565b60095460009015620004c557620004b760096200058e60201b620022e81760201c565b6001600160e01b0316905090565b5060085490565b60006001600160e01b03821115620005375760405162461bcd60e51b815260206004820152602760248201527f53616665436173743a2076616c756520646f65736e27742066697420696e20326044820152663234206269747360c81b606482015260840162000228565b5090565b60008062000578846000016200055c43620005dc60201b620023261760201c565b6200057286620004cc60201b620022451760201c565b62000643565b6001600160e01b03918216969116945092505050565b80546000908015620005d257620005ba83620005ac600184620008f1565b600091825260209091200190565b5464010000000090046001600160e01b0316620005d5565b60005b9392505050565b600063ffffffff821115620005375760405162461bcd60e51b815260206004820152602660248201527f53616665436173743a2076616c756520646f65736e27742066697420696e203360448201526532206269747360d01b606482015260840162000228565b8254600090819080156200079f5760006200066587620005ac600185620008f1565b60408051808201909152905463ffffffff8082168084526401000000009092046001600160e01b031660208401529192509087161015620006e95760405162461bcd60e51b815260206004820152601760248201527f436865636b706f696e743a20696e76616c6964206b6579000000000000000000604482015260640162000228565b8563ffffffff16816000015163ffffffff1614156200073e57846200071588620005ac600186620008f1565b80546001600160e01b03929092166401000000000263ffffffff9092169190911790556200078e565b6040805180820190915263ffffffff80881682526001600160e01b0380881660208085019182528b54600181018d5560008d81529190912094519151909216640100000000029216919091179101555b602001519250839150620007f59050565b50506040805180820190915263ffffffff80851682526001600160e01b0380851660208085019182528854600181018a5560008a8152918220955192519093166401000000000291909316179201919091559050815b935093915050565b8280546200080b9062000917565b90600052602060002090601f0160209004810192826200082f57600085556200087a565b82601f106200084a57805160ff19168380011785556200087a565b828001600101855582156200087a579182015b828111156200087a5782518255916020019190600101906200085d565b50620005379291505b8082111562000537576000815560010162000883565b6001600160a01b0381168114620008af57600080fd5b50565b60008060408385031215620008c657600080fd5b8251620008d38162000899565b6020840151909250620008e68162000899565b809150509250929050565b6000828210156200091257634e487b7160e01b600052601160045260246000fd5b500390565b600181811c908216806200092c57607f821691505b602082108114156200094e57634e487b7160e01b600052602260045260246000fd5b50919050565b60805160a05160c05160e0516101005161012051610140516150ee620009bd60003960008181610a4601528181612c810152612f4101526000613276015260006132c5015260006132a0015260006131f9015260006132230152600061324d01526150ee6000f3fe6080604052600436106102975760003560e01c80637d5e81e21161015a578063da95691a116100c1578063eb9019d41161007a578063eb9019d4146109a8578063ece40cc1146109c8578063f23a6e61146109e8578063f8ce560a14610a14578063fc0c546a14610a34578063fe0d94c114610a6857600080fd5b8063da95691a14610804578063dd4e2ba514610824578063ddf0b0091461086a578063deaaa7cc1461088a578063e23a9a52146108be578063ea0217cf1461098857600080fd5b8063b58131b011610113578063b58131b01461073e578063bc197c8114610753578063c01f9e371461077f578063c28bc2fa1461079f578063c59057e4146107b2578063d33219b4146107d257600080fd5b80637d5e81e21461069557806397c3d334146106b55780639a802a6d146106c9578063a7713a70146106e9578063a890c910146106fe578063ab58fb8e1461071e57600080fd5b8063328dd982116101fe57806354fd4d50116101b757806354fd4d50146105cb57806356781388146105f55780635f398a141461061557806360c4247f1461063557806370b0f660146106555780637b3c71d31461067557600080fd5b8063328dd982146104cf5780633932abb1146104ff5780633bccf4fd146105145780633e4f49e61461053457806340e58ee514610561578063438596321461058157600080fd5b8063150b7a0211610250578063150b7a02146103ef578063160cbed71461043357806324bc1a64146104535780632656227d146104685780632d63f6931461047b5780632fe3e2611461049b57600080fd5b8063013cf08b146102bf57806301ffc9a71461033a57806302a251a31461036a578063034201811461038d57806306f3f9e6146103ad57806306fdde03146103cd57600080fd5b366102ba57306102a5610a7b565b6001600160a01b0316146102b857600080fd5b005b600080fd5b3480156102cb57600080fd5b506102df6102da3660046140df565b610a94565b604080519a8b526001600160a01b0390991660208b0152978901969096526060880194909452608087019290925260a086015260c085015260e084015215156101008301521515610120820152610140015b60405180910390f35b34801561034657600080fd5b5061035a6103553660046140f8565b610b3f565b6040519015158152602001610331565b34801561037657600080fd5b5061037f610b50565b604051908152602001610331565b34801561039957600080fd5b5061037f6103a836600461422e565b610b5b565b3480156103b957600080fd5b506102b86103c83660046140df565b610c53565b3480156103d957600080fd5b506103e2610ceb565b6040516103319190614330565b3480156103fb57600080fd5b5061041a61040a366004614358565b630a85bd0160e11b949350505050565b6040516001600160e01b03199091168152602001610331565b34801561043f57600080fd5b5061037f61044e366004614534565b610d7d565b34801561045f57600080fd5b5061037f610f9c565b61037f610476366004614534565b610fac565b34801561048757600080fd5b5061037f6104963660046140df565b611099565b3480156104a757600080fd5b5061037f7fb3b3f3b703cd84ce352197dcff232b1b5d3cfb2025ce47cf04742d0651f1af8881565b3480156104db57600080fd5b506104ef6104ea3660046140df565b6110d0565b604051610331949392919061468c565b34801561050b57600080fd5b5061037f611361565b34801561052057600080fd5b5061037f61052f3660046146d9565b61136c565b34801561054057600080fd5b5061055461054f3660046140df565b6113e2565b604051610331919061473d565b34801561056d57600080fd5b506102b861057c3660046140df565b6113ed565b34801561058d57600080fd5b5061035a61059c366004614765565b60008281526007602090815260408083206001600160a01b038516845260080190915290205460ff1692915050565b3480156105d757600080fd5b506040805180820190915260018152603160f81b60208201526103e2565b34801561060157600080fd5b5061037f610610366004614795565b611705565b34801561062157600080fd5b5061037f6106303660046147c1565b61172e565b34801561064157600080fd5b5061037f6106503660046140df565b611778565b34801561066157600080fd5b506102b86106703660046140df565b61180d565b34801561068157600080fd5b5061037f610690366004614844565b611899565b3480156106a157600080fd5b5061037f6106b036600461489d565b6118eb565b3480156106c157600080fd5b50606461037f565b3480156106d557600080fd5b5061037f6106e436600461493d565b611902565b3480156106f557600080fd5b5061037f611919565b34801561070a57600080fd5b506102b8610719366004614995565b611943565b34801561072a57600080fd5b5061037f6107393660046140df565b6119cf565b34801561074a57600080fd5b5061037f611a78565b34801561075f57600080fd5b5061041a61076e3660046149b2565b63bc197c8160e01b95945050505050565b34801561078b57600080fd5b5061037f61079a3660046140df565b611a83565b6102b86107ad366004614a45565b611ab2565b3480156107be57600080fd5b5061037f6107cd366004614534565b611bc6565b3480156107de57600080fd5b50600a546001600160a01b03165b6040516001600160a01b039091168152602001610331565b34801561081057600080fd5b5061037f61081f366004614b07565b611c00565b34801561083057600080fd5b5060408051808201909152601a81527f737570706f72743d627261766f2671756f72756d3d627261766f00000000000060208201526103e2565b34801561087657600080fd5b506102b86108853660046140df565b611c25565b34801561089657600080fd5b5061037f7f150214d74d59b7d1e90c73fc22ef3d991dd0a76b046543d4d80ab92d2a50328f81565b3480156108ca57600080fd5b506109586108d9366004614765565b60408051606081018252600080825260208201819052918101919091525060009182526007602090815260408084206001600160a01b0393909316845260089092018152918190208151606081018352905460ff8082161515835261010082041693820193909352620100009092046001600160601b03169082015290565b6040805182511515815260208084015160ff1690820152918101516001600160601b031690820152606001610331565b34801561099457600080fd5b506102b86109a33660046140df565b611e93565b3480156109b457600080fd5b5061037f6109c3366004614ba8565b611f1f565b3480156109d457600080fd5b506102b86109e33660046140df565b611f40565b3480156109f457600080fd5b5061041a610a03366004614bd4565b63f23a6e6160e01b95945050505050565b348015610a2057600080fd5b5061037f610a2f3660046140df565b611fcc565b348015610a4057600080fd5b506107ec7f000000000000000000000000000000000000000000000000000000000000000081565b6102b8610a763660046140df565b611fd7565b6000610a8f600a546001600160a01b031690565b905090565b8060008080808080808080610aa88a6119cf565b9750610ab38b611099565b9650610abe8b611a83565b60008c81526007602081905260408220805460058201546006830154938301546001600160a01b039092169e50949a50939850909650919450610b008d6113e2565b90506002816007811115610b1657610b16614727565b1493506007816007811115610b2d57610b2d614727565b14925050509193959799509193959799565b6000610b4a8261238b565b92915050565b6000610a8f60055490565b600080610bff610bf77fb3b3f3b703cd84ce352197dcff232b1b5d3cfb2025ce47cf04742d0651f1af888c8c8c8c604051610b97929190614c3c565b60405180910390208b80519060200120604051602001610bdc959493929190948552602085019390935260ff9190911660408401526060830152608082015260a00190565b604051602081830303815290604052805190602001206123b0565b8686866123fe565b9050610c458a828b8b8b8080601f0160208091040260200160405190810160405280939291908181526020018383808284376000920191909152508d925061241c915050565b9a9950505050505050505050565b610c5b610a7b565b6001600160a01b0316336001600160a01b031614610c945760405162461bcd60e51b8152600401610c8b90614c4c565b60405180910390fd5b30610c9d610a7b565b6001600160a01b031614610cdf5760008036604051610cbd929190614c3c565b604051809103902090505b80610cd3600261257e565b14610cdd57610cc8565b505b610ce8816125fd565b50565b606060008054610cfa90614c83565b80601f0160208091040260200160405190810160405280929190818152602001828054610d2690614c83565b8015610d735780601f10610d4857610100808354040283529160200191610d73565b820191906000526020600020905b815481529060010190602001808311610d5657829003601f168201915b5050505050905090565b600080610d8c86868686611bc6565b90506004610d99826113e2565b6007811115610daa57610daa614727565b14610dc75760405162461bcd60e51b8152600401610c8b90614cbe565b600a546040805163793d064960e11b815290516000926001600160a01b03169163f27a0c92916004808301926020929190829003018186803b158015610e0c57600080fd5b505afa158015610e20573d6000803e3d6000fd5b505050506040513d601f19601f82011682018060405250810190610e449190614cff565b600a5460405163b1c5f42760e01b81529192506001600160a01b03169063b1c5f42790610e7e908a908a908a906000908b90600401614d18565b60206040518083038186803b158015610e9657600080fd5b505afa158015610eaa573d6000803e3d6000fd5b505050506040513d601f19601f82011682018060405250810190610ece9190614cff565b6000838152600b602052604080822092909255600a5491516308f2a0bb60e41b81526001600160a01b0390921691638f2a0bb091610f19918b918b918b91908b908990600401614d66565b600060405180830381600087803b158015610f3357600080fd5b505af1158015610f47573d6000803e3d6000fd5b505050507f9a2e42fd6722813d69113e7d0079d3d940171428df7373df9c7f7617cfda2892828242610f799190614dd4565b604080519283526020830191909152015b60405180910390a15095945050505050565b6000610a8f610a2f600143614dec565b600080610fbb86868686611bc6565b90506000610fc8826113e2565b90506004816007811115610fde57610fde614727565b1480610ffb57506005816007811115610ff957610ff9614727565b145b6110175760405162461bcd60e51b8152600401610c8b90614cbe565b600082815260016020818152604092839020600201805460ff191690921790915590518381527f712ae1383f79ac853f8d882153778e0260ef8f03b504e2866e0593e04d2b291f910160405180910390a16110758288888888612749565b61108282888888886127ec565b61108f82888888886127f9565b5095945050505050565b60008181526001602090815260408083208151928301909152546001600160401b0316908190525b6001600160401b031692915050565b6060806060806000600760008781526020019081526020016000209050806001018160020182600301836004018380548060200260200160405190810160405280929190818152602001828054801561115257602002820191906000526020600020905b81546001600160a01b03168152600190910190602001808311611134575b50505050509350828054806020026020016040519081016040528092919081815260200182805480156111a457602002820191906000526020600020905b815481526020019060010190808311611190575b5050505050925081805480602002602001604051908101604052809291908181526020016000905b828210156112785783829060005260206000200180546111eb90614c83565b80601f016020809104026020016040519081016040528092919081815260200182805461121790614c83565b80156112645780601f1061123957610100808354040283529160200191611264565b820191906000526020600020905b81548152906001019060200180831161124757829003601f168201915b5050505050815260200190600101906111cc565b50505050915080805480602002602001604051908101604052809291908181526020016000905b8282101561134b5783829060005260206000200180546112be90614c83565b80601f01602080910402602001604051908101604052809291908181526020018280546112ea90614c83565b80156113375780601f1061130c57610100808354040283529160200191611337565b820191906000526020600020905b81548152906001019060200180831161131a57829003601f168201915b50505050508152602001906001019061129f565b5050505090509450945094509450509193509193565b6000610a8f60045490565b604080517f150214d74d59b7d1e90c73fc22ef3d991dd0a76b046543d4d80ab92d2a50328f602082015290810186905260ff8516606082015260009081906113ba90610bf790608001610bdc565b90506113d787828860405180602001604052806000815250612832565b979650505050505050565b6000610b4a82612855565b600081815260076020526040902080546001600160a01b0316336001600160a01b0316148061143b575061141f611a78565b8154611439906001600160a01b03166109c3600143614dec565b105b6114975760405162461bcd60e51b815260206004820152602760248201527f476f7665726e6f72427261766f3a2070726f706f7365722061626f76652074686044820152661c995cda1bdb1960ca1b6064820152608401610c8b565b611700816001018054806020026020016040519081016040528092919081815260200182805480156114f257602002820191906000526020600020905b81546001600160a01b031681526001909101906020018083116114d4575b50505050508260020180548060200260200160405190810160405280929190818152602001828054801561154557602002820191906000526020600020905b815481526020019060010190808311611531575b50505050506116f684600301805480602002602001604051908101604052809291908181526020016000905b8282101561161d57838290600052602060002001805461159090614c83565b80601f01602080910402602001604051908101604052809291908181526020018280546115bc90614c83565b80156116095780601f106115de57610100808354040283529160200191611609565b820191906000526020600020905b8154815290600101906020018083116115ec57829003601f168201915b505050505081526020019060010190611571565b50505060048701805460408051602080840282018101909252828152935060009084015b828210156116ed57838290600052602060002001805461166090614c83565b80601f016020809104026020016040519081016040528092919081815260200182805461168c90614c83565b80156116d95780601f106116ae576101008083540402835291602001916116d9565b820191906000526020600020905b8154815290600101906020018083116116bc57829003601f168201915b505050505081526020019060010190611641565b505050506129bd565b8460090154612aef565b505050565b60008033905061172684828560405180602001604052806000815250612832565b949350505050565b6000803390506113d787828888888080601f0160208091040260200160405190810160405280939291908181526020018383808284376000920191909152508a925061241c915050565b6009546000908061178d575050600854919050565b6000600961179c600184614dec565b815481106117ac576117ac614e03565b60009182526020918290206040805180820190915291015463ffffffff8116808352600160201b9091046001600160e01b0316928201929092529150841061180257602001516001600160e01b03169392505050565b611726600985612afd565b611815610a7b565b6001600160a01b0316336001600160a01b0316146118455760405162461bcd60e51b8152600401610c8b90614c4c565b3061184e610a7b565b6001600160a01b031614611890576000803660405161186e929190614c3c565b604051809103902090505b80611884600261257e565b1461188e57611879565b505b610ce881612baf565b6000803390506118e186828787878080601f01602080910402602001604051908101604052809392919081815260200183838082843760009201919091525061283292505050565b9695505050505050565b60006118f985858585612bf0565b95945050505050565b600061190f848484612c58565b90505b9392505050565b6009546000901561193c5761192e60096122e8565b6001600160e01b0316905090565b5060085490565b61194b610a7b565b6001600160a01b0316336001600160a01b03161461197b5760405162461bcd60e51b8152600401610c8b90614c4c565b30611984610a7b565b6001600160a01b0316146119c657600080366040516119a4929190614c3c565b604051809103902090505b806119ba600261257e565b146119c4576119af565b505b610ce881612cfd565b600a546000828152600b602052604080822054905163d45c443560e01b81526004810191909152909182916001600160a01b039091169063d45c44359060240160206040518083038186803b158015611a2757600080fd5b505afa158015611a3b573d6000803e3d6000fd5b505050506040513d601f19601f82011682018060405250810190611a5f9190614cff565b905080600114611a6f5780611912565b60009392505050565b6000610a8f60065490565b60008181526001602081815260408084208151928301909152909101546001600160401b0316908190526110c1565b611aba610a7b565b6001600160a01b0316336001600160a01b031614611aea5760405162461bcd60e51b8152600401610c8b90614c4c565b30611af3610a7b565b6001600160a01b031614611b355760008036604051611b13929190614c3c565b604051809103902090505b80611b29600261257e565b14611b3357611b1e565b505b600080856001600160a01b0316858585604051611b53929190614c3c565b60006040518083038185875af1925050503d8060008114611b90576040519150601f19603f3d011682016040523d82523d6000602084013e611b95565b606091505b5091509150611bbd828260405180606001604052806028815260200161509160289139612d66565b50505050505050565b600084848484604051602001611bdf9493929190614e19565b60408051601f19818403018152919052805160209091012095945050505050565b6000611c10338787878787612d7f565b6118e18686611c1f87876129bd565b856118eb565b600081815260076020908152604091829020600181018054845181850281018501909552808552919361170093909290830182828015611c8e57602002820191906000526020600020905b81546001600160a01b03168152600190910190602001808311611c70575b505050505082600201805480602002602001604051908101604052809291908181526020018280548015611ce157602002820191906000526020600020905b815481526020019060010190808311611ccd575b5050505050611e8984600301805480602002602001604051908101604052809291908181526020016000905b82821015611db9578382906000526020600020018054611d2c90614c83565b80601f0160208091040260200160405190810160405280929190818152602001828054611d5890614c83565b8015611da55780601f10611d7a57610100808354040283529160200191611da5565b820191906000526020600020905b815481529060010190602001808311611d8857829003601f168201915b505050505081526020019060010190611d0d565b50505060048701805460408051602080840282018101909252828152935060009084015b828210156116ed578382906000526020600020018054611dfc90614c83565b80601f0160208091040260200160405190810160405280929190818152602001828054611e2890614c83565b8015611e755780601f10611e4a57610100808354040283529160200191611e75565b820191906000526020600020905b815481529060010190602001808311611e5857829003601f168201915b505050505081526020019060010190611ddd565b8460090154610d7d565b611e9b610a7b565b6001600160a01b0316336001600160a01b031614611ecb5760405162461bcd60e51b8152600401610c8b90614c4c565b30611ed4610a7b565b6001600160a01b031614611f165760008036604051611ef4929190614c3c565b604051809103902090505b80611f0a600261257e565b14611f1457611eff565b505b610ce881612e3c565b60006119128383611f3b60408051602081019091526000815290565b612c58565b611f48610a7b565b6001600160a01b0316336001600160a01b031614611f785760405162461bcd60e51b8152600401610c8b90614c4c565b30611f81610a7b565b6001600160a01b031614611fc35760008036604051611fa1929190614c3c565b604051809103902090505b80611fb7600261257e565b14611fc157611fac565b505b610ce881612edd565b6000610b4a82612f1e565b60008181526007602090815260409182902060018101805484518185028101850190955280855291936117009390929083018282801561204057602002820191906000526020600020905b81546001600160a01b03168152600190910190602001808311612022575b50505050508260020180548060200260200160405190810160405280929190818152602001828054801561209357602002820191906000526020600020905b81548152602001906001019080831161207f575b505050505061223b84600301805480602002602001604051908101604052809291908181526020016000905b8282101561216b5783829060005260206000200180546120de90614c83565b80601f016020809104026020016040519081016040528092919081815260200182805461210a90614c83565b80156121575780601f1061212c57610100808354040283529160200191612157565b820191906000526020600020905b81548152906001019060200180831161213a57829003601f168201915b5050505050815260200190600101906120bf565b50505060048701805460408051602080840282018101909252828152935060009084015b828210156116ed5783829060005260206000200180546121ae90614c83565b80601f01602080910402602001604051908101604052809291908181526020018280546121da90614c83565b80156122275780601f106121fc57610100808354040283529160200191612227565b820191906000526020600020905b81548152906001019060200180831161220a57829003601f168201915b50505050508152602001906001019061218f565b8460090154610fac565b60006001600160e01b038211156122ae5760405162461bcd60e51b815260206004820152602760248201527f53616665436173743a2076616c756520646f65736e27742066697420696e20326044820152663234206269747360c81b6064820152608401610c8b565b5090565b6000806122d0846122c243612326565b6122cb86612245565b612fd7565b6001600160e01b0391821693501690505b9250929050565b80546000908015611a6f5761231083612302600184614dec565b600091825260209091200190565b54600160201b90046001600160e01b0316611912565b600063ffffffff8211156122ae5760405162461bcd60e51b815260206004820152602660248201527f53616665436173743a2076616c756520646f65736e27742066697420696e203360448201526532206269747360d01b6064820152608401610c8b565b60006001600160e01b03198216636e665ced60e01b1480610b4a5750610b4a82613181565b6000610b4a6123bd6131ec565b8360405161190160f01b6020820152602281018390526042810182905260009060620160405160208183030381529060405280519060200120905092915050565b600080600061240f87878787613313565b9150915061108f816133d7565b6000858152600160208190526040822090612436886113e2565b600781111561244757612447614727565b146124a05760405162461bcd60e51b815260206004820152602360248201527f476f7665726e6f723a20766f7465206e6f742063757272656e746c792061637460448201526269766560e81b6064820152608401610c8b565b604080516020810190915281546001600160401b0316908190526000906124c990889086612c58565b90506124d88888888488613525565b835161252a57866001600160a01b03167fb8e138887d0aa13bab447e82de9d5c1777041ecd21ca36ba824ff1e6c07ddda48988848960405161251d9493929190614e64565b60405180910390a26113d7565b866001600160a01b03167fe2babfbac5889a709b63bb7f598b324e08bc5a4fb9ec647fb3cbc9ec07eb8712898884898960405161256b959493929190614e8c565b60405180910390a2979650505050505050565b60006125998254600f81810b600160801b909204900b131590565b156125b757604051631ed9509560e11b815260040160405180910390fd5b508054600f0b6000818152600180840160205260408220805492905583546fffffffffffffffffffffffffffffffff191692016001600160801b03169190911790915590565b60648111156126805760405162461bcd60e51b815260206004820152604360248201527f476f7665726e6f72566f74657351756f72756d4672616374696f6e3a2071756f60448201527f72756d4e756d657261746f72206f7665722071756f72756d44656e6f6d696e616064820152623a37b960e91b608482015260a401610c8b565b600061268a611919565b9050801580159061269b5750600954155b156126ff576040805180820190915260008152600990602081016126be84612245565b6001600160e01b039081169091528254600181018455600093845260209384902083519490930151909116600160201b0263ffffffff909316929092179101555b61270a6009836122b2565b505060408051828152602081018490527f0553476bf02ef2726e8ce5ced78d63e26e602e4a2257b1f559418e24b4633997910160405180910390a15050565b30612752610a7b565b6001600160a01b0316146127e55760005b84518110156127e357306001600160a01b031685828151811061278857612788614e03565b60200260200101516001600160a01b031614156127d3576127d38382815181106127b4576127b4614e03565b60200260200101518051906020012060026136c290919063ffffffff16565b6127dc81614ed2565b9050612763565b505b5050505050565b6127e585858585856136fe565b30612802610a7b565b6001600160a01b0316146127e557600254600f81810b600160801b909204900b13156127e55760006002556127e5565b60006118f98585858561285060408051602081019091526000815290565b61241c565b60008061286183613772565b9050600481600781111561287757612877614727565b146128825792915050565b6000838152600b60205260409020548061289d575092915050565b600a54604051632ab0f52960e01b8152600481018390526001600160a01b0390911690632ab0f5299060240160206040518083038186803b1580156128e157600080fd5b505afa1580156128f5573d6000803e3d6000fd5b505050506040513d601f19601f820116820180604052508101906129199190614eed565b15612928575060079392505050565b600a54604051632c258a9f60e11b8152600481018390526001600160a01b039091169063584b153e9060240160206040518083038186803b15801561296c57600080fd5b505afa158015612980573d6000803e3d6000fd5b505050506040513d601f19601f820116820180604052508101906129a49190614eed565b156129b3575060059392505050565b5060029392505050565b6060600082516001600160401b038111156129da576129da614179565b604051908082528060200260200182016040528015612a0d57816020015b60608152602001906001900390816129f85790505b50905060005b8451811015612ae757848181518110612a2e57612a2e614e03565b602002602001015151600014612a9e57848181518110612a5057612a50614e03565b602002602001015180519060200120848281518110612a7157612a71614e03565b6020026020010151604051602001612a8a929190614f0f565b604051602081830303815290604052612ab9565b838181518110612ab057612ab0614e03565b60200260200101515b828281518110612acb57612acb614e03565b602002602001018190525080612ae090614ed2565b9050612a13565b509392505050565b60006118f985858585613881565b6000438210612b4e5760405162461bcd60e51b815260206004820181905260248201527f436865636b706f696e74733a20626c6f636b206e6f7420796574206d696e65646044820152606401610c8b565b6000612b5983612326565b84549091506000612b6c86848385613933565b90508015612b9957612b8386612302600184614dec565b54600160201b90046001600160e01b0316612b9c565b60005b6001600160e01b03169695505050505050565b60045460408051918252602082018390527fc565b045403dc03c2eea82b81a0465edad9e2e7fc4d97e11421c209da93d7a93910160405180910390a1600455565b6000612c4c33868686516001600160401b03811115612c1157612c11614179565b604051908082528060200260200182016040528015612c4457816020015b6060815260200190600190039081612c2f5790505b508787612d7f565b6118f985858585613989565b604051630748d63560e31b81526001600160a01b038481166004830152602482018490526000917f000000000000000000000000000000000000000000000000000000000000000090911690633a46b1a89060440160206040518083038186803b158015612cc557600080fd5b505afa158015612cd9573d6000803e3d6000fd5b505050506040513d601f19601f8201168201806040525081019061190f9190614cff565b600a54604080516001600160a01b03928316815291831660208301527f08f74ea46ef7894f65eabfb5e6e695de773a000b47c529ab559178069b226401910160405180910390a1600a80546001600160a01b0319166001600160a01b0392909216919091179055565b60608315612d75575081611912565b6119128383613c4c565b805160208201206000612d9d8787612d9788886129bd565b85611bc6565b6000818152600760205260409020600981015491925090612e315780546001600160a01b0319166001600160a01b038a161781558751612de690600183019060208b0190613e95565b508651612dfc90600283019060208a0190613ef6565b508551612e129060038301906020890190613f31565b508451612e289060048301906020880190613f8a565b50600981018390555b505050505050505050565b60008111612e9c5760405162461bcd60e51b815260206004820152602760248201527f476f7665726e6f7253657474696e67733a20766f74696e6720706572696f6420604482015266746f6f206c6f7760c81b6064820152608401610c8b565b60055460408051918252602082018390527f7e3f7f0708a84de9203036abaa450dccc85ad5ff52f78c170f3edb55cf5e8828910160405180910390a1600555565b60065460408051918252602082018390527fccb45da8d5717e6c4544694297c4ba5cf151d455c9bb0ed4fc7a38411bc05461910160405180910390a1600655565b60006064612f2b83611778565b604051632394e7a360e21b8152600481018590527f00000000000000000000000000000000000000000000000000000000000000006001600160a01b031690638e539e8c9060240160206040518083038186803b158015612f8b57600080fd5b505afa158015612f9f573d6000803e3d6000fd5b505050506040513d601f19601f82011682018060405250810190612fc39190614cff565b612fcd9190614f40565b610b4a9190614f5f565b825460009081908015613124576000612ff587612302600185614dec565b60408051808201909152905463ffffffff808216808452600160201b9092046001600160e01b0316602084015291925090871610156130765760405162461bcd60e51b815260206004820152601760248201527f436865636b706f696e743a20696e76616c6964206b65790000000000000000006044820152606401610c8b565b8563ffffffff16816000015163ffffffff1614156130c5578461309e88612302600186614dec565b80546001600160e01b0392909216600160201b0263ffffffff909216919091179055613114565b6040805180820190915263ffffffff80881682526001600160e01b0380881660208085019182528b54600181018d5560008d81529190912094519151909216600160201b029216919091179101555b6020015192508391506131799050565b50506040805180820190915263ffffffff80851682526001600160e01b0380851660208085019182528854600181018a5560008a815291822095519251909316600160201b0291909316179201919091559050815b935093915050565b60006001600160e01b0319821663bf26d89760e01b14806131b257506001600160e01b031982166379dd796f60e01b145b806131cd57506001600160e01b03198216630271189760e51b145b80610b4a57506301ffc9a760e01b6001600160e01b0319831614610b4a565b6000306001600160a01b037f00000000000000000000000000000000000000000000000000000000000000001614801561324557507f000000000000000000000000000000000000000000000000000000000000000046145b1561326f57507f000000000000000000000000000000000000000000000000000000000000000090565b50604080517f00000000000000000000000000000000000000000000000000000000000000006020808301919091527f0000000000000000000000000000000000000000000000000000000000000000828401527f000000000000000000000000000000000000000000000000000000000000000060608301524660808301523060a0808401919091528351808403909101815260c0909201909252805191012090565b6000807f7fffffffffffffffffffffffffffffff5d576e7357a4501ddfe92f46681b20a083111561334a57506000905060036133ce565b6040805160008082526020820180845289905260ff881692820192909252606081018690526080810185905260019060a0016020604051602081039080840390855afa15801561339e573d6000803e3d6000fd5b5050604051601f1901519150506001600160a01b0381166133c7576000600192509250506133ce565b9150600090505b94509492505050565b60008160048111156133eb576133eb614727565b14156133f45750565b600181600481111561340857613408614727565b14156134565760405162461bcd60e51b815260206004820152601860248201527f45434453413a20696e76616c6964207369676e617475726500000000000000006044820152606401610c8b565b600281600481111561346a5761346a614727565b14156134b85760405162461bcd60e51b815260206004820152601f60248201527f45434453413a20696e76616c6964207369676e6174757265206c656e677468006044820152606401610c8b565b60038160048111156134cc576134cc614727565b1415610ce85760405162461bcd60e51b815260206004820152602260248201527f45434453413a20696e76616c6964207369676e6174757265202773272076616c604482015261756560f01b6064820152608401610c8b565b60008581526007602090815260408083206001600160a01b038816845260088101909252909120805460ff16156135b45760405162461bcd60e51b815260206004820152602d60248201527f476f7665726e6f72436f6d7061746962696c697479427261766f3a20766f746560448201526c08185b1c9958591e4818d85cdd609a1b6064820152608401610c8b565b805460ff86166101000261ffff199091161760011781556135d484613c76565b81546001600160601b039190911662010000026dffffffffffffffffffffffff00001990911617815560ff851661362457838260060160008282546136199190614dd4565b90915550611bbd9050565b60ff85166001141561364457838260050160008282546136199190614dd4565b60ff85166002141561366457838260070160008282546136199190614dd4565b60405162461bcd60e51b815260206004820152602d60248201527f476f7665726e6f72436f6d7061746962696c697479427261766f3a20696e766160448201526c6c696420766f7465207479706560981b6064820152608401610c8b565b8154600160801b90819004600f0b6000818152600180860160205260409091209390935583546001600160801b03908116939091011602179055565b600a5460405163e38335e560e01b81526001600160a01b039091169063e38335e5903490613739908890889088906000908990600401614d18565b6000604051808303818588803b15801561375257600080fd5b505af1158015613766573d6000803e3d6000fd5b50505050505050505050565b6000818152600160205260408120600281015460ff16156137965750600792915050565b6002810154610100900460ff16156137b15750600292915050565b60006137bc84611099565b90508061380b5760405162461bcd60e51b815260206004820152601d60248201527f476f7665726e6f723a20756e6b6e6f776e2070726f706f73616c2069640000006044820152606401610c8b565b43811061381c575060009392505050565b600061382785611a83565b905043811061383b57506001949350505050565b61384485613cde565b8015613866575060008581526007602052604090206006810154600590910154115b1561387657506004949350505050565b506003949350505050565b60008061389086868686613d06565b6000818152600b6020526040902054909150156118f957600a546000828152600b60205260409081902054905163c4d252f560e01b81526001600160a01b039092169163c4d252f5916138e99160040190815260200190565b600060405180830381600087803b15801561390357600080fd5b505af1158015613917573d6000803e3d6000fd5b5050506000828152600b60205260408120555095945050505050565b60005b81831015612ae757600061394a8484613e12565b60008781526020902090915063ffffffff86169082015463ffffffff16111561397557809250613983565b613980816001614dd4565b93505b50613936565b6000613993611a78565b6139a2336109c3600143614dec565b1015613a0a5760405162461bcd60e51b815260206004820152603160248201527f476f7665726e6f723a2070726f706f73657220766f7465732062656c6f7720706044820152701c9bdc1bdcd85b081d1a1c995cda1bdb19607a1b6064820152608401610c8b565b6000613a1f8686868680519060200120611bc6565b90508451865114613a425760405162461bcd60e51b8152600401610c8b90614f81565b8351865114613a635760405162461bcd60e51b8152600401610c8b90614f81565b6000865111613ab45760405162461bcd60e51b815260206004820152601860248201527f476f7665726e6f723a20656d7074792070726f706f73616c00000000000000006044820152606401610c8b565b600081815260016020908152604091829020825191820190925281546001600160401b03169081905215613b345760405162461bcd60e51b815260206004820152602160248201527f476f7665726e6f723a2070726f706f73616c20616c72656164792065786973746044820152607360f81b6064820152608401610c8b565b6000613b46613b41611361565b613e2d565b613b4f43613e2d565b613b599190614fc2565b90506000613b68613b41610b50565b613b729083614fc2565b835467ffffffffffffffff19166001600160401b038416178455905060018301805467ffffffffffffffff19166001600160401b0383161790557f7d84a6263ae0d98d3329bd7b46bb4e8d6f98cd35a7adb45c274c8b7fd5ebd5e084338b8b8d516001600160401b03811115613bea57613bea614179565b604051908082528060200260200182016040528015613c1d57816020015b6060815260200190600190039081613c085790505b508c88888e604051613c3799989796959493929190614fed565b60405180910390a15091979650505050505050565b815115613c5c5781518083602001fd5b8060405162461bcd60e51b8152600401610c8b9190614330565b60006001600160601b038211156122ae5760405162461bcd60e51b815260206004820152602660248201527f53616665436173743a2076616c756520646f65736e27742066697420696e203960448201526536206269747360d01b6064820152608401610c8b565b60008181526007602052604081206005810154613cfd610a2f85611099565b11159392505050565b600080613d1586868686611bc6565b90506000613d22826113e2565b90506002816007811115613d3857613d38614727565b14158015613d5857506006816007811115613d5557613d55614727565b14155b8015613d7657506007816007811115613d7357613d73614727565b14155b613dc25760405162461bcd60e51b815260206004820152601d60248201527f476f7665726e6f723a2070726f706f73616c206e6f74206163746976650000006044820152606401610c8b565b60008281526001602052604090819020600201805461ff001916610100179055517f789cf55be980739dad1d0699b93b58e806b51c9d96619bfa8fe0a28abaa7b30c90610f8a9084815260200190565b6000613e216002848418614f5f565b61191290848416614dd4565b60006001600160401b038211156122ae5760405162461bcd60e51b815260206004820152602660248201527f53616665436173743a2076616c756520646f65736e27742066697420696e203660448201526534206269747360d01b6064820152608401610c8b565b828054828255906000526020600020908101928215613eea579160200282015b82811115613eea57825182546001600160a01b0319166001600160a01b03909116178255602090920191600190910190613eb5565b506122ae929150613fe3565b828054828255906000526020600020908101928215613eea579160200282015b82811115613eea578251825591602001919060010190613f16565b828054828255906000526020600020908101928215613f7e579160200282015b82811115613f7e5782518051613f6e918491602090910190613ff8565b5091602001919060010190613f51565b506122ae92915061406b565b828054828255906000526020600020908101928215613fd7579160200282015b82811115613fd75782518051613fc7918491602090910190613ff8565b5091602001919060010190613faa565b506122ae929150614088565b5b808211156122ae5760008155600101613fe4565b82805461400490614c83565b90600052602060002090601f0160209004810192826140265760008555613eea565b82601f1061403f57805160ff1916838001178555613eea565b82800160010185558215613eea5791820182811115613eea578251825591602001919060010190613f16565b808211156122ae57600061407f82826140a5565b5060010161406b565b808211156122ae57600061409c82826140a5565b50600101614088565b5080546140b190614c83565b6000825580601f106140c1575050565b601f016020900490600052602060002090810190610ce89190613fe3565b6000602082840312156140f157600080fd5b5035919050565b60006020828403121561410a57600080fd5b81356001600160e01b03198116811461191257600080fd5b803560ff8116811461413357600080fd5b919050565b60008083601f84011261414a57600080fd5b5081356001600160401b0381111561416157600080fd5b6020830191508360208285010111156122e157600080fd5b634e487b7160e01b600052604160045260246000fd5b604051601f8201601f191681016001600160401b03811182821017156141b7576141b7614179565b604052919050565b600082601f8301126141d057600080fd5b81356001600160401b038111156141e9576141e9614179565b6141fc601f8201601f191660200161418f565b81815284602083860101111561421157600080fd5b816020850160208301376000918101602001919091529392505050565b60008060008060008060008060e0898b03121561424a57600080fd5b8835975061425a60208a01614122565b965060408901356001600160401b038082111561427657600080fd5b6142828c838d01614138565b909850965060608b013591508082111561429b57600080fd5b506142a88b828c016141bf565b9450506142b760808a01614122565b925060a0890135915060c089013590509295985092959890939650565b60005b838110156142ef5781810151838201526020016142d7565b838111156142fe576000848401525b50505050565b6000815180845261431c8160208601602086016142d4565b601f01601f19169290920160200192915050565b6020815260006119126020830184614304565b6001600160a01b0381168114610ce857600080fd5b6000806000806080858703121561436e57600080fd5b843561437981614343565b9350602085013561438981614343565b92506040850135915060608501356001600160401b038111156143ab57600080fd5b6143b7878288016141bf565b91505092959194509250565b60006001600160401b038211156143dc576143dc614179565b5060051b60200190565b600082601f8301126143f757600080fd5b8135602061440c614407836143c3565b61418f565b82815260059290921b8401810191818101908684111561442b57600080fd5b8286015b8481101561444f57803561444281614343565b835291830191830161442f565b509695505050505050565b600082601f83011261446b57600080fd5b8135602061447b614407836143c3565b82815260059290921b8401810191818101908684111561449a57600080fd5b8286015b8481101561444f578035835291830191830161449e565b600082601f8301126144c657600080fd5b813560206144d6614407836143c3565b82815260059290921b840181019181810190868411156144f557600080fd5b8286015b8481101561444f5780356001600160401b038111156145185760008081fd5b6145268986838b01016141bf565b8452509183019183016144f9565b6000806000806080858703121561454a57600080fd5b84356001600160401b038082111561456157600080fd5b61456d888389016143e6565b9550602087013591508082111561458357600080fd5b61458f8883890161445a565b945060408701359150808211156145a557600080fd5b506145b2878288016144b5565b949793965093946060013593505050565b600081518084526020808501945080840160005b838110156145fc5781516001600160a01b0316875295820195908201906001016145d7565b509495945050505050565b600081518084526020808501945080840160005b838110156145fc5781518752958201959082019060010161461b565b600081518084526020808501808196508360051b8101915082860160005b8581101561467f57828403895261466d848351614304565b98850198935090840190600101614655565b5091979650505050505050565b60808152600061469f60808301876145c3565b82810360208401526146b18187614607565b905082810360408401526146c58186614637565b905082810360608401526113d78185614637565b600080600080600060a086880312156146f157600080fd5b8535945061470160208701614122565b935061470f60408701614122565b94979396509394606081013594506080013592915050565b634e487b7160e01b600052602160045260246000fd5b602081016008831061475f57634e487b7160e01b600052602160045260246000fd5b91905290565b6000806040838503121561477857600080fd5b82359150602083013561478a81614343565b809150509250929050565b600080604083850312156147a857600080fd5b823591506147b860208401614122565b90509250929050565b6000806000806000608086880312156147d957600080fd5b853594506147e960208701614122565b935060408601356001600160401b038082111561480557600080fd5b61481189838a01614138565b9095509350606088013591508082111561482a57600080fd5b50614837888289016141bf565b9150509295509295909350565b6000806000806060858703121561485a57600080fd5b8435935061486a60208601614122565b925060408501356001600160401b0381111561488557600080fd5b61489187828801614138565b95989497509550505050565b600080600080608085870312156148b357600080fd5b84356001600160401b03808211156148ca57600080fd5b6148d6888389016143e6565b955060208701359150808211156148ec57600080fd5b6148f88883890161445a565b9450604087013591508082111561490e57600080fd5b61491a888389016144b5565b9350606087013591508082111561493057600080fd5b506143b7878288016141bf565b60008060006060848603121561495257600080fd5b833561495d81614343565b92506020840135915060408401356001600160401b0381111561497f57600080fd5b61498b868287016141bf565b9150509250925092565b6000602082840312156149a757600080fd5b813561191281614343565b600080600080600060a086880312156149ca57600080fd5b85356149d581614343565b945060208601356149e581614343565b935060408601356001600160401b0380821115614a0157600080fd5b614a0d89838a0161445a565b94506060880135915080821115614a2357600080fd5b614a2f89838a0161445a565b9350608088013591508082111561482a57600080fd5b60008060008060608587031215614a5b57600080fd5b8435614a6681614343565b93506020850135925060408501356001600160401b0381111561488557600080fd5b600082601f830112614a9957600080fd5b81356020614aa9614407836143c3565b82815260059290921b84018101918181019086841115614ac857600080fd5b8286015b8481101561444f5780356001600160401b03811115614aeb5760008081fd5b614af98986838b01016141bf565b845250918301918301614acc565b600080600080600060a08688031215614b1f57600080fd5b85356001600160401b0380821115614b3657600080fd5b614b4289838a016143e6565b96506020880135915080821115614b5857600080fd5b614b6489838a0161445a565b95506040880135915080821115614b7a57600080fd5b614b8689838a01614a88565b94506060880135915080821115614b9c57600080fd5b614a2f89838a016144b5565b60008060408385031215614bbb57600080fd5b8235614bc681614343565b946020939093013593505050565b600080600080600060a08688031215614bec57600080fd5b8535614bf781614343565b94506020860135614c0781614343565b9350604086013592506060860135915060808601356001600160401b03811115614c3057600080fd5b614837888289016141bf565b8183823760009101908152919050565b60208082526018908201527f476f7665726e6f723a206f6e6c79476f7665726e616e63650000000000000000604082015260600190565b600181811c90821680614c9757607f821691505b60208210811415614cb857634e487b7160e01b600052602260045260246000fd5b50919050565b60208082526021908201527f476f7665726e6f723a2070726f706f73616c206e6f74207375636365737366756040820152601b60fa1b606082015260800190565b600060208284031215614d1157600080fd5b5051919050565b60a081526000614d2b60a08301886145c3565b8281036020840152614d3d8188614607565b90508281036040840152614d518187614637565b60608401959095525050608001529392505050565b60c081526000614d7960c08301896145c3565b8281036020840152614d8b8189614607565b90508281036040840152614d9f8188614637565b60608401969096525050608081019290925260a0909101529392505050565b634e487b7160e01b600052601160045260246000fd5b60008219821115614de757614de7614dbe565b500190565b600082821015614dfe57614dfe614dbe565b500390565b634e487b7160e01b600052603260045260246000fd5b608081526000614e2c60808301876145c3565b8281036020840152614e3e8187614607565b90508281036040840152614e528186614637565b91505082606083015295945050505050565b84815260ff841660208201528260408201526080606082015260006118e16080830184614304565b85815260ff8516602082015283604082015260a060608201526000614eb460a0830185614304565b8281036080840152614ec68185614304565b98975050505050505050565b6000600019821415614ee657614ee6614dbe565b5060010190565b600060208284031215614eff57600080fd5b8151801515811461191257600080fd5b6001600160e01b0319831681528151600090614f328160048501602087016142d4565b919091016004019392505050565b6000816000190483118215151615614f5a57614f5a614dbe565b500290565b600082614f7c57634e487b7160e01b600052601260045260246000fd5b500490565b60208082526021908201527f476f7665726e6f723a20696e76616c69642070726f706f73616c206c656e67746040820152600d60fb1b606082015260800190565b60006001600160401b03808316818516808303821115614fe457614fe4614dbe565b01949350505050565b8981526001600160a01b0389166020820152610120604082018190526000906150188382018b6145c3565b9050828103606084015261502c818a614607565b905082810360808401526150408189614637565b905082810360a08401526150548188614637565b6001600160401b0387811660c0860152861660e085015283810361010085015290506150808185614304565b9c9b50505050505050505050505056fe476f7665726e6f723a2072656c617920726576657274656420776974686f7574206d657373616765a2646970667358221220133c564ae169692614ad9b48ec66c16811b29b6946de197f43df869189569edb64736f6c63430008090033",
  "linkReferences": {},
  "deployedLinkReferences": {}
}