{
  "_format": "hh-sol-artifact-1",
  "contractName": "MeltyFiNFT",
  "sourceName": "contracts/MeltyFiNFT.sol",
  "abi": [
    {
      "inputs": [
        {
          "internalType": "contract ChocoChip",
          "name": "contractChocoChip",
          "type": "address"
        },
        {
          "internalType": "contract WonkaBar",
          "name": "contractWonkaBar",
          "type": "address"
        },
        {
          "internalType": "contract MeltyFiDAO",
          "name": "contractMeltyFiDAO",
          "type": "address"
        }
      ],
      "stateMutability": "nonpayable",
      "type": "constructor"
    },
    {
      "anonymous": false,
      "inputs": [
        {
          "indexed": true,
          "internalType": "address",
          "name": "previousOwner",
          "type": "address"
        },
        {
          "indexed": true,
          "internalType": "address",
          "name": "newOwner",
          "type": "address"
        }
      ],
      "name": "OwnershipTransferred",
      "type": "event"
    },
    {
      "inputs": [],
      "name": "addressChocoChip",
      "outputs": [
        {
          "internalType": "address",
          "name": "",
          "type": "address"
        }
      ],
      "stateMutability": "view",
      "type": "function"
    },
    {
      "inputs": [],
      "name": "addressMeltyFiDAO",
      "outputs": [
        {
          "internalType": "address",
          "name": "",
          "type": "address"
        }
      ],
      "stateMutability": "view",
      "type": "function"
    },
    {
      "inputs": [],
      "name": "addressWonkaBar",
      "outputs": [
        {
          "internalType": "address",
          "name": "",
          "type": "address"
        }
      ],
      "stateMutability": "view",
      "type": "function"
    },
    {
      "inputs": [],
      "name": "owner",
      "outputs": [
        {
          "internalType": "address",
          "name": "",
          "type": "address"
        }
      ],
      "stateMutability": "view",
      "type": "function"
    },
    {
      "inputs": [],
      "name": "renounceOwnership",
      "outputs": [],
      "stateMutability": "nonpayable",
      "type": "function"
    },
    {
      "inputs": [
        {
          "internalType": "address",
          "name": "newOwner",
          "type": "address"
        }
      ],
      "name": "transferOwnership",
      "outputs": [],
      "stateMutability": "nonpayable",
      "type": "function"
    }
  ],
  "bytecode": "0x60e060405234801561001057600080fd5b506040516103f73803806103f783398101604081905261002f916100bd565b61003833610055565b6001600160a01b0392831660805290821660a0521660c05261010a565b600080546001600160a01b038381166001600160a01b0319831681178455604051919092169283917f8be0079c531659141344cd1fd0a4f28419497f9722a3daafe3b4186f6b6457e09190a35050565b6001600160a01b03811681146100ba57600080fd5b50565b6000806000606084860312156100d257600080fd5b83516100dd816100a5565b60208501519093506100ee816100a5565b60408501519092506100ff816100a5565b809150509250925092565b60805160a05160c0516102c1610136600039600060690152600060d70152600060b101526102c16000f3fe608060405234801561001057600080fd5b50600436106100625760003560e01c806366d74f7d14610067578063715018a6146100a5578063769d2259146100af57806384100bfe146100d55780638da5cb5b146100fb578063f2fde38b1461010c575b600080fd5b7f00000000000000000000000000000000000000000000000000000000000000005b6040516001600160a01b03909116815260200160405180910390f35b6100ad61011f565b005b7f0000000000000000000000000000000000000000000000000000000000000000610089565b7f0000000000000000000000000000000000000000000000000000000000000000610089565b6000546001600160a01b0316610089565b6100ad61011a36600461025b565b610133565b6101276101b1565b610131600061020b565b565b61013b6101b1565b6001600160a01b0381166101a55760405162461bcd60e51b815260206004820152602660248201527f4f776e61626c653a206e6577206f776e657220697320746865207a65726f206160448201526564647265737360d01b60648201526084015b60405180910390fd5b6101ae8161020b565b50565b6000546001600160a01b031633146101315760405162461bcd60e51b815260206004820181905260248201527f4f776e61626c653a2063616c6c6572206973206e6f7420746865206f776e6572604482015260640161019c565b600080546001600160a01b038381166001600160a01b0319831681178455604051919092169283917f8be0079c531659141344cd1fd0a4f28419497f9722a3daafe3b4186f6b6457e09190a35050565b60006020828403121561026d57600080fd5b81356001600160a01b038116811461028457600080fd5b939250505056fea26469706673582212206f7f6faf3982abaa4af51f5dee8cd386da9a5650355065ed8fee6260e879273364736f6c63430008090033",
  "linkReferences": {},
  "deployedLinkReferences": {}
}