{
  "_format": "hh-sol-artifact-1",
  "contractName": "MeltyFiNFT",
  "sourceName": "contracts/MeltyFiNFT.sol",
  "abi": [
    {
      "inputs": [
        {
          "internalType": "contract ChocoChip",
          "name": "contractChocoChip",
          "type": "address"
        },
        {
          "internalType": "contract MeltyFiDAO",
          "name": "contractMeltyFiDAO",
          "type": "address"
        },
        {
          "internalType": "contract WonkaBar",
          "name": "contractWonkaBar",
          "type": "address"
        }
      ],
      "stateMutability": "nonpayable",
      "type": "constructor"
    },
    {
      "inputs": [],
      "name": "addressChocoChip",
      "outputs": [
        {
          "internalType": "address",
          "name": "",
          "type": "address"
        }
      ],
      "stateMutability": "view",
      "type": "function"
    },
    {
      "inputs": [],
      "name": "addressMeltyFiDAO",
      "outputs": [
        {
          "internalType": "address",
          "name": "",
          "type": "address"
        }
      ],
      "stateMutability": "view",
      "type": "function"
    },
    {
      "inputs": [],
      "name": "addressWonkaBar",
      "outputs": [
        {
          "internalType": "address",
          "name": "",
          "type": "address"
        }
      ],
      "stateMutability": "view",
      "type": "function"
    },
    {
      "inputs": [
        {
          "internalType": "uint256",
          "name": "lotteryId",
          "type": "uint256"
        },
        {
          "internalType": "address",
          "name": "addressToRefund",
          "type": "address"
        }
      ],
      "name": "amountToRefund",
      "outputs": [
        {
          "internalType": "uint256",
          "name": "",
          "type": "uint256"
        }
      ],
      "stateMutability": "view",
      "type": "function"
    },
    {
      "inputs": [
        {
          "internalType": "uint256",
          "name": "lotteryId",
          "type": "uint256"
        }
      ],
      "name": "amountToRepay",
      "outputs": [
        {
          "internalType": "uint256",
          "name": "",
          "type": "uint256"
        }
      ],
      "stateMutability": "view",
      "type": "function"
    },
    {
      "inputs": [
        {
          "internalType": "uint256",
          "name": "lotteryId",
          "type": "uint256"
        },
        {
          "internalType": "uint256",
          "name": "amount",
          "type": "uint256"
        }
      ],
      "name": "buyWonkaBars",
      "outputs": [],
      "stateMutability": "payable",
      "type": "function"
    },
    {
      "inputs": [
        {
          "internalType": "uint256",
          "name": "expirationDate",
          "type": "uint256"
        },
        {
          "internalType": "contract IERC721",
          "name": "prizeContract",
          "type": "address"
        },
        {
          "internalType": "uint256",
          "name": "prizeTokenId",
          "type": "uint256"
        },
        {
          "internalType": "uint256",
          "name": "wonkaBarPrice",
          "type": "uint256"
        },
        {
          "internalType": "uint256",
          "name": "wonkaBarsMaxSupply",
          "type": "uint256"
        }
      ],
      "name": "createLottery",
      "outputs": [
        {
          "internalType": "uint256",
          "name": "",
          "type": "uint256"
        }
      ],
      "stateMutability": "nonpayable",
      "type": "function"
    },
    {
      "inputs": [
        {
          "internalType": "uint256",
          "name": "lotteryId",
          "type": "uint256"
        },
        {
          "internalType": "address",
          "name": "winner",
          "type": "address"
        }
      ],
      "name": "drawWinner",
      "outputs": [],
      "stateMutability": "nonpayable",
      "type": "function"
    },
    {
      "inputs": [
        {
          "internalType": "uint256",
          "name": "lotteryId",
          "type": "uint256"
        }
      ],
      "name": "getLotteryExpirationDate",
      "outputs": [
        {
          "internalType": "uint256",
          "name": "",
          "type": "uint256"
        }
      ],
      "stateMutability": "view",
      "type": "function"
    },
    {
      "inputs": [
        {
          "internalType": "uint256",
          "name": "lotteryId",
          "type": "uint256"
        }
      ],
      "name": "getLotteryOwner",
      "outputs": [
        {
          "internalType": "address",
          "name": "",
          "type": "address"
        }
      ],
      "stateMutability": "view",
      "type": "function"
    },
    {
      "inputs": [
        {
          "internalType": "uint256",
          "name": "lotteryId",
          "type": "uint256"
        }
      ],
      "name": "getLotteryPrizeContract",
      "outputs": [
        {
          "internalType": "address",
          "name": "",
          "type": "address"
        }
      ],
      "stateMutability": "view",
      "type": "function"
    },
    {
      "inputs": [
        {
          "internalType": "uint256",
          "name": "lotteryId",
          "type": "uint256"
        }
      ],
      "name": "getLotteryPrizeTokenId",
      "outputs": [
        {
          "internalType": "uint256",
          "name": "",
          "type": "uint256"
        }
      ],
      "stateMutability": "view",
      "type": "function"
    },
    {
      "inputs": [
        {
          "internalType": "uint256",
          "name": "lotteryId",
          "type": "uint256"
        }
      ],
      "name": "getLotteryState",
      "outputs": [
        {
          "internalType": "enum MeltyFiNFT.lotteryState",
          "name": "",
          "type": "uint8"
        }
      ],
      "stateMutability": "view",
      "type": "function"
    },
    {
      "inputs": [
        {
          "internalType": "uint256",
          "name": "lotteryId",
          "type": "uint256"
        }
      ],
      "name": "getLotteryWonkaBarPrice",
      "outputs": [
        {
          "internalType": "uint256",
          "name": "",
          "type": "uint256"
        }
      ],
      "stateMutability": "view",
      "type": "function"
    },
    {
      "inputs": [
        {
          "internalType": "uint256",
          "name": "lotteryId",
          "type": "uint256"
        }
      ],
      "name": "getLotteryWonkaBarsMaxSupply",
      "outputs": [
        {
          "internalType": "uint256",
          "name": "",
          "type": "uint256"
        }
      ],
      "stateMutability": "view",
      "type": "function"
    },
    {
      "inputs": [
        {
          "internalType": "uint256",
          "name": "lotteryId",
          "type": "uint256"
        }
      ],
      "name": "getLotteryWonkaBarsSold",
      "outputs": [
        {
          "internalType": "uint256",
          "name": "",
          "type": "uint256"
        }
      ],
      "stateMutability": "view",
      "type": "function"
    },
    {
      "inputs": [
        {
          "internalType": "uint256",
          "name": "lotteryId",
          "type": "uint256"
        }
      ],
      "name": "getWinner",
      "outputs": [
        {
          "internalType": "address",
          "name": "",
          "type": "address"
        }
      ],
      "stateMutability": "view",
      "type": "function"
    },
    {
      "inputs": [
        {
          "internalType": "uint256",
          "name": "lotteryId",
          "type": "uint256"
        },
        {
          "internalType": "uint256",
          "name": "amount",
          "type": "uint256"
        }
      ],
      "name": "meltWonkaBars",
      "outputs": [],
      "stateMutability": "nonpayable",
      "type": "function"
    },
    {
      "inputs": [
        {
          "internalType": "uint256",
          "name": "lotteryId",
          "type": "uint256"
        }
      ],
      "name": "repayLoan",
      "outputs": [],
      "stateMutability": "payable",
      "type": "function"
    }
  ],
  "bytecode": "0x6101406040523480156200001257600080fd5b50604051620023cd380380620023cd8339810160408190526200003591620001e8565b816001600160a01b031663fc0c546a6040518163ffffffff1660e01b815260040160206040518083038186803b1580156200006f57600080fd5b505afa15801562000084573d6000803e3d6000fd5b505050506040513d601f19601f82011682018060405250810190620000aa91906200023c565b6001600160a01b0316836001600160a01b031614620000ea5760405162461bcd60e51b815260206004820152600060248201526044015b60405180910390fd5b336001600160a01b0316836001600160a01b0316638da5cb5b6040518163ffffffff1660e01b815260040160206040518083038186803b1580156200012e57600080fd5b505afa15801562000143573d6000803e3d6000fd5b505050506040513d601f19601f820116820180604052508101906200016991906200023c565b6001600160a01b0316146200019b5760405162461bcd60e51b81526020600482015260006024820152604401620000e1565b6001600160a01b0392831660805290821660a0521660c0526103e860e0526005610100526019610120526000805562000263565b6001600160a01b0381168114620001e557600080fd5b50565b600080600060608486031215620001fe57600080fd5b83516200020b81620001cf565b60208501519093506200021e81620001cf565b60408501519092506200023181620001cf565b809150509250925092565b6000602082840312156200024f57600080fd5b81516200025c81620001cf565b9392505050565b60805160a05160c05160e05161010051610120516120c6620003076000396000818161056201526112a0015260006113e5015260008181610a8c0152610eb501526000818161028701528181610cb301528181610dea01528181610f72015281816112d50152818161146a015281816119660152611b810152600081816101f1015261142001526000818161025401528181610a610152610e7c01526120c66000f3fe6080604052600436106101145760003560e01c80638df379be116100a0578063c97aad8e11610064578063c97aad8e146103bf578063ce2cddfd146103df578063d366b2f9146103fe578063f7392d2f1461043e578063fd4336b21461046e57600080fd5b80638df379be146102db57806397016f9f1461030b5780639f46e45314610338578063a87cc7c714610371578063ab7b1c89146103aa57600080fd5b806366d74f7d116100e757806366d74f7d146101e257806369a8e8a714610215578063769d22591461024557806384100bfe14610278578063862929b0146102ab57600080fd5b80631d297324146101195780631fd3ff461461014c5780632e33a2cb1461016c5780634129b2c91461018c575b600080fd5b34801561012557600080fd5b50610139610134366004611eb7565b610481565b6040519081526020015b60405180910390f35b34801561015857600080fd5b50610139610167366004611eff565b6106b8565b34801561017857600080fd5b50610139610187366004611f2f565b6107d1565b34801561019857600080fd5b506101ca6101a7366004611f2f565b60009081526001602052604090206005015461010090046001600160a01b031690565b6040516001600160a01b039091168152602001610143565b3480156101ee57600080fd5b507f00000000000000000000000000000000000000000000000000000000000000006101ca565b34801561022157600080fd5b50610139610230366004611f2f565b60009081526001602052604090206007015490565b34801561025157600080fd5b507f00000000000000000000000000000000000000000000000000000000000000006101ca565b34801561028457600080fd5b507f00000000000000000000000000000000000000000000000000000000000000006101ca565b3480156102b757600080fd5b506101396102c6366004611f2f565b60009081526001602052604090206008015490565b3480156102e757600080fd5b506101396102f6366004611f2f565b60009081526001602052604090206006015490565b34801561031757600080fd5b50610139610326366004611f2f565b60009081526001602052604090205490565b34801561034457600080fd5b506101ca610353366004611f2f565b6000908152600160205260409020600301546001600160a01b031690565b34801561037d57600080fd5b506101ca61038c366004611f2f565b6000908152600160205260409020600201546001600160a01b031690565b6103bd6103b8366004611f2f565b6108e6565b005b3480156103cb57600080fd5b506103bd6103da366004611f48565b610bd6565b3480156103eb57600080fd5b506103bd6103fa366004611eff565b5050565b34801561040a57600080fd5b50610431610419366004611f2f565b60009081526001602052604090206005015460ff1690565b6040516101439190611f80565b34801561044a57600080fd5b50610139610459366004611f2f565b60009081526001602052604090206004015490565b6103bd61047c366004611f48565b611142565b6000336040516331a9108f60e11b8152600481018690526001600160a01b0391821691871690636352211e9060240160206040518083038186803b1580156104c857600080fd5b505afa1580156104dc573d6000803e3d6000fd5b505050506040513d601f19601f820116820180604052508101906105009190611fa8565b6001600160a01b0316146105355760405162461bcd60e51b815260206004820152600060248201526044015b60405180910390fd5b85421061055e5760405162461bcd60e51b8152602060048201526000602482015260440161052c565b60017f000000000000000000000000000000000000000000000000000000000000000061058c606485611fdb565b6105969190611ffd565b10156105be5760405162461bcd60e51b8152602060048201526000602482015260440161052c565b6001600160a01b0385166342842e0e336040516001600160e01b031960e084901b1681526001600160a01b03909116600482015230602482015260448101879052606401600060405180830381600087803b15801561061c57600080fd5b505af1158015610630573d6000803e3d6000fd5b50506000805492506001915080610647838561201c565b909155505060408051610140810182528881526020810183905233918101919091526001600160a01b038716606082015260808101869052600060a0820181905260c0820181905260e0820152610100810184905261012081018590526106ad81611663565b509695505050505050565b600082815260016020818152604080842081516101408101835281548152938101549284019290925260028201546001600160a01b039081169184019190915260038083015490911660608401526004820154608084015260058201548493929160a084019160ff169081111561073157610731611f6a565b600381111561074257610742611f6a565b8152600582015461010090046001600160a01b031660208201526006820154604082015260078201546060820152600890910154608090910152905060018160a00151600381111561079657610796611f6a565b146107bd5760405162461bcd60e51b8152602060048201526000602482015260440161052c565b6107c78184611931565b9150505b92915050565b600081815260016020818152604080842081516101408101835281548152938101549284019290925260028201546001600160a01b039081169184019190915260038083015490911660608401526004820154608084015260058201548493929160a084019160ff169081111561084a5761084a611f6a565b600381111561085b5761085b611f6a565b8152600582015461010090046001600160a01b031660208201526006820154604082015260078201546060820152600890910154608090910152905060008160a0015160038111156108af576108af611f6a565b146108d65760405162461bcd60e51b8152602060048201526000602482015260440161052c565b6108df816119e9565b9392505050565b600081815260016020818152604080842081516101408101835281548152938101549284019290925260028201546001600160a01b0390811691840191909152600380830154909116606084015260048201546080840152600582015460a084019160ff9091169081111561095d5761095d611f6a565b600381111561096e5761096e611f6a565b8152600582015461010090046001600160a01b031660208201526006820154604082015260078201546060820152600890910154608090910152905060006109b5826119e9565b60408301519091506001600160a01b031633146109ee5760405162461bcd60e51b8152602060048201526000602482015260440161052c565b80341015610a185760405162461bcd60e51b8152602060048201526000602482015260440161052c565b60008260a001516003811115610a3057610a30611f6a565b14610a575760405162461bcd60e51b8152602060048201526000602482015260440161052c565b6001600160a01b037f0000000000000000000000000000000000000000000000000000000000000000166340c10f1933610ab17f000000000000000000000000000000000000000000000000000000000000000085611ffd565b6040516001600160e01b031960e085901b1681526001600160a01b0390921660048301526024820152604401600060405180830381600087803b158015610af757600080fd5b505af1158015610b0b573d6000803e3d6000fd5b5050505081606001516001600160a01b03166342842e0e30610b2a3390565b60808601516040516001600160e01b031960e086901b1681526001600160a01b0393841660048201529290911660248301526044820152606401600060405180830381600087803b158015610b7e57600080fd5b505af1158015610b92573d6000803e3d6000fd5b5050506020808401516000908152600191829052604090209150600582015460ff166003811115610bc557610bc5611f6a565b5050610bd083611a00565b50505050565b600082815260016020818152604080842081516101408101835281548152938101549284019290925260028201546001600160a01b0390811691840191909152600380830154909116606084015260048201546080840152600582015460a084019160ff90911690811115610c4d57610c4d611f6a565b6003811115610c5e57610c5e611f6a565b8152600582015461010090046001600160a01b03166020820152600682015460408201526007820154606082015260089091015460809091015290506000610ca68233611931565b9050826001600160a01b037f00000000000000000000000000000000000000000000000000000000000000001662fdd58e3360208601516040516001600160e01b031960e085901b1681526001600160a01b039092166004830152602482015260440160206040518083038186803b158015610d2157600080fd5b505afa158015610d35573d6000803e3d6000fd5b505050506040513d601f19601f82011682018060405250810190610d599190612034565b1015610d815760405162461bcd60e51b8152602060048201526000602482015260440161052c565b60018260a001516003811115610d9957610d99611f6a565b1480610dba575060028260a001516003811115610db857610db8611f6a565b145b610de05760405162461bcd60e51b8152602060048201526000602482015260440161052c565b6001600160a01b037f00000000000000000000000000000000000000000000000000000000000000001663f5298aca3360208501516040516001600160e01b031960e085901b1681526001600160a01b039092166004830152602482015260448101869052606401600060405180830381600087803b158015610e6257600080fd5b505af1158015610e76573d6000803e3d6000fd5b505050507f00000000000000000000000000000000000000000000000000000000000000006001600160a01b03166340c10f19610eb03390565b610eda7f000000000000000000000000000000000000000000000000000000000000000085611ffd565b6040516001600160e01b031960e085901b1681526001600160a01b0390921660048301526024820152604401600060405180830381600087803b158015610f2057600080fd5b505af1158015610f34573d6000803e3d6000fd5b5060019250610f41915050565b8260a001516003811115610f5757610f57611f6a565b1415610f6857610f68335b82611a1c565b6001600160a01b037f00000000000000000000000000000000000000000000000000000000000000001662fdd58e3360208501516040516001600160e01b031960e085901b1681526001600160a01b039092166004830152602482015260440160206040518083038186803b158015610fe057600080fd5b505afa158015610ff4573d6000803e3d6000fd5b505050506040513d601f19601f820116820180604052508101906110189190612034565b611139576110b88260200151600360008560a00151600381111561103e5761103e611f6a565b600381111561104f5761104f611f6a565b8152602001908152602001600020600060028081111561107157611071611f6a565b600281111561108257611082611f6a565b815260200190815260200160002060006110993390565b6001600160a01b03168152602081019190915260400160002090611b3a565b5061113733600460008560a0015160038111156110d7576110d7611f6a565b60038111156110e8576110e8611f6a565b8152602001908152602001600020600060028081111561110a5761110a611f6a565b600281111561111b5761111b611f6a565b8152602001908152602001600020611b4690919063ffffffff16565b505b610bd082611a00565b600082815260016020818152604080842081516101408101835281548152938101549284019290925260028201546001600160a01b0390811691840191909152600380830154909116606084015260048201546080840152600582015460a084019160ff909116908111156111b9576111b9611f6a565b60038111156111ca576111ca611f6a565b8152600582015461010090046001600160a01b03166020820152600682015460408201526007820154606082015260089091015460809091015261012081015190915060009061121a9084611ffd565b905060008260a00151600381111561123457611234611f6a565b1461125b5760405162461bcd60e51b8152602060048201526000602482015260440161052c565b816101000151838360e00151611271919061201c565b11156112995760405162461bcd60e51b8152602060048201526000602482015260440161052c565b6112c460647f0000000000000000000000000000000000000000000000000000000000000000611fdb565b610100830151846001600160a01b037f00000000000000000000000000000000000000000000000000000000000000001662fdd58e3360208801516040516001600160e01b031960e085901b1681526001600160a01b039092166004830152602482015260440160206040518083038186803b15801561134357600080fd5b505afa158015611357573d6000803e3d6000fd5b505050506040513d601f19601f8201168201806040525081019061137b9190612034565b611385919061201c565b61138f9190611fdb565b11156113b75760405162461bcd60e51b8152602060048201526000602482015260440161052c565b803410156113e15760405162461bcd60e51b8152602060048201526000602482015260440161052c565b60007f000000000000000000000000000000000000000000000000000000000000000061140f606484611fdb565b6114199190611ffd565b90506114447f0000000000000000000000000000000000000000000000000000000000000000610f62565b6000611450828461204d565b9050611460846040015182611a1c565b6001600160a01b037f00000000000000000000000000000000000000000000000000000000000000001663731133e93360208701516040516001600160e01b031960e085901b1681526001600160a01b039092166004830152602482015260448101889052608060648201526000608482015260a401600060405180830381600087803b1580156114f057600080fd5b505af1158015611504573d6000803e3d6000fd5b5050505060006001600086602001518152602001908152602001600020905085816006016000828254611537919061201c565b925050819055506115da8560200151600360008860a00151600381111561156057611560611f6a565b600381111561157157611571611f6a565b8152602001908152602001600020600060028081111561159357611593611f6a565b60028111156115a4576115a4611f6a565b815260200190815260200160002060006115bb3390565b6001600160a01b03168152602081019190915260400160002090611b5b565b5061165933600460008860a0015160038111156115f9576115f9611f6a565b600381111561160a5761160a611f6a565b8152602001908152602001600020600060028081111561162c5761162c611f6a565b600281111561163d5761163d611f6a565b8152602001908152602001600020611b6790919063ffffffff16565b5050505050505050565b602081810180516000908152600192839052604090819020845181559151828401558301516002820180546001600160a01b03199081166001600160a01b0393841617909155606085015160038085018054909316919093161790556080840151600483015560a084015160058301805486959293919260ff199091169184908111156116f2576116f2611f6a565b021790555060c08201518160050160016101000a8154816001600160a01b0302191690836001600160a01b0316021790555060e08201518160060155610100820151816007015561012082015181600801559050506117968160200151600260008460a00151600381111561176957611769611f6a565b600381111561177a5761177a611f6a565b8152602001908152602001600020611b5b90919063ffffffff16565b506117ec8160200151600360008460a0015160038111156117b9576117b9611f6a565b60038111156117ca576117ca611f6a565b8152602001908152602001600020600080600281111561159357611593611f6a565b506118848160200151600360008460a00151600381111561180f5761180f611f6a565b600381111561182057611820611f6a565b815260200190815260200160002060006001600281111561184357611843611f6a565b600281111561185457611854611f6a565b81526020808201929092526040908101600090812060608701516001600160a01b03168252909252902090611b5b565b506118da8160400151600460008460a0015160038111156118a7576118a7611f6a565b60038111156118b8576118b8611f6a565b8152602001908152602001600020600080600281111561162c5761162c611f6a565b506103fa8160600151600460008460a0015160038111156118fd576118fd611f6a565b600381111561190e5761190e611f6a565b815260200190815260200160002060006001600281111561162c5761162c611f6a565b6101208201516020830151604051627eeac760e11b81526001600160a01b0384811660048301526024820192909252600092917f0000000000000000000000000000000000000000000000000000000000000000169062fdd58e9060440160206040518083038186803b1580156119a757600080fd5b505afa1580156119bb573d6000803e3d6000fd5b505050506040513d601f19601f820116820180604052508101906119df9190612034565b6108df9190611ffd565b60008161012001518260e001516107cb9190611ffd565b611a0981611b7c565b15611a1957611a19816003611c6a565b50565b80471015611a6c5760405162461bcd60e51b815260206004820152601d60248201527f416464726573733a20696e73756666696369656e742062616c616e6365000000604482015260640161052c565b6000826001600160a01b03168260405160006040518083038185875af1925050503d8060008114611ab9576040519150601f19603f3d011682016040523d82523d6000602084013e611abe565b606091505b5050905080611b355760405162461bcd60e51b815260206004820152603a60248201527f416464726573733a20756e61626c6520746f2073656e642076616c75652c207260448201527f6563697069656e74206d61792068617665207265766572746564000000000000606482015260840161052c565b505050565b60006108df8383611d60565b60006108df836001600160a01b038416611d60565b60006108df8383611e53565b60006108df836001600160a01b038416611e53565b6000807f00000000000000000000000000000000000000000000000000000000000000006001600160a01b031663bd85b03984602001516040518263ffffffff1660e01b8152600401611bd191815260200190565b60206040518083038186803b158015611be957600080fd5b505afa158015611bfd573d6000803e3d6000fd5b505050506040513d601f19601f82011682018060405250810190611c219190612034565b905060018360a001516003811115611c3b57611c3b611f6a565b1480611c5c575060028360a001516003811115611c5a57611c5a611f6a565b145b80156108df57501592915050565b60008260a001516003811115611c8257611c82611f6a565b148015611cbb57506001816003811115611c9e57611c9e611f6a565b1480611cbb57506002816003811115611cb957611cb9611f6a565b145b80611d17575060018260a001516003811115611cd957611cd9611f6a565b1480611cfa575060028260a001516003811115611cf857611cf8611f6a565b145b8015611d1757506003816003811115611d1557611d15611f6a565b145b611d2057600080fd5b6020808301516000908152600191829052604090206005810180549192849260ff191690836003811115611d5657611d56611f6a565b0217905550505050565b60008181526001830160205260408120548015611e49576000611d8460018361204d565b8554909150600090611d989060019061204d565b9050818114611dfd576000866000018281548110611db857611db8612064565b9060005260206000200154905080876000018481548110611ddb57611ddb612064565b6000918252602080832090910192909255918252600188019052604090208390555b8554869080611e0e57611e0e61207a565b6001900381819060005260206000200160009055905585600101600086815260200190815260200160002060009055600193505050506107cb565b60009150506107cb565b6000818152600183016020526040812054611e9a575081546001818101845560008481526020808220909301849055845484825282860190935260409020919091556107cb565b5060006107cb565b6001600160a01b0381168114611a1957600080fd5b600080600080600060a08688031215611ecf57600080fd5b853594506020860135611ee181611ea2565b94979496505050506040830135926060810135926080909101359150565b60008060408385031215611f1257600080fd5b823591506020830135611f2481611ea2565b809150509250929050565b600060208284031215611f4157600080fd5b5035919050565b60008060408385031215611f5b57600080fd5b50508035926020909101359150565b634e487b7160e01b600052602160045260246000fd5b6020810160048310611fa257634e487b7160e01b600052602160045260246000fd5b91905290565b600060208284031215611fba57600080fd5b81516108df81611ea2565b634e487b7160e01b600052601160045260246000fd5b600082611ff857634e487b7160e01b600052601260045260246000fd5b500490565b600081600019048311821515161561201757612017611fc5565b500290565b6000821982111561202f5761202f611fc5565b500190565b60006020828403121561204657600080fd5b5051919050565b60008282101561205f5761205f611fc5565b500390565b634e487b7160e01b600052603260045260246000fd5b634e487b7160e01b600052603160045260246000fdfea264697066735822122090fc5503776bca890637e925acd60f0d22572d9f7e1a1f538d93e5f0c87db01364736f6c63430008090033",
  "linkReferences": {},
  "deployedLinkReferences": {}
}