{
  "_format": "hh-sol-artifact-1",
  "contractName": "MeltyFiNFT",
  "sourceName": "contracts/MeltyFiNFT.sol",
  "abi": [
    {
      "inputs": [
        {
          "internalType": "contract ChocoChip",
          "name": "contractChocoChip",
          "type": "address"
        },
        {
          "internalType": "contract WonkaBar",
          "name": "contractWonkaBar",
          "type": "address"
        },
        {
          "internalType": "contract MeltyFiDAO",
          "name": "contractMeltyFiDAO",
          "type": "address"
        }
      ],
      "stateMutability": "nonpayable",
      "type": "constructor"
    },
    {
      "anonymous": false,
      "inputs": [
        {
          "indexed": true,
          "internalType": "address",
          "name": "previousOwner",
          "type": "address"
        },
        {
          "indexed": true,
          "internalType": "address",
          "name": "newOwner",
          "type": "address"
        }
      ],
      "name": "OwnershipTransferred",
      "type": "event"
    },
    {
      "inputs": [],
      "name": "addressChocoChip",
      "outputs": [
        {
          "internalType": "address",
          "name": "",
          "type": "address"
        }
      ],
      "stateMutability": "view",
      "type": "function"
    },
    {
      "inputs": [],
      "name": "addressMeltyFiDAO",
      "outputs": [
        {
          "internalType": "address",
          "name": "",
          "type": "address"
        }
      ],
      "stateMutability": "view",
      "type": "function"
    },
    {
      "inputs": [],
      "name": "addressWonkaBar",
      "outputs": [
        {
          "internalType": "address",
          "name": "",
          "type": "address"
        }
      ],
      "stateMutability": "view",
      "type": "function"
    },
    {
      "inputs": [],
      "name": "owner",
      "outputs": [
        {
          "internalType": "address",
          "name": "",
          "type": "address"
        }
      ],
      "stateMutability": "view",
      "type": "function"
    },
    {
      "inputs": [],
      "name": "renounceOwnership",
      "outputs": [],
      "stateMutability": "nonpayable",
      "type": "function"
    },
    {
      "inputs": [
        {
          "internalType": "address",
          "name": "newOwner",
          "type": "address"
        }
      ],
      "name": "transferOwnership",
      "outputs": [],
      "stateMutability": "nonpayable",
      "type": "function"
    }
  ],
  "bytecode": "0x60e060405234801561001057600080fd5b506040516108ca3803806108ca833981810160405281019061003291906102c1565b61004e6100436100f260201b60201c565b6100fa60201b60201c565b8273ffffffffffffffffffffffffffffffffffffffff1660808173ffffffffffffffffffffffffffffffffffffffff16815250508173ffffffffffffffffffffffffffffffffffffffff1660a08173ffffffffffffffffffffffffffffffffffffffff16815250508073ffffffffffffffffffffffffffffffffffffffff1660c08173ffffffffffffffffffffffffffffffffffffffff1681525050505050610314565b600033905090565b60008060009054906101000a900473ffffffffffffffffffffffffffffffffffffffff169050816000806101000a81548173ffffffffffffffffffffffffffffffffffffffff021916908373ffffffffffffffffffffffffffffffffffffffff1602179055508173ffffffffffffffffffffffffffffffffffffffff168173ffffffffffffffffffffffffffffffffffffffff167f8be0079c531659141344cd1fd0a4f28419497f9722a3daafe3b4186f6b6457e060405160405180910390a35050565b600080fd5b600073ffffffffffffffffffffffffffffffffffffffff82169050919050565b60006101ee826101c3565b9050919050565b6000610200826101e3565b9050919050565b610210816101f5565b811461021b57600080fd5b50565b60008151905061022d81610207565b92915050565b600061023e826101e3565b9050919050565b61024e81610233565b811461025957600080fd5b50565b60008151905061026b81610245565b92915050565b600061027c826101c3565b9050919050565b600061028e82610271565b9050919050565b61029e81610283565b81146102a957600080fd5b50565b6000815190506102bb81610295565b92915050565b6000806000606084860312156102da576102d96101be565b5b60006102e88682870161021e565b93505060206102f98682870161025c565b925050604061030a868287016102ac565b9150509250925092565b60805160a05160c05161058761034360003960006101090152600061016d0152600061014501526105876000f3fe608060405234801561001057600080fd5b50600436106100625760003560e01c806366d74f7d14610067578063715018a614610085578063769d22591461008f57806384100bfe146100ad5780638da5cb5b146100cb578063f2fde38b146100e9575b600080fd5b61006f610105565b60405161007c91906103c9565b60405180910390f35b61008d61012d565b005b610097610141565b6040516100a491906103c9565b60405180910390f35b6100b5610169565b6040516100c291906103c9565b60405180910390f35b6100d3610191565b6040516100e091906103c9565b60405180910390f35b61010360048036038101906100fe9190610415565b6101ba565b005b60007f0000000000000000000000000000000000000000000000000000000000000000905090565b61013561023e565b61013f60006102bc565b565b60007f0000000000000000000000000000000000000000000000000000000000000000905090565b60007f0000000000000000000000000000000000000000000000000000000000000000905090565b60008060009054906101000a900473ffffffffffffffffffffffffffffffffffffffff16905090565b6101c261023e565b600073ffffffffffffffffffffffffffffffffffffffff168173ffffffffffffffffffffffffffffffffffffffff161415610232576040517f08c379a0000000000000000000000000000000000000000000000000000000008152600401610229906104c5565b60405180910390fd5b61023b816102bc565b50565b610246610380565b73ffffffffffffffffffffffffffffffffffffffff16610264610191565b73ffffffffffffffffffffffffffffffffffffffff16146102ba576040517f08c379a00000000000000000000000000000000000000000000000000000000081526004016102b190610531565b60405180910390fd5b565b60008060009054906101000a900473ffffffffffffffffffffffffffffffffffffffff169050816000806101000a81548173ffffffffffffffffffffffffffffffffffffffff021916908373ffffffffffffffffffffffffffffffffffffffff1602179055508173ffffffffffffffffffffffffffffffffffffffff168173ffffffffffffffffffffffffffffffffffffffff167f8be0079c531659141344cd1fd0a4f28419497f9722a3daafe3b4186f6b6457e060405160405180910390a35050565b600033905090565b600073ffffffffffffffffffffffffffffffffffffffff82169050919050565b60006103b382610388565b9050919050565b6103c3816103a8565b82525050565b60006020820190506103de60008301846103ba565b92915050565b600080fd5b6103f2816103a8565b81146103fd57600080fd5b50565b60008135905061040f816103e9565b92915050565b60006020828403121561042b5761042a6103e4565b5b600061043984828501610400565b91505092915050565b600082825260208201905092915050565b7f4f776e61626c653a206e6577206f776e657220697320746865207a65726f206160008201527f6464726573730000000000000000000000000000000000000000000000000000602082015250565b60006104af602683610442565b91506104ba82610453565b604082019050919050565b600060208201905081810360008301526104de816104a2565b9050919050565b7f4f776e61626c653a2063616c6c6572206973206e6f7420746865206f776e6572600082015250565b600061051b602083610442565b9150610526826104e5565b602082019050919050565b6000602082019050818103600083015261054a8161050e565b905091905056fea2646970667358221220021a11be92f7c9a4237649f644533dd3add920abe3fbc3ac3c774b835e7608e964736f6c63430008090033",
  "linkReferences": {},
  "deployedLinkReferences": {}
}