{
  "_format": "hh-sol-artifact-1",
  "contractName": "WonkaBar",
  "sourceName": "contracts/WonkaBar.sol",
  "abi": [
    {
      "inputs": [],
      "stateMutability": "nonpayable",
      "type": "constructor"
    },
    {
      "anonymous": false,
      "inputs": [
        {
          "indexed": true,
          "internalType": "address",
          "name": "account",
          "type": "address"
        },
        {
          "indexed": true,
          "internalType": "address",
          "name": "operator",
          "type": "address"
        },
        {
          "indexed": false,
          "internalType": "bool",
          "name": "approved",
          "type": "bool"
        }
      ],
      "name": "ApprovalForAll",
      "type": "event"
    },
    {
      "anonymous": false,
      "inputs": [
        {
          "indexed": true,
          "internalType": "address",
          "name": "previousOwner",
          "type": "address"
        },
        {
          "indexed": true,
          "internalType": "address",
          "name": "newOwner",
          "type": "address"
        }
      ],
      "name": "OwnershipTransferred",
      "type": "event"
    },
    {
      "anonymous": false,
      "inputs": [
        {
          "indexed": true,
          "internalType": "address",
          "name": "operator",
          "type": "address"
        },
        {
          "indexed": true,
          "internalType": "address",
          "name": "from",
          "type": "address"
        },
        {
          "indexed": true,
          "internalType": "address",
          "name": "to",
          "type": "address"
        },
        {
          "indexed": false,
          "internalType": "uint256[]",
          "name": "ids",
          "type": "uint256[]"
        },
        {
          "indexed": false,
          "internalType": "uint256[]",
          "name": "values",
          "type": "uint256[]"
        }
      ],
      "name": "TransferBatch",
      "type": "event"
    },
    {
      "anonymous": false,
      "inputs": [
        {
          "indexed": true,
          "internalType": "address",
          "name": "operator",
          "type": "address"
        },
        {
          "indexed": true,
          "internalType": "address",
          "name": "from",
          "type": "address"
        },
        {
          "indexed": true,
          "internalType": "address",
          "name": "to",
          "type": "address"
        },
        {
          "indexed": false,
          "internalType": "uint256",
          "name": "id",
          "type": "uint256"
        },
        {
          "indexed": false,
          "internalType": "uint256",
          "name": "value",
          "type": "uint256"
        }
      ],
      "name": "TransferSingle",
      "type": "event"
    },
    {
      "anonymous": false,
      "inputs": [
        {
          "indexed": false,
          "internalType": "string",
          "name": "value",
          "type": "string"
        },
        {
          "indexed": true,
          "internalType": "uint256",
          "name": "id",
          "type": "uint256"
        }
      ],
      "name": "URI",
      "type": "event"
    },
    {
      "inputs": [
        {
          "internalType": "address",
          "name": "account",
          "type": "address"
        },
        {
          "internalType": "uint256",
          "name": "id",
          "type": "uint256"
        }
      ],
      "name": "balanceOf",
      "outputs": [
        {
          "internalType": "uint256",
          "name": "",
          "type": "uint256"
        }
      ],
      "stateMutability": "view",
      "type": "function"
    },
    {
      "inputs": [
        {
          "internalType": "address[]",
          "name": "accounts",
          "type": "address[]"
        },
        {
          "internalType": "uint256[]",
          "name": "ids",
          "type": "uint256[]"
        }
      ],
      "name": "balanceOfBatch",
      "outputs": [
        {
          "internalType": "uint256[]",
          "name": "",
          "type": "uint256[]"
        }
      ],
      "stateMutability": "view",
      "type": "function"
    },
    {
      "inputs": [
        {
          "internalType": "address",
          "name": "account",
          "type": "address"
        },
        {
          "internalType": "uint256",
          "name": "id",
          "type": "uint256"
        },
        {
          "internalType": "uint256",
          "name": "value",
          "type": "uint256"
        }
      ],
      "name": "burn",
      "outputs": [],
      "stateMutability": "nonpayable",
      "type": "function"
    },
    {
      "inputs": [
        {
          "internalType": "address",
          "name": "account",
          "type": "address"
        },
        {
          "internalType": "uint256[]",
          "name": "ids",
          "type": "uint256[]"
        },
        {
          "internalType": "uint256[]",
          "name": "values",
          "type": "uint256[]"
        }
      ],
      "name": "burnBatch",
      "outputs": [],
      "stateMutability": "nonpayable",
      "type": "function"
    },
    {
      "inputs": [
        {
          "internalType": "uint256",
          "name": "id",
          "type": "uint256"
        }
      ],
      "name": "exists",
      "outputs": [
        {
          "internalType": "bool",
          "name": "",
          "type": "bool"
        }
      ],
      "stateMutability": "view",
      "type": "function"
    },
    {
      "inputs": [
        {
          "internalType": "address",
          "name": "account",
          "type": "address"
        },
        {
          "internalType": "address",
          "name": "operator",
          "type": "address"
        }
      ],
      "name": "isApprovedForAll",
      "outputs": [
        {
          "internalType": "bool",
          "name": "",
          "type": "bool"
        }
      ],
      "stateMutability": "view",
      "type": "function"
    },
    {
      "inputs": [
        {
          "internalType": "address",
          "name": "account",
          "type": "address"
        },
        {
          "internalType": "uint256",
          "name": "id",
          "type": "uint256"
        },
        {
          "internalType": "uint256",
          "name": "amount",
          "type": "uint256"
        },
        {
          "internalType": "bytes",
          "name": "data",
          "type": "bytes"
        }
      ],
      "name": "mint",
      "outputs": [],
      "stateMutability": "nonpayable",
      "type": "function"
    },
    {
      "inputs": [
        {
          "internalType": "address",
          "name": "to",
          "type": "address"
        },
        {
          "internalType": "uint256[]",
          "name": "ids",
          "type": "uint256[]"
        },
        {
          "internalType": "uint256[]",
          "name": "amounts",
          "type": "uint256[]"
        },
        {
          "internalType": "bytes",
          "name": "data",
          "type": "bytes"
        }
      ],
      "name": "mintBatch",
      "outputs": [],
      "stateMutability": "nonpayable",
      "type": "function"
    },
    {
      "inputs": [],
      "name": "owner",
      "outputs": [
        {
          "internalType": "address",
          "name": "",
          "type": "address"
        }
      ],
      "stateMutability": "view",
      "type": "function"
    },
    {
      "inputs": [],
      "name": "renounceOwnership",
      "outputs": [],
      "stateMutability": "nonpayable",
      "type": "function"
    },
    {
      "inputs": [
        {
          "internalType": "address",
          "name": "from",
          "type": "address"
        },
        {
          "internalType": "address",
          "name": "to",
          "type": "address"
        },
        {
          "internalType": "uint256[]",
          "name": "ids",
          "type": "uint256[]"
        },
        {
          "internalType": "uint256[]",
          "name": "amounts",
          "type": "uint256[]"
        },
        {
          "internalType": "bytes",
          "name": "data",
          "type": "bytes"
        }
      ],
      "name": "safeBatchTransferFrom",
      "outputs": [],
      "stateMutability": "nonpayable",
      "type": "function"
    },
    {
      "inputs": [
        {
          "internalType": "address",
          "name": "from",
          "type": "address"
        },
        {
          "internalType": "address",
          "name": "to",
          "type": "address"
        },
        {
          "internalType": "uint256",
          "name": "id",
          "type": "uint256"
        },
        {
          "internalType": "uint256",
          "name": "amount",
          "type": "uint256"
        },
        {
          "internalType": "bytes",
          "name": "data",
          "type": "bytes"
        }
      ],
      "name": "safeTransferFrom",
      "outputs": [],
      "stateMutability": "nonpayable",
      "type": "function"
    },
    {
      "inputs": [
        {
          "internalType": "address",
          "name": "operator",
          "type": "address"
        },
        {
          "internalType": "bool",
          "name": "approved",
          "type": "bool"
        }
      ],
      "name": "setApprovalForAll",
      "outputs": [],
      "stateMutability": "nonpayable",
      "type": "function"
    },
    {
      "inputs": [
        {
          "internalType": "string",
          "name": "newuri",
          "type": "string"
        }
      ],
      "name": "setURI",
      "outputs": [],
      "stateMutability": "nonpayable",
      "type": "function"
    },
    {
      "inputs": [
        {
          "internalType": "bytes4",
          "name": "interfaceId",
          "type": "bytes4"
        }
      ],
      "name": "supportsInterface",
      "outputs": [
        {
          "internalType": "bool",
          "name": "",
          "type": "bool"
        }
      ],
      "stateMutability": "view",
      "type": "function"
    },
    {
      "inputs": [
        {
          "internalType": "uint256",
          "name": "id",
          "type": "uint256"
        }
      ],
      "name": "totalSupply",
      "outputs": [
        {
          "internalType": "uint256",
          "name": "",
          "type": "uint256"
        }
      ],
      "stateMutability": "view",
      "type": "function"
    },
    {
      "inputs": [
        {
          "internalType": "address",
          "name": "newOwner",
          "type": "address"
        }
      ],
      "name": "transferOwnership",
      "outputs": [],
      "stateMutability": "nonpayable",
      "type": "function"
    },
    {
      "inputs": [
        {
          "internalType": "uint256",
          "name": "",
          "type": "uint256"
        }
      ],
      "name": "uri",
      "outputs": [
        {
          "internalType": "string",
          "name": "",
          "type": "string"
        }
      ],
      "stateMutability": "view",
      "type": "function"
    }
  ],
  "bytecode": "0x60806040523480156200001157600080fd5b506040518060200160405280600081525062000033816200005a60201b60201c565b5062000054620000486200007660201b60201c565b6200007e60201b60201c565b62000259565b80600290805190602001906200007292919062000144565b5050565b600033905090565b6000600360009054906101000a900473ffffffffffffffffffffffffffffffffffffffff16905081600360006101000a81548173ffffffffffffffffffffffffffffffffffffffff021916908373ffffffffffffffffffffffffffffffffffffffff1602179055508173ffffffffffffffffffffffffffffffffffffffff168173ffffffffffffffffffffffffffffffffffffffff167f8be0079c531659141344cd1fd0a4f28419497f9722a3daafe3b4186f6b6457e060405160405180910390a35050565b828054620001529062000223565b90600052602060002090601f016020900481019282620001765760008555620001c2565b82601f106200019157805160ff1916838001178555620001c2565b82800160010185558215620001c2579182015b82811115620001c1578251825591602001919060010190620001a4565b5b509050620001d19190620001d5565b5090565b5b80821115620001f0576000816000905550600101620001d6565b5090565b7f4e487b7100000000000000000000000000000000000000000000000000000000600052602260045260246000fd5b600060028204905060018216806200023c57607f821691505b60208210811415620002535762000252620001f4565b5b50919050565b613cf280620002696000396000f3fe608060405234801561001057600080fd5b50600436106101155760003560e01c8063715018a6116100a2578063bd85b03911610071578063bd85b039146102da578063e985e9c51461030a578063f242432a1461033a578063f2fde38b14610356578063f5298aca1461037257610115565b8063715018a61461027a578063731133e9146102845780638da5cb5b146102a0578063a22cb465146102be57610115565b80631f7fdffa116100e95780631f7fdffa146101c65780632eb2c2d6146101e25780634e1273f4146101fe5780634f558e791461022e5780636b20c4541461025e57610115565b8062fdd58e1461011a57806301ffc9a71461014a57806302fe53051461017a5780630e89341c14610196575b600080fd5b610134600480360381019061012f91906124e4565b61038e565b6040516101419190612533565b60405180910390f35b610164600480360381019061015f91906125a6565b610457565b60405161017191906125ee565b60405180910390f35b610194600480360381019061018f919061274f565b610539565b005b6101b060048036038101906101ab9190612798565b61054d565b6040516101bd919061284d565b60405180910390f35b6101e060048036038101906101db91906129d8565b6105e1565b005b6101fc60048036038101906101f79190612a93565b6105fb565b005b61021860048036038101906102139190612c25565b61069c565b6040516102259190612d5b565b60405180910390f35b61024860048036038101906102439190612798565b6107b5565b60405161025591906125ee565b60405180910390f35b61027860048036038101906102739190612d7d565b6107c9565b005b610282610866565b005b61029e60048036038101906102999190612e08565b61087a565b005b6102a8610894565b6040516102b59190612e9a565b60405180910390f35b6102d860048036038101906102d39190612ee1565b6108be565b005b6102f460048036038101906102ef9190612798565b6108d4565b6040516103019190612533565b60405180910390f35b610324600480360381019061031f9190612f21565b6108f1565b60405161033191906125ee565b60405180910390f35b610354600480360381019061034f9190612f61565b610985565b005b610370600480360381019061036b9190612ff8565b610a26565b005b61038c60048036038101906103879190613025565b610aaa565b005b60008073ffffffffffffffffffffffffffffffffffffffff168373ffffffffffffffffffffffffffffffffffffffff1614156103ff576040517f08c379a00000000000000000000000000000000000000000000000000000000081526004016103f6906130ea565b60405180910390fd5b60008083815260200190815260200160002060008473ffffffffffffffffffffffffffffffffffffffff1673ffffffffffffffffffffffffffffffffffffffff16815260200190815260200160002054905092915050565b60007fd9b67a26000000000000000000000000000000000000000000000000000000007bffffffffffffffffffffffffffffffffffffffffffffffffffffffff1916827bffffffffffffffffffffffffffffffffffffffffffffffffffffffff1916148061052257507f0e89341c000000000000000000000000000000000000000000000000000000007bffffffffffffffffffffffffffffffffffffffffffffffffffffffff1916827bffffffffffffffffffffffffffffffffffffffffffffffffffffffff1916145b80610532575061053182610b47565b5b9050919050565b610541610bb1565b61054a81610c2f565b50565b60606002805461055c90613139565b80601f016020809104026020016040519081016040528092919081815260200182805461058890613139565b80156105d55780601f106105aa576101008083540402835291602001916105d5565b820191906000526020600020905b8154815290600101906020018083116105b857829003601f168201915b50505050509050919050565b6105e9610bb1565b6105f584848484610c49565b50505050565b610603610e76565b73ffffffffffffffffffffffffffffffffffffffff168573ffffffffffffffffffffffffffffffffffffffff161480610649575061064885610643610e76565b6108f1565b5b610688576040517f08c379a000000000000000000000000000000000000000000000000000000000815260040161067f906131dd565b60405180910390fd5b6106958585858585610e7e565b5050505050565b606081518351146106e2576040517f08c379a00000000000000000000000000000000000000000000000000000000081526004016106d99061326f565b60405180910390fd5b6000835167ffffffffffffffff8111156106ff576106fe612624565b5b60405190808252806020026020018201604052801561072d5781602001602082028036833780820191505090505b50905060005b84518110156107aa5761077a8582815181106107525761075161328f565b5b602002602001015185838151811061076d5761076c61328f565b5b602002602001015161038e565b82828151811061078d5761078c61328f565b5b602002602001018181525050806107a3906132ed565b9050610733565b508091505092915050565b6000806107c1836108d4565b119050919050565b6107d1610e76565b73ffffffffffffffffffffffffffffffffffffffff168373ffffffffffffffffffffffffffffffffffffffff161480610817575061081683610811610e76565b6108f1565b5b610856576040517f08c379a000000000000000000000000000000000000000000000000000000000815260040161084d906131dd565b60405180910390fd5b6108618383836111a0565b505050565b61086e610bb1565b610878600061146f565b565b610882610bb1565b61088e84848484611535565b50505050565b6000600360009054906101000a900473ffffffffffffffffffffffffffffffffffffffff16905090565b6108d06108c9610e76565b83836116e6565b5050565b600060046000838152602001908152602001600020549050919050565b6000600160008473ffffffffffffffffffffffffffffffffffffffff1673ffffffffffffffffffffffffffffffffffffffff16815260200190815260200160002060008373ffffffffffffffffffffffffffffffffffffffff1673ffffffffffffffffffffffffffffffffffffffff16815260200190815260200160002060009054906101000a900460ff16905092915050565b61098d610e76565b73ffffffffffffffffffffffffffffffffffffffff168573ffffffffffffffffffffffffffffffffffffffff1614806109d357506109d2856109cd610e76565b6108f1565b5b610a12576040517f08c379a0000000000000000000000000000000000000000000000000000000008152600401610a09906131dd565b60405180910390fd5b610a1f8585858585611853565b5050505050565b610a2e610bb1565b600073ffffffffffffffffffffffffffffffffffffffff168173ffffffffffffffffffffffffffffffffffffffff161415610a9e576040517f08c379a0000000000000000000000000000000000000000000000000000000008152600401610a95906133a8565b60405180910390fd5b610aa78161146f565b50565b610ab2610e76565b73ffffffffffffffffffffffffffffffffffffffff168373ffffffffffffffffffffffffffffffffffffffff161480610af85750610af783610af2610e76565b6108f1565b5b610b37576040517f08c379a0000000000000000000000000000000000000000000000000000000008152600401610b2e906131dd565b60405180910390fd5b610b42838383611aef565b505050565b60007f01ffc9a7000000000000000000000000000000000000000000000000000000007bffffffffffffffffffffffffffffffffffffffffffffffffffffffff1916827bffffffffffffffffffffffffffffffffffffffffffffffffffffffff1916149050919050565b610bb9610e76565b73ffffffffffffffffffffffffffffffffffffffff16610bd7610894565b73ffffffffffffffffffffffffffffffffffffffff1614610c2d576040517f08c379a0000000000000000000000000000000000000000000000000000000008152600401610c2490613414565b60405180910390fd5b565b8060029080519060200190610c45929190612399565b5050565b600073ffffffffffffffffffffffffffffffffffffffff168473ffffffffffffffffffffffffffffffffffffffff161415610cb9576040517f08c379a0000000000000000000000000000000000000000000000000000000008152600401610cb0906134a6565b60405180910390fd5b8151835114610cfd576040517f08c379a0000000000000000000000000000000000000000000000000000000008152600401610cf490613538565b60405180910390fd5b6000610d07610e76565b9050610d1881600087878787611d36565b60005b8451811015610dd157838181518110610d3757610d3661328f565b5b6020026020010151600080878481518110610d5557610d5461328f565b5b6020026020010151815260200190815260200160002060008873ffffffffffffffffffffffffffffffffffffffff1673ffffffffffffffffffffffffffffffffffffffff1681526020019081526020016000206000828254610db79190613558565b925050819055508080610dc9906132ed565b915050610d1b565b508473ffffffffffffffffffffffffffffffffffffffff16600073ffffffffffffffffffffffffffffffffffffffff168273ffffffffffffffffffffffffffffffffffffffff167f4a39dc06d4c0dbc64b70af90fd698a233a518aa5d07e595d983b8c0526c8f7fb8787604051610e499291906135ae565b60405180910390a4610e6081600087878787611d4c565b610e6f81600087878787611d54565b5050505050565b600033905090565b8151835114610ec2576040517f08c379a0000000000000000000000000000000000000000000000000000000008152600401610eb990613538565b60405180910390fd5b600073ffffffffffffffffffffffffffffffffffffffff168473ffffffffffffffffffffffffffffffffffffffff161415610f32576040517f08c379a0000000000000000000000000000000000000000000000000000000008152600401610f2990613657565b60405180910390fd5b6000610f3c610e76565b9050610f4c818787878787611d36565b60005b84518110156110fd576000858281518110610f6d57610f6c61328f565b5b602002602001015190506000858381518110610f8c57610f8b61328f565b5b60200260200101519050600080600084815260200190815260200160002060008b73ffffffffffffffffffffffffffffffffffffffff1673ffffffffffffffffffffffffffffffffffffffff1681526020019081526020016000205490508181101561102d576040517f08c379a0000000000000000000000000000000000000000000000000000000008152600401611024906136e9565b60405180910390fd5b81810360008085815260200190815260200160002060008c73ffffffffffffffffffffffffffffffffffffffff1673ffffffffffffffffffffffffffffffffffffffff168152602001908152602001600020819055508160008085815260200190815260200160002060008b73ffffffffffffffffffffffffffffffffffffffff1673ffffffffffffffffffffffffffffffffffffffff16815260200190815260200160002060008282546110e29190613558565b92505081905550505050806110f6906132ed565b9050610f4f565b508473ffffffffffffffffffffffffffffffffffffffff168673ffffffffffffffffffffffffffffffffffffffff168273ffffffffffffffffffffffffffffffffffffffff167f4a39dc06d4c0dbc64b70af90fd698a233a518aa5d07e595d983b8c0526c8f7fb87876040516111749291906135ae565b60405180910390a461118a818787878787611d4c565b611198818787878787611d54565b505050505050565b600073ffffffffffffffffffffffffffffffffffffffff168373ffffffffffffffffffffffffffffffffffffffff161415611210576040517f08c379a00000000000000000000000000000000000000000000000000000000081526004016112079061377b565b60405180910390fd5b8051825114611254576040517f08c379a000000000000000000000000000000000000000000000000000000000815260040161124b90613538565b60405180910390fd5b600061125e610e76565b905061127e81856000868660405180602001604052806000815250611d36565b60005b83518110156113cb57600084828151811061129f5761129e61328f565b5b6020026020010151905060008483815181106112be576112bd61328f565b5b60200260200101519050600080600084815260200190815260200160002060008973ffffffffffffffffffffffffffffffffffffffff1673ffffffffffffffffffffffffffffffffffffffff1681526020019081526020016000205490508181101561135f576040517f08c379a00000000000000000000000000000000000000000000000000000000081526004016113569061380d565b60405180910390fd5b81810360008085815260200190815260200160002060008a73ffffffffffffffffffffffffffffffffffffffff1673ffffffffffffffffffffffffffffffffffffffff1681526020019081526020016000208190555050505080806113c3906132ed565b915050611281565b50600073ffffffffffffffffffffffffffffffffffffffff168473ffffffffffffffffffffffffffffffffffffffff168273ffffffffffffffffffffffffffffffffffffffff167f4a39dc06d4c0dbc64b70af90fd698a233a518aa5d07e595d983b8c0526c8f7fb86866040516114439291906135ae565b60405180910390a461146981856000868660405180602001604052806000815250611d4c565b50505050565b6000600360009054906101000a900473ffffffffffffffffffffffffffffffffffffffff16905081600360006101000a81548173ffffffffffffffffffffffffffffffffffffffff021916908373ffffffffffffffffffffffffffffffffffffffff1602179055508173ffffffffffffffffffffffffffffffffffffffff168173ffffffffffffffffffffffffffffffffffffffff167f8be0079c531659141344cd1fd0a4f28419497f9722a3daafe3b4186f6b6457e060405160405180910390a35050565b600073ffffffffffffffffffffffffffffffffffffffff168473ffffffffffffffffffffffffffffffffffffffff1614156115a5576040517f08c379a000000000000000000000000000000000000000000000000000000000815260040161159c906134a6565b60405180910390fd5b60006115af610e76565b905060006115bc85611f3b565b905060006115c985611f3b565b90506115da83600089858589611d36565b8460008088815260200190815260200160002060008973ffffffffffffffffffffffffffffffffffffffff1673ffffffffffffffffffffffffffffffffffffffff16815260200190815260200160002060008282546116399190613558565b925050819055508673ffffffffffffffffffffffffffffffffffffffff16600073ffffffffffffffffffffffffffffffffffffffff168473ffffffffffffffffffffffffffffffffffffffff167fc3d58168c5ae7397731d063d5bbf3d657854427343f4c083240f7aacaa2d0f6289896040516116b792919061382d565b60405180910390a46116ce83600089858589611d4c565b6116dd83600089898989611fb5565b50505050505050565b8173ffffffffffffffffffffffffffffffffffffffff168373ffffffffffffffffffffffffffffffffffffffff161415611755576040517f08c379a000000000000000000000000000000000000000000000000000000000815260040161174c906138c8565b60405180910390fd5b80600160008573ffffffffffffffffffffffffffffffffffffffff1673ffffffffffffffffffffffffffffffffffffffff16815260200190815260200160002060008473ffffffffffffffffffffffffffffffffffffffff1673ffffffffffffffffffffffffffffffffffffffff16815260200190815260200160002060006101000a81548160ff0219169083151502179055508173ffffffffffffffffffffffffffffffffffffffff168373ffffffffffffffffffffffffffffffffffffffff167f17307eab39ab6107e8899845ad3d59bd9653f200f220920489ca2b5937696c318360405161184691906125ee565b60405180910390a3505050565b600073ffffffffffffffffffffffffffffffffffffffff168473ffffffffffffffffffffffffffffffffffffffff1614156118c3576040517f08c379a00000000000000000000000000000000000000000000000000000000081526004016118ba90613657565b60405180910390fd5b60006118cd610e76565b905060006118da85611f3b565b905060006118e785611f3b565b90506118f7838989858589611d36565b600080600088815260200190815260200160002060008a73ffffffffffffffffffffffffffffffffffffffff1673ffffffffffffffffffffffffffffffffffffffff1681526020019081526020016000205490508581101561198e576040517f08c379a0000000000000000000000000000000000000000000000000000000008152600401611985906136e9565b60405180910390fd5b85810360008089815260200190815260200160002060008b73ffffffffffffffffffffffffffffffffffffffff1673ffffffffffffffffffffffffffffffffffffffff168152602001908152602001600020819055508560008089815260200190815260200160002060008a73ffffffffffffffffffffffffffffffffffffffff1673ffffffffffffffffffffffffffffffffffffffff1681526020019081526020016000206000828254611a439190613558565b925050819055508773ffffffffffffffffffffffffffffffffffffffff168973ffffffffffffffffffffffffffffffffffffffff168573ffffffffffffffffffffffffffffffffffffffff167fc3d58168c5ae7397731d063d5bbf3d657854427343f4c083240f7aacaa2d0f628a8a604051611ac092919061382d565b60405180910390a4611ad6848a8a86868a611d4c565b611ae4848a8a8a8a8a611fb5565b505050505050505050565b600073ffffffffffffffffffffffffffffffffffffffff168373ffffffffffffffffffffffffffffffffffffffff161415611b5f576040517f08c379a0000000000000000000000000000000000000000000000000000000008152600401611b569061377b565b60405180910390fd5b6000611b69610e76565b90506000611b7684611f3b565b90506000611b8384611f3b565b9050611ba383876000858560405180602001604052806000815250611d36565b600080600087815260200190815260200160002060008873ffffffffffffffffffffffffffffffffffffffff1673ffffffffffffffffffffffffffffffffffffffff16815260200190815260200160002054905084811015611c3a576040517f08c379a0000000000000000000000000000000000000000000000000000000008152600401611c319061380d565b60405180910390fd5b84810360008088815260200190815260200160002060008973ffffffffffffffffffffffffffffffffffffffff1673ffffffffffffffffffffffffffffffffffffffff16815260200190815260200160002081905550600073ffffffffffffffffffffffffffffffffffffffff168773ffffffffffffffffffffffffffffffffffffffff168573ffffffffffffffffffffffffffffffffffffffff167fc3d58168c5ae7397731d063d5bbf3d657854427343f4c083240f7aacaa2d0f628989604051611d0792919061382d565b60405180910390a4611d2d84886000868660405180602001604052806000815250611d4c565b50505050505050565b611d4486868686868661219c565b505050505050565b505050505050565b611d738473ffffffffffffffffffffffffffffffffffffffff1661236e565b15611f33578373ffffffffffffffffffffffffffffffffffffffff1663bc197c8187878686866040518663ffffffff1660e01b8152600401611db995949392919061393d565b602060405180830381600087803b158015611dd357600080fd5b505af1925050508015611e0457506040513d601f19601f82011682018060405250810190611e0191906139ba565b60015b611eaa57611e106139f4565b806308c379a01415611e6d5750611e25613a16565b80611e305750611e6f565b806040517f08c379a0000000000000000000000000000000000000000000000000000000008152600401611e64919061284d565b60405180910390fd5b505b6040517f08c379a0000000000000000000000000000000000000000000000000000000008152600401611ea190613b1e565b60405180910390fd5b63bc197c8160e01b7bffffffffffffffffffffffffffffffffffffffffffffffffffffffff1916817bffffffffffffffffffffffffffffffffffffffffffffffffffffffff191614611f31576040517f08c379a0000000000000000000000000000000000000000000000000000000008152600401611f2890613bb0565b60405180910390fd5b505b505050505050565b60606000600167ffffffffffffffff811115611f5a57611f59612624565b5b604051908082528060200260200182016040528015611f885781602001602082028036833780820191505090505b5090508281600081518110611fa057611f9f61328f565b5b60200260200101818152505080915050919050565b611fd48473ffffffffffffffffffffffffffffffffffffffff1661236e565b15612194578373ffffffffffffffffffffffffffffffffffffffff1663f23a6e6187878686866040518663ffffffff1660e01b815260040161201a959493929190613bd0565b602060405180830381600087803b15801561203457600080fd5b505af192505050801561206557506040513d601f19601f8201168201806040525081019061206291906139ba565b60015b61210b576120716139f4565b806308c379a014156120ce5750612086613a16565b8061209157506120d0565b806040517f08c379a00000000000000000000000000000000000000000000000000000000081526004016120c5919061284d565b60405180910390fd5b505b6040517f08c379a000000000000000000000000000000000000000000000000000000000815260040161210290613b1e565b60405180910390fd5b63f23a6e6160e01b7bffffffffffffffffffffffffffffffffffffffffffffffffffffffff1916817bffffffffffffffffffffffffffffffffffffffffffffffffffffffff191614612192576040517f08c379a000000000000000000000000000000000000000000000000000000000815260040161218990613bb0565b60405180910390fd5b505b505050505050565b6121aa868686868686612391565b600073ffffffffffffffffffffffffffffffffffffffff168573ffffffffffffffffffffffffffffffffffffffff16141561225c5760005b835181101561225a578281815181106121fe576121fd61328f565b5b60200260200101516004600086848151811061221d5761221c61328f565b5b6020026020010151815260200190815260200160002060008282546122429190613558565b9250508190555080612253906132ed565b90506121e2565b505b600073ffffffffffffffffffffffffffffffffffffffff168473ffffffffffffffffffffffffffffffffffffffff1614156123665760005b83518110156123645760008482815181106122b2576122b161328f565b5b6020026020010151905060008483815181106122d1576122d061328f565b5b6020026020010151905060006004600084815260200190815260200160002054905081811015612336576040517f08c379a000000000000000000000000000000000000000000000000000000000815260040161232d90613c9c565b60405180910390fd5b81810360046000858152602001908152602001600020819055505050508061235d906132ed565b9050612294565b505b505050505050565b6000808273ffffffffffffffffffffffffffffffffffffffff163b119050919050565b505050505050565b8280546123a590613139565b90600052602060002090601f0160209004810192826123c7576000855561240e565b82601f106123e057805160ff191683800117855561240e565b8280016001018555821561240e579182015b8281111561240d5782518255916020019190600101906123f2565b5b50905061241b919061241f565b5090565b5b80821115612438576000816000905550600101612420565b5090565b6000604051905090565b600080fd5b600080fd5b600073ffffffffffffffffffffffffffffffffffffffff82169050919050565b600061247b82612450565b9050919050565b61248b81612470565b811461249657600080fd5b50565b6000813590506124a881612482565b92915050565b6000819050919050565b6124c1816124ae565b81146124cc57600080fd5b50565b6000813590506124de816124b8565b92915050565b600080604083850312156124fb576124fa612446565b5b600061250985828601612499565b925050602061251a858286016124cf565b9150509250929050565b61252d816124ae565b82525050565b60006020820190506125486000830184612524565b92915050565b60007fffffffff0000000000000000000000000000000000000000000000000000000082169050919050565b6125838161254e565b811461258e57600080fd5b50565b6000813590506125a08161257a565b92915050565b6000602082840312156125bc576125bb612446565b5b60006125ca84828501612591565b91505092915050565b60008115159050919050565b6125e8816125d3565b82525050565b600060208201905061260360008301846125df565b92915050565b600080fd5b600080fd5b6000601f19601f8301169050919050565b7f4e487b7100000000000000000000000000000000000000000000000000000000600052604160045260246000fd5b61265c82612613565b810181811067ffffffffffffffff8211171561267b5761267a612624565b5b80604052505050565b600061268e61243c565b905061269a8282612653565b919050565b600067ffffffffffffffff8211156126ba576126b9612624565b5b6126c382612613565b9050602081019050919050565b82818337600083830152505050565b60006126f26126ed8461269f565b612684565b90508281526020810184848401111561270e5761270d61260e565b5b6127198482856126d0565b509392505050565b600082601f83011261273657612735612609565b5b81356127468482602086016126df565b91505092915050565b60006020828403121561276557612764612446565b5b600082013567ffffffffffffffff8111156127835761278261244b565b5b61278f84828501612721565b91505092915050565b6000602082840312156127ae576127ad612446565b5b60006127bc848285016124cf565b91505092915050565b600081519050919050565b600082825260208201905092915050565b60005b838110156127ff5780820151818401526020810190506127e4565b8381111561280e576000848401525b50505050565b600061281f826127c5565b61282981856127d0565b93506128398185602086016127e1565b61284281612613565b840191505092915050565b600060208201905081810360008301526128678184612814565b905092915050565b600067ffffffffffffffff82111561288a57612889612624565b5b602082029050602081019050919050565b600080fd5b60006128b36128ae8461286f565b612684565b905080838252602082019050602084028301858111156128d6576128d561289b565b5b835b818110156128ff57806128eb88826124cf565b8452602084019350506020810190506128d8565b5050509392505050565b600082601f83011261291e5761291d612609565b5b813561292e8482602086016128a0565b91505092915050565b600067ffffffffffffffff82111561295257612951612624565b5b61295b82612613565b9050602081019050919050565b600061297b61297684612937565b612684565b9050828152602081018484840111156129975761299661260e565b5b6129a28482856126d0565b509392505050565b600082601f8301126129bf576129be612609565b5b81356129cf848260208601612968565b91505092915050565b600080600080608085870312156129f2576129f1612446565b5b6000612a0087828801612499565b945050602085013567ffffffffffffffff811115612a2157612a2061244b565b5b612a2d87828801612909565b935050604085013567ffffffffffffffff811115612a4e57612a4d61244b565b5b612a5a87828801612909565b925050606085013567ffffffffffffffff811115612a7b57612a7a61244b565b5b612a87878288016129aa565b91505092959194509250565b600080600080600060a08688031215612aaf57612aae612446565b5b6000612abd88828901612499565b9550506020612ace88828901612499565b945050604086013567ffffffffffffffff811115612aef57612aee61244b565b5b612afb88828901612909565b935050606086013567ffffffffffffffff811115612b1c57612b1b61244b565b5b612b2888828901612909565b925050608086013567ffffffffffffffff811115612b4957612b4861244b565b5b612b55888289016129aa565b9150509295509295909350565b600067ffffffffffffffff821115612b7d57612b7c612624565b5b602082029050602081019050919050565b6000612ba1612b9c84612b62565b612684565b90508083825260208201905060208402830185811115612bc457612bc361289b565b5b835b81811015612bed5780612bd98882612499565b845260208401935050602081019050612bc6565b5050509392505050565b600082601f830112612c0c57612c0b612609565b5b8135612c1c848260208601612b8e565b91505092915050565b60008060408385031215612c3c57612c3b612446565b5b600083013567ffffffffffffffff811115612c5a57612c5961244b565b5b612c6685828601612bf7565b925050602083013567ffffffffffffffff811115612c8757612c8661244b565b5b612c9385828601612909565b9150509250929050565b600081519050919050565b600082825260208201905092915050565b6000819050602082019050919050565b612cd2816124ae565b82525050565b6000612ce48383612cc9565b60208301905092915050565b6000602082019050919050565b6000612d0882612c9d565b612d128185612ca8565b9350612d1d83612cb9565b8060005b83811015612d4e578151612d358882612cd8565b9750612d4083612cf0565b925050600181019050612d21565b5085935050505092915050565b60006020820190508181036000830152612d758184612cfd565b905092915050565b600080600060608486031215612d9657612d95612446565b5b6000612da486828701612499565b935050602084013567ffffffffffffffff811115612dc557612dc461244b565b5b612dd186828701612909565b925050604084013567ffffffffffffffff811115612df257612df161244b565b5b612dfe86828701612909565b9150509250925092565b60008060008060808587031215612e2257612e21612446565b5b6000612e3087828801612499565b9450506020612e41878288016124cf565b9350506040612e52878288016124cf565b925050606085013567ffffffffffffffff811115612e7357612e7261244b565b5b612e7f878288016129aa565b91505092959194509250565b612e9481612470565b82525050565b6000602082019050612eaf6000830184612e8b565b92915050565b612ebe816125d3565b8114612ec957600080fd5b50565b600081359050612edb81612eb5565b92915050565b60008060408385031215612ef857612ef7612446565b5b6000612f0685828601612499565b9250506020612f1785828601612ecc565b9150509250929050565b60008060408385031215612f3857612f37612446565b5b6000612f4685828601612499565b9250506020612f5785828601612499565b9150509250929050565b600080600080600060a08688031215612f7d57612f7c612446565b5b6000612f8b88828901612499565b9550506020612f9c88828901612499565b9450506040612fad888289016124cf565b9350506060612fbe888289016124cf565b925050608086013567ffffffffffffffff811115612fdf57612fde61244b565b5b612feb888289016129aa565b9150509295509295909350565b60006020828403121561300e5761300d612446565b5b600061301c84828501612499565b91505092915050565b60008060006060848603121561303e5761303d612446565b5b600061304c86828701612499565b935050602061305d868287016124cf565b925050604061306e868287016124cf565b9150509250925092565b7f455243313135353a2061646472657373207a65726f206973206e6f742061207660008201527f616c6964206f776e657200000000000000000000000000000000000000000000602082015250565b60006130d4602a836127d0565b91506130df82613078565b604082019050919050565b60006020820190508181036000830152613103816130c7565b9050919050565b7f4e487b7100000000000000000000000000000000000000000000000000000000600052602260045260246000fd5b6000600282049050600182168061315157607f821691505b602082108114156131655761316461310a565b5b50919050565b7f455243313135353a2063616c6c6572206973206e6f7420746f6b656e206f776e60008201527f6572206f7220617070726f766564000000000000000000000000000000000000602082015250565b60006131c7602e836127d0565b91506131d28261316b565b604082019050919050565b600060208201905081810360008301526131f6816131ba565b9050919050565b7f455243313135353a206163636f756e747320616e6420696473206c656e67746860008201527f206d69736d617463680000000000000000000000000000000000000000000000602082015250565b60006132596029836127d0565b9150613264826131fd565b604082019050919050565b600060208201905081810360008301526132888161324c565b9050919050565b7f4e487b7100000000000000000000000000000000000000000000000000000000600052603260045260246000fd5b7f4e487b7100000000000000000000000000000000000000000000000000000000600052601160045260246000fd5b60006132f8826124ae565b91507fffffffffffffffffffffffffffffffffffffffffffffffffffffffffffffffff82141561332b5761332a6132be565b5b600182019050919050565b7f4f776e61626c653a206e6577206f776e657220697320746865207a65726f206160008201527f6464726573730000000000000000000000000000000000000000000000000000602082015250565b60006133926026836127d0565b915061339d82613336565b604082019050919050565b600060208201905081810360008301526133c181613385565b9050919050565b7f4f776e61626c653a2063616c6c6572206973206e6f7420746865206f776e6572600082015250565b60006133fe6020836127d0565b9150613409826133c8565b602082019050919050565b6000602082019050818103600083015261342d816133f1565b9050919050565b7f455243313135353a206d696e7420746f20746865207a65726f2061646472657360008201527f7300000000000000000000000000000000000000000000000000000000000000602082015250565b60006134906021836127d0565b915061349b82613434565b604082019050919050565b600060208201905081810360008301526134bf81613483565b9050919050565b7f455243313135353a2069647320616e6420616d6f756e7473206c656e6774682060008201527f6d69736d61746368000000000000000000000000000000000000000000000000602082015250565b60006135226028836127d0565b915061352d826134c6565b604082019050919050565b6000602082019050818103600083015261355181613515565b9050919050565b6000613563826124ae565b915061356e836124ae565b9250827fffffffffffffffffffffffffffffffffffffffffffffffffffffffffffffffff038211156135a3576135a26132be565b5b828201905092915050565b600060408201905081810360008301526135c88185612cfd565b905081810360208301526135dc8184612cfd565b90509392505050565b7f455243313135353a207472616e7366657220746f20746865207a65726f20616460008201527f6472657373000000000000000000000000000000000000000000000000000000602082015250565b60006136416025836127d0565b915061364c826135e5565b604082019050919050565b6000602082019050818103600083015261367081613634565b9050919050565b7f455243313135353a20696e73756666696369656e742062616c616e636520666f60008201527f72207472616e7366657200000000000000000000000000000000000000000000602082015250565b60006136d3602a836127d0565b91506136de82613677565b604082019050919050565b60006020820190508181036000830152613702816136c6565b9050919050565b7f455243313135353a206275726e2066726f6d20746865207a65726f206164647260008201527f6573730000000000000000000000000000000000000000000000000000000000602082015250565b60006137656023836127d0565b915061377082613709565b604082019050919050565b6000602082019050818103600083015261379481613758565b9050919050565b7f455243313135353a206275726e20616d6f756e7420657863656564732062616c60008201527f616e636500000000000000000000000000000000000000000000000000000000602082015250565b60006137f76024836127d0565b91506138028261379b565b604082019050919050565b60006020820190508181036000830152613826816137ea565b9050919050565b60006040820190506138426000830185612524565b61384f6020830184612524565b9392505050565b7f455243313135353a2073657474696e6720617070726f76616c2073746174757360008201527f20666f722073656c660000000000000000000000000000000000000000000000602082015250565b60006138b26029836127d0565b91506138bd82613856565b604082019050919050565b600060208201905081810360008301526138e1816138a5565b9050919050565b600081519050919050565b600082825260208201905092915050565b600061390f826138e8565b61391981856138f3565b93506139298185602086016127e1565b61393281612613565b840191505092915050565b600060a0820190506139526000830188612e8b565b61395f6020830187612e8b565b81810360408301526139718186612cfd565b905081810360608301526139858185612cfd565b905081810360808301526139998184613904565b90509695505050505050565b6000815190506139b48161257a565b92915050565b6000602082840312156139d0576139cf612446565b5b60006139de848285016139a5565b91505092915050565b60008160e01c9050919050565b600060033d1115613a135760046000803e613a106000516139e7565b90505b90565b600060443d1015613a2657613aa9565b613a2e61243c565b60043d036004823e80513d602482011167ffffffffffffffff82111715613a56575050613aa9565b808201805167ffffffffffffffff811115613a745750505050613aa9565b80602083010160043d038501811115613a91575050505050613aa9565b613aa082602001850186612653565b82955050505050505b90565b7f455243313135353a207472616e7366657220746f206e6f6e2d4552433131353560008201527f526563656976657220696d706c656d656e746572000000000000000000000000602082015250565b6000613b086034836127d0565b9150613b1382613aac565b604082019050919050565b60006020820190508181036000830152613b3781613afb565b9050919050565b7f455243313135353a204552433131353552656365697665722072656a6563746560008201527f6420746f6b656e73000000000000000000000000000000000000000000000000602082015250565b6000613b9a6028836127d0565b9150613ba582613b3e565b604082019050919050565b60006020820190508181036000830152613bc981613b8d565b9050919050565b600060a082019050613be56000830188612e8b565b613bf26020830187612e8b565b613bff6040830186612524565b613c0c6060830185612524565b8181036080830152613c1e8184613904565b90509695505050505050565b7f455243313135353a206275726e20616d6f756e74206578636565647320746f7460008201527f616c537570706c79000000000000000000000000000000000000000000000000602082015250565b6000613c866028836127d0565b9150613c9182613c2a565b604082019050919050565b60006020820190508181036000830152613cb581613c79565b905091905056fea26469706673582212201ab462169cd530afffbbdf74450bc294abe02e4b93f28a25befa220099c9474c64736f6c63430008090033",
  "linkReferences": {},
  "deployedLinkReferences": {}
}