{
  "_format": "hh-sol-artifact-1",
  "contractName": "WonkaBar",
  "sourceName": "contracts/WonkaBar.sol",
  "abi": [
    {
      "inputs": [],
      "stateMutability": "nonpayable",
      "type": "constructor"
    },
    {
      "anonymous": false,
      "inputs": [
        {
          "indexed": true,
          "internalType": "address",
          "name": "account",
          "type": "address"
        },
        {
          "indexed": true,
          "internalType": "address",
          "name": "operator",
          "type": "address"
        },
        {
          "indexed": false,
          "internalType": "bool",
          "name": "approved",
          "type": "bool"
        }
      ],
      "name": "ApprovalForAll",
      "type": "event"
    },
    {
      "anonymous": false,
      "inputs": [
        {
          "indexed": true,
          "internalType": "address",
          "name": "previousOwner",
          "type": "address"
        },
        {
          "indexed": true,
          "internalType": "address",
          "name": "newOwner",
          "type": "address"
        }
      ],
      "name": "OwnershipTransferred",
      "type": "event"
    },
    {
      "anonymous": false,
      "inputs": [
        {
          "indexed": true,
          "internalType": "address",
          "name": "operator",
          "type": "address"
        },
        {
          "indexed": true,
          "internalType": "address",
          "name": "from",
          "type": "address"
        },
        {
          "indexed": true,
          "internalType": "address",
          "name": "to",
          "type": "address"
        },
        {
          "indexed": false,
          "internalType": "uint256[]",
          "name": "ids",
          "type": "uint256[]"
        },
        {
          "indexed": false,
          "internalType": "uint256[]",
          "name": "values",
          "type": "uint256[]"
        }
      ],
      "name": "TransferBatch",
      "type": "event"
    },
    {
      "anonymous": false,
      "inputs": [
        {
          "indexed": true,
          "internalType": "address",
          "name": "operator",
          "type": "address"
        },
        {
          "indexed": true,
          "internalType": "address",
          "name": "from",
          "type": "address"
        },
        {
          "indexed": true,
          "internalType": "address",
          "name": "to",
          "type": "address"
        },
        {
          "indexed": false,
          "internalType": "uint256",
          "name": "id",
          "type": "uint256"
        },
        {
          "indexed": false,
          "internalType": "uint256",
          "name": "value",
          "type": "uint256"
        }
      ],
      "name": "TransferSingle",
      "type": "event"
    },
    {
      "anonymous": false,
      "inputs": [
        {
          "indexed": false,
          "internalType": "string",
          "name": "value",
          "type": "string"
        },
        {
          "indexed": true,
          "internalType": "uint256",
          "name": "id",
          "type": "uint256"
        }
      ],
      "name": "URI",
      "type": "event"
    },
    {
      "inputs": [
        {
          "internalType": "address",
          "name": "account",
          "type": "address"
        },
        {
          "internalType": "uint256",
          "name": "id",
          "type": "uint256"
        }
      ],
      "name": "balanceOf",
      "outputs": [
        {
          "internalType": "uint256",
          "name": "",
          "type": "uint256"
        }
      ],
      "stateMutability": "view",
      "type": "function"
    },
    {
      "inputs": [
        {
          "internalType": "address[]",
          "name": "accounts",
          "type": "address[]"
        },
        {
          "internalType": "uint256[]",
          "name": "ids",
          "type": "uint256[]"
        }
      ],
      "name": "balanceOfBatch",
      "outputs": [
        {
          "internalType": "uint256[]",
          "name": "",
          "type": "uint256[]"
        }
      ],
      "stateMutability": "view",
      "type": "function"
    },
    {
      "inputs": [
        {
          "internalType": "address",
          "name": "from",
          "type": "address"
        },
        {
          "internalType": "uint256",
          "name": "id",
          "type": "uint256"
        },
        {
          "internalType": "uint256",
          "name": "amount",
          "type": "uint256"
        }
      ],
      "name": "burn",
      "outputs": [],
      "stateMutability": "nonpayable",
      "type": "function"
    },
    {
      "inputs": [
        {
          "internalType": "address",
          "name": "from",
          "type": "address"
        },
        {
          "internalType": "uint256[]",
          "name": "ids",
          "type": "uint256[]"
        },
        {
          "internalType": "uint256[]",
          "name": "amounts",
          "type": "uint256[]"
        }
      ],
      "name": "burnBatch",
      "outputs": [],
      "stateMutability": "nonpayable",
      "type": "function"
    },
    {
      "inputs": [
        {
          "internalType": "uint256",
          "name": "id",
          "type": "uint256"
        }
      ],
      "name": "exists",
      "outputs": [
        {
          "internalType": "bool",
          "name": "",
          "type": "bool"
        }
      ],
      "stateMutability": "view",
      "type": "function"
    },
    {
      "inputs": [
        {
          "internalType": "address",
          "name": "account",
          "type": "address"
        },
        {
          "internalType": "address",
          "name": "operator",
          "type": "address"
        }
      ],
      "name": "isApprovedForAll",
      "outputs": [
        {
          "internalType": "bool",
          "name": "",
          "type": "bool"
        }
      ],
      "stateMutability": "view",
      "type": "function"
    },
    {
      "inputs": [
        {
          "internalType": "address",
          "name": "account",
          "type": "address"
        },
        {
          "internalType": "uint256",
          "name": "id",
          "type": "uint256"
        },
        {
          "internalType": "uint256",
          "name": "amount",
          "type": "uint256"
        },
        {
          "internalType": "bytes",
          "name": "data",
          "type": "bytes"
        }
      ],
      "name": "mint",
      "outputs": [],
      "stateMutability": "nonpayable",
      "type": "function"
    },
    {
      "inputs": [
        {
          "internalType": "address",
          "name": "to",
          "type": "address"
        },
        {
          "internalType": "uint256[]",
          "name": "ids",
          "type": "uint256[]"
        },
        {
          "internalType": "uint256[]",
          "name": "amounts",
          "type": "uint256[]"
        },
        {
          "internalType": "bytes",
          "name": "data",
          "type": "bytes"
        }
      ],
      "name": "mintBatch",
      "outputs": [],
      "stateMutability": "nonpayable",
      "type": "function"
    },
    {
      "inputs": [],
      "name": "owner",
      "outputs": [
        {
          "internalType": "address",
          "name": "",
          "type": "address"
        }
      ],
      "stateMutability": "view",
      "type": "function"
    },
    {
      "inputs": [],
      "name": "renounceOwnership",
      "outputs": [],
      "stateMutability": "nonpayable",
      "type": "function"
    },
    {
      "inputs": [
        {
          "internalType": "address",
          "name": "from",
          "type": "address"
        },
        {
          "internalType": "address",
          "name": "to",
          "type": "address"
        },
        {
          "internalType": "uint256[]",
          "name": "ids",
          "type": "uint256[]"
        },
        {
          "internalType": "uint256[]",
          "name": "amounts",
          "type": "uint256[]"
        },
        {
          "internalType": "bytes",
          "name": "data",
          "type": "bytes"
        }
      ],
      "name": "safeBatchTransferFrom",
      "outputs": [],
      "stateMutability": "nonpayable",
      "type": "function"
    },
    {
      "inputs": [
        {
          "internalType": "address",
          "name": "from",
          "type": "address"
        },
        {
          "internalType": "address",
          "name": "to",
          "type": "address"
        },
        {
          "internalType": "uint256",
          "name": "id",
          "type": "uint256"
        },
        {
          "internalType": "uint256",
          "name": "amount",
          "type": "uint256"
        },
        {
          "internalType": "bytes",
          "name": "data",
          "type": "bytes"
        }
      ],
      "name": "safeTransferFrom",
      "outputs": [],
      "stateMutability": "nonpayable",
      "type": "function"
    },
    {
      "inputs": [
        {
          "internalType": "address",
          "name": "operator",
          "type": "address"
        },
        {
          "internalType": "bool",
          "name": "approved",
          "type": "bool"
        }
      ],
      "name": "setApprovalForAll",
      "outputs": [],
      "stateMutability": "nonpayable",
      "type": "function"
    },
    {
      "inputs": [
        {
          "internalType": "string",
          "name": "newuri",
          "type": "string"
        }
      ],
      "name": "setURI",
      "outputs": [],
      "stateMutability": "nonpayable",
      "type": "function"
    },
    {
      "inputs": [
        {
          "internalType": "bytes4",
          "name": "interfaceId",
          "type": "bytes4"
        }
      ],
      "name": "supportsInterface",
      "outputs": [
        {
          "internalType": "bool",
          "name": "",
          "type": "bool"
        }
      ],
      "stateMutability": "view",
      "type": "function"
    },
    {
      "inputs": [
        {
          "internalType": "uint256",
          "name": "id",
          "type": "uint256"
        }
      ],
      "name": "totalSupply",
      "outputs": [
        {
          "internalType": "uint256",
          "name": "",
          "type": "uint256"
        }
      ],
      "stateMutability": "view",
      "type": "function"
    },
    {
      "inputs": [
        {
          "internalType": "address",
          "name": "newOwner",
          "type": "address"
        }
      ],
      "name": "transferOwnership",
      "outputs": [],
      "stateMutability": "nonpayable",
      "type": "function"
    },
    {
      "inputs": [
        {
          "internalType": "uint256",
          "name": "",
          "type": "uint256"
        }
      ],
      "name": "uri",
      "outputs": [
        {
          "internalType": "string",
          "name": "",
          "type": "string"
        }
      ],
      "stateMutability": "view",
      "type": "function"
    }
  ],
  "bytecode": "0x60806040523480156200001157600080fd5b506040805160208101909152600081526200002c816200003e565b50620000383362000057565b6200018c565b805162000053906002906020840190620000a9565b5050565b600380546001600160a01b038381166001600160a01b0319831681179093556040519116919082907f8be0079c531659141344cd1fd0a4f28419497f9722a3daafe3b4186f6b6457e090600090a35050565b828054620000b7906200014f565b90600052602060002090601f016020900481019282620000db576000855562000126565b82601f10620000f657805160ff191683800117855562000126565b8280016001018555821562000126579182015b828111156200012657825182559160200191906001019062000109565b506200013492915062000138565b5090565b5b8082111562000134576000815560010162000139565b600181811c908216806200016457607f821691505b602082108114156200018657634e487b7160e01b600052602260045260246000fd5b50919050565b6120c7806200019c6000396000f3fe608060405234801561001057600080fd5b50600436106101155760003560e01c8063715018a6116100a2578063bd85b03911610071578063bd85b0391461025c578063e985e9c51461027c578063f242432a146102b8578063f2fde38b146102cb578063f5298aca146102de57600080fd5b8063715018a614610213578063731133e91461021b5780638da5cb5b1461022e578063a22cb4651461024957600080fd5b80631f7fdffa116100e95780631f7fdffa146101985780632eb2c2d6146101ab5780634e1273f4146101be5780634f558e79146101de5780636b20c4541461020057600080fd5b8062fdd58e1461011a57806301ffc9a71461014057806302fe5305146101635780630e89341c14610178575b600080fd5b61012d610128366004611563565b6102f1565b6040519081526020015b60405180910390f35b61015361014e3660046115a3565b610387565b6040519015158152602001610137565b610176610171366004611668565b6103d9565b005b61018b6101863660046116b9565b6103ed565b604051610137919061171f565b6101766101a63660046117e7565b610481565b6101766101b9366004611880565b61049b565b6101d16101cc36600461192a565b6104e7565b6040516101379190611a30565b6101536101ec3660046116b9565b600090815260046020526040902054151590565b61017661020e366004611a43565b610611565b610176610629565b610176610229366004611ab7565b61063d565b6003546040516001600160a01b039091168152602001610137565b610176610257366004611b0c565b610651565b61012d61026a3660046116b9565b60009081526004602052604090205490565b61015361028a366004611b48565b6001600160a01b03918216600090815260016020908152604080832093909416825291909152205460ff1690565b6101766102c6366004611b7b565b610660565b6101766102d9366004611be0565b6106a5565b6101766102ec366004611bfb565b61071b565b60006001600160a01b0383166103615760405162461bcd60e51b815260206004820152602a60248201527f455243313135353a2061646472657373207a65726f206973206e6f742061207660448201526930b634b21037bbb732b960b11b60648201526084015b60405180910390fd5b506000908152602081815260408083206001600160a01b03949094168352929052205490565b60006001600160e01b03198216636cdb3d1360e11b14806103b857506001600160e01b031982166303a24d0760e21b145b806103d357506301ffc9a760e01b6001600160e01b03198316145b92915050565b6103e161072e565b6103ea81610788565b50565b6060600280546103fc90611c2e565b80601f016020809104026020016040519081016040528092919081815260200182805461042890611c2e565b80156104755780601f1061044a57610100808354040283529160200191610475565b820191906000526020600020905b81548152906001019060200180831161045857829003601f168201915b50505050509050919050565b61048961072e565b6104958484848461079b565b50505050565b6001600160a01b0385163314806104b757506104b7853361028a565b6104d35760405162461bcd60e51b815260040161035890611c69565b6104e085858585856108f5565b5050505050565b6060815183511461054c5760405162461bcd60e51b815260206004820152602960248201527f455243313135353a206163636f756e747320616e6420696473206c656e677468604482015268040dad2e6dac2e8c6d60bb1b6064820152608401610358565b6000835167ffffffffffffffff811115610568576105686115c7565b604051908082528060200260200182016040528015610591578160200160208202803683370190505b50905060005b8451811015610609576105dc8582815181106105b5576105b5611cb7565b60200260200101518583815181106105cf576105cf611cb7565b60200260200101516102f1565b8282815181106105ee576105ee611cb7565b602090810291909101015261060281611ce3565b9050610597565b509392505050565b61061961072e565b610624838383610a9f565b505050565b61063161072e565b61063b6000610c3b565b565b61064561072e565b61049584848484610c8d565b61065c338383610d76565b5050565b6001600160a01b03851633148061067c575061067c853361028a565b6106985760405162461bcd60e51b815260040161035890611c69565b6104e08585858585610e57565b6106ad61072e565b6001600160a01b0381166107125760405162461bcd60e51b815260206004820152602660248201527f4f776e61626c653a206e6577206f776e657220697320746865207a65726f206160448201526564647265737360d01b6064820152608401610358565b6103ea81610c3b565b61072361072e565b610624838383610f8f565b6003546001600160a01b0316331461063b5760405162461bcd60e51b815260206004820181905260248201527f4f776e61626c653a2063616c6c6572206973206e6f7420746865206f776e65726044820152606401610358565b805161065c9060029060208401906114ae565b6001600160a01b0384166107c15760405162461bcd60e51b815260040161035890611cfe565b81518351146107e25760405162461bcd60e51b815260040161035890611d3f565b336107f2816000878787876110a7565b60005b845181101561088d5783818151811061081057610810611cb7565b602002602001015160008087848151811061082d5761082d611cb7565b602002602001015181526020019081526020016000206000886001600160a01b03166001600160a01b0316815260200190815260200160002060008282546108759190611d87565b9091555081905061088581611ce3565b9150506107f5565b50846001600160a01b031660006001600160a01b0316826001600160a01b03167f4a39dc06d4c0dbc64b70af90fd698a233a518aa5d07e595d983b8c0526c8f7fb87876040516108de929190611d9f565b60405180910390a46104e0816000878787876110b5565b81518351146109165760405162461bcd60e51b815260040161035890611d3f565b6001600160a01b03841661093c5760405162461bcd60e51b815260040161035890611dcd565b3361094b8187878787876110a7565b60005b8451811015610a3157600085828151811061096b5761096b611cb7565b60200260200101519050600085838151811061098957610989611cb7565b602090810291909101810151600084815280835260408082206001600160a01b038e1683529093529190912054909150818110156109d95760405162461bcd60e51b815260040161035890611e12565b6000838152602081815260408083206001600160a01b038e8116855292528083208585039055908b16825281208054849290610a16908490611d87565b9250508190555050505080610a2a90611ce3565b905061094e565b50846001600160a01b0316866001600160a01b0316826001600160a01b03167f4a39dc06d4c0dbc64b70af90fd698a233a518aa5d07e595d983b8c0526c8f7fb8787604051610a81929190611d9f565b60405180910390a4610a978187878787876110b5565b505050505050565b6001600160a01b038316610ac55760405162461bcd60e51b815260040161035890611e5c565b8051825114610ae65760405162461bcd60e51b815260040161035890611d3f565b6000339050610b09818560008686604051806020016040528060008152506110a7565b60005b8351811015610bce576000848281518110610b2957610b29611cb7565b602002602001015190506000848381518110610b4757610b47611cb7565b602090810291909101810151600084815280835260408082206001600160a01b038c168352909352919091205490915081811015610b975760405162461bcd60e51b815260040161035890611e9f565b6000928352602083815260408085206001600160a01b038b1686529091529092209103905580610bc681611ce3565b915050610b0c565b5060006001600160a01b0316846001600160a01b0316826001600160a01b03167f4a39dc06d4c0dbc64b70af90fd698a233a518aa5d07e595d983b8c0526c8f7fb8686604051610c1f929190611d9f565b60405180910390a4604080516020810190915260009052610495565b600380546001600160a01b038381166001600160a01b0319831681179093556040519116919082907f8be0079c531659141344cd1fd0a4f28419497f9722a3daafe3b4186f6b6457e090600090a35050565b6001600160a01b038416610cb35760405162461bcd60e51b815260040161035890611cfe565b336000610cbf85611220565b90506000610ccc85611220565b9050610cdd836000898585896110a7565b6000868152602081815260408083206001600160a01b038b16845290915281208054879290610d0d908490611d87565b909155505060408051878152602081018790526001600160a01b03808a1692600092918716917fc3d58168c5ae7397731d063d5bbf3d657854427343f4c083240f7aacaa2d0f62910160405180910390a4610d6d8360008989898961126b565b50505050505050565b816001600160a01b0316836001600160a01b03161415610dea5760405162461bcd60e51b815260206004820152602960248201527f455243313135353a2073657474696e6720617070726f76616c20737461747573604482015268103337b91039b2b63360b91b6064820152608401610358565b6001600160a01b03838116600081815260016020908152604080832094871680845294825291829020805460ff191686151590811790915591519182527f17307eab39ab6107e8899845ad3d59bd9653f200f220920489ca2b5937696c31910160405180910390a3505050565b6001600160a01b038416610e7d5760405162461bcd60e51b815260040161035890611dcd565b336000610e8985611220565b90506000610e9685611220565b9050610ea68389898585896110a7565b6000868152602081815260408083206001600160a01b038c16845290915290205485811015610ee75760405162461bcd60e51b815260040161035890611e12565b6000878152602081815260408083206001600160a01b038d8116855292528083208985039055908a16825281208054889290610f24908490611d87565b909155505060408051888152602081018890526001600160a01b03808b16928c821692918816917fc3d58168c5ae7397731d063d5bbf3d657854427343f4c083240f7aacaa2d0f62910160405180910390a4610f84848a8a8a8a8a61126b565b505050505050505050565b6001600160a01b038316610fb55760405162461bcd60e51b815260040161035890611e5c565b336000610fc184611220565b90506000610fce84611220565b9050610fee838760008585604051806020016040528060008152506110a7565b6000858152602081815260408083206001600160a01b038a1684529091529020548481101561102f5760405162461bcd60e51b815260040161035890611e9f565b6000868152602081815260408083206001600160a01b038b81168086529184528285208a8703905582518b81529384018a90529092908816917fc3d58168c5ae7397731d063d5bbf3d657854427343f4c083240f7aacaa2d0f62910160405180910390a4604080516020810190915260009052610d6d565b610a97868686868686611335565b6001600160a01b0384163b15610a975760405163bc197c8160e01b81526001600160a01b0385169063bc197c81906110f99089908990889088908890600401611ee3565b602060405180830381600087803b15801561111357600080fd5b505af1925050508015611143575060408051601f3d908101601f1916820190925261114091810190611f41565b60015b6111f05761114f611f5e565b806308c379a014156111895750611164611f7a565b8061116f575061118b565b8060405162461bcd60e51b8152600401610358919061171f565b505b60405162461bcd60e51b815260206004820152603460248201527f455243313135353a207472616e7366657220746f206e6f6e2d455243313135356044820152732932b1b2b4bb32b91034b6b83632b6b2b73a32b960611b6064820152608401610358565b6001600160e01b0319811663bc197c8160e01b14610d6d5760405162461bcd60e51b815260040161035890612004565b6040805160018082528183019092526060916000919060208083019080368337019050509050828160008151811061125a5761125a611cb7565b602090810291909101015292915050565b6001600160a01b0384163b15610a975760405163f23a6e6160e01b81526001600160a01b0385169063f23a6e61906112af908990899088908890889060040161204c565b602060405180830381600087803b1580156112c957600080fd5b505af19250505080156112f9575060408051601f3d908101601f191682019092526112f691810190611f41565b60015b6113055761114f611f5e565b6001600160e01b0319811663f23a6e6160e01b14610d6d5760405162461bcd60e51b815260040161035890612004565b6001600160a01b0385166113bc5760005b83518110156113ba5782818151811061136157611361611cb7565b60200260200101516004600086848151811061137f5761137f611cb7565b6020026020010151815260200190815260200160002060008282546113a49190611d87565b909155506113b3905081611ce3565b9050611346565b505b6001600160a01b038416610a975760005b8351811015610d6d5760008482815181106113ea576113ea611cb7565b60200260200101519050600084838151811061140857611408611cb7565b602002602001015190506000600460008481526020019081526020016000205490508181101561148b5760405162461bcd60e51b815260206004820152602860248201527f455243313135353a206275726e20616d6f756e74206578636565647320746f74604482015267616c537570706c7960c01b6064820152608401610358565b600092835260046020526040909220910390556114a781611ce3565b90506113cd565b8280546114ba90611c2e565b90600052602060002090601f0160209004810192826114dc5760008555611522565b82601f106114f557805160ff1916838001178555611522565b82800160010185558215611522579182015b82811115611522578251825591602001919060010190611507565b5061152e929150611532565b5090565b5b8082111561152e5760008155600101611533565b80356001600160a01b038116811461155e57600080fd5b919050565b6000806040838503121561157657600080fd5b61157f83611547565b946020939093013593505050565b6001600160e01b0319811681146103ea57600080fd5b6000602082840312156115b557600080fd5b81356115c08161158d565b9392505050565b634e487b7160e01b600052604160045260246000fd5b601f8201601f1916810167ffffffffffffffff81118282101715611603576116036115c7565b6040525050565b600067ffffffffffffffff831115611624576116246115c7565b60405161163b601f8501601f1916602001826115dd565b80915083815284848401111561165057600080fd5b83836020830137600060208583010152509392505050565b60006020828403121561167a57600080fd5b813567ffffffffffffffff81111561169157600080fd5b8201601f810184136116a257600080fd5b6116b18482356020840161160a565b949350505050565b6000602082840312156116cb57600080fd5b5035919050565b6000815180845260005b818110156116f8576020818501810151868301820152016116dc565b8181111561170a576000602083870101525b50601f01601f19169290920160200192915050565b6020815260006115c060208301846116d2565b600067ffffffffffffffff82111561174c5761174c6115c7565b5060051b60200190565b600082601f83011261176757600080fd5b8135602061177482611732565b60405161178182826115dd565b83815260059390931b85018201928281019150868411156117a157600080fd5b8286015b848110156117bc57803583529183019183016117a5565b509695505050505050565b600082601f8301126117d857600080fd5b6115c08383356020850161160a565b600080600080608085870312156117fd57600080fd5b61180685611547565b9350602085013567ffffffffffffffff8082111561182357600080fd5b61182f88838901611756565b9450604087013591508082111561184557600080fd5b61185188838901611756565b9350606087013591508082111561186757600080fd5b50611874878288016117c7565b91505092959194509250565b600080600080600060a0868803121561189857600080fd5b6118a186611547565b94506118af60208701611547565b9350604086013567ffffffffffffffff808211156118cc57600080fd5b6118d889838a01611756565b945060608801359150808211156118ee57600080fd5b6118fa89838a01611756565b9350608088013591508082111561191057600080fd5b5061191d888289016117c7565b9150509295509295909350565b6000806040838503121561193d57600080fd5b823567ffffffffffffffff8082111561195557600080fd5b818501915085601f83011261196957600080fd5b8135602061197682611732565b60405161198382826115dd565b83815260059390931b85018201928281019150898411156119a357600080fd5b948201945b838610156119c8576119b986611547565b825294820194908201906119a8565b965050860135925050808211156119de57600080fd5b506119eb85828601611756565b9150509250929050565b600081518084526020808501945080840160005b83811015611a2557815187529582019590820190600101611a09565b509495945050505050565b6020815260006115c060208301846119f5565b600080600060608486031215611a5857600080fd5b611a6184611547565b9250602084013567ffffffffffffffff80821115611a7e57600080fd5b611a8a87838801611756565b93506040860135915080821115611aa057600080fd5b50611aad86828701611756565b9150509250925092565b60008060008060808587031215611acd57600080fd5b611ad685611547565b93506020850135925060408501359150606085013567ffffffffffffffff811115611b0057600080fd5b611874878288016117c7565b60008060408385031215611b1f57600080fd5b611b2883611547565b915060208301358015158114611b3d57600080fd5b809150509250929050565b60008060408385031215611b5b57600080fd5b611b6483611547565b9150611b7260208401611547565b90509250929050565b600080600080600060a08688031215611b9357600080fd5b611b9c86611547565b9450611baa60208701611547565b93506040860135925060608601359150608086013567ffffffffffffffff811115611bd457600080fd5b61191d888289016117c7565b600060208284031215611bf257600080fd5b6115c082611547565b600080600060608486031215611c1057600080fd5b611c1984611547565b95602085013595506040909401359392505050565b600181811c90821680611c4257607f821691505b60208210811415611c6357634e487b7160e01b600052602260045260246000fd5b50919050565b6020808252602e908201527f455243313135353a2063616c6c6572206973206e6f7420746f6b656e206f776e60408201526d195c881bdc88185c1c1c9bdd995960921b606082015260800190565b634e487b7160e01b600052603260045260246000fd5b634e487b7160e01b600052601160045260246000fd5b6000600019821415611cf757611cf7611ccd565b5060010190565b60208082526021908201527f455243313135353a206d696e7420746f20746865207a65726f206164647265736040820152607360f81b606082015260800190565b60208082526028908201527f455243313135353a2069647320616e6420616d6f756e7473206c656e677468206040820152670dad2e6dac2e8c6d60c31b606082015260800190565b60008219821115611d9a57611d9a611ccd565b500190565b604081526000611db260408301856119f5565b8281036020840152611dc481856119f5565b95945050505050565b60208082526025908201527f455243313135353a207472616e7366657220746f20746865207a65726f206164604082015264647265737360d81b606082015260800190565b6020808252602a908201527f455243313135353a20696e73756666696369656e742062616c616e636520666f60408201526939103a3930b739b332b960b11b606082015260800190565b60208082526023908201527f455243313135353a206275726e2066726f6d20746865207a65726f206164647260408201526265737360e81b606082015260800190565b60208082526024908201527f455243313135353a206275726e20616d6f756e7420657863656564732062616c604082015263616e636560e01b606082015260800190565b6001600160a01b0386811682528516602082015260a060408201819052600090611f0f908301866119f5565b8281036060840152611f2181866119f5565b90508281036080840152611f3581856116d2565b98975050505050505050565b600060208284031215611f5357600080fd5b81516115c08161158d565b600060033d1115611f775760046000803e5060005160e01c5b90565b600060443d1015611f885790565b6040516003193d81016004833e81513d67ffffffffffffffff8160248401118184111715611fb857505050505090565b8285019150815181811115611fd05750505050505090565b843d8701016020828501011115611fea5750505050505090565b611ff9602082860101876115dd565b509095945050505050565b60208082526028908201527f455243313135353a204552433131353552656365697665722072656a656374656040820152676420746f6b656e7360c01b606082015260800190565b6001600160a01b03868116825285166020820152604081018490526060810183905260a060808201819052600090612086908301846116d2565b97965050505050505056fea26469706673582212201e4e656f79144a5bde303931180202c708c99a134a0f0c901e2bb1a4a23c7f7c64736f6c63430008090033",
  "linkReferences": {},
  "deployedLinkReferences": {}
}